{
  "abi": [
    {
      "inputs": [
        {
          "internalType": "uint256",
          "name": "spellEntityID",
          "type": "uint256"
        },
        {
          "internalType": "uint256",
          "name": "sourceEntityID",
          "type": "uint256"
        },
        {
          "internalType": "uint256",
          "name": "targetEntityID",
          "type": "uint256"
        }
      ],
      "name": "castSpell",
      "outputs": [],
      "stateMutability": "nonpayable",
      "type": "function"
    }
  ],
  "bytecode": {
    "object": "0x608060405234801561001057600080fd5b5061124e806100206000396000f3fe608060405234801561001057600080fd5b506004361061002b5760003560e01c8063031de19314610030575b600080fd5b61004361003e366004610da9565b610045565b005b60008060005b60038201548110156101ba57600082600301828154811061006e5761006e610dd5565b600091825260208220015460405133602482015282357fffffffff0000000000000000000000000000000000000000000000000000000016604482015273ffffffffffffffffffffffffffffffffffffffff90911692506101739083907fab08703700000000000000000000000000000000000000000000000000000000906064015b604080517fffffffffffffffffffffffffffffffffffffffffffffffffffffffffffffffe08184030181529190526020810180517bffffffffffffffffffffffffffffffffffffffffffffffffffffffff167fffffffff000000000000000000000000000000000000000000000000000000009093169290921790915261098d565b905060008180602001905181019061018b9190610e04565b905080156101a457600285015550600193506101ba9050565b50505080806101b290610e1d565b91505061004b565b50816101c857600060028201555b6001546040517f4f27da180000000000000000000000000000000000000000000000000000000081527f8fc3b4778e46ddadd80f8f9f9a32aeaae5f05981385912acb7ead459447fa55e600482015260009173ffffffffffffffffffffffffffffffffffffffff1690634f27da1890602401602060405180830381865afa158015610257573d6000803e3d6000fd5b505050506040513d601f19601f8201168201806040525081019061027b9190610e7c565b6001546040517f4f27da180000000000000000000000000000000000000000000000000000000081527f89ec2bcf380cbef712db0a97c10ddf79a760b2f0852abd97c1a5a21d749255cc600482015291925060009173ffffffffffffffffffffffffffffffffffffffff90911690634f27da1890602401602060405180830381865afa15801561030f573d6000803e3d6000fd5b505050506040513d601f19601f820116820180604052508101906103339190610e7c565b6001546040517f4f27da180000000000000000000000000000000000000000000000000000000081527f0187e81a3a92b0d0cbf329dd843ad56df485cc23bd1186a3b42cddf2138015a3600482015291925060009173ffffffffffffffffffffffffffffffffffffffff90911690634f27da1890602401602060405180830381865afa1580156103c7573d6000803e3d6000fd5b505050506040513d601f19601f820116820180604052508101906103eb9190610e7c565b6040517fcccf7a8e000000000000000000000000000000000000000000000000000000008152600481018a905290915073ffffffffffffffffffffffffffffffffffffffff84169063cccf7a8e90602401602060405180830381865afa158015610459573d6000803e3d6000fd5b505050506040513d601f19601f8201168201806040525081019061047d9190610eb9565b6104e8576040517f08c379a000000000000000000000000000000000000000000000000000000000815260206004820152601360248201527f5370656c6c20646f65736e27742065786973740000000000000000000000000060448201526064015b60405180910390fd5b6040517f0ff4c9160000000000000000000000000000000000000000000000000000000081526004810189905260009073ffffffffffffffffffffffffffffffffffffffff851690630ff4c916906024016040805180830381865afa158015610555573d6000803e3d6000fd5b505050506040513d601f19601f820116820180604052508101906105799190610f59565b905061058488610a83565b6105ea576040517f08c379a000000000000000000000000000000000000000000000000000000000815260206004820152601f60248201527f596f7520646f6e2774206f776e2074686520736f7572636520656e746974790060448201526064016104df565b6040517fcccf7a8e0000000000000000000000000000000000000000000000000000000081526004810189905273ffffffffffffffffffffffffffffffffffffffff84169063cccf7a8e90602401602060405180830381865afa158015610655573d6000803e3d6000fd5b505050506040513d601f19601f820116820180604052508101906106799190610eb9565b6106df576040517f08c379a000000000000000000000000000000000000000000000000000000000815260206004820152601c60248201527f536f7572636520686173206e6f206c6561726e6564207370656c6c730000000060448201526064016104df565b6040517f0ff4c9160000000000000000000000000000000000000000000000000000000081526004810189905260009073ffffffffffffffffffffffffffffffffffffffff851690630ff4c91690602401600060405180830381865afa15801561074d573d6000803e3d6000fd5b505050506040513d6000823e601f3d9081017fffffffffffffffffffffffffffffffffffffffffffffffffffffffffffffffe01682016040526107939190810190610fe1565b905061079f818b610c91565b610805576040517f08c379a000000000000000000000000000000000000000000000000000000000815260206004820181905260248201527f536f75726365206861736e2774206c6561726e65642074686973207370656c6c60448201526064016104df565b604080516000808252602082019092526040517fcccf7a8e000000000000000000000000000000000000000000000000000000008152600481018d905290915073ffffffffffffffffffffffffffffffffffffffff85169063cccf7a8e90602401602060405180830381865afa158015610883573d6000803e3d6000fd5b505050506040513d601f19601f820116820180604052508101906108a79190610eb9565b15610960576040517f0ff4c916000000000000000000000000000000000000000000000000000000008152600481018c905273ffffffffffffffffffffffffffffffffffffffff851690630ff4c91690602401600060405180830381865afa158015610917573d6000803e3d6000fd5b505050506040513d6000823e601f3d9081017fffffffffffffffffffffffffffffffffffffffffffffffffffffffffffffffe016820160405261095d91908101906110b7565b90505b825161096c9082610ce4565b5050845460ff161593506109869250505057600060028201555b5050505050565b60606000808473ffffffffffffffffffffffffffffffffffffffff16846040516109b79190611169565b600060405180830381855af49150503d80600081146109f2576040519150601f19603f3d011682016040523d82523d6000602084013e6109f7565b606091505b509092509050811515600003610a7957805115610a175780518082602001fd5b6040517f08c379a000000000000000000000000000000000000000000000000000000000815260206004820152601560248201527f44656c656761746543616c6c207265766572746564000000000000000000000060448201526064016104df565b9150505b92915050565b6000808060018101546040517f4f27da180000000000000000000000000000000000000000000000000000000081527f08513c7f9c2108adb6d7350103f8c8a57084f2d77697c75eabecdcdeba4223d7600482015291925060009173ffffffffffffffffffffffffffffffffffffffff90911690634f27da1890602401602060405180830381865afa158015610b1d573d6000803e3d6000fd5b505050506040513d601f19601f82011682018060405250810190610b419190610e7c565b9050835b82600201548103610b5b57506001949350505050565b6040517fcccf7a8e0000000000000000000000000000000000000000000000000000000081526004810182905273ffffffffffffffffffffffffffffffffffffffff83169063cccf7a8e90602401602060405180830381865afa158015610bc6573d6000803e3d6000fd5b505050506040513d601f19601f82011682018060405250810190610bea9190610eb9565b15610c86576040517f0ff4c9160000000000000000000000000000000000000000000000000000000081526004810182905273ffffffffffffffffffffffffffffffffffffffff831690630ff4c91690602401602060405180830381865afa158015610c5a573d6000803e3d6000fd5b505050506040513d601f19601f82011682018060405250810190610c7e9190611185565b519050610b45565b506000949350505050565b6000805b8351811015610cda5782848281518110610cb157610cb1610dd5565b602002602001015103610cc8576001915050610a7d565b80610cd281610e1d565b915050610c95565b5060009392505050565b7fffffffff00000000000000000000000000000000000000000000000000000000821660009081526004602052604081205473ffffffffffffffffffffffffffffffffffffffff1680610d93576040517f08c379a000000000000000000000000000000000000000000000000000000000815260206004820181905260248201527f53656c6563746f7220686173206e6f74206265656e207265676973746572656460448201526064016104df565b6109868185856040516024016100f191906111c7565b600080600060608486031215610dbe57600080fd5b505081359360208301359350604090920135919050565b7f4e487b7100000000000000000000000000000000000000000000000000000000600052603260045260246000fd5b600060208284031215610e1657600080fd5b5051919050565b60007fffffffffffffffffffffffffffffffffffffffffffffffffffffffffffffffff8203610e75577f4e487b7100000000000000000000000000000000000000000000000000000000600052601160045260246000fd5b5060010190565b600060208284031215610e8e57600080fd5b815173ffffffffffffffffffffffffffffffffffffffff81168114610eb257600080fd5b9392505050565b600060208284031215610ecb57600080fd5b81518015158114610eb257600080fd5b7f4e487b7100000000000000000000000000000000000000000000000000000000600052604160045260246000fd5b604051601f82017fffffffffffffffffffffffffffffffffffffffffffffffffffffffffffffffe016810167ffffffffffffffff81118282101715610f5157610f51610edb565b604052919050565b600060408284031215610f6b57600080fd5b6040516040810181811067ffffffffffffffff82111715610f8e57610f8e610edb565b60405282517fffffffff0000000000000000000000000000000000000000000000000000000081168114610fc157600080fd5b8152602083015160028110610fd557600080fd5b60208201529392505050565b60006020808385031215610ff457600080fd5b825167ffffffffffffffff8082111561100c57600080fd5b818501915085601f83011261102057600080fd5b81518181111561103257611032610edb565b8060051b9150611043848301610f0a565b818152918301840191848101908884111561105d57600080fd5b938501935b8385101561107b57845182529385019390850190611062565b98975050505050505050565b60005b838110156110a257818101518382015260200161108a565b838111156110b1576000848401525b50505050565b6000602082840312156110c957600080fd5b815167ffffffffffffffff808211156110e157600080fd5b818401915084601f8301126110f557600080fd5b81518181111561110757611107610edb565b61113860207fffffffffffffffffffffffffffffffffffffffffffffffffffffffffffffffe0601f84011601610f0a565b915080825285602082850101111561114f57600080fd5b611160816020840160208601611087565b50949350505050565b6000825161117b818460208701611087565b9190910192915050565b60006020828403121561119757600080fd5b6040516020810181811067ffffffffffffffff821117156111ba576111ba610edb565b6040529151825250919050565b60208152600082518060208401526111e6816040850160208701611087565b601f017fffffffffffffffffffffffffffffffffffffffffffffffffffffffffffffffe016919091016040019291505056fea264697066735822122048856b4fdabb499f61f2acea805c50543a0b9f6082a306f8c9613330f1369f3564736f6c634300080d0033",
    "linkReferences": {}
  }
}