{
  "abi": [
    {
      "inputs": [
        {
          "internalType": "uint256",
          "name": "entity",
          "type": "uint256"
        },
        {
          "internalType": "address",
          "name": "component",
          "type": "address"
        },
        {
          "internalType": "bytes",
          "name": "value",
          "type": "bytes"
        }
      ],
      "name": "addComponentToEntityExternally",
      "outputs": [],
      "stateMutability": "nonpayable",
      "type": "function"
    },
    {
      "inputs": [],
      "name": "callerEntityID",
      "outputs": [
        {
          "internalType": "uint256",
          "name": "",
          "type": "uint256"
        }
      ],
      "stateMutability": "view",
      "type": "function"
    },
    {
      "inputs": [],
      "name": "entryPoint",
      "outputs": [],
      "stateMutability": "nonpayable",
      "type": "function"
    },
    {
      "inputs": [
        {
          "internalType": "uint256",
          "name": "entity",
          "type": "uint256"
        },
        {
          "internalType": "address",
          "name": "component",
          "type": "address"
        }
      ],
      "name": "removeComponentFromEntityExternally",
      "outputs": [],
      "stateMutability": "nonpayable",
      "type": "function"
    },
    {
      "inputs": [],
      "name": "world",
      "outputs": [
        {
          "internalType": "address",
          "name": "",
          "type": "address"
        }
      ],
      "stateMutability": "view",
      "type": "function"
    }
  ],
  "bytecode": {
    "object": "0x608060405234801561001057600080fd5b5061076d806100206000396000f3fe608060405234801561001057600080fd5b50600436106100675760003560e01c806357e0cc421161005057806357e0cc42146100ae578063b0d691fe146100bf578063ceb44dd5146100c757600080fd5b806330b67baa1461006c57806344694faa14610099575b600080fd5b60015460405173ffffffffffffffffffffffffffffffffffffffff90911681526020015b60405180910390f35b6100ac6100a73660046104a8565b6100da565b005b600254604051908152602001610090565b6100ac610161565b6100ac6100d5366004610503565b6102f9565b6040517f4cc8221500000000000000000000000000000000000000000000000000000000815260048101839052819073ffffffffffffffffffffffffffffffffffffffff821690634cc8221590602401600060405180830381600087803b15801561014457600080fd5b505af1158015610158573d6000803e3d6000fd5b50505050505050565b60008060005b60038201548110156102d557600082600301828154811061018a5761018a6105ec565b600091825260208220015460405133602482015282357fffffffff0000000000000000000000000000000000000000000000000000000016604482015273ffffffffffffffffffffffffffffffffffffffff909116925061028e9083907fab0870370000000000000000000000000000000000000000000000000000000090606401604080517fffffffffffffffffffffffffffffffffffffffffffffffffffffffffffffffe08184030181529190526020810180517bffffffffffffffffffffffffffffffffffffffffffffffffffffffff167fffffffff0000000000000000000000000000000000000000000000000000000090931692909217909152610387565b90506000818060200190518101906102a6919061061b565b905080156102bf57600285015550600193506102d59050565b50505080806102cd90610634565b915050610167565b50816102e357600060028201555b805460ff16156102f557600060028201555b5050565b6040517f8b282947000000000000000000000000000000000000000000000000000000008152829073ffffffffffffffffffffffffffffffffffffffff821690638b2829479061034f90879086906004016106c3565b600060405180830381600087803b15801561036957600080fd5b505af115801561037d573d6000803e3d6000fd5b5050505050505050565b60606000808473ffffffffffffffffffffffffffffffffffffffff16846040516103b1919061071b565b600060405180830381855af49150503d80600081146103ec576040519150601f19603f3d011682016040523d82523d6000602084013e6103f1565b606091505b509092509050811515600003610477578051156104115780518082602001fd5b6040517f08c379a000000000000000000000000000000000000000000000000000000000815260206004820152601560248201527f44656c656761746543616c6c2072657665727465640000000000000000000000604482015260640160405180910390fd5b949350505050565b803573ffffffffffffffffffffffffffffffffffffffff811681146104a357600080fd5b919050565b600080604083850312156104bb57600080fd5b823591506104cb6020840161047f565b90509250929050565b7f4e487b7100000000000000000000000000000000000000000000000000000000600052604160045260246000fd5b60008060006060848603121561051857600080fd5b833592506105286020850161047f565b9150604084013567ffffffffffffffff8082111561054557600080fd5b818601915086601f83011261055957600080fd5b81358181111561056b5761056b6104d4565b604051601f82017fffffffffffffffffffffffffffffffffffffffffffffffffffffffffffffffe0908116603f011681019083821181831017156105b1576105b16104d4565b816040528281528960208487010111156105ca57600080fd5b8260208601602083013760006020848301015280955050505050509250925092565b7f4e487b7100000000000000000000000000000000000000000000000000000000600052603260045260246000fd5b60006020828403121561062d57600080fd5b5051919050565b60007fffffffffffffffffffffffffffffffffffffffffffffffffffffffffffffffff820361068c577f4e487b7100000000000000000000000000000000000000000000000000000000600052601160045260246000fd5b5060010190565b60005b838110156106ae578181015183820152602001610696565b838111156106bd576000848401525b50505050565b82815260406020820152600082518060408401526106e8816060850160208701610693565b601f017fffffffffffffffffffffffffffffffffffffffffffffffffffffffffffffffe016919091016060019392505050565b6000825161072d818460208701610693565b919091019291505056fea26469706673582212201ebf98b2ce8b543a564bb391f7ff9f581cd86ffb331735fc44214df92495483964736f6c634300080d0033",
    "linkReferences": {}
  }
}