{
  "abi": [
    {
      "inputs": [
        {
          "internalType": "address",
          "name": "world",
          "type": "address"
        }
      ],
      "stateMutability": "nonpayable",
      "type": "constructor"
    },
    {
      "inputs": [],
      "name": "getEntities",
      "outputs": [
        {
          "internalType": "uint256[]",
          "name": "",
          "type": "uint256[]"
        }
      ],
      "stateMutability": "view",
      "type": "function"
    },
    {
      "inputs": [
        {
          "components": [
            {
              "internalType": "uint256",
              "name": "entityType",
              "type": "uint256"
            }
          ],
          "internalType": "struct EntityType",
          "name": "position",
          "type": "tuple"
        }
      ],
      "name": "getEntitiesWithValue",
      "outputs": [
        {
          "internalType": "uint256[]",
          "name": "",
          "type": "uint256[]"
        }
      ],
      "stateMutability": "view",
      "type": "function"
    },
    {
      "inputs": [
        {
          "internalType": "bytes",
          "name": "value",
          "type": "bytes"
        }
      ],
      "name": "getEntitiesWithValue",
      "outputs": [
        {
          "internalType": "uint256[]",
          "name": "",
          "type": "uint256[]"
        }
      ],
      "stateMutability": "view",
      "type": "function"
    },
    {
      "inputs": [],
      "name": "getID",
      "outputs": [
        {
          "internalType": "uint256",
          "name": "",
          "type": "uint256"
        }
      ],
      "stateMutability": "pure",
      "type": "function"
    },
    {
      "inputs": [
        {
          "internalType": "uint256",
          "name": "entity",
          "type": "uint256"
        }
      ],
      "name": "getRawValue",
      "outputs": [
        {
          "internalType": "bytes",
          "name": "",
          "type": "bytes"
        }
      ],
      "stateMutability": "view",
      "type": "function"
    },
    {
      "inputs": [
        {
          "internalType": "uint256",
          "name": "entity",
          "type": "uint256"
        }
      ],
      "name": "getValue",
      "outputs": [
        {
          "components": [
            {
              "internalType": "uint256",
              "name": "entityType",
              "type": "uint256"
            }
          ],
          "internalType": "struct EntityType",
          "name": "",
          "type": "tuple"
        }
      ],
      "stateMutability": "view",
      "type": "function"
    },
    {
      "inputs": [
        {
          "internalType": "uint256",
          "name": "entity",
          "type": "uint256"
        }
      ],
      "name": "has",
      "outputs": [
        {
          "internalType": "bool",
          "name": "",
          "type": "bool"
        }
      ],
      "stateMutability": "view",
      "type": "function"
    },
    {
      "inputs": [],
      "name": "owner",
      "outputs": [
        {
          "internalType": "address",
          "name": "",
          "type": "address"
        }
      ],
      "stateMutability": "view",
      "type": "function"
    },
    {
      "inputs": [
        {
          "internalType": "address",
          "name": "indexer",
          "type": "address"
        }
      ],
      "name": "registerIndexer",
      "outputs": [],
      "stateMutability": "nonpayable",
      "type": "function"
    },
    {
      "inputs": [
        {
          "internalType": "uint256",
          "name": "entity",
          "type": "uint256"
        }
      ],
      "name": "remove",
      "outputs": [],
      "stateMutability": "nonpayable",
      "type": "function"
    },
    {
      "inputs": [
        {
          "internalType": "uint256",
          "name": "entity",
          "type": "uint256"
        },
        {
          "components": [
            {
              "internalType": "uint256",
              "name": "entityType",
              "type": "uint256"
            }
          ],
          "internalType": "struct EntityType",
          "name": "value",
          "type": "tuple"
        }
      ],
      "name": "set",
      "outputs": [],
      "stateMutability": "nonpayable",
      "type": "function"
    },
    {
      "inputs": [
        {
          "internalType": "uint256",
          "name": "entity",
          "type": "uint256"
        },
        {
          "internalType": "bytes",
          "name": "value",
          "type": "bytes"
        }
      ],
      "name": "set",
      "outputs": [],
      "stateMutability": "nonpayable",
      "type": "function"
    },
    {
      "inputs": [
        {
          "internalType": "address",
          "name": "newOwner",
          "type": "address"
        }
      ],
      "name": "transferOwnership",
      "outputs": [],
      "stateMutability": "nonpayable",
      "type": "function"
    },
    {
      "inputs": [],
      "name": "world",
      "outputs": [
        {
          "internalType": "address",
          "name": "",
          "type": "address"
        }
      ],
      "stateMutability": "view",
      "type": "function"
    }
  ],
  "bytecode": {
    "object": "0x60806040523480156200001157600080fd5b5060405162002300380380620023008339810160408190526200003491620001a9565b600080546001600160a01b0319166001600160a01b038316908117909155819063f303477030620000827f29b7caf477ca1449e30b021befb959c576f53eb925fd3fca67dadcf8b75b5cb490565b6040516001600160e01b031960e085901b1681526001600160a01b0390921660048301526024820152604401600060405180830381600087803b158015620000c957600080fd5b505af1158015620000de573d6000803e3d6000fd5b50505050604051620000f0906200018d565b604051809103906000f0801580156200010d573d6000803e3d6000fd5b50600280546001600160a01b0319166001600160a01b03929092169190911790556040516200013c906200019b565b604051809103906000f08015801562000159573d6000803e3d6000fd5b50600380546001600160a01b03929092166001600160a01b0319928316179055600180549091163317905550620001db9050565b61043880620019de83390190565b6104ea8062001e1683390190565b600060208284031215620001bc57600080fd5b81516001600160a01b0381168114620001d457600080fd5b9392505050565b6117f380620001eb6000396000f3fe608060405234801561001057600080fd5b50600436106100ea5760003560e01c80638b2829471161008c578063b361be4611610066578063b361be461461021f578063b8bc073d14610232578063cccf7a8e14610252578063f2fde38b1461027557600080fd5b80638b282947146101be5780638da5cb5b146101d1578063ab9dbd07146101f157600080fd5b80634857a832116100c85780634857a832146101705780634cc82215146101835780636270c7e71461019857806375c0669c146101ab57600080fd5b80630ff4c916146100ef57806330b67baa1461011657806331b933b91461015b575b600080fd5b6101026100fd3660046111ab565b610288565b604051905181526020015b60405180910390f35b6000546101369073ffffffffffffffffffffffffffffffffffffffff1681565b60405173ffffffffffffffffffffffffffffffffffffffff909116815260200161010d565b6101636102ca565b60405161010d91906111c4565b61016361017e366004611220565b610385565b6101966101913660046111ab565b6103b8565b005b6101966101a636600461123c565b6106d8565b6101966101b9366004611269565b610708565b6101966101cc3660046113ab565b610890565b6001546101369073ffffffffffffffffffffffffffffffffffffffff1681565b6040517f29b7caf477ca1449e30b021befb959c576f53eb925fd3fca67dadcf8b75b5cb4815260200161010d565b61016361022d3660046113f2565b610c56565b6102456102403660046111ab565b610d14565b60405161010d91906114a9565b6102656102603660046111ab565b610db6565b604051901515815260200161010d565b610196610283366004611269565b610e4a565b60408051602081019091526000815260006102a283610d14565b8060200190518101906102b591906114bc565b60408051602081019091529081529392505050565b600254604080517f410d59cc000000000000000000000000000000000000000000000000000000008152905160609273ffffffffffffffffffffffffffffffffffffffff169163410d59cc9160048083019260009291908290030181865afa15801561033a573d6000803e3d6000fd5b505050506040513d6000823e601f3d9081017fffffffffffffffffffffffffffffffffffffffffffffffffffffffffffffffe016820160405261038091908101906114d5565b905090565b60606103b28260405160200161039e9135815260200190565b604051602081830303815290604052610c56565b92915050565b60015473ffffffffffffffffffffffffffffffffffffffff16331461043e576040517f08c379a000000000000000000000000000000000000000000000000000000000815260206004820152601360248201527f4f4e4c595f434f4e54524143545f4f574e45520000000000000000000000000060448201526064015b60405180910390fd5b60035460008281526004602052604090819020905173ffffffffffffffffffffffffffffffffffffffff90921691636526db7a9161047b916115c8565b60405190819003812060e083901b7fffffffff00000000000000000000000000000000000000000000000000000000168252600482015260248101849052604401600060405180830381600087803b1580156104d657600080fd5b505af11580156104ea573d6000803e3d6000fd5b50506002546040517f4cc822150000000000000000000000000000000000000000000000000000000081526004810185905273ffffffffffffffffffffffffffffffffffffffff9091169250634cc822159150602401600060405180830381600087803b15801561055a57600080fd5b505af115801561056e573d6000803e3d6000fd5b505050600082815260046020526040812061058a9250906110d5565b60005b60055481101561064a57600581815481106105aa576105aa61169a565b6000918252602090912001546040517f4cc822150000000000000000000000000000000000000000000000000000000081526004810184905273ffffffffffffffffffffffffffffffffffffffff90911690634cc8221590602401600060405180830381600087803b15801561061f57600080fd5b505af1158015610633573d6000803e3d6000fd5b505050508080610642906116c9565b91505061058d565b506000546040517fd803064a0000000000000000000000000000000000000000000000000000000081523060048201526024810183905273ffffffffffffffffffffffffffffffffffffffff9091169063d803064a90604401600060405180830381600087803b1580156106bd57600080fd5b505af11580156106d1573d6000803e3d6000fd5b5050505050565b61070482826040516020016106f09135815260200190565b604051602081830303815290604052610890565b5050565b60015473ffffffffffffffffffffffffffffffffffffffff163314610789576040517f08c379a000000000000000000000000000000000000000000000000000000000815260206004820152601360248201527f4f4e4c595f434f4e54524143545f4f574e4552000000000000000000000000006044820152606401610435565b6107b3817f4ede9a2d00000000000000000000000000000000000000000000000000000000610f12565b610819576040517f08c379a000000000000000000000000000000000000000000000000000000000815260206004820181905260248201527f476976656e2061646472657373206973206e6f7420616e20696e64657865722e6044820152606401610435565b600580546001810182556000919091527f036b6384b5eca791c62761152d0c79bb0604c104a5fb6f4eb0703f3154bb3db00180547fffffffffffffffffffffffff00000000000000000000000000000000000000001673ffffffffffffffffffffffffffffffffffffffff92909216919091179055565b60015473ffffffffffffffffffffffffffffffffffffffff163314610911576040517f08c379a000000000000000000000000000000000000000000000000000000000815260206004820152601360248201527f4f4e4c595f434f4e54524143545f4f574e4552000000000000000000000000006044820152606401610435565b6002546040517f1003e2d20000000000000000000000000000000000000000000000000000000081526004810184905273ffffffffffffffffffffffffffffffffffffffff90911690631003e2d290602401600060405180830381600087803b15801561097d57600080fd5b505af1158015610991573d6000803e3d6000fd5b505060035460008581526004602052604090819020905173ffffffffffffffffffffffffffffffffffffffff9092169350636526db7a92506109d2916115c8565b60405190819003812060e083901b7fffffffff00000000000000000000000000000000000000000000000000000000168252600482015260248101859052604401600060405180830381600087803b158015610a2d57600080fd5b505af1158015610a41573d6000803e3d6000fd5b50505060008381526004602090815260409091208351610a6693509091840190611112565b50600354815160208301206040517f771602f700000000000000000000000000000000000000000000000000000000815273ffffffffffffffffffffffffffffffffffffffff9092169163771602f791610acd918690600401918252602082015260400190565b600060405180830381600087803b158015610ae757600080fd5b505af1158015610afb573d6000803e3d6000fd5b5050505060005b600554811015610bc55760058181548110610b1f57610b1f61169a565b6000918252602090912001546040517f0216b83800000000000000000000000000000000000000000000000000000000815273ffffffffffffffffffffffffffffffffffffffff90911690630216b83890610b809086908690600401611728565b600060405180830381600087803b158015610b9a57600080fd5b505af1158015610bae573d6000803e3d6000fd5b505050508080610bbd906116c9565b915050610b02565b506000546040517faf104e4000000000000000000000000000000000000000000000000000000000815273ffffffffffffffffffffffffffffffffffffffff9091169063af104e4090610c2090309086908690600401611741565b600060405180830381600087803b158015610c3a57600080fd5b505af1158015610c4e573d6000803e3d6000fd5b505050505050565b600354815160208301206040517f796c5e94000000000000000000000000000000000000000000000000000000008152600481019190915260609173ffffffffffffffffffffffffffffffffffffffff169063796c5e9490602401600060405180830381865afa158015610cce573d6000803e3d6000fd5b505050506040513d6000823e601f3d9081017fffffffffffffffffffffffffffffffffffffffffffffffffffffffffffffffe01682016040526103b291908101906114d5565b6000818152600460205260409020805460609190610d319061157b565b80601f0160208091040260200160405190810160405280929190818152602001828054610d5d9061157b565b8015610daa5780601f10610d7f57610100808354040283529160200191610daa565b820191906000526020600020905b815481529060010190602001808311610d8d57829003601f168201915b50505050509050919050565b6002546040517fcccf7a8e0000000000000000000000000000000000000000000000000000000081526004810183905260009173ffffffffffffffffffffffffffffffffffffffff169063cccf7a8e90602401602060405180830381865afa158015610e26573d6000803e3d6000fd5b505050506040513d601f19601f820116820180604052508101906103b2919061177f565b60015473ffffffffffffffffffffffffffffffffffffffff163314610ecb576040517f08c379a000000000000000000000000000000000000000000000000000000000815260206004820152601360248201527f4f4e4c595f434f4e54524143545f4f574e4552000000000000000000000000006044820152606401610435565b600180547fffffffffffffffffffffffff00000000000000000000000000000000000000001673ffffffffffffffffffffffffffffffffffffffff92909216919091179055565b6000610f1d83610f35565b8015610f2e5750610f2e8383610f99565b9392505050565b6000610f61827f01ffc9a700000000000000000000000000000000000000000000000000000000610f99565b80156103b25750610f92827fffffffff00000000000000000000000000000000000000000000000000000000610f99565b1592915050565b604080517fffffffff00000000000000000000000000000000000000000000000000000000831660248083019190915282518083039091018152604490910182526020810180517bffffffffffffffffffffffffffffffffffffffffffffffffffffffff167f01ffc9a7000000000000000000000000000000000000000000000000000000001790529051600091908290819073ffffffffffffffffffffffffffffffffffffffff871690617530906110539086906117a1565b6000604051808303818686fa925050503d806000811461108f576040519150601f19603f3d011682016040523d82523d6000602084013e611094565b606091505b50915091506020815110156110af57600093505050506103b2565b8180156110cb5750808060200190518101906110cb919061177f565b9695505050505050565b5080546110e19061157b565b6000825580601f106110f1575050565b601f01602090049060005260206000209081019061110f9190611196565b50565b82805461111e9061157b565b90600052602060002090601f0160209004810192826111405760008555611186565b82601f1061115957805160ff1916838001178555611186565b82800160010185558215611186579182015b8281111561118657825182559160200191906001019061116b565b50611192929150611196565b5090565b5b808211156111925760008155600101611197565b6000602082840312156111bd57600080fd5b5035919050565b6020808252825182820181905260009190848201906040850190845b818110156111fc578351835292840192918401916001016111e0565b50909695505050505050565b60006020828403121561121a57600080fd5b50919050565b60006020828403121561123257600080fd5b610f2e8383611208565b6000806040838503121561124f57600080fd5b823591506112608460208501611208565b90509250929050565b60006020828403121561127b57600080fd5b813573ffffffffffffffffffffffffffffffffffffffff81168114610f2e57600080fd5b7f4e487b7100000000000000000000000000000000000000000000000000000000600052604160045260246000fd5b604051601f82017fffffffffffffffffffffffffffffffffffffffffffffffffffffffffffffffe016810167ffffffffffffffff811182821017156113155761131561129f565b604052919050565b600082601f83011261132e57600080fd5b813567ffffffffffffffff8111156113485761134861129f565b61137960207fffffffffffffffffffffffffffffffffffffffffffffffffffffffffffffffe0601f840116016112ce565b81815284602083860101111561138e57600080fd5b816020850160208301376000918101602001919091529392505050565b600080604083850312156113be57600080fd5b82359150602083013567ffffffffffffffff8111156113dc57600080fd5b6113e88582860161131d565b9150509250929050565b60006020828403121561140457600080fd5b813567ffffffffffffffff81111561141b57600080fd5b6114278482850161131d565b949350505050565b60005b8381101561144a578181015183820152602001611432565b83811115611459576000848401525b50505050565b6000815180845261147781602086016020860161142f565b601f017fffffffffffffffffffffffffffffffffffffffffffffffffffffffffffffffe0169290920160200192915050565b602081526000610f2e602083018461145f565b6000602082840312156114ce57600080fd5b5051919050565b600060208083850312156114e857600080fd5b825167ffffffffffffffff8082111561150057600080fd5b818501915085601f83011261151457600080fd5b8151818111156115265761152661129f565b8060051b91506115378483016112ce565b818152918301840191848101908884111561155157600080fd5b938501935b8385101561156f57845182529385019390850190611556565b98975050505050505050565b600181811c9082168061158f57607f821691505b60208210810361121a577f4e487b7100000000000000000000000000000000000000000000000000000000600052602260045260246000fd5b600080835481600182811c9150808316806115e457607f831692505b6020808410820361161c577f4e487b710000000000000000000000000000000000000000000000000000000086526022600452602486fd5b818015611630576001811461165f5761168c565b7fffffffffffffffffffffffffffffffffffffffffffffffffffffffffffffff0086168952848901965061168c565b60008a81526020902060005b868110156116845781548b82015290850190830161166b565b505084890196505b509498975050505050505050565b7f4e487b7100000000000000000000000000000000000000000000000000000000600052603260045260246000fd5b60007fffffffffffffffffffffffffffffffffffffffffffffffffffffffffffffffff8203611721577f4e487b7100000000000000000000000000000000000000000000000000000000600052601160045260246000fd5b5060010190565b828152604060208201526000611427604083018461145f565b73ffffffffffffffffffffffffffffffffffffffff84168152826020820152606060408201526000611776606083018461145f565b95945050505050565b60006020828403121561179157600080fd5b81518015158114610f2e57600080fd5b600082516117b381846020870161142f565b919091019291505056fea2646970667358221220c13352d0725e777399d06a54b12777f7f14edfd3728033941b62ce9f87f3b01c64736f6c634300080d0033608060405234801561001057600080fd5b50610418806100206000396000f3fe608060405234801561001057600080fd5b50600436106100675760003560e01c80634cc82215116100505780634cc822151461009f578063949d225d146100b2578063cccf7a8e146100c357600080fd5b80631003e2d21461006c578063410d59cc14610081575b600080fd5b61007f61007a3660046102e9565b6100e6565b005b610089610138565b6040516100969190610302565b60405180910390f35b61007f6100ad3660046102e9565b610190565b600054604051908152602001610096565b6100d66100d13660046102e9565b610286565b6040519015158152602001610096565b6100ef81610286565b156100f75750565b600080548282526001602081905260408320829055810182559080527f290decd9548b62a8d60345a988386fc84ba6bc95484008f6362f93160ef3e5630155565b6060600080548060200260200160405190810160405280929190818152602001828054801561018657602002820191906000526020600020905b815481526020019060010190808311610172575b5050505050905090565b61019981610286565b6101a05750565b600080546101b090600190610346565b815481106101c0576101c0610384565b906000526020600020015460006001600084815260200190815260200160002054815481106101f1576101f1610384565b6000918252602080832090910192909255828152600191829052604081205481549092919081908490811061022857610228610384565b90600052602060002001548152602001908152602001600020819055506001600082815260200190815260200160002060009055600080548061026d5761026d6103b3565b6001900381819060005260206000200160009055905550565b60008054810361029857506000919050565b60008281526001602052604081205490036102d45781600080815481106102c1576102c1610384565b9060005260206000200154149050919050565b50600090815260016020526040902054151590565b6000602082840312156102fb57600080fd5b5035919050565b6020808252825182820181905260009190848201906040850190845b8181101561033a5783518352928401929184019160010161031e565b50909695505050505050565b60008282101561037f577f4e487b7100000000000000000000000000000000000000000000000000000000600052601160045260246000fd5b500390565b7f4e487b7100000000000000000000000000000000000000000000000000000000600052603260045260246000fd5b7f4e487b7100000000000000000000000000000000000000000000000000000000600052603160045260246000fdfea2646970667358221220306162261924bfa673cd43a39edda8526afef2615cf36bb707b4d6df0e25306264736f6c634300080d0033608060405234801561001057600080fd5b506104ca806100206000396000f3fe608060405234801561001057600080fd5b50600436106100675760003560e01c8063796c5e9411610050578063796c5e941461009457806385edea13146100bd578063a0265ff8146100eb57600080fd5b80636526db7a1461006c578063771602f714610081575b600080fd5b61007f61007a366004610379565b61010e565b005b61007f61008f366004610379565b61023d565b6100a76100a236600461039b565b610286565b6040516100b491906103b4565b60405180910390f35b6100dd6100cb36600461039b565b60009081526020819052604090205490565b6040519081526020016100b4565b6100fe6100f9366004610379565b6102e6565b60405190151581526020016100b4565b61011882826102e6565b610120575050565b6000828152602081905260409020805461013c906001906103f8565b8154811061014c5761014c610436565b6000918252602080832090910154848352828252604080842060018452818520868652909352909220548154811061018657610186610436565b6000918252602080832090910192909255838152600182526040808220848352808452818320548684528385529183208584529381905283549193909291849081106101d4576101d4610436565b6000918252602080832090910154835282810193909352604091820181209390935584835260018252808320848452825280832083905584835290829052902080548061022357610223610465565b600190038181906000526020600020016000905590555050565b61024782826102e6565b15610250575050565b60009182526020828152604080842080546001808552838720868852855292862081905585845291820181558452922090910155565b600081815260208181526040918290208054835181840281018401909452808452606093928301828280156102da57602002820191906000526020600020905b8154815260200190600101908083116102c6575b50505050509050919050565b600082815260208190526040812054810361030357506000610373565b60008381526001602090815260408083208584529091528120549003610355576000838152602081905260408120805484929061034257610342610436565b9060005260206000200154149050610373565b50600082815260016020908152604080832084845290915290205415155b92915050565b6000806040838503121561038c57600080fd5b50508035926020909101359150565b6000602082840312156103ad57600080fd5b5035919050565b6020808252825182820181905260009190848201906040850190845b818110156103ec578351835292840192918401916001016103d0565b50909695505050505050565b600082821015610431577f4e487b7100000000000000000000000000000000000000000000000000000000600052601160045260246000fd5b500390565b7f4e487b7100000000000000000000000000000000000000000000000000000000600052603260045260246000fd5b7f4e487b7100000000000000000000000000000000000000000000000000000000600052603160045260246000fdfea26469706673582212208c218a8c7d3ab9222585f9b09c88ea5422fcaa84788321247b9fcd758613a5a964736f6c634300080d0033",
    "linkReferences": {}
  }
}