{
  "abi": [
    {
      "inputs": [],
      "name": "localLatticeGameAddress",
      "outputs": [
        {
          "internalType": "address",
          "name": "",
          "type": "address"
        }
      ],
      "stateMutability": "view",
      "type": "function"
    },
    {
      "inputs": [
        {
          "internalType": "address",
          "name": "localLatticeGameAddr",
          "type": "address"
        }
      ],
      "name": "setLocalLatticeGameAddress",
      "outputs": [],
      "stateMutability": "nonpayable",
      "type": "function"
    }
  ],
  "bytecode": {
    "object": "0x608060405234801561001057600080fd5b5061014e806100206000396000f3fe608060405234801561001057600080fd5b50600436106100365760003560e01c8063906182f01461003b578063eef3f4eb14610084575b600080fd5b60005461005b9073ffffffffffffffffffffffffffffffffffffffff1681565b60405173ffffffffffffffffffffffffffffffffffffffff909116815260200160405180910390f35b6100d96100923660046100db565b600080547fffffffffffffffffffffffff00000000000000000000000000000000000000001673ffffffffffffffffffffffffffffffffffffffff92909216919091179055565b005b6000602082840312156100ed57600080fd5b813573ffffffffffffffffffffffffffffffffffffffff8116811461011157600080fd5b939250505056fea26469706673582212204811835b8b6cacd32d908f3b4d222259f9905fc5625f1b379d1065f2f3abe42464736f6c634300080d0033",
    "linkReferences": {}
  }
}