{
  "abi": [
    {
      "inputs": [
        {
          "internalType": "uint256",
          "name": "length",
          "type": "uint256"
        }
      ],
      "name": "PackedCounter_InvalidLength",
      "type": "error"
    },
    {
      "inputs": [
        {
          "internalType": "uint256",
          "name": "length",
          "type": "uint256"
        }
      ],
      "name": "SchemaLib_InvalidLength",
      "type": "error"
    },
    {
      "inputs": [],
      "name": "SchemaLib_StaticTypeAfterDynamicType",
      "type": "error"
    },
    {
      "inputs": [
        {
          "internalType": "bytes",
          "name": "data",
          "type": "bytes"
        },
        {
          "internalType": "uint256",
          "name": "start",
          "type": "uint256"
        },
        {
          "internalType": "uint256",
          "name": "end",
          "type": "uint256"
        }
      ],
      "name": "Slice_OutOfBounds",
      "type": "error"
    },
    {
      "inputs": [
        {
          "internalType": "uint256",
          "name": "expected",
          "type": "uint256"
        },
        {
          "internalType": "uint256",
          "name": "received",
          "type": "uint256"
        }
      ],
      "name": "StoreCore_InvalidDataLength",
      "type": "error"
    },
    {
      "inputs": [],
      "name": "increment",
      "outputs": [
        {
          "internalType": "uint32",
          "name": "",
          "type": "uint32"
        }
      ],
      "stateMutability": "nonpayable",
      "type": "function"
    }
  ],
  "bytecode": {
    "object": "0x608060405234801561001057600080fd5b50611518806100206000396000f3fe608060405234801561001057600080fd5b506004361061002b5760003560e01c8063d09de08a14610030575b600080fd5b610038610051565b60405163ffffffff909116815260200160405180910390f35b60008061005c61007c565b9050600061006b8260016110e6565b9050610076816100f5565b92915050565b6040805160008082526020820183528183018190527f436f756e746572000000000000000000000000000000000000000000000000006050830152825180830384018152606083019093529182906100e7906100d790611124565b8360006100e26101a3565b61021b565b6020015160e01c9392505050565b604080516000808252602082018352818301527f436f756e746572000000000000000000000000000000000000000000000000006050820152815180820383018152606082019092529061019f9061014c90611124565b6040517fffffffff0000000000000000000000000000000000000000000000000000000060e086901b166020820152839060009060240160405160208183030381529060405261019a6101a3565b6102ff565b5050565b604080516001808252818301909252600091829190602080830190803683370190505090506003816000815181106101dd576101dd611148565b602002602001019060c58111156101f6576101f661115e565b908160c58111156102095761020961115e565b905250610215816103cf565b91505090565b60606000610227610553565b90503073ffffffffffffffffffffffffffffffffffffffff82160361025a576102528686868661059f565b9150506102f7565b6040517f05242d2f00000000000000000000000000000000000000000000000000000000815273ffffffffffffffffffffffffffffffffffffffff8216906305242d2f906102b29089908990899089906004016111af565b600060405180830381865afa1580156102cf573d6000803e3d6000fd5b505050506040513d6000823e601f3d908101601f19168201604052610252919081019061120a565b949350505050565b6000610309610553565b90503073ffffffffffffffffffffffffffffffffffffffff82160361033a5761033586868686866105d7565b6103c7565b6040517f3708196e00000000000000000000000000000000000000000000000000000000815273ffffffffffffffffffffffffffffffffffffffff821690633708196e9061039490899089908990899089906004016112e3565b600060405180830381600087803b1580156103ae57600080fd5b505af11580156103c2573d6000803e3d6000fd5b505050505b505050505050565b6000601c8251111561041b5781516040517f5318beb900000000000000000000000000000000000000000000000000000000815260040161041291815260200190565b60405180910390fd5b60008080805b85518110156104f357600061045f87838151811061044157610441611148565b602002602001015160c581111561045a5761045a61115e565b6107c3565b905080600003610474576001909201916104ac565b82156104ac576040517ff1e56be400000000000000000000000000000000000000000000000000000000815260040160405180910390fd5b808401935081601b036008028783815181106104ca576104ca611148565b602002602001015160c58111156104e3576104e361115e565b901b949094179350600101610421565b506005811115610532576040517f5318beb900000000000000000000000000000000000000000000000000000000815260048101829052602401610412565b935160e085901b94900360e81b60f09190911b919091171791909117919050565b7f629a4c26e296b22a8e0856e9f6ecb2d1008d7e00081111962cd175fa7488e1755460009073ffffffffffffffffffffffffffffffffffffffff168061059a573391505090565b919050565b60606105ae8260e81c60ff1690565b8360ff1610156105cb576105c485858585610823565b90506102f7565b6105c485858585610883565b7fd01f9f1368f831528fc9fe6442366b2b7d957fbfff3bcf7c24d9ab5fe51f8c468585858560405161060c949392919061132a565b60405180910390a1600061061f866108ee565b905060005b81518110156106d257600082828151811061064157610641611148565b602002602001015190508073ffffffffffffffffffffffffffffffffffffffff1663bf11b74e89898989896040518663ffffffff1660e01b815260040161068c9594939291906112e3565b600060405180830381600087803b1580156106a657600080fd5b505af11580156106ba573d6000803e3d6000fd5b505050505080806106ca9061135e565b915050610624565b506106e08260e81c60ff1690565b8460ff1610156106fc576106f786868487876109c6565b610709565b6107098686848787610a76565b60005b81518110156107ba57600082828151811061072957610729611148565b602002602001015190508073ffffffffffffffffffffffffffffffffffffffff16637da508a289898989896040518663ffffffff1660e01b81526004016107749594939291906112e3565b600060405180830381600087803b15801561078e57600080fd5b505af11580156107a2573d6000803e3d6000fd5b505050505080806107b29061135e565b91505061070c565b50505050505050565b6000808260c58111156107d8576107d861115e565b60ff16905060618110156107f257601f1660010192915050565b60618360c58111156108065761080661115e565b036108145750601492915050565b50600092915050565b50919050565b606060006108348360ff8616610ab9565b9050600061084d8260c581111561045a5761045a61115e565b9050600061085b8888610ae6565b905060006108698688610b3c565b9050610876828483610b90565b9998505050505050505050565b606060006108948360e81c60ff1690565b61089e9085611378565b905060006108ad878784610bb3565b905060006108d4836108bf8a8a610c0c565b9060ff166028026038011c64ffffffffff1690565b90506108e282826000610b90565b98975050505050505050565b6040805160018082528183019092526060916000919060208083019080368337019050509050828160008151811061092857610928611148565b602090810291909101810191909152604080517f6d756473746f7265000000000000000000000000000000000000000000000000818401527f486f6f6b73000000000000000000000000000000000000000000000000000000603082015281518082039093018352810190526000906109af906109a490611124565b8360006100e2610c23565b90506102f76109c18260008451610c5d565b610ced565b60006109d58460ff8516610ab9565b905081516109ee8260c581111561045a5761045a61115e565b14610a4557610a088160c581111561045a5761045a61115e565b82516040517f521b3d3300000000000000000000000000000000000000000000000000000000815260048101929092526024820152604401610412565b6000610a518787610ae6565b90506000610a5f8686610b3c565b9050610a6c828286610cfe565b5050505050505050565b6000610a858460e81c60ff1690565b610a8f9084611378565b9050610a9e8686838551610d13565b6000610aab878784610bb3565b90506107ba81600085610cfe565b600081601b03600802610ac98490565b60ff911c1660c5811115610adf57610adf61115e565b9392505050565b60007f86425bff6b57326c7859e89024fe4f238ca327a1ae4a230180dd2f0e88aaa7d98383604051602001610b1d9392919061139b565b60408051601f1981840301815291905280516020909101209392505050565b600080805b8360ff16811015610b8857610b6a610b598683610ab9565b60c581111561045a5761045a61115e565b610b7490836113c3565b915080610b808161135e565b915050610b41565b509392505050565b60405160208101601f19603f8584010116604052838252610b8885858584610d42565b60007f86425bff6b57326c7859e89024fe4f238ca327a1ae4a230180dd2f0e88aaa7d9848484604051602001610bec94939291906113db565b60408051601f198184030181529190528051602090910120949350505050565b600080610c198484610df8565b90506102f7815490565b6040805160018082528183019092526000918291906020808301908036833701905050905060c3816000815181106101dd576101dd611148565b6000818311158015610c70575083518211155b610cac578383836040517f23230fa30000000000000000000000000000000000000000000000000000000081526004016104129392919061140e565b60208401610cba84826113c3565b90506000610cc88585611433565b6fffffffffffffffffffffffffffffffff1660809290921b9190911795945050505050565b60606000610adf8360146060610e2f565b610d0e8383602084018451610f41565b505050565b6000610d1f8585610df8565b90506000610d2b825490565b9050610d38818585611001565b80835590506103c7565b8115610db45760208210610d6c57602082048401935060208281610d6857610d6861144a565b0691505b8115610db45760208290036000600019600883021c1990508554600885021b811984511682821617845250818511610da5575050610df2565b50600194909401939283900392015b5b60208310610dd65783548152600190930192601f1990920191602001610db5565b8215610df25780518454600019600886021c9182169119161781525b50505050565b60007f86425bff6b57326c7859e89024fe4f238ca327a1ae4a230180dd2f0e88aaa7d98383604051602001610b1d93929190611460565b60606000610e3d8560801c90565b90506fffffffffffffffffffffffffffffffff85166000858281610e6357610e6361144a565b049050610e7086836114c0565b15610efd576040517f08c379a000000000000000000000000000000000000000000000000000000000815260206004820152603d60248201527f756e7061636b546f41727261793a207061636b65644c656e677468206d75737460448201527f2062652061206d756c7469706c65206f6620656c656d656e7453697a650000006064820152608401610412565b60405193506020840160208202810160405281855260005b82811015610f35578451871c825293870193602090910190600101610f15565b50505050509392505050565b8215610fbb5760208310610f6b57602083048401935060208381610f6757610f6761144a565b0692505b8215610fbb5760208390036000600019600884021c1990506008850281811c91508451811c9050811987541682821617875550818311610fac575050610df2565b50600194909401939182019190035b5b60208110610fdd5781518455600190930192602090910190601f1901610fbc565b8015610df2576000600019600883021c198554845182169119161785555050505050565b600064ffffffffff821115611045576040517f4767058800000000000000000000000000000000000000000000000000000000815260048101839052602401610412565b8366ffffffffffffff811660ff851660280260380182901c64ffffffffff16808510611077578085038201915061107f565b848103820391505b5064ffffffffff6038602860ff8816020190811b80197fffffffffffffffffffffffffffffffffffffffffffffffffff0000000000000094909416909217929092169184901b161790509392505050565b634e487b7160e01b600052601160045260246000fd5b600063ffffffff808316818516808303821115611105576111056110d0565b01949350505050565b634e487b7160e01b600052604160045260246000fd5b8051602080830151919081101561081d5760001960209190910360031b1b16919050565b634e487b7160e01b600052603260045260246000fd5b634e487b7160e01b600052602160045260246000fd5b600081518084526020808501945080840160005b838110156111a457815187529582019590820190600101611188565b509495945050505050565b8481526080602082015260006111c86080830186611174565b60ff949094166040830152506060015292915050565b60005b838110156111f95781810151838201526020016111e1565b83811115610df25750506000910152565b60006020828403121561121c57600080fd5b815167ffffffffffffffff8082111561123457600080fd5b818401915084601f83011261124857600080fd5b81518181111561125a5761125a61110e565b604051601f8201601f19908116603f011681019083821181831017156112825761128261110e565b8160405282815287602084870101111561129b57600080fd5b6112ac8360208301602088016111de565b979650505050505050565b600081518084526112cf8160208601602086016111de565b601f01601f19169290920160200192915050565b85815260a0602082015260006112fc60a0830187611174565b60ff86166040840152828103606084015261131781866112b7565b9150508260808301529695505050505050565b8481526080602082015260006113436080830186611174565b60ff8516604084015282810360608401526112ac81856112b7565b60006000198203611371576113716110d0565b5060010190565b600060ff821660ff841680821015611392576113926110d0565b90039392505050565b8381528260208201526060604082015260006113ba6060830184611174565b95945050505050565b600082198211156113d6576113d66110d0565b500190565b8481528360208201526080604082015260006113fa6080830185611174565b905060ff8316606083015295945050505050565b60608152600061142160608301866112b7565b60208301949094525060400152919050565b600082821015611445576114456110d0565b500390565b634e487b7160e01b600052601260045260246000fd5b83815282602082015260806040820152600061147f6080830184611174565b8281036060840152600681527f6c656e6774680000000000000000000000000000000000000000000000000000602082015260408101915050949350505050565b6000826114dd57634e487b7160e01b600052601260045260246000fd5b50069056fea264697066735822122063ca39cabaa0683ea0605718cb9af1b39eeb6ccf34c0568f4e7d33c817ba5e1064736f6c634300080d0033",
    "linkReferences": {}
  },
  "methodIdentifiers": {
    "increment()": "d09de08a"
  },
  "id": 71
}