{
  "abi": [
    {
      "inputs": [
        {
          "internalType": "uint256",
          "name": "length",
          "type": "uint256"
        }
      ],
      "name": "FieldLayoutLib_InvalidLength",
      "type": "error"
    },
    {
      "inputs": [],
      "name": "FieldLayoutLib_StaticLengthDoesNotFitInAWord",
      "type": "error"
    },
    {
      "inputs": [],
      "name": "FieldLayoutLib_StaticLengthIsZero",
      "type": "error"
    },
    {
      "inputs": [
        {
          "internalType": "uint256",
          "name": "length",
          "type": "uint256"
        }
      ],
      "name": "PackedCounter_InvalidLength",
      "type": "error"
    },
    {
      "inputs": [
        {
          "internalType": "bytes",
          "name": "data",
          "type": "bytes"
        },
        {
          "internalType": "uint256",
          "name": "start",
          "type": "uint256"
        },
        {
          "internalType": "uint256",
          "name": "end",
          "type": "uint256"
        }
      ],
      "name": "Slice_OutOfBounds",
      "type": "error"
    },
    {
      "inputs": [],
      "name": "StoreCore_NotDynamicField",
      "type": "error"
    },
    {
      "inputs": [],
      "name": "_msgSender",
      "outputs": [
        {
          "internalType": "address",
          "name": "sender",
          "type": "address"
        }
      ],
      "stateMutability": "view",
      "type": "function"
    },
    {
      "inputs": [],
      "name": "_msgValue",
      "outputs": [
        {
          "internalType": "uint256",
          "name": "value",
          "type": "uint256"
        }
      ],
      "stateMutability": "pure",
      "type": "function"
    },
    {
      "inputs": [],
      "name": "_world",
      "outputs": [
        {
          "internalType": "address",
          "name": "",
          "type": "address"
        }
      ],
      "stateMutability": "view",
      "type": "function"
    },
    {
      "inputs": [],
      "name": "pop",
      "outputs": [],
      "stateMutability": "nonpayable",
      "type": "function"
    },
    {
      "inputs": [
        {
          "internalType": "uint32",
          "name": "num",
          "type": "uint32"
        }
      ],
      "name": "push",
      "outputs": [],
      "stateMutability": "nonpayable",
      "type": "function"
    },
    {
      "inputs": [
        {
          "internalType": "uint32",
          "name": "start",
          "type": "uint32"
        },
        {
          "internalType": "uint32",
          "name": "end",
          "type": "uint32"
        }
      ],
      "name": "pushRange",
      "outputs": [],
      "stateMutability": "nonpayable",
      "type": "function"
    },
    {
      "inputs": [
        {
          "internalType": "uint32[]",
          "name": "list",
          "type": "uint32[]"
        }
      ],
      "name": "set",
      "outputs": [],
      "stateMutability": "nonpayable",
      "type": "function"
    },
    {
      "inputs": [
        {
          "internalType": "bytes4",
          "name": "interfaceId",
          "type": "bytes4"
        }
      ],
      "name": "supportsInterface",
      "outputs": [
        {
          "internalType": "bool",
          "name": "",
          "type": "bool"
        }
      ],
      "stateMutability": "pure",
      "type": "function"
    }
  ],
  "bytecode": {
    "object": "0x608060405234801561001057600080fd5b506123eb806100206000396000f3fe608060405234801561001057600080fd5b50600436106100885760003560e01c8063a4ece52c1161005b578063a4ece52c1461010a578063b8a44c7c14610112578063e1af802c14610125578063f7f0e4401461012d57600080fd5b806301ffc9a71461008d578063119df25f146100b5578063306d61a5146100e257806345ec9354146100f7575b600080fd5b6100a061009b366004611d1e565b610140565b60405190151581526020015b60405180910390f35b6100bd6101d9565b60405173ffffffffffffffffffffffffffffffffffffffff90911681526020016100ac565b6100f56100f0366004611d74565b61020b565b005b604051601f1936013581526020016100ac565b6100f5610328565b6100f5610120366004611dee565b610332565b6100bd61033e565b6100f561013b366004611e9b565b61034d565b60007fffffffff0000000000000000000000000000000000000000000000000000000082167fb42128800000000000000000000000000000000000000000000000000000000014806101d357507fffffffff0000000000000000000000000000000000000000000000000000000082167f01ffc9a700000000000000000000000000000000000000000000000000000000145b92915050565b7fffffffffffffffffffffffffffffffffffffffffffffffffffffffffffffffcc36013560601c806102085750335b90565b60006102178383611ecc565b63ffffffff1667ffffffffffffffff81111561023557610235611da7565b60405190808252806020026020018201604052801561025e578160200160208202803683370190505b509050825b8263ffffffff168163ffffffff1610156102b75780828263ffffffff168151811061029057610290611ef1565b63ffffffff90921660209283029190910190910152806102af81611f07565b915050610263565b5060408051600060208201527f4e756d6265724c697374000000000000000000000000000000000000000000006030820152606091610322910160405160208183030381529060405261030990611f2a565b82600061031586610356565b61031d61036d565b61038e565b50505050565b61033061045e565b565b61033b816104c7565b50565b600061034861053b565b905090565b61033b81610587565b60608161036681600460e061062c565b9392505050565b6040805160008082526020820190925261038881600161068c565b91505090565b600061039861053b565b90503073ffffffffffffffffffffffffffffffffffffffff8216036103c9576103c4868686868661088b565b610456565b6040517f0edac7fd00000000000000000000000000000000000000000000000000000000815273ffffffffffffffffffffffffffffffffffffffff821690630edac7fd906104239089908990899089908990600401611fe4565b600060405180830381600087803b15801561043d57600080fd5b505af1158015610451573d6000803e3d6000fd5b505050505b505050505050565b604080516000808252602082018352818301527f4e756d6265724c697374000000000000000000000000000000000000000000006050820152815180820383018152606082019092529061033b906104b590611f2a565b82600060046104c261036d565b610af5565b604080516000808252602082018352818301527f4e756d6265724c69737400000000000000000000000000000000000000000000605082015281518082038301815260608201909252906105379061051e90611f2a565b82600061052a86610356565b61053261036d565b610b85565b5050565b7f629a4c26e296b22a8e0856e9f6ecb2d1008d7e00081111962cd175fa7488e1755460009073ffffffffffffffffffffffffffffffffffffffff1680610582573391505090565b919050565b604080516000808252602082018352818301527f4e756d6265724c6973740000000000000000000000000000000000000000000060508201528151808203830181526060820190925290610537906105de90611f2a565b6040517fffffffff0000000000000000000000000000000000000000000000000000000060e086901b166020820152839060009060240160405160208183030381529060405261031d61036d565b8251606090600061063d858361202b565b9050604051925060208301601f19603f83860101166040528184526000602088015b84821015610680578051871b8352918701916001919091019060200161065f565b50505050509392505050565b60008060008084865161069f919061204a565b9050601c8111156106e4576040517f97e36a0a000000000000000000000000000000000000000000000000000000008152600481018290526024015b60405180910390fd5b6005851115610722576040517f97e36a0a000000000000000000000000000000000000000000000000000000008152600481018690526024016106db565b60005b86518110156107fe57600087828151811061074257610742611ef1565b6020026020010151905080600003610786576040517fbf1ac38300000000000000000000000000000000000000000000000000000000815260040160405180910390fd5b60208111156107c1576040517f2392baa400000000000000000000000000000000000000000000000000000000815260040160405180910390fd5b80840193506008826004601f0303028883815181106107e2576107e2611ef1565b6020026020010151901b85179450818060010192505050610725565b50600861080d60026020612062565b610817919061202b565b82901b92909217916008600161082f60026020612062565b6108399190612062565b610843919061202b565b8651901b9290921791600860018061085d60026020612062565b6108679190612062565b6108719190612062565b61087b919061202b565b9490941b91909117949350505050565b61089481610c15565b8360ff1610156108d0576040517f14306eb800000000000000000000000000000000000000000000000000000000815260040160405180910390fd5b60006108de86868685610c47565b836040516020016108f0929190612079565b6040516020818303038152906040529050600061090c87610cb0565b905060005b8151811015610a0a57600082828151811061092e5761092e611ef1565b602002602001015190506109776002600581111561094e5761094e6120a8565b7fffffffffffffffffffffffffffffffffffffffffff0000000000000000000000831690610d8d565b156109f7576040517fbf11b74e000000000000000000000000000000000000000000000000000000008152606082901c9063bf11b74e906109c4908c908c908c908a908c90600401611fe4565b600060405180830381600087803b1580156109de57600080fd5b505af11580156109f2573d6000803e3d6000fd5b505050505b5080610a02816120be565b915050610911565b50610a188787858888610dae565b60005b8151811015610aeb576000828281518110610a3857610a38611ef1565b60200260200101519050610a586003600581111561094e5761094e6120a8565b15610ad8576040517f7da508a2000000000000000000000000000000000000000000000000000000008152606082901c90637da508a290610aa5908c908c908c908a908c90600401611fe4565b600060405180830381600087803b158015610abf57600080fd5b505af1158015610ad3573d6000803e3d6000fd5b505050505b5080610ae3816120be565b915050610a1b565b5050505050505050565b6000610aff61053b565b90503073ffffffffffffffffffffffffffffffffffffffff821603610b2b576103c48686868686610eb0565b6040517f6e161b7600000000000000000000000000000000000000000000000000000000815273ffffffffffffffffffffffffffffffffffffffff821690636e161b769061042390899089908990899089906004016120d8565b6000610b8f61053b565b90503073ffffffffffffffffffffffffffffffffffffffff821603610bbb576103c486868686866110eb565b6040517f3708196e00000000000000000000000000000000000000000000000000000000815273ffffffffffffffffffffffffffffffffffffffff821690633708196e906104239089908990899089908990600401611fe4565b600060086001610c2760026020612062565b610c319190612062565b610c3b919061202b565b8260ff911c1692915050565b60606000610c5483610c15565b610c5e9085612111565b90506000610c6d8787846112da565b90506000610c9483610c7f8a8a611333565b9060ff166028026038011c64ffffffffff1690565b9050610ca28282600061134a565b93505050505b949350505050565b60408051600180825281830190925260609160009190602080830190803683370190505090508281600081518110610cea57610cea611ef1565b602090810291909101810191909152604080517f6d756473746f7265000000000000000000000000000000000000000000000000818401527f53746f7265486f6f6b730000000000000000000000000000000000000000000060308201528151808203909301835281019052600090610d7690610d6690611f2a565b836000610d7161036d565b611375565b9050610ca8610d888260008451611451565b6114e1565b6000600160ff83161b610da08460581c90565b1660ff161515905092915050565b6000610db984610c15565b610dc39084612111565b90506000610dd187876114f2565b90506000610ddd825490565b90506000610dfa828560ff166028026038011c64ffffffffff1690565b9050610e1584865183610e0d919061204a565b849190611548565b8084559150610e278989868489611617565b8060005b8560ff168160ff161015610e5e57610e52848260ff166028026038011c64ffffffffff1690565b90910190600101610e2b565b5060007f9ded3a5a78199a737f59213ee5817f193988e67d8f197b17314f1804fe6715c88b8b84848b895b604051610e9b96959493929190612134565b60405180910390a15050505050505050505050565b610eb981610c15565b8360ff161015610ef5576040517f14306eb800000000000000000000000000000000000000000000000000000000815260040160405180910390fd5b60606000610f0587878786610c47565b9050610f27610f22826000878551610f1d9190612062565b611451565b611657565b9150506000610f3587610cb0565b905060005b815181101561100a576000828281518110610f5757610f57611ef1565b60200260200101519050610f776002600581111561094e5761094e6120a8565b15610ff7576040517fbf11b74e000000000000000000000000000000000000000000000000000000008152606082901c9063bf11b74e90610fc4908c908c908c908a908c90600401611fe4565b600060405180830381600087803b158015610fde57600080fd5b505af1158015610ff2573d6000803e3d6000fd5b505050505b5080611002816120be565b915050610f3a565b5061101887878588886116d7565b60005b8151811015610aeb57600082828151811061103857611038611ef1565b602002602001015190506110586003600581111561094e5761094e6120a8565b156110d8576040517f7da508a2000000000000000000000000000000000000000000000000000000008152606082901c90637da508a2906110a5908c908c908c908a908c90600401611fe4565b600060405180830381600087803b1580156110bf57600080fd5b505af11580156110d3573d6000803e3d6000fd5b505050505b50806110e3816120be565b91505061101b565b60006110f686610cb0565b905060005b81518110156111cb57600082828151811061111857611118611ef1565b602002602001015190506111386002600581111561094e5761094e6120a8565b156111b8576040517fbf11b74e000000000000000000000000000000000000000000000000000000008152606082901c9063bf11b74e90611185908b908b908b908b908b90600401611fe4565b600060405180830381600087803b15801561119f57600080fd5b505af11580156111b3573d6000803e3d6000fd5b505050505b50806111c3816120be565b9150506110fb565b506111d582610c15565b8460ff1610156111f1576111ec86868487876117cc565b6111fe565b6111fe8686848787611851565b60005b81518110156112d157600082828151811061121e5761121e611ef1565b6020026020010151905061123e6003600581111561094e5761094e6120a8565b156112be576040517f7da508a2000000000000000000000000000000000000000000000000000000008152606082901c90637da508a29061128b908b908b908b908b908b90600401611fe4565b600060405180830381600087803b1580156112a557600080fd5b505af11580156112b9573d6000803e3d6000fd5b505050505b50806112c9816120be565b915050611201565b50505050505050565b60007f86425bff6b57326c7859e89024fe4f238ca327a1ae4a230180dd2f0e88aaa7d9848484604051602001611313949392919061218e565b60408051601f198184030181529190528051602090910120949350505050565b60008061134084846114f2565b9050610ca8815490565b60405160208101601f19603f858401011660405283825261136d8585858461195d565b509392505050565b6060600061138161053b565b90503073ffffffffffffffffffffffffffffffffffffffff8216036113b4576113ac86868686611a15565b915050610ca8565b6040517f05242d2f00000000000000000000000000000000000000000000000000000000815273ffffffffffffffffffffffffffffffffffffffff8216906305242d2f9061140c9089908990899089906004016121c1565b600060405180830381865afa158015611429573d6000803e3d6000fd5b505050506040513d6000823e601f3d908101601f191682016040526113ac91908101906121f0565b6000818311158015611464575083518211155b6114a0578383836040517f23230fa30000000000000000000000000000000000000000000000000000000081526004016106db93929190612284565b602084016114ae848261204a565b905060006114bc8585612062565b6fffffffffffffffffffffffffffffffff1660809290921b9190911795945050505050565b606060006103668360156000611a49565b60007f86425bff6b57326c7859e89024fe4f238ca327a1ae4a230180dd2f0e88aaa7d98383604051602001611529939291906122a9565b60408051601f1981840301815291905280516020909101209392505050565b600064ffffffffff82111561158c576040517f47670588000000000000000000000000000000000000000000000000000000008152600481018390526024016106db565b8366ffffffffffffff811660ff851660280260380182901c64ffffffffff168085106115be57808503820191506115c6565b848103820391505b5064ffffffffff6038602860ff8816020190811b80197fffffffffffffffffffffffffffffffffffffffffffffffffff0000000000000094909416909217929092169184901b161790509392505050565b60006116248686866112da565b905061163160208461231f565b61163b908261204a565b9050600061164a602085612333565b90506112d1828285611b4f565b606060006116658360801c90565b90506fffffffffffffffffffffffffffffffff83168067ffffffffffffffff81111561169357611693611da7565b6040519080825280601f01601f1916602001820160405280156116bd576020820181803683370190505b509250602083016116cf838284611b64565b505050919050565b60006116e284610c15565b6116ec9084612111565b905060006116fa87876114f2565b90506000611706825490565b90506000611723828560ff166028026038011c64ffffffffff1690565b905061173384610e0d8784612062565b80845591508060005b8560ff168160ff16101561176f57611763848260ff166028026038011c64ffffffffff1690565b9091019060010161173c565b50859003857f9ded3a5a78199a737f59213ee5817f193988e67d8f197b17314f1804fe6715c88b8b848460006040519080825280601f01601f1916602001820160405280156117c5576020820181803683370190505b5089610e89565b60006117d88686611bb0565b905060006117e68585611be7565b90506117f3828285611b4f565b80600060ff868116601b0360080288901c1690507f8bb7ab1f6067da0c10fcfb8051bacf60d415931c3d1f76db093d0088abba1fd7898984848960405161183e959493929190612347565b60405180910390a1505050505050505050565b600061185c84610c15565b6118669084612111565b9050600061187487876114f2565b90506000611880825490565b9050600061189d828560ff166028026038011c64ffffffffff1690565b90506118b5848651846115489092919063ffffffff16565b808455915060006118c78a8a876112da565b90506118d581600088611b4f565b6000805b8660ff168160ff16101561190c57611900858260ff166028026038011c64ffffffffff1690565b909101906001016118d9565b50827f9ded3a5a78199a737f59213ee5817f193988e67d8f197b17314f1804fe6715c88c8c84848c8a60405161194796959493929190612134565b60405180910390a1505050505050505050505050565b81156119cf57602082106119875760208204840193506020828161198357611983612309565b0691505b81156119cf5760208290036000600019600883021c1990508554600885021b8119845116828216178452508185116119c0575050610322565b50600194909401939283900392015b5b602083106119f15783548152600190930192601f19909201916020016119d0565b8215610322576000600019600885021c198251865482169119161782525050505050565b6060611a2082610c15565b8360ff161015611a3d57611a3685858585611c22565b9050610ca8565b611a3685858585610c47565b60606000611a578560801c90565b90506fffffffffffffffffffffffffffffffff85166000858281611a7d57611a7d612309565b049050611a8a8683612333565b15611b17576040517f08c379a000000000000000000000000000000000000000000000000000000000815260206004820152603d60248201527f756e7061636b546f41727261793a207061636b65644c656e677468206d75737460448201527f2062652061206d756c7469706c65206f6620656c656d656e7453697a6500000060648201526084016106db565b60405193506020840160208202810160405281855260005b82811015610680578451871c825293870193602090910190600101611b2f565b611b5f8383602084018451611c5e565b505050565b5b60208110611b84578251825260209283019290910190601f1901611b65565b80600003611b9157505050565b6000600019600883021c19905080198351168185511617835250505050565b60007f86425bff6b57326c7859e89024fe4f238ca327a1ae4a230180dd2f0e88aaa7d983836040516020016115299392919061238d565b600080805b8360ff1681101561136d57611c0e60ff601b83900360080287901c168361204a565b915080611c1a816120be565b915050611bec565b6060600060ff848116601b0360080284901c1690506000611c438787611bb0565b90506000611c518587611be7565b9050610ca282848361134a565b8215611cd85760208310611c8857602083048401935060208381611c8457611c84612309565b0692505b8215611cd85760208390036000600019600884021c1990506008850281811c91508451811c9050811987541682821617875550818311611cc9575050610322565b50600194909401939182019190035b5b60208110611cfa5781518455600190930192602090910190601f1901611cd9565b8015610322576000600019600883021c198554845182169119161785555050505050565b600060208284031215611d3057600080fd5b81357fffffffff000000000000000000000000000000000000000000000000000000008116811461036657600080fd5b803563ffffffff8116811461058257600080fd5b60008060408385031215611d8757600080fd5b611d9083611d60565b9150611d9e60208401611d60565b90509250929050565b634e487b7160e01b600052604160045260246000fd5b604051601f8201601f1916810167ffffffffffffffff81118282101715611de657611de6611da7565b604052919050565b60006020808385031215611e0157600080fd5b823567ffffffffffffffff80821115611e1957600080fd5b818501915085601f830112611e2d57600080fd5b813581811115611e3f57611e3f611da7565b8060051b9150611e50848301611dbd565b8181529183018401918481019088841115611e6a57600080fd5b938501935b83851015611e8f57611e8085611d60565b82529385019390850190611e6f565b98975050505050505050565b600060208284031215611ead57600080fd5b61036682611d60565b634e487b7160e01b600052601160045260246000fd5b600063ffffffff83811690831681811015611ee957611ee9611eb6565b039392505050565b634e487b7160e01b600052603260045260246000fd5b600063ffffffff808316818103611f2057611f20611eb6565b6001019392505050565b80516020808301519190811015611f4b576000198160200360031b1b821691505b50919050565b600081518084526020808501945080840160005b83811015611f8157815187529582019590820190600101611f65565b509495945050505050565b60005b83811015611fa7578181015183820152602001611f8f565b838111156103225750506000910152565b60008151808452611fd0816020860160208601611f8c565b601f01601f19169290920160200192915050565b85815260a060208201526000611ffd60a0830187611f51565b60ff8616604084015282810360608401526120188186611fb8565b9150508260808301529695505050505050565b600081600019048311821515161561204557612045611eb6565b500290565b6000821982111561205d5761205d611eb6565b500190565b60008282101561207457612074611eb6565b500390565b6000835161208b818460208801611f8c565b83519083019061209f818360208801611f8c565b01949350505050565b634e487b7160e01b600052602160045260246000fd5b600060001982036120d1576120d1611eb6565b5060010190565b85815260a0602082015260006120f160a0830187611f51565b60ff95909516604083015250606081019290925260809091015292915050565b600060ff821660ff84168082101561212b5761212b611eb6565b90039392505050565b86815260c06020820152600061214d60c0830188611f51565b65ffffffffffff8716604084015264ffffffffff86166060840152828103608084015261217a8186611fb8565b9150508260a0830152979650505050505050565b8481528360208201526080604082015260006121ad6080830185611f51565b905060ff8316606083015295945050505050565b8481526080602082015260006121da6080830186611f51565b60ff949094166040830152506060015292915050565b60006020828403121561220257600080fd5b815167ffffffffffffffff8082111561221a57600080fd5b818401915084601f83011261222e57600080fd5b81518181111561224057612240611da7565b6122536020601f19601f84011601611dbd565b915080825285602082850101111561226a57600080fd5b61227b816020840160208601611f8c565b50949350505050565b6060815260006122976060830186611fb8565b60208301949094525060400152919050565b8381528260208201526080604082015260006122c86080830184611f51565b8281036060840152600681527f6c656e6774680000000000000000000000000000000000000000000000000000602082015260408101915050949350505050565b634e487b7160e01b600052601260045260246000fd5b60008261232e5761232e612309565b500490565b60008261234257612342612309565b500690565b85815260a06020820152600061236060a0830187611f51565b65ffffffffffff8616604084015264ffffffffff851660608401528281036080840152611e8f8185611fb8565b8381528260208201526060604082015260006123ac6060830184611f51565b9594505050505056fea2646970667358221220486082bf9ba2c289ddd8123d044335a58fb380a6a529190614c840b553ba4f3f64736f6c634300080d0033",
    "linkReferences": {}
  },
  "methodIdentifiers": {
    "_msgSender()": "119df25f",
    "_msgValue()": "45ec9354",
    "_world()": "e1af802c",
    "pop()": "a4ece52c",
    "push(uint32)": "f7f0e440",
    "pushRange(uint32,uint32)": "306d61a5",
    "set(uint32[])": "b8a44c7c",
    "supportsInterface(bytes4)": "01ffc9a7"
  },
  "id": 97
}