{
  "abi": [
    {
      "inputs": [],
      "stateMutability": "nonpayable",
      "type": "constructor"
    },
    {
      "anonymous": false,
      "inputs": [
        {
          "indexed": true,
          "internalType": "uint256",
          "name": "componentId",
          "type": "uint256"
        },
        {
          "indexed": true,
          "internalType": "address",
          "name": "component",
          "type": "address"
        },
        {
          "indexed": true,
          "internalType": "uint256",
          "name": "entity",
          "type": "uint256"
        }
      ],
      "name": "ComponentValueRemoved",
      "type": "event"
    },
    {
      "anonymous": false,
      "inputs": [
        {
          "indexed": true,
          "internalType": "uint256",
          "name": "componentId",
          "type": "uint256"
        },
        {
          "indexed": true,
          "internalType": "address",
          "name": "component",
          "type": "address"
        },
        {
          "indexed": true,
          "internalType": "uint256",
          "name": "entity",
          "type": "uint256"
        },
        {
          "indexed": false,
          "internalType": "bytes",
          "name": "data",
          "type": "bytes"
        }
      ],
      "name": "ComponentValueSet",
      "type": "event"
    },
    {
      "inputs": [],
      "name": "components",
      "outputs": [
        {
          "internalType": "contract IUint256Component",
          "name": "",
          "type": "address"
        }
      ],
      "stateMutability": "view",
      "type": "function"
    },
    {
      "inputs": [
        {
          "internalType": "uint256",
          "name": "id",
          "type": "uint256"
        }
      ],
      "name": "getComponent",
      "outputs": [
        {
          "internalType": "address",
          "name": "",
          "type": "address"
        }
      ],
      "stateMutability": "view",
      "type": "function"
    },
    {
      "inputs": [
        {
          "internalType": "address",
          "name": "componentAddr",
          "type": "address"
        }
      ],
      "name": "getComponentIdFromAddress",
      "outputs": [
        {
          "internalType": "uint256",
          "name": "",
          "type": "uint256"
        }
      ],
      "stateMutability": "view",
      "type": "function"
    },
    {
      "inputs": [],
      "name": "getNumEntities",
      "outputs": [
        {
          "internalType": "uint256",
          "name": "",
          "type": "uint256"
        }
      ],
      "stateMutability": "view",
      "type": "function"
    },
    {
      "inputs": [
        {
          "internalType": "uint256",
          "name": "systemId",
          "type": "uint256"
        }
      ],
      "name": "getSystemAddress",
      "outputs": [
        {
          "internalType": "address",
          "name": "",
          "type": "address"
        }
      ],
      "stateMutability": "view",
      "type": "function"
    },
    {
      "inputs": [],
      "name": "getUniqueEntityId",
      "outputs": [
        {
          "internalType": "uint256",
          "name": "",
          "type": "uint256"
        }
      ],
      "stateMutability": "view",
      "type": "function"
    },
    {
      "inputs": [
        {
          "internalType": "uint256",
          "name": "entity",
          "type": "uint256"
        }
      ],
      "name": "hasEntity",
      "outputs": [
        {
          "internalType": "bool",
          "name": "",
          "type": "bool"
        }
      ],
      "stateMutability": "view",
      "type": "function"
    },
    {
      "inputs": [],
      "name": "init",
      "outputs": [],
      "stateMutability": "nonpayable",
      "type": "function"
    },
    {
      "inputs": [
        {
          "components": [
            {
              "internalType": "enum QueryType",
              "name": "queryType",
              "type": "uint8"
            },
            {
              "internalType": "uint256",
              "name": "componentId",
              "type": "uint256"
            },
            {
              "internalType": "bytes",
              "name": "value",
              "type": "bytes"
            }
          ],
          "internalType": "struct WorldQueryFragment[]",
          "name": "worldQueryFragments",
          "type": "tuple[]"
        }
      ],
      "name": "query",
      "outputs": [
        {
          "internalType": "uint256[]",
          "name": "",
          "type": "uint256[]"
        }
      ],
      "stateMutability": "view",
      "type": "function"
    },
    {
      "inputs": [],
      "name": "register",
      "outputs": [
        {
          "internalType": "contract RegisterSystem",
          "name": "",
          "type": "address"
        }
      ],
      "stateMutability": "view",
      "type": "function"
    },
    {
      "inputs": [
        {
          "internalType": "address",
          "name": "componentAddr",
          "type": "address"
        },
        {
          "internalType": "uint256",
          "name": "id",
          "type": "uint256"
        }
      ],
      "name": "registerComponent",
      "outputs": [],
      "stateMutability": "nonpayable",
      "type": "function"
    },
    {
      "inputs": [
        {
          "internalType": "uint256",
          "name": "entity",
          "type": "uint256"
        }
      ],
      "name": "registerComponentValueRemoved",
      "outputs": [],
      "stateMutability": "nonpayable",
      "type": "function"
    },
    {
      "inputs": [
        {
          "internalType": "address",
          "name": "component",
          "type": "address"
        },
        {
          "internalType": "uint256",
          "name": "entity",
          "type": "uint256"
        }
      ],
      "name": "registerComponentValueRemoved",
      "outputs": [],
      "stateMutability": "nonpayable",
      "type": "function"
    },
    {
      "inputs": [
        {
          "internalType": "address",
          "name": "component",
          "type": "address"
        },
        {
          "internalType": "uint256",
          "name": "entity",
          "type": "uint256"
        },
        {
          "internalType": "bytes",
          "name": "data",
          "type": "bytes"
        }
      ],
      "name": "registerComponentValueSet",
      "outputs": [],
      "stateMutability": "nonpayable",
      "type": "function"
    },
    {
      "inputs": [
        {
          "internalType": "uint256",
          "name": "entity",
          "type": "uint256"
        },
        {
          "internalType": "bytes",
          "name": "data",
          "type": "bytes"
        }
      ],
      "name": "registerComponentValueSet",
      "outputs": [],
      "stateMutability": "nonpayable",
      "type": "function"
    },
    {
      "inputs": [
        {
          "internalType": "address",
          "name": "systemAddr",
          "type": "address"
        },
        {
          "internalType": "uint256",
          "name": "id",
          "type": "uint256"
        }
      ],
      "name": "registerSystem",
      "outputs": [],
      "stateMutability": "nonpayable",
      "type": "function"
    },
    {
      "inputs": [],
      "name": "systems",
      "outputs": [
        {
          "internalType": "contract IUint256Component",
          "name": "",
          "type": "address"
        }
      ],
      "stateMutability": "view",
      "type": "function"
    }
  ],
  "bytecode": {
    "object": "0x6080604052604051620000129062000295565b604051809103906000f0801580156200002f573d6000803e3d6000fd5b50600080546001600160a01b0319166001600160a01b03929092169190911790553480156200005d57600080fd5b5060007f4350dba81aa91e31664a09d24a668f006169a11b3d962b7557aed362d3252aec60001c6040516200009290620002a3565b6001600160a01b0390921682526020820152604001604051809103906000f080158015620000c4573d6000803e3d6000fd5b50600180546001600160a01b0319166001600160a01b03929092169190911790556040516000907f017c816a964927a00e050edd780dcf113ca2756dfa9e9fda94a05c140d9317b0906200011890620002a3565b6001600160a01b0390921682526020820152604001604051809103906000f0801580156200014a573d6000803e3d6000fd5b50600280546001600160a01b0319166001600160a01b03928316179055600154604051309291909116906200017f90620002b1565b6001600160a01b03928316815291166020820152604001604051809103906000f080158015620001b3573d6000803e3d6000fd5b50600380546001600160a01b0319166001600160a01b039283169081179091556002546040516309fded4760e31b8152600481019290925290911690634fef6a3890602401600060405180830381600087803b1580156200021357600080fd5b505af115801562000228573d6000803e3d6000fd5b50506001546003546040516309fded4760e31b81526001600160a01b03918216600482015291169250634fef6a389150602401600060405180830381600087803b1580156200027657600080fd5b505af11580156200028b573d6000803e3d6000fd5b50505050620002bf565b61084a806200305383390190565b612f43806200389d83390190565b6112e780620067e083390190565b612d8480620002cf6000396000f3fe608060405234801561001057600080fd5b506004361061011b5760003560e01c8063af104e40116100b2578063d803064a11610081578063e3d1287511610066578063e3d128751461026f578063f303477014610292578063fb3ec48b146102a557600080fd5b8063d803064a14610254578063e1c7392a1461026757600080fd5b8063af104e4014610208578063ba62fbe41461021b578063cfd3c57f14610239578063d7ecf62b1461024c57600080fd5b80634f27da18116100ee5780634f27da18146101ac578063614bfa6e146101bf578063687485a6146101d55780639f54f545146101f557600080fd5b80630d59332e146101205780630de3b7b5146101645780631aa3a008146101795780631ee444b714610199575b600080fd5b60025473ffffffffffffffffffffffffffffffffffffffff165b60405173ffffffffffffffffffffffffffffffffffffffff90911681526020015b60405180910390f35b610177610172366004612614565b6102b8565b005b60035461013a9073ffffffffffffffffffffffffffffffffffffffff1681565b6101776101a7366004612656565b61040a565b61013a6101ba366004612614565b6104d9565b6101c7610505565b60405190815260200161015b565b6101e86101e3366004612680565b610563565b60405161015b91906126f5565b6101c7610203366004612739565b610742565b61017761021636600461279d565b610768565b60015473ffffffffffffffffffffffffffffffffffffffff1661013a565b6101776102473660046127f7565b610979565b6101c7610b5c565b610177610262366004612656565b610bf3565b610177610d6e565b61028261027d366004612614565b610f61565b604051901515815260200161015b565b6101776102a0366004612656565b610ff5565b61013a6102b3366004612614565b61102f565b6001546040517fcccf7a8e00000000000000000000000000000000000000000000000000000000815233600482018190529173ffffffffffffffffffffffffffffffffffffffff169063cccf7a8e90602401602060405180830381865afa158015610327573d6000803e3d6000fd5b505050506040513d601f19601f8201168201806040525081019061034b9190612843565b6103b6576040517f08c379a000000000000000000000000000000000000000000000000000000000815260206004820152601860248201527f636f6d706f6e656e74206e6f742072656769737465726564000000000000000060448201526064015b60405180910390fd5b600154829033906103dd9073ffffffffffffffffffffffffffffffffffffffff1682611055565b6040517f6dd56823030ae6d8ae09cbfb8972c4e9494e67b209c4ab6300c21d73e269b35090600090a45050565b60035460405173ffffffffffffffffffffffffffffffffffffffff909116906309c5eabe9061044490339060019087908790602001612894565b6040516020818303038152906040526040518263ffffffff1660e01b815260040161046f9190612938565b6000604051808303816000875af115801561048e573d6000803e3d6000fd5b505050506040513d6000823e601f3d9081017fffffffffffffffffffffffffffffffffffffffffffffffffffffffffffffffe01682016040526104d49190810190612a07565b505050565b6001546000906104ff9073ffffffffffffffffffffffffffffffffffffffff16836111f4565b92915050565b600080610510610b5c565b905060005b8161051f81612ae8565b9250508160405160200161053591815260200190565b6040516020818303038152906040528051906020012060001c905061055981610f61565b6105155792915050565b606060008267ffffffffffffffff81111561058057610580612989565b6040519080825280602002602001820160405280156105cd57816020015b6040805160608082018352600080835260208301529181019190915281526020019060019003908161059e5790505b50905060005b838110156107305760405180606001604052808686848181106105f8576105f8612b20565b905060200281019061060a9190612b4f565b610618906020810190612b8d565b600581111561062957610629612865565b815260015460209091019061067b9073ffffffffffffffffffffffffffffffffffffffff1688888681811061066057610660612b20565b90506020028101906106729190612b4f565b60200135611338565b73ffffffffffffffffffffffffffffffffffffffff1681526020018686848181106106a8576106a8612b20565b90506020028101906106ba9190612b4f565b6106c8906040810190612bae565b8080601f0160208091040260200160405190810160405280939291908181526020018383808284376000920191909152505050915250825183908390811061071257610712612b20565b6020026020010181905250808061072890612ae8565b9150506105d3565b5061073a81611344565b949350505050565b6001546000906104ff9073ffffffffffffffffffffffffffffffffffffffff1683611055565b600154849073ffffffffffffffffffffffffffffffffffffffff1663cccf7a8e6107a58373ffffffffffffffffffffffffffffffffffffffff1690565b6040518263ffffffff1660e01b81526004016107c391815260200190565b602060405180830381865afa1580156107e0573d6000803e3d6000fd5b505050506040513d601f19601f820116820180604052508101906108049190612843565b61086a576040517f08c379a000000000000000000000000000000000000000000000000000000000815260206004820152601860248201527f636f6d706f6e656e74206e6f742072656769737465726564000000000000000060448201526064016103ad565b3373ffffffffffffffffffffffffffffffffffffffff86161461088c57600080fd5b6000546040517f1003e2d20000000000000000000000000000000000000000000000000000000081526004810186905273ffffffffffffffffffffffffffffffffffffffff90911690631003e2d290602401600060405180830381600087803b1580156108f857600080fd5b505af115801561090c573d6000803e3d6000fd5b505060015486925073ffffffffffffffffffffffffffffffffffffffff8089169250610939911688611055565b7f6ac31c38682e0128240cf68316d7ae751020d8f74c614e2a30278afcec8a6073868660405161096a929190612c13565b60405180910390a45050505050565b6001546040517fcccf7a8e00000000000000000000000000000000000000000000000000000000815233600482018190529173ffffffffffffffffffffffffffffffffffffffff169063cccf7a8e90602401602060405180830381865afa1580156109e8573d6000803e3d6000fd5b505050506040513d601f19601f82011682018060405250810190610a0c9190612843565b610a72576040517f08c379a000000000000000000000000000000000000000000000000000000000815260206004820152601860248201527f636f6d706f6e656e74206e6f742072656769737465726564000000000000000060448201526064016103ad565b6000546040517f1003e2d20000000000000000000000000000000000000000000000000000000081526004810186905273ffffffffffffffffffffffffffffffffffffffff90911690631003e2d290602401600060405180830381600087803b158015610ade57600080fd5b505af1158015610af2573d6000803e3d6000fd5b5050600154869250339150610b1d9073ffffffffffffffffffffffffffffffffffffffff1682611055565b7f6ac31c38682e0128240cf68316d7ae751020d8f74c614e2a30278afcec8a60738686604051610b4e929190612c13565b60405180910390a450505050565b60008060009054906101000a900473ffffffffffffffffffffffffffffffffffffffff1673ffffffffffffffffffffffffffffffffffffffff1663949d225d6040518163ffffffff1660e01b8152600401602060405180830381865afa158015610bca573d6000803e3d6000fd5b505050506040513d601f19601f82011682018060405250810190610bee9190612c60565b905090565b600154829073ffffffffffffffffffffffffffffffffffffffff1663cccf7a8e610c308373ffffffffffffffffffffffffffffffffffffffff1690565b6040518263ffffffff1660e01b8152600401610c4e91815260200190565b602060405180830381865afa158015610c6b573d6000803e3d6000fd5b505050506040513d601f19601f82011682018060405250810190610c8f9190612843565b610cf5576040517f08c379a000000000000000000000000000000000000000000000000000000000815260206004820152601860248201527f636f6d706f6e656e74206e6f742072656769737465726564000000000000000060448201526064016103ad565b3373ffffffffffffffffffffffffffffffffffffffff841614610d1757600080fd5b600154829073ffffffffffffffffffffffffffffffffffffffff80861691610d40911686611055565b6040517f6dd56823030ae6d8ae09cbfb8972c4e9494e67b209c4ab6300c21d73e269b35090600090a4505050565b6001546040517f9d2c76b400000000000000000000000000000000000000000000000000000000815230600482015273ffffffffffffffffffffffffffffffffffffffff90911690639d2c76b490602401600060405180830381600087803b158015610dd957600080fd5b505af1158015610ded573d6000803e3d6000fd5b50506002546040517f9d2c76b400000000000000000000000000000000000000000000000000000000815230600482015273ffffffffffffffffffffffffffffffffffffffff9091169250639d2c76b49150602401600060405180830381600087803b158015610e5c57600080fd5b505af1158015610e70573d6000803e3d6000fd5b505060035460405173ffffffffffffffffffffffffffffffffffffffff90911692506309c5eabe9150610ece90339060019085907f554d0b3fe5f19a44775dc4000490ad0bafbc48129e8e396be983226890aece9990602001612894565b6040516020818303038152906040526040518263ffffffff1660e01b8152600401610ef99190612938565b6000604051808303816000875af1158015610f18573d6000803e3d6000fd5b505050506040513d6000823e601f3d9081017fffffffffffffffffffffffffffffffffffffffffffffffffffffffffffffffe0168201604052610f5e9190810190612a07565b50565b600080546040517fcccf7a8e0000000000000000000000000000000000000000000000000000000081526004810184905273ffffffffffffffffffffffffffffffffffffffff9091169063cccf7a8e90602401602060405180830381865afa158015610fd1573d6000803e3d6000fd5b505050506040513d601f19601f820116820180604052508101906104ff9190612843565b60035460405173ffffffffffffffffffffffffffffffffffffffff909116906309c5eabe9061044490339060009087908790602001612894565b6002546000906104ff9073ffffffffffffffffffffffffffffffffffffffff16836111f4565b60008273ffffffffffffffffffffffffffffffffffffffff1663cccf7a8e6110908473ffffffffffffffffffffffffffffffffffffffff1690565b6040518263ffffffff1660e01b81526004016110ae91815260200190565b602060405180830381865afa1580156110cb573d6000803e3d6000fd5b505050506040513d601f19601f820116820180604052508101906110ef9190612843565b611155576040517f08c379a000000000000000000000000000000000000000000000000000000000815260206004820152601660248201527f61646472657373206e6f7420726567697374657265640000000000000000000060448201526064016103ad565b8273ffffffffffffffffffffffffffffffffffffffff16630ff4c91661118e8473ffffffffffffffffffffffffffffffffffffffff1690565b6040518263ffffffff1660e01b81526004016111ac91815260200190565b602060405180830381865afa1580156111c9573d6000803e3d6000fd5b505050506040513d601f19601f820116820180604052508101906111ed9190612c60565b9392505050565b6040517ffbdfa1ea00000000000000000000000000000000000000000000000000000000815260048101829052600090819073ffffffffffffffffffffffffffffffffffffffff85169063fbdfa1ea90602401600060405180830381865afa158015611264573d6000803e3d6000fd5b505050506040513d6000823e601f3d9081017fffffffffffffffffffffffffffffffffffffffffffffffffffffffffffffffe01682016040526112aa9190810190612c79565b90508051600003611317576040517f08c379a000000000000000000000000000000000000000000000000000000000815260206004820152601160248201527f6964206e6f74207265676973746572656400000000000000000000000000000060448201526064016103ad565b61073a8160008151811061132d5761132d612b20565b602002602001015190565b60006111ed83836111f4565b606061134e6125a1565b7620000000000000000000000000000000000000000000008152600060208201819052600160808301525b835181101561181457600084828151811061139657611396612b20565b602002602001015190506113a981611827565b156113f7576004815160058111156113c3576113c3612865565b036113d057604083018190525b6005815160058111156113e5576113e5612865565b036113f257606083018190525b611801565b82608001511561171a5761140a81611862565b611470576040517f08c379a000000000000000000000000000000000000000000000000000000000815260206004820152601960248201527f4e454741544956455f494e495449414c5f465241474d454e540000000000000060448201526064016103ad565b600060808401819052808251600581111561148d5761148d612865565b1461153b57816020015173ffffffffffffffffffffffffffffffffffffffff1663b361be4683604001516040518263ffffffff1660e01b81526004016114d39190612938565b600060405180830381865afa1580156114f0573d6000803e3d6000fd5b505050506040513d6000823e601f3d9081017fffffffffffffffffffffffffffffffffffffffffffffffffffffffffffffffe01682016040526115369190810190612c79565b6115d0565b816020015173ffffffffffffffffffffffffffffffffffffffff166331b933b96040518163ffffffff1660e01b8152600401600060405180830381865afa15801561158a573d6000803e3d6000fd5b505050506040513d6000823e601f3d9081017fffffffffffffffffffffffffffffffffffffffffffffffffffffffffffffffe01682016040526115d09190810190612c79565b90506115db81611886565b845280516020808601919091526060850151015173ffffffffffffffffffffffffffffffffffffffff161580159061162e5750600084606001516040015180602001905181019061162c9190612c60565b115b156117145760005b815181101561171257600061168883838151811061165657611656612b20565b60200260200101518760600151602001518860600151604001518060200190518101906116839190612c60565b6118ee565b905060005b81518110156116fd576116d66116ce60405180604001604052808585815181106116b9576116b9612b20565b60200260200101518152602001600081525090565b885190611b25565b8752602087018051906116e882612ae8565b905250806116f581612ae8565b91505061168d565b5050808061170a90612ae8565b915050611636565b505b50611801565b82517620000000000000000000000000000000000000000000009060009060019060601c69ffffffffffffffffffff165b81156117f657600061176f8260408051808201909152600080825260208201525090565b805190915060006117808289611b8a565b905061178e8a898484611f49565b905080156117cc576117bc6117b56040518060400160405280858152602001600081525090565b8890611b25565b9650856117c881612ae8565b9650505b6117d98a89848a8a611fdb565b8b5160b01c86015191985096508015159550935061174b92505050565b505090845260208401525b508061180c81612ae8565b915050611379565b506111ed8160000151826020015161216c565b600060048251600581111561183e5761183e612865565b14806104ff575060055b8251600581111561185b5761185b612865565b1492915050565b6000808251600581111561187857611878612865565b14806104ff57506002611848565b76200000000000000000000000000000000000000000000060005b82518110156118e8576118d46118cd60405180604001604052808685815181106116b9576116b9612b20565b8390611b25565b9150806118e081612ae8565b9150506118a1565b50919050565b60608160000361190d57506040805160008152602081019091526111ed565b60008373ffffffffffffffffffffffffffffffffffffffff1663b361be468660405160200161193e91815260200190565b6040516020818303038152906040526040518263ffffffff1660e01b81526004016119699190612938565b600060405180830381865afa158015611986573d6000803e3d6000fd5b505050506040513d6000823e601f3d9081017fffffffffffffffffffffffffffffffffffffffffffffffffffffffffffffffe01682016040526119cc9190810190612c79565b9050826001036119dd5790506111ed565b7620000000000000000000000000000000000000000000006000805b8351811015611a9e576000611a2f858381518110611a1957611a19612b20565b60200260200101518960018a6116839190612d1f565b905060005b8151811015611a8957611a67611a6060405180604001604052808585815181106116b9576116b9612b20565b8690611b25565b945083611a7381612ae8565b9450508080611a8190612ae8565b915050611a34565b50508080611a9690612ae8565b9150506119f9565b506000611ab783855184611ab29190612d36565b61216c565b905060005b8451811015611b1957848181518110611ad757611ad7612b20565b6020026020010151828285611aec9190612d36565b81518110611afc57611afc612b20565b602090810291909101015280611b1181612ae8565b915050611abc565b50979650505050505050565b6000808360501b60b01c1160018114611b4a578260101b8360601b8517179150611b83565b828460b01c8560a01b60b01c01528260101b7fffffffffffffffffffffffffffffffffffffffff00000000000000000000000085161791505b5092915050565b60008082516005811115611ba057611ba0612865565b03611c415760208201516040517fcccf7a8e0000000000000000000000000000000000000000000000000000000081526004810185905273ffffffffffffffffffffffffffffffffffffffff9091169063cccf7a8e90602401602060405180830381865afa158015611c16573d6000803e3d6000fd5b505050506040513d601f19601f82011682018060405250810190611c3a9190612843565b90506104ff565b600282516005811115611c5657611c56612865565b03611d2d5760208201516040517fb8bc073d0000000000000000000000000000000000000000000000000000000081526004810185905273ffffffffffffffffffffffffffffffffffffffff9091169063b8bc073d90602401600060405180830381865afa158015611ccc573d6000803e3d6000fd5b505050506040513d6000823e601f3d9081017fffffffffffffffffffffffffffffffffffffffffffffffffffffffffffffffe0168201604052611d129190810190612a07565b805190602001208260400151805190602001201490506104ff565b600182516005811115611d4257611d42612865565b03611de45760208201516040517fcccf7a8e0000000000000000000000000000000000000000000000000000000081526004810185905273ffffffffffffffffffffffffffffffffffffffff9091169063cccf7a8e90602401602060405180830381865afa158015611db8573d6000803e3d6000fd5b505050506040513d601f19601f82011682018060405250810190611ddc9190612843565b1590506104ff565b600382516005811115611df957611df9612865565b03611ed15760208201516040517fb8bc073d0000000000000000000000000000000000000000000000000000000081526004810185905273ffffffffffffffffffffffffffffffffffffffff9091169063b8bc073d90602401600060405180830381865afa158015611e6f573d6000803e3d6000fd5b505050506040513d6000823e601f3d9081017fffffffffffffffffffffffffffffffffffffffffffffffffffffffffffffffe0168201604052611eb59190810190612a07565b80519060200120826040015180519060200120141590506104ff565b611eda82612244565b611f40576040517f08c379a000000000000000000000000000000000000000000000000000000000815260206004820152601260248201527f4e4f5f454e544954595f465241474d454e54000000000000000000000000000060448201526064016103ad565b50600092915050565b60408401516020015160009073ffffffffffffffffffffffffffffffffffffffff1615801590611f9457506000856040015160400151806020019051810190611f929190612c60565b115b8015611fa75750611fa582856122a3565b155b15611fd357600080611fbe858789604001516122ce565b915091508015611fd05750905061073a565b50505b509392505050565b606085015160200151600090819073ffffffffffffffffffffffffffffffffffffffff1615801590612028575060008760600151604001518060200190518101906120269190612c60565b115b15612160576000612058868960600151602001518a60600151604001518060200190518101906116839190612c60565b905060005b815181101561215d57600082828151811061207a5761207a612b20565b602002602001015190506000612090828b611b8a565b9050801580156120bd575060408b01516020015173ffffffffffffffffffffffffffffffffffffffff1615155b80156120e4575060008b60400151604001518060200190518101906120e29190612c60565b115b1561210c576000806120fb848d8f604001516122ce565b915091508015612109578192505b50505b80156121485761213861213160405180604001604052808c8152602001600081525090565b8990611b25565b97508661214481612ae8565b9750505b5050808061215590612ae8565b91505061205d565b50505b50919590945092505050565b60608167ffffffffffffffff81111561218757612187612989565b6040519080825280602002602001820160405280156121b0578160200160208202803683370190505b50905081156104ff57600169ffffffffffffffffffff606085901c1660005b821561223b5760006121f38360408051808201909152600080825260208201525090565b9050806000015185838151811061220c5761220c612b20565b60209081029190910101528161222181612ae8565b60b089901c949094015180151595509392506121cf915050565b50505092915050565b6000808251600581111561225a5761225a612865565b1480612278575060028251600581111561227657612276612865565b145b80612296575060015b8251600581111561229457612294612865565b145b806104ff57506003611848565b60008280156122b657506122b682611862565b806111ed5750821580156111ed57506111ed82612598565b6000806122da84612244565b612340576040517f08c379a000000000000000000000000000000000000000000000000000000000815260206004820152601260248201527f4e4f5f454e544954595f465241474d454e54000000000000000000000000000060448201526064016103ad565b60048351600581111561235557612355612865565b146123bc576040517f08c379a000000000000000000000000000000000000000000000000000000000815260206004820152601660248201527f4e4f5f50524f58595f524541445f465241474d454e540000000000000000000060448201526064016103ad565b8460005b84604001518060200190518101906123d89190612c60565b8110156125895760208501516040517fcccf7a8e0000000000000000000000000000000000000000000000000000000081526004810184905273ffffffffffffffffffffffffffffffffffffffff9091169063cccf7a8e90602401602060405180830381865afa158015612450573d6000803e3d6000fd5b505050506040513d601f19601f820116820180604052508101906124749190612843565b6124845750600091506125909050565b60208501516040517fb8bc073d0000000000000000000000000000000000000000000000000000000081526004810184905273ffffffffffffffffffffffffffffffffffffffff9091169063b8bc073d90602401600060405180830381865afa1580156124f5573d6000803e3d6000fd5b505050506040513d6000823e601f3d9081017fffffffffffffffffffffffffffffffffffffffffffffffffffffffffffffffe016820160405261253b9190810190612a07565b80602001905181019061254e9190612c60565b915061255a8287611b8a565b935061256684876122a3565b156125775750600191506125909050565b8061258181612ae8565b9150506123c0565b5060019150505b935093915050565b60006001612281565b6040805160a081018252600080825260208201529081016125dd6040805160608101909152806000815260006020820152606060409091015290565b81526020016126076040805160608101909152806000815260006020820152606060409091015290565b8152600060209091015290565b60006020828403121561262657600080fd5b5035919050565b803573ffffffffffffffffffffffffffffffffffffffff8116811461265157600080fd5b919050565b6000806040838503121561266957600080fd5b6126728361262d565b946020939093013593505050565b6000806020838503121561269357600080fd5b823567ffffffffffffffff808211156126ab57600080fd5b818501915085601f8301126126bf57600080fd5b8135818111156126ce57600080fd5b8660208260051b85010111156126e357600080fd5b60209290920196919550909350505050565b6020808252825182820181905260009190848201906040850190845b8181101561272d57835183529284019291840191600101612711565b50909695505050505050565b60006020828403121561274b57600080fd5b6111ed8261262d565b60008083601f84011261276657600080fd5b50813567ffffffffffffffff81111561277e57600080fd5b60208301915083602082850101111561279657600080fd5b9250929050565b600080600080606085870312156127b357600080fd5b6127bc8561262d565b935060208501359250604085013567ffffffffffffffff8111156127df57600080fd5b6127eb87828801612754565b95989497509550505050565b60008060006040848603121561280c57600080fd5b83359250602084013567ffffffffffffffff81111561282a57600080fd5b61283686828701612754565b9497909650939450505050565b60006020828403121561285557600080fd5b815180151581146111ed57600080fd5b7f4e487b7100000000000000000000000000000000000000000000000000000000600052602160045260246000fd5b73ffffffffffffffffffffffffffffffffffffffff85811682526080820190600286106128ea577f4e487b7100000000000000000000000000000000000000000000000000000000600052602160045260246000fd5b85602084015280851660408401525082606083015295945050505050565b60005b8381101561292357818101518382015260200161290b565b83811115612932576000848401525b50505050565b6020815260008251806020840152612957816040850160208701612908565b601f017fffffffffffffffffffffffffffffffffffffffffffffffffffffffffffffffe0169190910160400192915050565b7f4e487b7100000000000000000000000000000000000000000000000000000000600052604160045260246000fd5b604051601f82017fffffffffffffffffffffffffffffffffffffffffffffffffffffffffffffffe016810167ffffffffffffffff811182821017156129ff576129ff612989565b604052919050565b600060208284031215612a1957600080fd5b815167ffffffffffffffff80821115612a3157600080fd5b818401915084601f830112612a4557600080fd5b815181811115612a5757612a57612989565b612a8860207fffffffffffffffffffffffffffffffffffffffffffffffffffffffffffffffe0601f840116016129b8565b9150808252856020828501011115612a9f57600080fd5b612ab0816020840160208601612908565b50949350505050565b7f4e487b7100000000000000000000000000000000000000000000000000000000600052601160045260246000fd5b60007fffffffffffffffffffffffffffffffffffffffffffffffffffffffffffffffff8203612b1957612b19612ab9565b5060010190565b7f4e487b7100000000000000000000000000000000000000000000000000000000600052603260045260246000fd5b600082357fffffffffffffffffffffffffffffffffffffffffffffffffffffffffffffffa1833603018112612b8357600080fd5b9190910192915050565b600060208284031215612b9f57600080fd5b8135600681106111ed57600080fd5b60008083357fffffffffffffffffffffffffffffffffffffffffffffffffffffffffffffffe1843603018112612be357600080fd5b83018035915067ffffffffffffffff821115612bfe57600080fd5b60200191503681900382131561279657600080fd5b60208152816020820152818360408301376000818301604090810191909152601f9092017fffffffffffffffffffffffffffffffffffffffffffffffffffffffffffffffe0160101919050565b600060208284031215612c7257600080fd5b5051919050565b60006020808385031215612c8c57600080fd5b825167ffffffffffffffff80821115612ca457600080fd5b818501915085601f830112612cb857600080fd5b815181811115612cca57612cca612989565b8060051b9150612cdb8483016129b8565b8181529183018401918481019088841115612cf557600080fd5b938501935b83851015612d1357845182529385019390850190612cfa565b98975050505050505050565b600082821015612d3157612d31612ab9565b500390565b60008219821115612d4957612d49612ab9565b50019056fea26469706673582212208db1ce232428bd7682098f606c4de57373b2e816d8323edd6da62c08caed2c3b64736f6c634300080d0033608060405234801561001057600080fd5b5061001a3361001f565b6100b4565b600061003361009060201b6105431760201c565b80546040519192506001600160a01b03808516929116907f8be0079c531659141344cd1fd0a4f28419497f9722a3daafe3b4186f6b6457e090600090a380546001600160a01b0319166001600160a01b0392909216919091179055565b7f8a22373512790c48b83a1fe2efdd2888d4a917bcdc24d0adf63e60f67168046090565b610787806100c36000396000f3fe608060405234801561001057600080fd5b50600436106100885760003560e01c80638e7cb6e11161005b5780638e7cb6e114610100578063949d225d1461012a578063cccf7a8e1461013b578063f2fde38b1461015e57600080fd5b80631003e2d21461008d578063410d59cc146100a25780634cc82215146100c05780638da5cb5b146100d3575b600080fd5b6100a061009b36600461061b565b610171565b005b6100aa610233565b6040516100b79190610634565b60405180910390f35b6100a06100ce36600461061b565b61028b565b6100db6103ef565b60405173ffffffffffffffffffffffffffffffffffffffff90911681526020016100b7565b61011361010e36600461061b565b610434565b6040805192151583526020830191909152016100b7565b6000546040519081526020016100b7565b61014e61014936600461061b565b610467565b60405190151581526020016100b7565b6100a061016c366004610678565b6104ca565b7f8a22373512790c48b83a1fe2efdd2888d4a917bcdc24d0adf63e60f6716804605473ffffffffffffffffffffffffffffffffffffffff1633146101e1576040517f2f7a8ee100000000000000000000000000000000000000000000000000000000815260040160405180910390fd5b6101ea81610467565b61023057600080548282526001602081905260408320829055810182559080527f290decd9548b62a8d60345a988386fc84ba6bc95484008f6362f93160ef3e563018190555b50565b6060600080548060200260200160405190810160405280929190818152602001828054801561028157602002820191906000526020600020905b81548152602001906001019080831161026d575b5050505050905090565b7f8a22373512790c48b83a1fe2efdd2888d4a917bcdc24d0adf63e60f6716804605473ffffffffffffffffffffffffffffffffffffffff1633146102fb576040517f2f7a8ee100000000000000000000000000000000000000000000000000000000815260040160405180910390fd5b61030481610467565b156102305760008054610319906001906106b5565b81548110610329576103296106f3565b9060005260206000200154600060016000848152602001908152602001600020548154811061035a5761035a6106f3565b60009182526020808320909101929092558281526001918290526040812054815490929190819084908110610391576103916106f3565b9060005260206000200154815260200190815260200160002081905550600160008281526020019081526020016000206000905560008054806103d6576103d6610722565b6001900381819060005260206000200160009055905550565b600061042f7f8a22373512790c48b83a1fe2efdd2888d4a917bcdc24d0adf63e60f6716804605473ffffffffffffffffffffffffffffffffffffffff1690565b905090565b60008061044083610467565b61044f57506000928392509050565b50506000908152600160208190526040909120549091565b60008054810361047957506000919050565b60008281526001602052604081205490036104b55781600080815481106104a2576104a26106f3565b9060005260206000200154149050919050565b50600090815260016020526040902054151590565b7f8a22373512790c48b83a1fe2efdd2888d4a917bcdc24d0adf63e60f6716804605473ffffffffffffffffffffffffffffffffffffffff16331461053a576040517f2f7a8ee100000000000000000000000000000000000000000000000000000000815260040160405180910390fd5b61023081610567565b7f8a22373512790c48b83a1fe2efdd2888d4a917bcdc24d0adf63e60f67168046090565b7f8a22373512790c48b83a1fe2efdd2888d4a917bcdc24d0adf63e60f6716804608054604051610230928492909173ffffffffffffffffffffffffffffffffffffffff8085169216907f8be0079c531659141344cd1fd0a4f28419497f9722a3daafe3b4186f6b6457e090600090a380547fffffffffffffffffffffffff00000000000000000000000000000000000000001673ffffffffffffffffffffffffffffffffffffffff92909216919091179055565b60006020828403121561062d57600080fd5b5035919050565b6020808252825182820181905260009190848201906040850190845b8181101561066c57835183529284019291840191600101610650565b50909695505050505050565b60006020828403121561068a57600080fd5b813573ffffffffffffffffffffffffffffffffffffffff811681146106ae57600080fd5b9392505050565b6000828210156106ee577f4e487b7100000000000000000000000000000000000000000000000000000000600052601160045260246000fd5b500390565b7f4e487b7100000000000000000000000000000000000000000000000000000000600052603260045260246000fd5b7f4e487b7100000000000000000000000000000000000000000000000000000000600052603160045260246000fdfea2646970667358221220c147fe9d375839842a60b6e353fbf54ccdf2be51cec6c48f280257f98aa8724264736f6c634300080d003360806040523480156200001157600080fd5b5060405162002f4338038062002f4383398101604081905262000034916200029a565b81818181620000433362000108565b60028190556001600160a01b03821615620000635762000063826200017c565b505060405162000073906200027e565b604051809103906000f08015801562000090573d6000803e3d6000fd5b50600380546001600160a01b0319166001600160a01b0392909216919091179055604051620000bf906200028c565b604051809103906000f080158015620000dc573d6000803e3d6000fd5b50600480546001600160a01b0319166001600160a01b039290921691909117905550620002d692505050565b60006200011f6200023460201b62000c9e1760201c565b80546040519192506001600160a01b03808516929116907f8be0079c531659141344cd1fd0a4f28419497f9722a3daafe3b4186f6b6457e090600090a380546001600160a01b0319166001600160a01b0392909216919091179055565b6200018662000258565b6001600160a01b0316336001600160a01b031614620001b857604051632f7a8ee160e01b815260040160405180910390fd5b600080546001600160a01b0319166001600160a01b038316908117909155600254604051630f30347760e41b8152306004820152602481019190915263f303477090604401600060405180830381600087803b1580156200021857600080fd5b505af11580156200022d573d6000803e3d6000fd5b5050505050565b7f8a22373512790c48b83a1fe2efdd2888d4a917bcdc24d0adf63e60f67168046090565b60006200026f6200023460201b62000c9e1760201c565b546001600160a01b0316919050565b61084a8062001e6783390190565b61089280620026b183390190565b60008060408385031215620002ae57600080fd5b82516001600160a01b0381168114620002c657600080fd5b6020939093015192949293505050565b611b8180620002e66000396000f3fe608060405234801561001057600080fd5b50600436106101515760003560e01c80638b282947116100cd578063b8bc073d11610081578063cccf7a8e11610066578063cccf7a8e146102da578063f2fde38b146102ed578063fbdfa1ea1461030057600080fd5b8063b8bc073d146102a7578063bf4fe57e146102c757600080fd5b80639d2c76b4116100b25780639d2c76b414610278578063af640d0f1461028b578063b361be461461029457600080fd5b80638b2829471461025d5780638da5cb5b1461027057600080fd5b80634cc82215116101245780636b122fe0116101095780636b122fe01461021157806375c0669c14610227578063861eb9051461023a57600080fd5b80634cc82215146101eb5780634fef6a38146101fe57600080fd5b80630ff4c916146101565780631ab06ee51461017c57806330b67baa1461019157806331b933b9146101d6575b600080fd5b6101696101643660046114bc565b610313565b6040519081526020015b60405180910390f35b61018f61018a3660046114d5565b610339565b005b6000546101b19073ffffffffffffffffffffffffffffffffffffffff1681565b60405173ffffffffffffffffffffffffffffffffffffffff9091168152602001610173565b6101de610368565b60405161017391906114f7565b61018f6101f93660046114bc565b610423565b61018f61020c36600461153b565b61046e565b61021961054c565b60405161017392919061160b565b61018f61023536600461153b565b610638565b61024d61024836600461153b565b6106ee565b6040519015158152602001610173565b61018f61026b366004611807565b610779565b6101b16107c2565b61018f61028636600461153b565b610802565b61016960025481565b6101de6102a236600461184e565b61092b565b6102ba6102b53660046114bc565b6109e8565b604051610173919061188b565b61018f6102d536600461153b565b610a8a565b61024d6102e83660046114bc565b610b65565b61018f6102fb36600461153b565b610bf9565b6101de61030e3660046114bc565b610c72565b60008061031f836109e8565b806020019051810190610332919061189e565b9392505050565b610364828260405160200161035091815260200190565b604051602081830303815290604052610779565b5050565b600354604080517f410d59cc000000000000000000000000000000000000000000000000000000008152905160609273ffffffffffffffffffffffffffffffffffffffff169163410d59cc9160048083019260009291908290030181865afa1580156103d8573d6000803e3d6000fd5b505050506040513d6000823e601f3d9081017fffffffffffffffffffffffffffffffffffffffffffffffffffffffffffffffe016820160405261041e91908101906118b7565b905090565b61042c336106ee565b610462576040517f406ed3da00000000000000000000000000000000000000000000000000000000815260040160405180910390fd5b61046b81610cc2565b50565b7f8a22373512790c48b83a1fe2efdd2888d4a917bcdc24d0adf63e60f6716804605473ffffffffffffffffffffffffffffffffffffffff1633146104de576040517f2f7a8ee100000000000000000000000000000000000000000000000000000000815260040160405180910390fd5b73ffffffffffffffffffffffffffffffffffffffff1660009081527f8ffeadc5cba727b8cc3cdef48739619490ea317fdb3baae1259089d06f92c9096020526040902080547fffffffffffffffffffffffffffffffffffffffffffffffffffffffffffffff00166001179055565b604080516001808252818301909252606091829190816020015b6060815260200190600190039081610566575050604080516001808252818301909252919350602080830190803683370190505090506040518060400160405280600581526020017f76616c7565000000000000000000000000000000000000000000000000000000815250826000815181106105e5576105e561195d565b6020026020010181905250600d816000815181106106055761060561195d565b6020026020010190602181111561061e5761061e6115dc565b90816021811115610631576106316115dc565b9052509091565b610641336106ee565b610677576040517f406ed3da00000000000000000000000000000000000000000000000000000000815260040160405180910390fd5b600580546001810182556000919091527f036b6384b5eca791c62761152d0c79bb0604c104a5fb6f4eb0703f3154bb3db00180547fffffffffffffffffffffffff00000000000000000000000000000000000000001673ffffffffffffffffffffffffffffffffffffffff92909216919091179055565b73ffffffffffffffffffffffffffffffffffffffff811660009081527f8ffeadc5cba727b8cc3cdef48739619490ea317fdb3baae1259089d06f92c909602052604081205460ff168061077357506107446107c2565b73ffffffffffffffffffffffffffffffffffffffff168273ffffffffffffffffffffffffffffffffffffffff16145b92915050565b610782336106ee565b6107b8576040517f406ed3da00000000000000000000000000000000000000000000000000000000815260040160405180910390fd5b6103648282610f81565b600061041e7f8a22373512790c48b83a1fe2efdd2888d4a917bcdc24d0adf63e60f6716804605473ffffffffffffffffffffffffffffffffffffffff1690565b7f8a22373512790c48b83a1fe2efdd2888d4a917bcdc24d0adf63e60f6716804605473ffffffffffffffffffffffffffffffffffffffff163314610872576040517f2f7a8ee100000000000000000000000000000000000000000000000000000000815260040160405180910390fd5b600080547fffffffffffffffffffffffff00000000000000000000000000000000000000001673ffffffffffffffffffffffffffffffffffffffff83169081179091556002546040517ff3034770000000000000000000000000000000000000000000000000000000008152306004820152602481019190915263f3034770906044015b600060405180830381600087803b15801561091057600080fd5b505af1158015610924573d6000803e3d6000fd5b5050505050565b60048054825160208401206040517f796c5e940000000000000000000000000000000000000000000000000000000081529283015260609173ffffffffffffffffffffffffffffffffffffffff9091169063796c5e9490602401600060405180830381865afa1580156109a2573d6000803e3d6000fd5b505050506040513d6000823e601f3d9081017fffffffffffffffffffffffffffffffffffffffffffffffffffffffffffffffe016820160405261077391908101906118b7565b6000818152600160205260409020805460609190610a059061198c565b80601f0160208091040260200160405190810160405280929190818152602001828054610a319061198c565b8015610a7e5780601f10610a5357610100808354040283529160200191610a7e565b820191906000526020600020905b815481529060010190602001808311610a6157829003601f168201915b50505050509050919050565b7f8a22373512790c48b83a1fe2efdd2888d4a917bcdc24d0adf63e60f6716804605473ffffffffffffffffffffffffffffffffffffffff163314610afa576040517f2f7a8ee100000000000000000000000000000000000000000000000000000000815260040160405180910390fd5b73ffffffffffffffffffffffffffffffffffffffff1660009081527f8ffeadc5cba727b8cc3cdef48739619490ea317fdb3baae1259089d06f92c9096020526040902080547fffffffffffffffffffffffffffffffffffffffffffffffffffffffffffffff00169055565b6003546040517fcccf7a8e0000000000000000000000000000000000000000000000000000000081526004810183905260009173ffffffffffffffffffffffffffffffffffffffff169063cccf7a8e90602401602060405180830381865afa158015610bd5573d6000803e3d6000fd5b505050506040513d601f19601f8201168201806040525081019061077391906119df565b7f8a22373512790c48b83a1fe2efdd2888d4a917bcdc24d0adf63e60f6716804605473ffffffffffffffffffffffffffffffffffffffff163314610c69576040517f2f7a8ee100000000000000000000000000000000000000000000000000000000815260040160405180910390fd5b61046b81611218565b606061077382604051602001610c8a91815260200190565b60405160208183030381529060405261092b565b7f8a22373512790c48b83a1fe2efdd2888d4a917bcdc24d0adf63e60f67168046090565b60045460008281526001602052604090819020905173ffffffffffffffffffffffffffffffffffffffff909216916385edea1391610cff91611a01565b60405190819003812060e083901b7fffffffff000000000000000000000000000000000000000000000000000000001682526004820152602401602060405180830381865afa158015610d56573d6000803e3d6000fd5b505050506040513d601f19601f82011682018060405250810190610d7a919061189e565b600003610d845750565b60045460008281526001602052604090819020905173ffffffffffffffffffffffffffffffffffffffff90921691636526db7a91610dc191611a01565b60405190819003812060e083901b7fffffffff00000000000000000000000000000000000000000000000000000000168252600482015260248101849052604401600060405180830381600087803b158015610e1c57600080fd5b505af1158015610e30573d6000803e3d6000fd5b50506003546040517f4cc822150000000000000000000000000000000000000000000000000000000081526004810185905273ffffffffffffffffffffffffffffffffffffffff9091169250634cc822159150602401600060405180830381600087803b158015610ea057600080fd5b505af1158015610eb4573d6000803e3d6000fd5b50505050610ec181611221565b60005b6005548110156103645760058181548110610ee157610ee161195d565b6000918252602090912001546040517f4cc822150000000000000000000000000000000000000000000000000000000081526004810184905273ffffffffffffffffffffffffffffffffffffffff90911690634cc8221590602401600060405180830381600087803b158015610f5657600080fd5b505af1158015610f6a573d6000803e3d6000fd5b505050508080610f7990611ad3565b915050610ec4565b6003546040517f1003e2d20000000000000000000000000000000000000000000000000000000081526004810184905273ffffffffffffffffffffffffffffffffffffffff90911690631003e2d290602401600060405180830381600087803b158015610fed57600080fd5b505af1158015611001573d6000803e3d6000fd5b505060045460008581526001602052604090819020905173ffffffffffffffffffffffffffffffffffffffff9092169350636526db7a925061104291611a01565b60405190819003812060e083901b7fffffffff00000000000000000000000000000000000000000000000000000000168252600482015260248101859052604401600060405180830381600087803b15801561109d57600080fd5b505af11580156110b1573d6000803e3d6000fd5b505060048054845160208601206040517f771602f7000000000000000000000000000000000000000000000000000000008152928301526024820186905273ffffffffffffffffffffffffffffffffffffffff16925063771602f79150604401600060405180830381600087803b15801561112b57600080fd5b505af115801561113f573d6000803e3d6000fd5b5050505061114d828261128f565b60005b600554811015611213576005818154811061116d5761116d61195d565b6000918252602090912001546040517f0216b83800000000000000000000000000000000000000000000000000000000815273ffffffffffffffffffffffffffffffffffffffff90911690630216b838906111ce9086908690600401611b32565b600060405180830381600087803b1580156111e857600080fd5b505af11580156111fc573d6000803e3d6000fd5b50505050808061120b90611ad3565b915050611150565b505050565b61046b8161133d565b6000818152600160205260408120611238916113e9565b6000546040517f0de3b7b50000000000000000000000000000000000000000000000000000000081526004810183905273ffffffffffffffffffffffffffffffffffffffff90911690630de3b7b5906024016108f6565b600082815260016020908152604090912082516112ae92840190611423565b506000546040517fcfd3c57f00000000000000000000000000000000000000000000000000000000815273ffffffffffffffffffffffffffffffffffffffff9091169063cfd3c57f906113079085908590600401611b32565b600060405180830381600087803b15801561132157600080fd5b505af1158015611335573d6000803e3d6000fd5b505050505050565b7f8a22373512790c48b83a1fe2efdd2888d4a917bcdc24d0adf63e60f671680460805460405173ffffffffffffffffffffffffffffffffffffffff8481169216907f8be0079c531659141344cd1fd0a4f28419497f9722a3daafe3b4186f6b6457e090600090a380547fffffffffffffffffffffffff00000000000000000000000000000000000000001673ffffffffffffffffffffffffffffffffffffffff92909216919091179055565b5080546113f59061198c565b6000825580601f10611405575050565b601f01602090049060005260206000209081019061046b91906114a7565b82805461142f9061198c565b90600052602060002090601f0160209004810192826114515760008555611497565b82601f1061146a57805160ff1916838001178555611497565b82800160010185558215611497579182015b8281111561149757825182559160200191906001019061147c565b506114a39291506114a7565b5090565b5b808211156114a357600081556001016114a8565b6000602082840312156114ce57600080fd5b5035919050565b600080604083850312156114e857600080fd5b50508035926020909101359150565b6020808252825182820181905260009190848201906040850190845b8181101561152f57835183529284019291840191600101611513565b50909695505050505050565b60006020828403121561154d57600080fd5b813573ffffffffffffffffffffffffffffffffffffffff8116811461033257600080fd5b6000815180845260005b818110156115975760208185018101518683018201520161157b565b818111156115a9576000602083870101525b50601f017fffffffffffffffffffffffffffffffffffffffffffffffffffffffffffffffe0169290920160200192915050565b7f4e487b7100000000000000000000000000000000000000000000000000000000600052602160045260246000fd5b6000604082016040835280855180835260608501915060608160051b8601019250602080880160005b83811015611680577fffffffffffffffffffffffffffffffffffffffffffffffffffffffffffffffa088870301855261166e868351611571565b95509382019390820190600101611634565b50508584038187015286518085528782019482019350915060005b828110156116ee578451602281106116dc577f4e487b7100000000000000000000000000000000000000000000000000000000600052602160045260246000fd5b8452938101939281019260010161169b565b5091979650505050505050565b7f4e487b7100000000000000000000000000000000000000000000000000000000600052604160045260246000fd5b604051601f82017fffffffffffffffffffffffffffffffffffffffffffffffffffffffffffffffe016810167ffffffffffffffff81118282101715611771576117716116fb565b604052919050565b600082601f83011261178a57600080fd5b813567ffffffffffffffff8111156117a4576117a46116fb565b6117d560207fffffffffffffffffffffffffffffffffffffffffffffffffffffffffffffffe0601f8401160161172a565b8181528460208386010111156117ea57600080fd5b816020850160208301376000918101602001919091529392505050565b6000806040838503121561181a57600080fd5b82359150602083013567ffffffffffffffff81111561183857600080fd5b61184485828601611779565b9150509250929050565b60006020828403121561186057600080fd5b813567ffffffffffffffff81111561187757600080fd5b61188384828501611779565b949350505050565b6020815260006103326020830184611571565b6000602082840312156118b057600080fd5b5051919050565b600060208083850312156118ca57600080fd5b825167ffffffffffffffff808211156118e257600080fd5b818501915085601f8301126118f657600080fd5b815181811115611908576119086116fb565b8060051b915061191984830161172a565b818152918301840191848101908884111561193357600080fd5b938501935b8385101561195157845182529385019390850190611938565b98975050505050505050565b7f4e487b7100000000000000000000000000000000000000000000000000000000600052603260045260246000fd5b600181811c908216806119a057607f821691505b6020821081036119d9577f4e487b7100000000000000000000000000000000000000000000000000000000600052602260045260246000fd5b50919050565b6000602082840312156119f157600080fd5b8151801515811461033257600080fd5b600080835481600182811c915080831680611a1d57607f831692505b60208084108203611a55577f4e487b710000000000000000000000000000000000000000000000000000000086526022600452602486fd5b818015611a695760018114611a9857611ac5565b7fffffffffffffffffffffffffffffffffffffffffffffffffffffffffffffff00861689528489019650611ac5565b60008a81526020902060005b86811015611abd5781548b820152908501908301611aa4565b505084890196505b509498975050505050505050565b60007fffffffffffffffffffffffffffffffffffffffffffffffffffffffffffffffff8203611b2b577f4e487b7100000000000000000000000000000000000000000000000000000000600052601160045260246000fd5b5060010190565b828152604060208201526000611883604083018461157156fea2646970667358221220c4530937e97670fda9510794e2f456fc76d2b8b0eb89d571b0e8c36ee23524c064736f6c634300080d0033608060405234801561001057600080fd5b5061001a3361001f565b6100b4565b600061003361009060201b6105431760201c565b80546040519192506001600160a01b03808516929116907f8be0079c531659141344cd1fd0a4f28419497f9722a3daafe3b4186f6b6457e090600090a380546001600160a01b0319166001600160a01b0392909216919091179055565b7f8a22373512790c48b83a1fe2efdd2888d4a917bcdc24d0adf63e60f67168046090565b610787806100c36000396000f3fe608060405234801561001057600080fd5b50600436106100885760003560e01c80638e7cb6e11161005b5780638e7cb6e114610100578063949d225d1461012a578063cccf7a8e1461013b578063f2fde38b1461015e57600080fd5b80631003e2d21461008d578063410d59cc146100a25780634cc82215146100c05780638da5cb5b146100d3575b600080fd5b6100a061009b36600461061b565b610171565b005b6100aa610233565b6040516100b79190610634565b60405180910390f35b6100a06100ce36600461061b565b61028b565b6100db6103ef565b60405173ffffffffffffffffffffffffffffffffffffffff90911681526020016100b7565b61011361010e36600461061b565b610434565b6040805192151583526020830191909152016100b7565b6000546040519081526020016100b7565b61014e61014936600461061b565b610467565b60405190151581526020016100b7565b6100a061016c366004610678565b6104ca565b7f8a22373512790c48b83a1fe2efdd2888d4a917bcdc24d0adf63e60f6716804605473ffffffffffffffffffffffffffffffffffffffff1633146101e1576040517f2f7a8ee100000000000000000000000000000000000000000000000000000000815260040160405180910390fd5b6101ea81610467565b61023057600080548282526001602081905260408320829055810182559080527f290decd9548b62a8d60345a988386fc84ba6bc95484008f6362f93160ef3e563018190555b50565b6060600080548060200260200160405190810160405280929190818152602001828054801561028157602002820191906000526020600020905b81548152602001906001019080831161026d575b5050505050905090565b7f8a22373512790c48b83a1fe2efdd2888d4a917bcdc24d0adf63e60f6716804605473ffffffffffffffffffffffffffffffffffffffff1633146102fb576040517f2f7a8ee100000000000000000000000000000000000000000000000000000000815260040160405180910390fd5b61030481610467565b156102305760008054610319906001906106b5565b81548110610329576103296106f3565b9060005260206000200154600060016000848152602001908152602001600020548154811061035a5761035a6106f3565b60009182526020808320909101929092558281526001918290526040812054815490929190819084908110610391576103916106f3565b9060005260206000200154815260200190815260200160002081905550600160008281526020019081526020016000206000905560008054806103d6576103d6610722565b6001900381819060005260206000200160009055905550565b600061042f7f8a22373512790c48b83a1fe2efdd2888d4a917bcdc24d0adf63e60f6716804605473ffffffffffffffffffffffffffffffffffffffff1690565b905090565b60008061044083610467565b61044f57506000928392509050565b50506000908152600160208190526040909120549091565b60008054810361047957506000919050565b60008281526001602052604081205490036104b55781600080815481106104a2576104a26106f3565b9060005260206000200154149050919050565b50600090815260016020526040902054151590565b7f8a22373512790c48b83a1fe2efdd2888d4a917bcdc24d0adf63e60f6716804605473ffffffffffffffffffffffffffffffffffffffff16331461053a576040517f2f7a8ee100000000000000000000000000000000000000000000000000000000815260040160405180910390fd5b61023081610567565b7f8a22373512790c48b83a1fe2efdd2888d4a917bcdc24d0adf63e60f67168046090565b7f8a22373512790c48b83a1fe2efdd2888d4a917bcdc24d0adf63e60f6716804608054604051610230928492909173ffffffffffffffffffffffffffffffffffffffff8085169216907f8be0079c531659141344cd1fd0a4f28419497f9722a3daafe3b4186f6b6457e090600090a380547fffffffffffffffffffffffff00000000000000000000000000000000000000001673ffffffffffffffffffffffffffffffffffffffff92909216919091179055565b60006020828403121561062d57600080fd5b5035919050565b6020808252825182820181905260009190848201906040850190845b8181101561066c57835183529284019291840191600101610650565b50909695505050505050565b60006020828403121561068a57600080fd5b813573ffffffffffffffffffffffffffffffffffffffff811681146106ae57600080fd5b9392505050565b6000828210156106ee577f4e487b7100000000000000000000000000000000000000000000000000000000600052601160045260246000fd5b500390565b7f4e487b7100000000000000000000000000000000000000000000000000000000600052603260045260246000fd5b7f4e487b7100000000000000000000000000000000000000000000000000000000600052603160045260246000fdfea2646970667358221220c147fe9d375839842a60b6e353fbf54ccdf2be51cec6c48f280257f98aa8724264736f6c634300080d0033608060405234801561001057600080fd5b5061001a3361001f565b6100b4565b600061003361009060201b6105691760201c565b80546040519192506001600160a01b03808516929116907f8be0079c531659141344cd1fd0a4f28419497f9722a3daafe3b4186f6b6457e090600090a380546001600160a01b0319166001600160a01b0392909216919091179055565b7f8a22373512790c48b83a1fe2efdd2888d4a917bcdc24d0adf63e60f67168046090565b6107cf806100c36000396000f3fe608060405234801561001057600080fd5b506004361061007d5760003560e01c806385edea131161005b57806385edea13146100d35780638da5cb5b14610101578063a0265ff81461012e578063f2fde38b1461015157600080fd5b80636526db7a14610082578063771602f714610097578063796c5e94146100aa575b600080fd5b610095610090366004610641565b610164565b005b6100956100a5366004610641565b610301565b6100bd6100b8366004610663565b6103b5565b6040516100ca919061067c565b60405180910390f35b6100f36100e1366004610663565b60009081526020819052604090205490565b6040519081526020016100ca565b610109610415565b60405173ffffffffffffffffffffffffffffffffffffffff90911681526020016100ca565b61014161013c366004610641565b61045a565b60405190151581526020016100ca565b61009561015f3660046106c0565b6104ed565b7f8a22373512790c48b83a1fe2efdd2888d4a917bcdc24d0adf63e60f6716804605473ffffffffffffffffffffffffffffffffffffffff1633146101d4576040517f2f7a8ee100000000000000000000000000000000000000000000000000000000815260040160405180910390fd5b6101de828261045a565b156102fd57600082815260208190526040902080546101ff906001906106fd565b8154811061020f5761020f61073b565b600091825260208083209091015484835282825260408084206001845281852086865290935290922054815481106102495761024961073b565b6000918252602080832090910192909255838152600182526040808220848352808452818320548684528385529183208584529381905283549193909291849081106102975761029761073b565b600091825260208083209091015483528281019390935260409182018120939093558483526001825280832084845282528083208390558483529082905290208054806102e6576102e661076a565b600190038181906000526020600020016000905590555b5050565b7f8a22373512790c48b83a1fe2efdd2888d4a917bcdc24d0adf63e60f6716804605473ffffffffffffffffffffffffffffffffffffffff163314610371576040517f2f7a8ee100000000000000000000000000000000000000000000000000000000815260040160405180910390fd5b61037b828261045a565b6102fd5760009182526020828152604080842080546001808552838720868852855292862081905585845291820181558452922090910155565b6000818152602081815260409182902080548351818402810184019094528084526060939283018282801561040957602002820191906000526020600020905b8154815260200190600101908083116103f5575b50505050509050919050565b60006104557f8a22373512790c48b83a1fe2efdd2888d4a917bcdc24d0adf63e60f6716804605473ffffffffffffffffffffffffffffffffffffffff1690565b905090565b6000828152602081905260408120548103610477575060006104e7565b600083815260016020908152604080832085845290915281205490036104c957600083815260208190526040812080548492906104b6576104b661073b565b90600052602060002001541490506104e7565b50600082815260016020908152604080832084845290915290205415155b92915050565b7f8a22373512790c48b83a1fe2efdd2888d4a917bcdc24d0adf63e60f6716804605473ffffffffffffffffffffffffffffffffffffffff16331461055d576040517f2f7a8ee100000000000000000000000000000000000000000000000000000000815260040160405180910390fd5b6105668161058d565b50565b7f8a22373512790c48b83a1fe2efdd2888d4a917bcdc24d0adf63e60f67168046090565b7f8a22373512790c48b83a1fe2efdd2888d4a917bcdc24d0adf63e60f6716804608054604051610566928492909173ffffffffffffffffffffffffffffffffffffffff8085169216907f8be0079c531659141344cd1fd0a4f28419497f9722a3daafe3b4186f6b6457e090600090a380547fffffffffffffffffffffffff00000000000000000000000000000000000000001673ffffffffffffffffffffffffffffffffffffffff92909216919091179055565b6000806040838503121561065457600080fd5b50508035926020909101359150565b60006020828403121561067557600080fd5b5035919050565b6020808252825182820181905260009190848201906040850190845b818110156106b457835183529284019291840191600101610698565b50909695505050505050565b6000602082840312156106d257600080fd5b813573ffffffffffffffffffffffffffffffffffffffff811681146106f657600080fd5b9392505050565b600082821015610736577f4e487b7100000000000000000000000000000000000000000000000000000000600052601160045260246000fd5b500390565b7f4e487b7100000000000000000000000000000000000000000000000000000000600052603260045260246000fd5b7f4e487b7100000000000000000000000000000000000000000000000000000000600052603160045260246000fdfea26469706673582212205075ee04a55006f7c2f4ac9e1dcd4d1823c68da532c74ffb7267527bfc04459a64736f6c634300080d003360806040523480156200001157600080fd5b50604051620012e7380380620012e783398101604081905262000034916200022c565b818162000041336200010f565b6001600160a01b03811615620000585780620000bd565b816001600160a01b031663ba62fbe46040518163ffffffff1660e01b8152600401602060405180830381865afa15801562000097573d6000803e3d6000fd5b505050506040513d601f19601f82011682018060405250810190620000bd91906200026b565b600080546001600160a01b03199081166001600160a01b0393841690811790925560018054909116928516928317905562000105919062000183602090811b6200091317901c565b5050505062000292565b600062000126620001ef60201b620009a41760201c565b80546040519192506001600160a01b03808516929116907f8be0079c531659141344cd1fd0a4f28419497f9722a3daafe3b4186f6b6457e090600090a380546001600160a01b0319166001600160a01b0392909216919091179055565b7ff67304f10c7772c78e439bc5cb07781db345424de8878c18100fdaa64d197a8780546001600160a01b039384166001600160a01b0319918216179091557ff67304f10c7772c78e439bc5cb07781db345424de8878c18100fdaa64d197a868054929093169116179055565b7f8a22373512790c48b83a1fe2efdd2888d4a917bcdc24d0adf63e60f67168046090565b6001600160a01b03811681146200022957600080fd5b50565b600080604083850312156200024057600080fd5b82516200024d8162000213565b6020840151909250620002608162000213565b809150509250929050565b6000602082840312156200027e57600080fd5b81516200028b8162000213565b9392505050565b61104580620002a26000396000f3fe608060405234801561001057600080fd5b50600436106100675760003560e01c80638da5cb5b116100505780638da5cb5b146100a9578063f2fde38b146100d6578063f6cd7a01146100eb57600080fd5b806309c5eabe1461006c5780638b246a5b14610095575b600080fd5b61007f61007a366004610c3b565b6100fe565b60405161008c9190610cee565b60405180910390f35b61007f6100a3366004610c3b565b50606090565b6100b1610819565b60405173ffffffffffffffffffffffffffffffffffffffff909116815260200161008c565b6100e96100e4366004610d83565b61085e565b005b61007f6100f9366004610db4565b6108da565b60606000806000808580602001905181019061011a9190610e05565b6001549397509195509350915073ffffffffffffffffffffffffffffffffffffffff1633146101d0576040517f08c379a000000000000000000000000000000000000000000000000000000000815260206004820152602360248201527f73797374656d2063616e206f6e6c792062652063616c6c65642076696120576f60448201527f726c64000000000000000000000000000000000000000000000000000000000060648201526084015b60405180910390fd5b60008360018111156101e4576101e4610e58565b1480610201575060018360018111156101ff576101ff610e58565b145b610267576040517f08c379a000000000000000000000000000000000000000000000000000000000815260206004820152600c60248201527f696e76616c69642074797065000000000000000000000000000000000000000060448201526064016101c7565b806000036102d1576040517f08c379a000000000000000000000000000000000000000000000000000000000815260206004820152600a60248201527f696e76616c69642069640000000000000000000000000000000000000000000060448201526064016101c7565b73ffffffffffffffffffffffffffffffffffffffff821661034e576040517f08c379a000000000000000000000000000000000000000000000000000000000815260206004820152600f60248201527f696e76616c69642061646472657373000000000000000000000000000000000060448201526064016101c7565b60008084600181111561036357610363610e58565b146103b0576000546103ab9073ffffffffffffffffffffffffffffffffffffffff167f017c816a964927a00e050edd780dcf113ca2756dfa9e9fda94a05c140d9317b06109c8565b6103ca565b60005473ffffffffffffffffffffffffffffffffffffffff165b9050600073ffffffffffffffffffffffffffffffffffffffff84166040517fcccf7a8e0000000000000000000000000000000000000000000000000000000081526004810182905290915073ffffffffffffffffffffffffffffffffffffffff83169063cccf7a8e90602401602060405180830381865afa158015610453573d6000803e3d6000fd5b505050506040513d601f19601f820116820180604052508101906104779190610e87565b156104de576040517f08c379a000000000000000000000000000000000000000000000000000000000815260206004820152601960248201527f656e7469747920616c726561647920726567697374657265640000000000000060448201526064016101c7565b6040517ffbdfa1ea0000000000000000000000000000000000000000000000000000000081526004810184905260009073ffffffffffffffffffffffffffffffffffffffff84169063fbdfa1ea90602401600060405180830381865afa15801561054c573d6000803e3d6000fd5b505050506040513d6000823e601f3d9081017fffffffffffffffffffffffffffffffffffffffffffffffffffffffffffffffe01682016040526105929190810190610ea9565b905080516000148061066957508051600114801561066957508673ffffffffffffffffffffffffffffffffffffffff166105e3826000815181106105d8576105d8610f4f565b602002602001015190565b73ffffffffffffffffffffffffffffffffffffffff16638da5cb5b6040518163ffffffff1660e01b8152600401602060405180830381865afa15801561062d573d6000803e3d6000fd5b505050506040513d601f19601f820116820180604052508101906106519190610f7e565b73ffffffffffffffffffffffffffffffffffffffff16145b6106f5576040517f08c379a000000000000000000000000000000000000000000000000000000000815260206004820152602a60248201527f696420616c7265616479207265676973746572656420616e642063616c6c657260448201527f206e6f74206f776e65720000000000000000000000000000000000000000000060648201526084016101c7565b8051600103610786578273ffffffffffffffffffffffffffffffffffffffff16634cc822158260008151811061072d5761072d610f4f565b60200260200101516040518263ffffffff1660e01b815260040161075391815260200190565b600060405180830381600087803b15801561076d57600080fd5b505af1158015610781573d6000803e3d6000fd5b505050505b6040517f1ab06ee5000000000000000000000000000000000000000000000000000000008152600481018390526024810185905273ffffffffffffffffffffffffffffffffffffffff841690631ab06ee590604401600060405180830381600087803b1580156107f557600080fd5b505af1158015610809573d6000803e3d6000fd5b5050505050505050505050919050565b60006108597f8a22373512790c48b83a1fe2efdd2888d4a917bcdc24d0adf63e60f6716804605473ffffffffffffffffffffffffffffffffffffffff1690565b905090565b7f8a22373512790c48b83a1fe2efdd2888d4a917bcdc24d0adf63e60f6716804605473ffffffffffffffffffffffffffffffffffffffff1633146108ce576040517f2f7a8ee100000000000000000000000000000000000000000000000000000000815260040160405180910390fd5b6108d781610b09565b50565b606061090a858585856040516020016108f69493929190610f9b565b6040516020818303038152906040526100fe565b95945050505050565b7ff67304f10c7772c78e439bc5cb07781db345424de8878c18100fdaa64d197a87805473ffffffffffffffffffffffffffffffffffffffff9384167fffffffffffffffffffffffff0000000000000000000000000000000000000000918216179091557ff67304f10c7772c78e439bc5cb07781db345424de8878c18100fdaa64d197a868054929093169116179055565b7f8a22373512790c48b83a1fe2efdd2888d4a917bcdc24d0adf63e60f67168046090565b6040517ffbdfa1ea00000000000000000000000000000000000000000000000000000000815260048101829052600090819073ffffffffffffffffffffffffffffffffffffffff85169063fbdfa1ea90602401600060405180830381865afa158015610a38573d6000803e3d6000fd5b505050506040513d6000823e601f3d9081017fffffffffffffffffffffffffffffffffffffffffffffffffffffffffffffffe0168201604052610a7e9190810190610ea9565b90508051600003610aeb576040517f08c379a000000000000000000000000000000000000000000000000000000000815260206004820152601160248201527f6964206e6f74207265676973746572656400000000000000000000000000000060448201526064016101c7565b610b01816000815181106105d8576105d8610f4f565b949350505050565b7f8a22373512790c48b83a1fe2efdd2888d4a917bcdc24d0adf63e60f67168046080546040516108d7928492909173ffffffffffffffffffffffffffffffffffffffff8085169216907f8be0079c531659141344cd1fd0a4f28419497f9722a3daafe3b4186f6b6457e090600090a380547fffffffffffffffffffffffff00000000000000000000000000000000000000001673ffffffffffffffffffffffffffffffffffffffff92909216919091179055565b7f4e487b7100000000000000000000000000000000000000000000000000000000600052604160045260246000fd5b604051601f82017fffffffffffffffffffffffffffffffffffffffffffffffffffffffffffffffe016810167ffffffffffffffff81118282101715610c3357610c33610bbd565b604052919050565b60006020808385031215610c4e57600080fd5b823567ffffffffffffffff80821115610c6657600080fd5b818501915085601f830112610c7a57600080fd5b813581811115610c8c57610c8c610bbd565b610cbc847fffffffffffffffffffffffffffffffffffffffffffffffffffffffffffffffe0601f84011601610bec565b91508082528684828501011115610cd257600080fd5b8084840185840137600090820190930192909252509392505050565b600060208083528351808285015260005b81811015610d1b57858101830151858201604001528201610cff565b81811115610d2d576000604083870101525b50601f017fffffffffffffffffffffffffffffffffffffffffffffffffffffffffffffffe016929092016040019392505050565b73ffffffffffffffffffffffffffffffffffffffff811681146108d757600080fd5b600060208284031215610d9557600080fd5b8135610da081610d61565b9392505050565b600281106108d757600080fd5b60008060008060808587031215610dca57600080fd5b8435610dd581610d61565b93506020850135610de581610da7565b92506040850135610df581610d61565b9396929550929360600135925050565b60008060008060808587031215610e1b57600080fd5b8451610e2681610d61565b6020860151909450610e3781610da7565b6040860151909350610e4881610d61565b6060959095015193969295505050565b7f4e487b7100000000000000000000000000000000000000000000000000000000600052602160045260246000fd5b600060208284031215610e9957600080fd5b81518015158114610da057600080fd5b60006020808385031215610ebc57600080fd5b825167ffffffffffffffff80821115610ed457600080fd5b818501915085601f830112610ee857600080fd5b815181811115610efa57610efa610bbd565b8060051b9150610f0b848301610bec565b8181529183018401918481019088841115610f2557600080fd5b938501935b83851015610f4357845182529385019390850190610f2a565b98975050505050505050565b7f4e487b7100000000000000000000000000000000000000000000000000000000600052603260045260246000fd5b600060208284031215610f9057600080fd5b8151610da081610d61565b73ffffffffffffffffffffffffffffffffffffffff8581168252608082019060028610610ff1577f4e487b7100000000000000000000000000000000000000000000000000000000600052602160045260246000fd5b8560208401528085166040840152508260608301529594505050505056fea26469706673582212206676128b722bc67a8fbfd024fcfffaa69f991bb2a16ad4b163f127622ff99f4864736f6c634300080d0033",
    "linkReferences": {}
  },
  "methodIdentifiers": {
    "components()": "ba62fbe4",
    "getComponent(uint256)": "4f27da18",
    "getComponentIdFromAddress(address)": "9f54f545",
    "getNumEntities()": "d7ecf62b",
    "getSystemAddress(uint256)": "fb3ec48b",
    "getUniqueEntityId()": "614bfa6e",
    "hasEntity(uint256)": "e3d12875",
    "init()": "e1c7392a",
    "query((uint8,uint256,bytes)[])": "687485a6",
    "register()": "1aa3a008",
    "registerComponent(address,uint256)": "f3034770",
    "registerComponentValueRemoved(address,uint256)": "d803064a",
    "registerComponentValueRemoved(uint256)": "0de3b7b5",
    "registerComponentValueSet(address,uint256,bytes)": "af104e40",
    "registerComponentValueSet(uint256,bytes)": "cfd3c57f",
    "registerSystem(address,uint256)": "1ee444b7",
    "systems()": "0d59332e"
  },
  "id": 46
}