{
  "abi": [
    {
      "inputs": [
        {
          "internalType": "contract Component[]",
          "name": "_components",
          "type": "address[]"
        },
        {
          "internalType": "bool[]",
          "name": "_trackValueForComponent",
          "type": "bool[]"
        }
      ],
      "stateMutability": "nonpayable",
      "type": "constructor"
    },
    {
      "inputs": [],
      "name": "getEntities",
      "outputs": [
        {
          "internalType": "uint256[]",
          "name": "",
          "type": "uint256[]"
        }
      ],
      "stateMutability": "view",
      "type": "function"
    },
    {
      "inputs": [
        {
          "internalType": "bytes",
          "name": "value",
          "type": "bytes"
        }
      ],
      "name": "getEntitiesWithValue",
      "outputs": [
        {
          "internalType": "uint256[]",
          "name": "",
          "type": "uint256[]"
        }
      ],
      "stateMutability": "view",
      "type": "function"
    },
    {
      "inputs": [
        {
          "internalType": "uint256",
          "name": "entity",
          "type": "uint256"
        }
      ],
      "name": "has",
      "outputs": [
        {
          "internalType": "bool",
          "name": "",
          "type": "bool"
        }
      ],
      "stateMutability": "view",
      "type": "function"
    },
    {
      "inputs": [
        {
          "internalType": "uint256",
          "name": "entity",
          "type": "uint256"
        }
      ],
      "name": "remove",
      "outputs": [],
      "stateMutability": "nonpayable",
      "type": "function"
    },
    {
      "inputs": [
        {
          "internalType": "bytes4",
          "name": "interfaceId",
          "type": "bytes4"
        }
      ],
      "name": "supportsInterface",
      "outputs": [
        {
          "internalType": "bool",
          "name": "",
          "type": "bool"
        }
      ],
      "stateMutability": "view",
      "type": "function"
    },
    {
      "inputs": [
        {
          "internalType": "uint256",
          "name": "entity",
          "type": "uint256"
        },
        {
          "internalType": "bytes",
          "name": "value",
          "type": "bytes"
        }
      ],
      "name": "update",
      "outputs": [],
      "stateMutability": "nonpayable",
      "type": "function"
    }
  ],
  "bytecode": {
    "object": "0x60806040523480156200001157600080fd5b5060405162002464380380620024648339810160408190526200003491620002dd565b815162000049906003906020850190620000b5565b5080516200005f9060049060208401906200011f565b506040516200006e90620001c6565b604051809103906000f0801580156200008b573d6000803e3d6000fd5b50600080546001600160a01b0319166001600160a01b039290921691909117905550620003bb9050565b8280548282559060005260206000209081019282156200010d579160200282015b828111156200010d57825182546001600160a01b0319166001600160a01b03909116178255602090920191600190910190620000d6565b506200011b929150620001d4565b5090565b82805482825590600052602060002090601f016020900481019282156200010d5791602002820160005b838211156200018857835183826101000a81548160ff021916908315150217905550926020019260010160208160000104928301926001030262000149565b8015620001b75782816101000a81549060ff021916905560010160208160000104928301926001030262000188565b50506200011b929150620001d4565b61040f806200205583390190565b5b808211156200011b5760008155600101620001d5565b634e487b7160e01b600052604160045260246000fd5b604051601f8201601f191681016001600160401b03811182821017156200022c576200022c620001eb565b604052919050565b60006001600160401b03821115620002505762000250620001eb565b5060051b60200190565b600082601f8301126200026c57600080fd5b81516020620002856200027f8362000234565b62000201565b82815260059290921b84018101918181019086841115620002a557600080fd5b8286015b84811015620002d25780518015158114620002c45760008081fd5b8352918301918301620002a9565b509695505050505050565b60008060408385031215620002f157600080fd5b82516001600160401b03808211156200030957600080fd5b818501915085601f8301126200031e57600080fd5b81516020620003316200027f8362000234565b82815260059290921b840181019181810190898411156200035157600080fd5b948201945b83861015620003885785516001600160a01b0381168114620003785760008081fd5b8252948201949082019062000356565b91880151919650909350505080821115620003a257600080fd5b50620003b1858286016200025a565b9150509250929050565b611c8a80620003cb6000396000f3fe608060405234801561001057600080fd5b50600436106100725760003560e01c80634cc82215116100505780634cc82215146100c9578063b361be46146100dc578063cccf7a8e146100ef57600080fd5b806301ffc9a7146100775780630216b8381461009f57806331b933b9146100b4575b600080fd5b61008a610085366004611173565b610102565b60405190151581526020015b60405180910390f35b6100b26100ad3660046112d6565b61019b565b005b6100bc6108e8565b604051610096919061131d565b6100b26100d7366004611361565b6109a2565b6100bc6100ea36600461137a565b610be6565b61008a6100fd366004611361565b610d1e565b60007fffffffff0000000000000000000000000000000000000000000000000000000082167f01ffc9a700000000000000000000000000000000000000000000000000000000148061019557507fffffffff0000000000000000000000000000000000000000000000000000000082167f4ede9a2d00000000000000000000000000000000000000000000000000000000145b92915050565b600354339060009067ffffffffffffffff8111156101bb576101bb6111bc565b6040519080825280602002602001820160405280156101ee57816020015b60608152602001906001900390816101d95790505b50905060008060005b600354811015610269578473ffffffffffffffffffffffffffffffffffffffff166003828154811061022b5761022b6113b7565b60009182526020909120015473ffffffffffffffffffffffffffffffffffffffff160361025757600191505b80610261816113e6565b9150506101f7565b50806102d6576040517f08c379a000000000000000000000000000000000000000000000000000000000815260206004820152601e60248201527f4d6573736167652053656e646572206973206e6f7420696e646578656421000060448201526064015b60405180910390fd5b600086815260026020526040902080546102ef90611445565b90506000036105015760005b6003548110156104ee578473ffffffffffffffffffffffffffffffffffffffff166003828154811061032f5761032f6113b7565b60009182526020909120015473ffffffffffffffffffffffffffffffffffffffff161461042c5760038181548110610369576103696113b7565b6000918252602090912001546040517fb8bc073d0000000000000000000000000000000000000000000000000000000081526004810189905273ffffffffffffffffffffffffffffffffffffffff9091169063b8bc073d90602401600060405180830381865afa1580156103e1573d6000803e3d6000fd5b505050506040513d6000823e601f3d9081017fffffffffffffffffffffffffffffffffffffffffffffffffffffffffffffffe0168201604052610427919081019061150d565b61042e565b855b848281518110610440576104406113b7565b602002602001018190525083818151811061045d5761045d6113b7565b6020026020010151516000036104765750505050505050565b60048181548110610489576104896113b7565b90600052602060002090602091828204019190069054906101000a900460ff166104dc5760408051600081526020810190915284518590839081106104d0576104d06113b7565b60200260200101819052505b806104e6816113e6565b9150506102fb565b506104f98684610db2565b505050505050565b60005b600354811015610575578473ffffffffffffffffffffffffffffffffffffffff1660038281548110610538576105386113b7565b60009182526020909120015473ffffffffffffffffffffffffffffffffffffffff1603610563578092505b8061056d816113e6565b915050610504565b506000868152600260205260409020805461058f90611445565b80601f01602080910402602001604051908101604052809291908181526020018280546105bb90611445565b80156106085780601f106105dd57610100808354040283529160200191610608565b820191906000526020600020905b8154815290600101906020018083116105eb57829003601f168201915b50505050508060200190518101906106209190611566565b925084838381518110610635576106356113b7565b60200260200101819052506001600260008881526020019081526020016000206040516106629190611617565b908152604051908190036020018120547f4cc8221500000000000000000000000000000000000000000000000000000000825273ffffffffffffffffffffffffffffffffffffffff1690634cc82215906106c490899060040190815260200190565b600060405180830381600087803b1580156106de57600080fd5b505af11580156106f2573d6000803e3d6000fd5b5050505060008360405160200161070991906116e9565b604080517fffffffffffffffffffffffffffffffffffffffffffffffffffffffffffffffe08184030181529181526000898152600260209081529190208251929350610759929091840190611090565b50600073ffffffffffffffffffffffffffffffffffffffff16600182604051610782919061179f565b9081526040519081900360200190205473ffffffffffffffffffffffffffffffffffffffff160361083b576040516107b990611114565b604051809103906000f0801580156107d5573d6000803e3d6000fd5b506001826040516107e6919061179f565b908152604051908190036020019020805473ffffffffffffffffffffffffffffffffffffffff929092167fffffffffffffffffffffffff00000000000000000000000000000000000000009092169190911790555b60018160405161084b919061179f565b908152604051908190036020018120547f1003e2d200000000000000000000000000000000000000000000000000000000825273ffffffffffffffffffffffffffffffffffffffff1690631003e2d2906108ad908a9060040190815260200190565b600060405180830381600087803b1580156108c757600080fd5b505af11580156108db573d6000803e3d6000fd5b5050505050505050505050565b60008054604080517f410d59cc000000000000000000000000000000000000000000000000000000008152905160609373ffffffffffffffffffffffffffffffffffffffff9093169263410d59cc92600480820193918290030181865afa158015610957573d6000803e3d6000fd5b505050506040513d6000823e601f3d9081017fffffffffffffffffffffffffffffffffffffffffffffffffffffffffffffffe016820160405261099d91908101906117bb565b905090565b336000805b600354811015610a19578273ffffffffffffffffffffffffffffffffffffffff16600382815481106109db576109db6113b7565b60009182526020909120015473ffffffffffffffffffffffffffffffffffffffff1603610a0757600191505b80610a11816113e6565b9150506109a7565b5080610a81576040517f08c379a000000000000000000000000000000000000000000000000000000000815260206004820152601e60248201527f4d6573736167652053656e646572206973206e6f7420696e646578656421000060448201526064016102cd565b610a8a83610d1e565b610a9357505050565b600083815260026020526040908190209051600191610ab191611617565b908152604051908190036020018120547f4cc8221500000000000000000000000000000000000000000000000000000000825273ffffffffffffffffffffffffffffffffffffffff1690634cc8221590610b1390869060040190815260200190565b600060405180830381600087803b158015610b2d57600080fd5b505af1158015610b41573d6000803e3d6000fd5b50506000546040517f4cc822150000000000000000000000000000000000000000000000000000000081526004810187905273ffffffffffffffffffffffffffffffffffffffff9091169250634cc822159150602401600060405180830381600087803b158015610bb157600080fd5b505af1158015610bc5573d6000803e3d6000fd5b5050506000848152600260205260408120610be1925090611121565b505050565b6060600073ffffffffffffffffffffffffffffffffffffffff16600183604051610c10919061179f565b9081526040519081900360200190205473ffffffffffffffffffffffffffffffffffffffff1603610c4f57505060408051600081526020810190915290565b600182604051610c5f919061179f565b90815260408051918290036020018220547f410d59cc000000000000000000000000000000000000000000000000000000008352905173ffffffffffffffffffffffffffffffffffffffff9091169163410d59cc9160048083019260009291908290030181865afa158015610cd8573d6000803e3d6000fd5b505050506040513d6000823e601f3d9081017fffffffffffffffffffffffffffffffffffffffffffffffffffffffffffffffe016820160405261019591908101906117bb565b600080546040517fcccf7a8e0000000000000000000000000000000000000000000000000000000081526004810184905273ffffffffffffffffffffffffffffffffffffffff9091169063cccf7a8e90602401602060405180830381865afa158015610d8e573d6000803e3d6000fd5b505050506040513d601f19601f82011682018060405250810190610195919061184c565b600354815114610e1e576040517f08c379a000000000000000000000000000000000000000000000000000000000815260206004820152601f60248201527f4e6565642076616c75657320666f7220616c6c20636f6d706f6e656e74732e0060448201526064016102cd565b6000546040517f1003e2d20000000000000000000000000000000000000000000000000000000081526004810184905273ffffffffffffffffffffffffffffffffffffffff90911690631003e2d290602401600060405180830381600087803b158015610e8a57600080fd5b505af1158015610e9e573d6000803e3d6000fd5b50505050600081604051602001610eb591906116e9565b604080517fffffffffffffffffffffffffffffffffffffffffffffffffffffffffffffffe08184030181529181526000858152600260209081529190208251929350610f05929091840190611090565b50600073ffffffffffffffffffffffffffffffffffffffff16600182604051610f2e919061179f565b9081526040519081900360200190205473ffffffffffffffffffffffffffffffffffffffff1603610fe757604051610f6590611114565b604051809103906000f080158015610f81573d6000803e3d6000fd5b50600182604051610f92919061179f565b908152604051908190036020019020805473ffffffffffffffffffffffffffffffffffffffff929092167fffffffffffffffffffffffff00000000000000000000000000000000000000009092169190911790555b600181604051610ff7919061179f565b908152604051908190036020018120547f1003e2d200000000000000000000000000000000000000000000000000000000825273ffffffffffffffffffffffffffffffffffffffff1690631003e2d29061105990869060040190815260200190565b600060405180830381600087803b15801561107357600080fd5b505af1158015611087573d6000803e3d6000fd5b50505050505050565b82805461109c90611445565b90600052602060002090601f0160209004810192826110be5760008555611104565b82601f106110d757805160ff1916838001178555611104565b82800160010185558215611104579182015b828111156111045782518255916020019190600101906110e9565b5061111092915061115e565b5090565b61040f8061186f83390190565b50805461112d90611445565b6000825580601f1061113d575050565b601f01602090049060005260206000209081019061115b919061115e565b50565b5b80821115611110576000815560010161115f565b60006020828403121561118557600080fd5b81357fffffffff00000000000000000000000000000000000000000000000000000000811681146111b557600080fd5b9392505050565b7f4e487b7100000000000000000000000000000000000000000000000000000000600052604160045260246000fd5b604051601f82017fffffffffffffffffffffffffffffffffffffffffffffffffffffffffffffffe016810167ffffffffffffffff81118282101715611232576112326111bc565b604052919050565b600067ffffffffffffffff821115611254576112546111bc565b50601f017fffffffffffffffffffffffffffffffffffffffffffffffffffffffffffffffe01660200190565b600082601f83011261129157600080fd5b81356112a461129f8261123a565b6111eb565b8181528460208386010111156112b957600080fd5b816020850160208301376000918101602001919091529392505050565b600080604083850312156112e957600080fd5b82359150602083013567ffffffffffffffff81111561130757600080fd5b61131385828601611280565b9150509250929050565b6020808252825182820181905260009190848201906040850190845b8181101561135557835183529284019291840191600101611339565b50909695505050505050565b60006020828403121561137357600080fd5b5035919050565b60006020828403121561138c57600080fd5b813567ffffffffffffffff8111156113a357600080fd5b6113af84828501611280565b949350505050565b7f4e487b7100000000000000000000000000000000000000000000000000000000600052603260045260246000fd5b60007fffffffffffffffffffffffffffffffffffffffffffffffffffffffffffffffff820361143e577f4e487b7100000000000000000000000000000000000000000000000000000000600052601160045260246000fd5b5060010190565b600181811c9082168061145957607f821691505b602082108103611492577f4e487b7100000000000000000000000000000000000000000000000000000000600052602260045260246000fd5b50919050565b60005b838110156114b357818101518382015260200161149b565b838111156114c2576000848401525b50505050565b600082601f8301126114d957600080fd5b81516114e761129f8261123a565b8181528460208386010111156114fc57600080fd5b6113af826020830160208701611498565b60006020828403121561151f57600080fd5b815167ffffffffffffffff81111561153657600080fd5b6113af848285016114c8565b600067ffffffffffffffff82111561155c5761155c6111bc565b5060051b60200190565b6000602080838503121561157957600080fd5b825167ffffffffffffffff8082111561159157600080fd5b818501915085601f8301126115a557600080fd5b81516115b361129f82611542565b81815260059190911b830184019084810190888311156115d257600080fd5b8585015b8381101561160a578051858111156115ee5760008081fd5b6115fc8b89838a01016114c8565b8452509186019186016115d6565b5098975050505050505050565b600080835481600182811c91508083168061163357607f831692505b6020808410820361166b577f4e487b710000000000000000000000000000000000000000000000000000000086526022600452602486fd5b81801561167f57600181146116ae576116db565b7fffffffffffffffffffffffffffffffffffffffffffffffffffffffffffffff008616895284890196506116db565b60008a81526020902060005b868110156116d35781548b8201529085019083016116ba565b505084890196505b509498975050505050505050565b6000602080830181845280855180835260408601915060408160051b870101925083870160005b82811015611792577fffffffffffffffffffffffffffffffffffffffffffffffffffffffffffffffc088860301845281518051808752611755818989018a8501611498565b601f017fffffffffffffffffffffffffffffffffffffffffffffffffffffffffffffffe01695909501860194509285019290850190600101611710565b5092979650505050505050565b600082516117b1818460208701611498565b9190910192915050565b600060208083850312156117ce57600080fd5b825167ffffffffffffffff8111156117e557600080fd5b8301601f810185136117f657600080fd5b805161180461129f82611542565b81815260059190911b8201830190838101908783111561182357600080fd5b928401925b8284101561184157835182529284019290840190611828565b979650505050505050565b60006020828403121561185e57600080fd5b815180151581146111b557600080fdfe608060405234801561001057600080fd5b506103ef806100206000396000f3fe608060405234801561001057600080fd5b50600436106100675760003560e01c80634cc82215116100505780634cc822151461009f578063949d225d146100b2578063cccf7a8e146100c357600080fd5b80631003e2d21461006c578063410d59cc14610081575b600080fd5b61007f61007a3660046102e9565b6100e6565b005b610089610138565b6040516100969190610302565b60405180910390f35b61007f6100ad3660046102e9565b610190565b600054604051908152602001610096565b6100d66100d13660046102e9565b610286565b6040519015158152602001610096565b6100ef81610286565b156100f75750565b600080548282526001602081905260408320829055810182559080527f290decd9548b62a8d60345a988386fc84ba6bc95484008f6362f93160ef3e5630155565b6060600080548060200260200160405190810160405280929190818152602001828054801561018657602002820191906000526020600020905b815481526020019060010190808311610172575b5050505050905090565b61019981610286565b6101a05750565b600080546101b090600190610346565b815481106101c0576101c0610384565b906000526020600020015460006001600084815260200190815260200160002054815481106101f1576101f1610384565b6000918252602080832090910192909255828152600191829052604081205481549092919081908490811061022857610228610384565b90600052602060002001548152602001908152602001600020819055506001600082815260200190815260200160002060009055600080548061026d5761026d6103b3565b6001900381819060005260206000200160009055905550565b60008054810361029857506000919050565b60008281526001602052604081205490036102d45781600080815481106102c1576102c1610384565b9060005260206000200154149050919050565b50600090815260016020526040902054151590565b6000602082840312156102fb57600080fd5b5035919050565b6020808252825182820181905260009190848201906040850190845b8181101561033a5783518352928401929184019160010161031e565b50909695505050505050565b60008282101561037f577f4e487b7100000000000000000000000000000000000000000000000000000000600052601160045260246000fd5b500390565b7f4e487b7100000000000000000000000000000000000000000000000000000000600052603260045260246000fd5b7f4e487b7100000000000000000000000000000000000000000000000000000000600052603160045260246000fdfea164736f6c634300080d000aa164736f6c634300080d000a608060405234801561001057600080fd5b506103ef806100206000396000f3fe608060405234801561001057600080fd5b50600436106100675760003560e01c80634cc82215116100505780634cc822151461009f578063949d225d146100b2578063cccf7a8e146100c357600080fd5b80631003e2d21461006c578063410d59cc14610081575b600080fd5b61007f61007a3660046102e9565b6100e6565b005b610089610138565b6040516100969190610302565b60405180910390f35b61007f6100ad3660046102e9565b610190565b600054604051908152602001610096565b6100d66100d13660046102e9565b610286565b6040519015158152602001610096565b6100ef81610286565b156100f75750565b600080548282526001602081905260408320829055810182559080527f290decd9548b62a8d60345a988386fc84ba6bc95484008f6362f93160ef3e5630155565b6060600080548060200260200160405190810160405280929190818152602001828054801561018657602002820191906000526020600020905b815481526020019060010190808311610172575b5050505050905090565b61019981610286565b6101a05750565b600080546101b090600190610346565b815481106101c0576101c0610384565b906000526020600020015460006001600084815260200190815260200160002054815481106101f1576101f1610384565b6000918252602080832090910192909255828152600191829052604081205481549092919081908490811061022857610228610384565b90600052602060002001548152602001908152602001600020819055506001600082815260200190815260200160002060009055600080548061026d5761026d6103b3565b6001900381819060005260206000200160009055905550565b60008054810361029857506000919050565b60008281526001602052604081205490036102d45781600080815481106102c1576102c1610384565b9060005260206000200154149050919050565b50600090815260016020526040902054151590565b6000602082840312156102fb57600080fd5b5035919050565b6020808252825182820181905260009190848201906040850190845b8181101561033a5783518352928401929184019160010161031e565b50909695505050505050565b60008282101561037f577f4e487b7100000000000000000000000000000000000000000000000000000000600052601160045260246000fd5b500390565b7f4e487b7100000000000000000000000000000000000000000000000000000000600052603260045260246000fd5b7f4e487b7100000000000000000000000000000000000000000000000000000000600052603160045260246000fdfea164736f6c634300080d000a",
    "linkReferences": {}
  }
}