{
  "abi": [
    {
      "inputs": [
        {
          "internalType": "address",
          "name": "world",
          "type": "address"
        },
        {
          "internalType": "uint256",
          "name": "id",
          "type": "uint256"
        }
      ],
      "stateMutability": "nonpayable",
      "type": "constructor"
    },
    {
      "inputs": [],
      "name": "BareComponent__NotImplemented",
      "type": "error"
    },
    {
      "inputs": [],
      "name": "OwnableWritable__NotWriter",
      "type": "error"
    },
    {
      "inputs": [],
      "name": "Ownable__NotOwner",
      "type": "error"
    },
    {
      "inputs": [],
      "name": "Ownable__NotTransitiveOwner",
      "type": "error"
    },
    {
      "anonymous": false,
      "inputs": [
        {
          "indexed": true,
          "internalType": "address",
          "name": "previousOwner",
          "type": "address"
        },
        {
          "indexed": true,
          "internalType": "address",
          "name": "newOwner",
          "type": "address"
        }
      ],
      "name": "OwnershipTransferred",
      "type": "event"
    },
    {
      "inputs": [
        {
          "internalType": "address",
          "name": "writer",
          "type": "address"
        }
      ],
      "name": "authorizeWriter",
      "outputs": [],
      "stateMutability": "nonpayable",
      "type": "function"
    },
    {
      "inputs": [],
      "name": "getEntities",
      "outputs": [
        {
          "internalType": "uint256[]",
          "name": "",
          "type": "uint256[]"
        }
      ],
      "stateMutability": "view",
      "type": "function"
    },
    {
      "inputs": [
        {
          "internalType": "bytes",
          "name": "",
          "type": "bytes"
        }
      ],
      "name": "getEntitiesWithValue",
      "outputs": [
        {
          "internalType": "uint256[]",
          "name": "",
          "type": "uint256[]"
        }
      ],
      "stateMutability": "view",
      "type": "function"
    },
    {
      "inputs": [
        {
          "internalType": "uint256",
          "name": "entity",
          "type": "uint256"
        }
      ],
      "name": "getRawValue",
      "outputs": [
        {
          "internalType": "bytes",
          "name": "",
          "type": "bytes"
        }
      ],
      "stateMutability": "view",
      "type": "function"
    },
    {
      "inputs": [],
      "name": "getSchema",
      "outputs": [
        {
          "internalType": "string[]",
          "name": "keys",
          "type": "string[]"
        },
        {
          "internalType": "enum LibTypes.SchemaValue[]",
          "name": "values",
          "type": "uint8[]"
        }
      ],
      "stateMutability": "pure",
      "type": "function"
    },
    {
      "inputs": [
        {
          "internalType": "uint256",
          "name": "entity",
          "type": "uint256"
        }
      ],
      "name": "getValue",
      "outputs": [
        {
          "internalType": "uint256[]",
          "name": "",
          "type": "uint256[]"
        }
      ],
      "stateMutability": "view",
      "type": "function"
    },
    {
      "inputs": [
        {
          "internalType": "uint256",
          "name": "entity",
          "type": "uint256"
        }
      ],
      "name": "has",
      "outputs": [
        {
          "internalType": "bool",
          "name": "",
          "type": "bool"
        }
      ],
      "stateMutability": "view",
      "type": "function"
    },
    {
      "inputs": [],
      "name": "id",
      "outputs": [
        {
          "internalType": "uint256",
          "name": "",
          "type": "uint256"
        }
      ],
      "stateMutability": "view",
      "type": "function"
    },
    {
      "inputs": [],
      "name": "owner",
      "outputs": [
        {
          "internalType": "address",
          "name": "",
          "type": "address"
        }
      ],
      "stateMutability": "view",
      "type": "function"
    },
    {
      "inputs": [
        {
          "internalType": "address",
          "name": "",
          "type": "address"
        }
      ],
      "name": "registerIndexer",
      "outputs": [],
      "stateMutability": "nonpayable",
      "type": "function"
    },
    {
      "inputs": [
        {
          "internalType": "address",
          "name": "_world",
          "type": "address"
        }
      ],
      "name": "registerWorld",
      "outputs": [],
      "stateMutability": "nonpayable",
      "type": "function"
    },
    {
      "inputs": [
        {
          "internalType": "uint256",
          "name": "entity",
          "type": "uint256"
        }
      ],
      "name": "remove",
      "outputs": [],
      "stateMutability": "nonpayable",
      "type": "function"
    },
    {
      "inputs": [
        {
          "internalType": "uint256",
          "name": "entity",
          "type": "uint256"
        },
        {
          "internalType": "bytes",
          "name": "value",
          "type": "bytes"
        }
      ],
      "name": "set",
      "outputs": [],
      "stateMutability": "nonpayable",
      "type": "function"
    },
    {
      "inputs": [
        {
          "internalType": "uint256",
          "name": "entity",
          "type": "uint256"
        },
        {
          "internalType": "uint256[]",
          "name": "value",
          "type": "uint256[]"
        }
      ],
      "name": "set",
      "outputs": [],
      "stateMutability": "nonpayable",
      "type": "function"
    },
    {
      "inputs": [
        {
          "internalType": "address",
          "name": "account",
          "type": "address"
        }
      ],
      "name": "transferOwnership",
      "outputs": [],
      "stateMutability": "nonpayable",
      "type": "function"
    },
    {
      "inputs": [
        {
          "internalType": "address",
          "name": "writer",
          "type": "address"
        }
      ],
      "name": "unauthorizeWriter",
      "outputs": [],
      "stateMutability": "nonpayable",
      "type": "function"
    },
    {
      "inputs": [],
      "name": "world",
      "outputs": [
        {
          "internalType": "address",
          "name": "",
          "type": "address"
        }
      ],
      "stateMutability": "view",
      "type": "function"
    },
    {
      "inputs": [
        {
          "internalType": "address",
          "name": "operator",
          "type": "address"
        }
      ],
      "name": "writeAccess",
      "outputs": [
        {
          "internalType": "bool",
          "name": "",
          "type": "bool"
        }
      ],
      "stateMutability": "view",
      "type": "function"
    }
  ],
  "bytecode": {
    "object": "0x60806040523480156200001157600080fd5b50604051620014f1380380620014f18339810160408190526200003491620001e1565b818162000041336200006b565b60028190556001600160a01b0382161562000061576200006182620000df565b505050506200021d565b6000620000826200019760201b62000a0e1760201c565b80546040519192506001600160a01b03808516929116907f8be0079c531659141344cd1fd0a4f28419497f9722a3daafe3b4186f6b6457e090600090a380546001600160a01b0319166001600160a01b0392909216919091179055565b620000e9620001bb565b6001600160a01b0316336001600160a01b0316146200011b57604051632f7a8ee160e01b815260040160405180910390fd5b600080546001600160a01b0319166001600160a01b038316908117909155600254604051630f30347760e41b8152306004820152602481019190915263f303477090604401600060405180830381600087803b1580156200017b57600080fd5b505af115801562000190573d6000803e3d6000fd5b5050505050565b7f8a22373512790c48b83a1fe2efdd2888d4a917bcdc24d0adf63e60f67168046090565b6000620001d26200019760201b62000a0e1760201c565b546001600160a01b0316919050565b60008060408385031215620001f557600080fd5b82516001600160a01b03811681146200020d57600080fd5b6020939093015192949293505050565b6112c4806200022d6000396000f3fe608060405234801561001057600080fd5b50600436106101365760003560e01c80638da5cb5b116100b2578063b361be4611610081578063bf4fe57e11610066578063bf4fe57e146102b0578063cccf7a8e146102c3578063f2fde38b146102d657600080fd5b8063b361be461461027d578063b8bc073d1461029057600080fd5b80638da5cb5b14610238578063946aadc6146102405780639d2c76b414610253578063af640d0f1461026657600080fd5b80634fef6a381161010957806375c0669c116100ee57806375c0669c146101ef578063861eb905146102025780638b2829471461022557600080fd5b80634fef6a38146101c65780636b122fe0146101d957600080fd5b80630ff4c9161461013b57806330b67baa1461016457806331b933b9146101a95780634cc82215146101b1575b600080fd5b61014e610149366004610cd5565b6102e9565b60405161015b9190610cee565b60405180910390f35b6000546101849073ffffffffffffffffffffffffffffffffffffffff1681565b60405173ffffffffffffffffffffffffffffffffffffffff909116815260200161015b565b61014e61030d565b6101c46101bf366004610cd5565b610341565b005b6101c46101d4366004610d32565b61038c565b6101e161046a565b60405161015b929190610e09565b6101c46101fd366004610d32565b610556565b610215610210366004610d32565b610588565b604051901515815260200161015b565b6101c4610233366004611005565b610612565b61018461065f565b6101c461024e366004611070565b6106a4565b6101c4610261366004610d32565b6106cd565b61026f60025481565b60405190815260200161015b565b61014e61028b366004611112565b61030d565b6102a361029e366004610cd5565b6107f6565b60405161015b919061114f565b6101c46102be366004610d32565b610898565b6102156102d1366004610cd5565b610973565b6101c46102e4366004610d32565b610995565b60606102f4826107f6565b8060200190518101906103079190611162565b92915050565b60606040517f17d5b8e800000000000000000000000000000000000000000000000000000000815260040160405180910390fd5b61034a33610588565b610380576040517f406ed3da00000000000000000000000000000000000000000000000000000000815260040160405180910390fd5b61038981610a32565b50565b7f8a22373512790c48b83a1fe2efdd2888d4a917bcdc24d0adf63e60f6716804605473ffffffffffffffffffffffffffffffffffffffff1633146103fc576040517f2f7a8ee100000000000000000000000000000000000000000000000000000000815260040160405180910390fd5b73ffffffffffffffffffffffffffffffffffffffff1660009081527f8ffeadc5cba727b8cc3cdef48739619490ea317fdb3baae1259089d06f92c9096020526040902080547fffffffffffffffffffffffffffffffffffffffffffffffffffffffffffffff00166001179055565b604080516001808252818301909252606091829190816020015b6060815260200190600190039081610484575050604080516001808252818301909252919350602080830190803683370190505090506040518060400160405280600581526020017f76616c756500000000000000000000000000000000000000000000000000000081525082600081518110610503576105036111f3565b6020026020010181905250601f81600081518110610523576105236111f3565b6020026020010190602181111561053c5761053c610dda565b9081602181111561054f5761054f610dda565b9052509091565b6040517f17d5b8e800000000000000000000000000000000000000000000000000000000815260040160405180910390fd5b73ffffffffffffffffffffffffffffffffffffffff811660009081527f8ffeadc5cba727b8cc3cdef48739619490ea317fdb3baae1259089d06f92c909602052604081205460ff168061030757506105de61065f565b73ffffffffffffffffffffffffffffffffffffffff168273ffffffffffffffffffffffffffffffffffffffff161492915050565b61061b33610588565b610651576040517f406ed3da00000000000000000000000000000000000000000000000000000000815260040160405180910390fd5b61065b8282610aa0565b5050565b600061069f7f8a22373512790c48b83a1fe2efdd2888d4a917bcdc24d0adf63e60f6716804605473ffffffffffffffffffffffffffffffffffffffff1690565b905090565b61065b82826040516020016106b99190610cee565b604051602081830303815290604052610612565b7f8a22373512790c48b83a1fe2efdd2888d4a917bcdc24d0adf63e60f6716804605473ffffffffffffffffffffffffffffffffffffffff16331461073d576040517f2f7a8ee100000000000000000000000000000000000000000000000000000000815260040160405180910390fd5b600080547fffffffffffffffffffffffff00000000000000000000000000000000000000001673ffffffffffffffffffffffffffffffffffffffff83169081179091556002546040517ff3034770000000000000000000000000000000000000000000000000000000008152306004820152602481019190915263f3034770906044015b600060405180830381600087803b1580156107db57600080fd5b505af11580156107ef573d6000803e3d6000fd5b5050505050565b600081815260016020526040902080546060919061081390611222565b80601f016020809104026020016040519081016040528092919081815260200182805461083f90611222565b801561088c5780601f106108615761010080835404028352916020019161088c565b820191906000526020600020905b81548152906001019060200180831161086f57829003601f168201915b50505050509050919050565b7f8a22373512790c48b83a1fe2efdd2888d4a917bcdc24d0adf63e60f6716804605473ffffffffffffffffffffffffffffffffffffffff163314610908576040517f2f7a8ee100000000000000000000000000000000000000000000000000000000815260040160405180910390fd5b73ffffffffffffffffffffffffffffffffffffffff1660009081527f8ffeadc5cba727b8cc3cdef48739619490ea317fdb3baae1259089d06f92c9096020526040902080547fffffffffffffffffffffffffffffffffffffffffffffffffffffffffffffff00169055565b6000818152600160205260408120805461098c90611222565b15159392505050565b7f8a22373512790c48b83a1fe2efdd2888d4a917bcdc24d0adf63e60f6716804605473ffffffffffffffffffffffffffffffffffffffff163314610a05576040517f2f7a8ee100000000000000000000000000000000000000000000000000000000815260040160405180910390fd5b61038981610b4e565b7f8a22373512790c48b83a1fe2efdd2888d4a917bcdc24d0adf63e60f67168046090565b6000818152600160205260408120610a4991610c02565b6000546040517f0de3b7b50000000000000000000000000000000000000000000000000000000081526004810183905273ffffffffffffffffffffffffffffffffffffffff90911690630de3b7b5906024016107c1565b60008281526001602090815260409091208251610abf92840190610c3c565b506000546040517fcfd3c57f00000000000000000000000000000000000000000000000000000000815273ffffffffffffffffffffffffffffffffffffffff9091169063cfd3c57f90610b189085908590600401611275565b600060405180830381600087803b158015610b3257600080fd5b505af1158015610b46573d6000803e3d6000fd5b505050505050565b7f8a22373512790c48b83a1fe2efdd2888d4a917bcdc24d0adf63e60f6716804608054604051610389928492909173ffffffffffffffffffffffffffffffffffffffff8085169216907f8be0079c531659141344cd1fd0a4f28419497f9722a3daafe3b4186f6b6457e090600090a380547fffffffffffffffffffffffff00000000000000000000000000000000000000001673ffffffffffffffffffffffffffffffffffffffff92909216919091179055565b508054610c0e90611222565b6000825580601f10610c1e575050565b601f0160209004906000526020600020908101906103899190610cc0565b828054610c4890611222565b90600052602060002090601f016020900481019282610c6a5760008555610cb0565b82601f10610c8357805160ff1916838001178555610cb0565b82800160010185558215610cb0579182015b82811115610cb0578251825591602001919060010190610c95565b50610cbc929150610cc0565b5090565b5b80821115610cbc5760008155600101610cc1565b600060208284031215610ce757600080fd5b5035919050565b6020808252825182820181905260009190848201906040850190845b81811015610d2657835183529284019291840191600101610d0a565b50909695505050505050565b600060208284031215610d4457600080fd5b813573ffffffffffffffffffffffffffffffffffffffff81168114610d6857600080fd5b9392505050565b6000815180845260005b81811015610d9557602081850181015186830182015201610d79565b81811115610da7576000602083870101525b50601f017fffffffffffffffffffffffffffffffffffffffffffffffffffffffffffffffe0169290920160200192915050565b7f4e487b7100000000000000000000000000000000000000000000000000000000600052602160045260246000fd5b6000604082016040835280855180835260608501915060608160051b8601019250602080880160005b83811015610e7e577fffffffffffffffffffffffffffffffffffffffffffffffffffffffffffffffa0888703018552610e6c868351610d6f565b95509382019390820190600101610e32565b50508584038187015286518085528782019482019350915060005b82811015610eec57845160228110610eda577f4e487b7100000000000000000000000000000000000000000000000000000000600052602160045260246000fd5b84529381019392810192600101610e99565b5091979650505050505050565b7f4e487b7100000000000000000000000000000000000000000000000000000000600052604160045260246000fd5b604051601f82017fffffffffffffffffffffffffffffffffffffffffffffffffffffffffffffffe016810167ffffffffffffffff81118282101715610f6f57610f6f610ef9565b604052919050565b600082601f830112610f8857600080fd5b813567ffffffffffffffff811115610fa257610fa2610ef9565b610fd360207fffffffffffffffffffffffffffffffffffffffffffffffffffffffffffffffe0601f84011601610f28565b818152846020838601011115610fe857600080fd5b816020850160208301376000918101602001919091529392505050565b6000806040838503121561101857600080fd5b82359150602083013567ffffffffffffffff81111561103657600080fd5b61104285828601610f77565b9150509250929050565b600067ffffffffffffffff82111561106657611066610ef9565b5060051b60200190565b6000806040838503121561108357600080fd5b8235915060208084013567ffffffffffffffff8111156110a257600080fd5b8401601f810186136110b357600080fd5b80356110c66110c18261104c565b610f28565b81815260059190911b820183019083810190888311156110e557600080fd5b928401925b82841015611103578335825292840192908401906110ea565b80955050505050509250929050565b60006020828403121561112457600080fd5b813567ffffffffffffffff81111561113b57600080fd5b61114784828501610f77565b949350505050565b602081526000610d686020830184610d6f565b6000602080838503121561117557600080fd5b825167ffffffffffffffff81111561118c57600080fd5b8301601f8101851361119d57600080fd5b80516111ab6110c18261104c565b81815260059190911b820183019083810190878311156111ca57600080fd5b928401925b828410156111e8578351825292840192908401906111cf565b979650505050505050565b7f4e487b7100000000000000000000000000000000000000000000000000000000600052603260045260246000fd5b600181811c9082168061123657607f821691505b60208210810361126f577f4e487b7100000000000000000000000000000000000000000000000000000000600052602260045260246000fd5b50919050565b8281526040602082015260006111476040830184610d6f56fea26469706673582212209dd8ddac4fabb787dd72c0ac2d9df10bc3a7f81c339d0275efb06cc62957691a64736f6c634300080d0033",
    "linkReferences": {}
  },
  "methodIdentifiers": {
    "authorizeWriter(address)": "4fef6a38",
    "getEntities()": "31b933b9",
    "getEntitiesWithValue(bytes)": "b361be46",
    "getRawValue(uint256)": "b8bc073d",
    "getSchema()": "6b122fe0",
    "getValue(uint256)": "0ff4c916",
    "has(uint256)": "cccf7a8e",
    "id()": "af640d0f",
    "owner()": "8da5cb5b",
    "registerIndexer(address)": "75c0669c",
    "registerWorld(address)": "9d2c76b4",
    "remove(uint256)": "4cc82215",
    "set(uint256,bytes)": "8b282947",
    "set(uint256,uint256[])": "946aadc6",
    "transferOwnership(address)": "f2fde38b",
    "unauthorizeWriter(address)": "bf4fe57e",
    "world()": "30b67baa",
    "writeAccess(address)": "861eb905"
  },
  "id": 90
}