{
  "abi": [
    {
      "inputs": [
        {
          "internalType": "uint256[]",
          "name": "array",
          "type": "uint256[]"
        }
      ],
      "name": "arrayToList",
      "outputs": [
        {
          "internalType": "LinkedList",
          "name": "list",
          "type": "bytes32"
        }
      ],
      "stateMutability": "pure",
      "type": "function"
    },
    {
      "inputs": [
        {
          "internalType": "uint256",
          "name": "entity",
          "type": "uint256"
        },
        {
          "internalType": "contract IComponent",
          "name": "component",
          "type": "IComponent"
        },
        {
          "internalType": "uint256",
          "name": "depth",
          "type": "uint256"
        }
      ],
      "name": "getChildEntities",
      "outputs": [
        {
          "internalType": "uint256[]",
          "name": "",
          "type": "uint256[]"
        }
      ],
      "stateMutability": "view",
      "type": "function"
    },
    {
      "inputs": [
        {
          "internalType": "contract IComponent",
          "name": "component",
          "type": "IComponent"
        },
        {
          "internalType": "uint256",
          "name": "entity",
          "type": "uint256"
        },
        {
          "internalType": "contract IComponent",
          "name": "proxyComponent",
          "type": "IComponent"
        },
        {
          "internalType": "uint256",
          "name": "depth",
          "type": "uint256"
        }
      ],
      "name": "getValueWithProxy",
      "outputs": [
        {
          "internalType": "bytes",
          "name": "value",
          "type": "bytes"
        },
        {
          "internalType": "bool",
          "name": "found",
          "type": "bool"
        }
      ],
      "stateMutability": "view",
      "type": "function"
    },
    {
      "inputs": [
        {
          "internalType": "LinkedList",
          "name": "list",
          "type": "bytes32"
        },
        {
          "internalType": "uint256",
          "name": "length",
          "type": "uint256"
        }
      ],
      "name": "listToArray",
      "outputs": [
        {
          "internalType": "uint256[]",
          "name": "array",
          "type": "uint256[]"
        }
      ],
      "stateMutability": "pure",
      "type": "function"
    },
    {
      "inputs": [
        {
          "components": [
            {
              "internalType": "enum QueryType",
              "name": "queryType",
              "type": "QueryType"
            },
            {
              "internalType": "contract IComponent",
              "name": "component",
              "type": "IComponent"
            },
            {
              "internalType": "bytes",
              "name": "value",
              "type": "bytes"
            }
          ],
          "internalType": "struct QueryFragment[]",
          "name": "fragments",
          "type": "tuple[]"
        }
      ],
      "name": "query",
      "outputs": [
        {
          "internalType": "uint256[]",
          "name": "",
          "type": "uint256[]"
        }
      ],
      "stateMutability": "view",
      "type": "function"
    }
  ],
  "bytecode": {
    "object": "0x611e1461003a600b82828239805160001a60731461002d57634e487b7160e01b600052600060045260246000fd5b30600052607381538281f3fe73000000000000000000000000000000000000000030146080604052600436106100715760003560e01c8063457b7a791161005a578063457b7a79146100c05780635c35f12f146100d3578063e87f3be9146100e657600080fd5b806318a023ba146100765780631aa505ba146100a0575b600080fd5b610089610084366004611722565b610107565b6040516100979291906117e0565b60405180910390f35b6100b36100ae366004611804565b61040d565b6040516100979190611839565b6100b36100ce36600461187d565b610656565b6100b36100e13660046118f2565b610b40565b6100f96100f43660046119df565b610c18565b604051908152602001610097565b6060600084815b8481116103ed576040517fcccf7a8e0000000000000000000000000000000000000000000000000000000081526004810183905273ffffffffffffffffffffffffffffffffffffffff89169063cccf7a8e90602401602060405180830381865afa158015610180573d6000803e3d6000fd5b505050506040513d601f19601f820116820180604052508101906101a49190611a75565b15610267576040517fb8bc073d0000000000000000000000000000000000000000000000000000000081526004810183905273ffffffffffffffffffffffffffffffffffffffff89169063b8bc073d90602401600060405180830381865afa158015610214573d6000803e3d6000fd5b505050506040513d6000823e601f3d9081017fffffffffffffffffffffffffffffffffffffffffffffffffffffffffffffffe016820160405261025a9190810190611add565b6001935093505050610404565b6040517fcccf7a8e0000000000000000000000000000000000000000000000000000000081526004810183905273ffffffffffffffffffffffffffffffffffffffff87169063cccf7a8e90602401602060405180830381865afa1580156102d2573d6000803e3d6000fd5b505050506040513d601f19601f820116820180604052508101906102f69190611a75565b6103155750506040805160008082526020820190925292509050610404565b6040517fb8bc073d0000000000000000000000000000000000000000000000000000000081526004810183905273ffffffffffffffffffffffffffffffffffffffff87169063b8bc073d90602401600060405180830381865afa158015610380573d6000803e3d6000fd5b505050506040513d6000823e601f3d9081017fffffffffffffffffffffffffffffffffffffffffffffffffffffffffffffffe01682016040526103c69190810190611add565b8060200190518101906103d99190611b54565b9150806103e581611b9c565b91505061010e565b505060408051600080825260208201909252925090505b94509492505050565b60608160000361042c575060408051600081526020810190915261064f565b60008373ffffffffffffffffffffffffffffffffffffffff1663b361be468660405160200161045d91815260200190565b6040516020818303038152906040526040518263ffffffff1660e01b81526004016104889190611bd4565b600060405180830381865afa1580156104a5573d6000803e3d6000fd5b505050506040513d6000823e601f3d9081017fffffffffffffffffffffffffffffffffffffffffffffffffffffffffffffffe01682016040526104eb9190810190611be7565b9050826001036104fc57905061064f565b7620000000000000000000000000000000000000000000006000805b83518110156105d257600061054e85838151811061053857610538611c6d565b60200260200101518960018a6100ae9190611c9c565b905060005b81518110156105bd5761059b610594604051806040016040528085858151811061057f5761057f611c6d565b60200260200101518152602001600081525090565b8690610c80565b9450836105a781611b9c565b94505080806105b590611b9c565b915050610553565b505080806105ca90611b9c565b915050610518565b5060006105e6838551846100e19190611cb3565b905060005b84518110156106485784818151811061060657610606611c6d565b602002602001015182828561061b9190611cb3565b8151811061062b5761062b611c6d565b60209081029190910101528061064081611b9c565b9150506105eb565b5093505050505b9392505050565b6060610660611686565b7620000000000000000000000000000000000000000000008152600060208201819052600160808301525b83811015610b235760008585838181106106a7576106a7611c6d565b90506020028101906106b99190611ccb565b6106c290611d09565b90506106cd81610ce5565b1561071b576004815160058111156106e7576106e7611daf565b036106f457604083018190525b60058151600581111561070957610709611daf565b0361071657606083018190525b610b10565b826080015115610a295761072e81610d20565b610799576040517f08c379a000000000000000000000000000000000000000000000000000000000815260206004820152601960248201527f4e454741544956455f494e495449414c5f465241474d454e540000000000000060448201526064015b60405180910390fd5b60006080840181905280825160058111156107b6576107b6611daf565b1461086457816020015173ffffffffffffffffffffffffffffffffffffffff1663b361be4683604001516040518263ffffffff1660e01b81526004016107fc9190611bd4565b600060405180830381865afa158015610819573d6000803e3d6000fd5b505050506040513d6000823e601f3d9081017fffffffffffffffffffffffffffffffffffffffffffffffffffffffffffffffe016820160405261085f9190810190611be7565b6108f9565b816020015173ffffffffffffffffffffffffffffffffffffffff166331b933b96040518163ffffffff1660e01b8152600401600060405180830381865afa1580156108b3573d6000803e3d6000fd5b505050506040513d6000823e601f3d9081017fffffffffffffffffffffffffffffffffffffffffffffffffffffffffffffffe01682016040526108f99190810190611be7565b905061090481610c18565b845280516020808601919091526060850151015173ffffffffffffffffffffffffffffffffffffffff1615801590610957575060008460600151604001518060200190518101906109559190611b54565b115b15610a235760005b8151811015610a215760006109ac83838151811061097f5761097f611c6d565b60200260200101518760600151602001518860600151604001518060200190518101906100ae9190611b54565b905060005b8151811015610a0c576109e56109dd604051806040016040528085858151811061057f5761057f611c6d565b885190610c80565b8752602087018051906109f782611b9c565b90525080610a0481611b9c565b9150506109b1565b50508080610a1990611b9c565b91505061095f565b505b50610b10565b82517620000000000000000000000000000000000000000000009060009060019060601c69ffffffffffffffffffff165b8115610b05576000610a7e8260408051808201909152600080825260208201525090565b80519091506000610a8f8289610d44565b9050610a9d8a898484611103565b90508015610adb57610acb610ac46040518060400160405280858152602001600081525090565b8890610c80565b965085610ad781611b9c565b9650505b610ae88a89848a8a611198565b8b5160b01c860151919850965080151595509350610a5a92505050565b505090845260208401525b5080610b1b81611b9c565b91505061068b565b50610b3681600001518260200151610b40565b9150505b92915050565b60608167ffffffffffffffff811115610b5b57610b5b611914565b604051908082528060200260200182016040528015610b84578160200160208202803683370190505b5090508115610b3a57600169ffffffffffffffffffff606085901c1660005b8215610c0f576000610bc78360408051808201909152600080825260208201525090565b90508060000151858381518110610be057610be0611c6d565b602090810291909101015281610bf581611b9c565b60b089901c94909401518015159550939250610ba3915050565b50505092915050565b76200000000000000000000000000000000000000000000060005b8251811015610c7a57610c66610c5f604051806040016040528086858151811061057f5761057f611c6d565b8390610c80565b915080610c7281611b9c565b915050610c33565b50919050565b6000808360501b60b01c1160018114610ca5578260101b8360601b8517179150610cde565b828460b01c8560a01b60b01c01528260101b7fffffffffffffffffffffffffffffffffffffffff00000000000000000000000085161791505b5092915050565b6000600482516005811115610cfc57610cfc611daf565b1480610b3a575060055b82516005811115610d1957610d19611daf565b1492915050565b60008082516005811115610d3657610d36611daf565b1480610b3a57506002610d06565b60008082516005811115610d5a57610d5a611daf565b03610dfb5760208201516040517fcccf7a8e0000000000000000000000000000000000000000000000000000000081526004810185905273ffffffffffffffffffffffffffffffffffffffff9091169063cccf7a8e90602401602060405180830381865afa158015610dd0573d6000803e3d6000fd5b505050506040513d601f19601f82011682018060405250810190610df49190611a75565b9050610b3a565b600282516005811115610e1057610e10611daf565b03610ee75760208201516040517fb8bc073d0000000000000000000000000000000000000000000000000000000081526004810185905273ffffffffffffffffffffffffffffffffffffffff9091169063b8bc073d90602401600060405180830381865afa158015610e86573d6000803e3d6000fd5b505050506040513d6000823e601f3d9081017fffffffffffffffffffffffffffffffffffffffffffffffffffffffffffffffe0168201604052610ecc9190810190611add565b80519060200120826040015180519060200120149050610b3a565b600182516005811115610efc57610efc611daf565b03610f9e5760208201516040517fcccf7a8e0000000000000000000000000000000000000000000000000000000081526004810185905273ffffffffffffffffffffffffffffffffffffffff9091169063cccf7a8e90602401602060405180830381865afa158015610f72573d6000803e3d6000fd5b505050506040513d601f19601f82011682018060405250810190610f969190611a75565b159050610b3a565b600382516005811115610fb357610fb3611daf565b0361108b5760208201516040517fb8bc073d0000000000000000000000000000000000000000000000000000000081526004810185905273ffffffffffffffffffffffffffffffffffffffff9091169063b8bc073d90602401600060405180830381865afa158015611029573d6000803e3d6000fd5b505050506040513d6000823e601f3d9081017fffffffffffffffffffffffffffffffffffffffffffffffffffffffffffffffe016820160405261106f9190810190611add565b8051906020012082604001518051906020012014159050610b3a565b61109482611329565b6110fa576040517f08c379a000000000000000000000000000000000000000000000000000000000815260206004820152601260248201527f4e4f5f454e544954595f465241474d454e5400000000000000000000000000006044820152606401610790565b50600092915050565b60408401516020015160009073ffffffffffffffffffffffffffffffffffffffff161580159061114e5750600085604001516040015180602001905181019061114c9190611b54565b115b8015611161575061115f8285611388565b155b1561118d57600080611178858789604001516113b3565b91509150801561118a57509050611190565b50505b50805b949350505050565b606085015160200151600090819073ffffffffffffffffffffffffffffffffffffffff16158015906111e5575060008760600151604001518060200190518101906111e39190611b54565b115b1561131d576000611215868960600151602001518a60600151604001518060200190518101906100ae9190611b54565b905060005b815181101561131a57600082828151811061123757611237611c6d565b60200260200101519050600061124d828b610d44565b90508015801561127a575060408b01516020015173ffffffffffffffffffffffffffffffffffffffff1615155b80156112a1575060008b604001516040015180602001905181019061129f9190611b54565b115b156112c9576000806112b8848d8f604001516113b3565b9150915080156112c6578192505b50505b8015611305576112f56112ee60405180604001604052808c8152602001600081525090565b8990610c80565b97508661130181611b9c565b9750505b5050808061131290611b9c565b91505061121a565b50505b50919590945092505050565b6000808251600581111561133f5761133f611daf565b148061135d575060028251600581111561135b5761135b611daf565b145b8061137b575060015b8251600581111561137957611379611daf565b145b80610b3a57506003610d06565b600082801561139b575061139b82610d20565b8061064f57508215801561064f575061064f8261167d565b6000806113bf84611329565b611425576040517f08c379a000000000000000000000000000000000000000000000000000000000815260206004820152601260248201527f4e4f5f454e544954595f465241474d454e5400000000000000000000000000006044820152606401610790565b60048351600581111561143a5761143a611daf565b146114a1576040517f08c379a000000000000000000000000000000000000000000000000000000000815260206004820152601660248201527f4e4f5f50524f58595f524541445f465241474d454e54000000000000000000006044820152606401610790565b8460005b84604001518060200190518101906114bd9190611b54565b81101561166e5760208501516040517fcccf7a8e0000000000000000000000000000000000000000000000000000000081526004810184905273ffffffffffffffffffffffffffffffffffffffff9091169063cccf7a8e90602401602060405180830381865afa158015611535573d6000803e3d6000fd5b505050506040513d601f19601f820116820180604052508101906115599190611a75565b6115695750600091506116759050565b60208501516040517fb8bc073d0000000000000000000000000000000000000000000000000000000081526004810184905273ffffffffffffffffffffffffffffffffffffffff9091169063b8bc073d90602401600060405180830381865afa1580156115da573d6000803e3d6000fd5b505050506040513d6000823e601f3d9081017fffffffffffffffffffffffffffffffffffffffffffffffffffffffffffffffe01682016040526116209190810190611add565b8060200190518101906116339190611b54565b915061163f8287610d44565b935061164b8487611388565b1561165c5750600191506116759050565b8061166681611b9c565b9150506114a5565b5060019150505b935093915050565b60006001611366565b6040805160a081018252600080825260208201529081016116c26040805160608101909152806000815260006020820152606060409091015290565b81526020016116ec6040805160608101909152806000815260006020820152606060409091015290565b8152600060209091015290565b803573ffffffffffffffffffffffffffffffffffffffff8116811461171d57600080fd5b919050565b6000806000806080858703121561173857600080fd5b611741856116f9565b935060208501359250611756604086016116f9565b9396929550929360600135925050565b60005b83811015611781578181015183820152602001611769565b83811115611790576000848401525b50505050565b600081518084526117ae816020860160208601611766565b601f017fffffffffffffffffffffffffffffffffffffffffffffffffffffffffffffffe0169290920160200192915050565b6040815260006117f36040830185611796565b905082151560208301529392505050565b60008060006060848603121561181957600080fd5b83359250611829602085016116f9565b9150604084013590509250925092565b6020808252825182820181905260009190848201906040850190845b8181101561187157835183529284019291840191600101611855565b50909695505050505050565b6000806020838503121561189057600080fd5b823567ffffffffffffffff808211156118a857600080fd5b818501915085601f8301126118bc57600080fd5b8135818111156118cb57600080fd5b8660208260051b85010111156118e057600080fd5b60209290920196919550909350505050565b6000806040838503121561190557600080fd5b50508035926020909101359150565b7f4e487b7100000000000000000000000000000000000000000000000000000000600052604160045260246000fd5b6040516060810167ffffffffffffffff8111828210171561196657611966611914565b60405290565b604051601f82017fffffffffffffffffffffffffffffffffffffffffffffffffffffffffffffffe016810167ffffffffffffffff811182821017156119b3576119b3611914565b604052919050565b600067ffffffffffffffff8211156119d5576119d5611914565b5060051b60200190565b600060208083850312156119f257600080fd5b823567ffffffffffffffff811115611a0957600080fd5b8301601f81018513611a1a57600080fd5b8035611a2d611a28826119bb565b61196c565b81815260059190911b82018301908381019087831115611a4c57600080fd5b928401925b82841015611a6a57833582529284019290840190611a51565b979650505050505050565b600060208284031215611a8757600080fd5b8151801515811461064f57600080fd5b600067ffffffffffffffff821115611ab157611ab1611914565b50601f017fffffffffffffffffffffffffffffffffffffffffffffffffffffffffffffffe01660200190565b600060208284031215611aef57600080fd5b815167ffffffffffffffff811115611b0657600080fd5b8201601f81018413611b1757600080fd5b8051611b25611a2882611a97565b818152856020838501011115611b3a57600080fd5b611b4b826020830160208601611766565b95945050505050565b600060208284031215611b6657600080fd5b5051919050565b7f4e487b7100000000000000000000000000000000000000000000000000000000600052601160045260246000fd5b60007fffffffffffffffffffffffffffffffffffffffffffffffffffffffffffffffff8203611bcd57611bcd611b6d565b5060010190565b60208152600061064f6020830184611796565b60006020808385031215611bfa57600080fd5b825167ffffffffffffffff811115611c1157600080fd5b8301601f81018513611c2257600080fd5b8051611c30611a28826119bb565b81815260059190911b82018301908381019087831115611c4f57600080fd5b928401925b82841015611a6a57835182529284019290840190611c54565b7f4e487b7100000000000000000000000000000000000000000000000000000000600052603260045260246000fd5b600082821015611cae57611cae611b6d565b500390565b60008219821115611cc657611cc6611b6d565b500190565b600082357fffffffffffffffffffffffffffffffffffffffffffffffffffffffffffffffa1833603018112611cff57600080fd5b9190910192915050565b600060608236031215611d1b57600080fd5b611d23611943565b823560068110611d3257600080fd5b81526020611d418482016116f9565b81830152604084013567ffffffffffffffff811115611d5f57600080fd5b840136601f820112611d7057600080fd5b8035611d7e611a2882611a97565b8181523684838501011115611d9257600080fd5b818484018583013760009181019093015250604082015292915050565b7f4e487b7100000000000000000000000000000000000000000000000000000000600052602160045260246000fdfea264697066735822122000f82708d5fed7b8f9ad0c48191d37a86e5b2a92cc50614fce79682e1e80cb4864736f6c634300080d0033",
    "linkReferences": {}
  }
}