{
  "abi": [
    {
      "inputs": [],
      "name": "_msgSender",
      "outputs": [
        {
          "internalType": "address",
          "name": "sender",
          "type": "address"
        }
      ],
      "stateMutability": "view",
      "type": "function"
    },
    {
      "inputs": [],
      "name": "_msgValue",
      "outputs": [
        {
          "internalType": "uint256",
          "name": "value",
          "type": "uint256"
        }
      ],
      "stateMutability": "pure",
      "type": "function"
    },
    {
      "inputs": [],
      "name": "_world",
      "outputs": [
        {
          "internalType": "address",
          "name": "",
          "type": "address"
        }
      ],
      "stateMutability": "view",
      "type": "function"
    },
    {
      "inputs": [
        {
          "internalType": "bytes4",
          "name": "interfaceId",
          "type": "bytes4"
        }
      ],
      "name": "supportsInterface",
      "outputs": [
        {
          "internalType": "bool",
          "name": "",
          "type": "bool"
        }
      ],
      "stateMutability": "pure",
      "type": "function"
    }
  ],
  "bytecode": {
    "object": "0x608060405234801561001057600080fd5b50610284806100206000396000f3fe608060405234801561001057600080fd5b506004361061004c5760003560e01c806301ffc9a714610051578063119df25f1461007957806345ec9354146100a6578063e1af802c146100d7575b600080fd5b61006461005f366004610205565b6100df565b60405190151581526020015b60405180910390f35b610081610178565b60405173ffffffffffffffffffffffffffffffffffffffff9091168152602001610070565b6040517fffffffffffffffffffffffffffffffffffffffffffffffffffffffffffffffe03601358152602001610070565b6100816101aa565b60007fffffffff0000000000000000000000000000000000000000000000000000000082167fb421288000000000000000000000000000000000000000000000000000000000148061017257507fffffffff0000000000000000000000000000000000000000000000000000000082167f01ffc9a700000000000000000000000000000000000000000000000000000000145b92915050565b7fffffffffffffffffffffffffffffffffffffffffffffffffffffffffffffffcc36013560601c806101a75750335b90565b60006101b46101b9565b905090565b7f629a4c26e296b22a8e0856e9f6ecb2d1008d7e00081111962cd175fa7488e1755460009073ffffffffffffffffffffffffffffffffffffffff1680610200573391505090565b919050565b60006020828403121561021757600080fd5b81357fffffffff000000000000000000000000000000000000000000000000000000008116811461024757600080fd5b939250505056fea2646970667358221220868cacf8664aba9ac23e3713ee7a6bbb63f16875ab2265b9f31c9c3ae829a65564736f6c634300080d0033",
    "linkReferences": {}
  },
  "methodIdentifiers": {
    "_msgSender()": "119df25f",
    "_msgValue()": "45ec9354",
    "_world()": "e1af802c",
    "supportsInterface(bytes4)": "01ffc9a7"
  },
  "id": 72
}