{
  "abi": [
    {
      "inputs": [],
      "stateMutability": "nonpayable",
      "type": "constructor"
    },
    {
      "anonymous": false,
      "inputs": [
        {
          "indexed": true,
          "internalType": "uint256",
          "name": "componentId",
          "type": "uint256"
        },
        {
          "indexed": true,
          "internalType": "address",
          "name": "component",
          "type": "address"
        },
        {
          "indexed": true,
          "internalType": "uint256",
          "name": "entity",
          "type": "uint256"
        }
      ],
      "name": "ComponentValueRemoved",
      "type": "event"
    },
    {
      "anonymous": false,
      "inputs": [
        {
          "indexed": true,
          "internalType": "uint256",
          "name": "componentId",
          "type": "uint256"
        },
        {
          "indexed": true,
          "internalType": "address",
          "name": "component",
          "type": "address"
        },
        {
          "indexed": true,
          "internalType": "uint256",
          "name": "entity",
          "type": "uint256"
        },
        {
          "indexed": false,
          "internalType": "bytes",
          "name": "data",
          "type": "bytes"
        }
      ],
      "name": "ComponentValueSet",
      "type": "event"
    },
    {
      "inputs": [],
      "name": "components",
      "outputs": [
        {
          "internalType": "contract IUint256Component",
          "name": "",
          "type": "address"
        }
      ],
      "stateMutability": "view",
      "type": "function"
    },
    {
      "inputs": [
        {
          "internalType": "uint256",
          "name": "id",
          "type": "uint256"
        }
      ],
      "name": "getComponent",
      "outputs": [
        {
          "internalType": "address",
          "name": "",
          "type": "address"
        }
      ],
      "stateMutability": "view",
      "type": "function"
    },
    {
      "inputs": [
        {
          "internalType": "address",
          "name": "componentAddr",
          "type": "address"
        }
      ],
      "name": "getComponentIdFromAddress",
      "outputs": [
        {
          "internalType": "uint256",
          "name": "",
          "type": "uint256"
        }
      ],
      "stateMutability": "view",
      "type": "function"
    },
    {
      "inputs": [],
      "name": "getNumEntities",
      "outputs": [
        {
          "internalType": "uint256",
          "name": "",
          "type": "uint256"
        }
      ],
      "stateMutability": "view",
      "type": "function"
    },
    {
      "inputs": [
        {
          "internalType": "uint256",
          "name": "systemId",
          "type": "uint256"
        }
      ],
      "name": "getSystemAddress",
      "outputs": [
        {
          "internalType": "address",
          "name": "",
          "type": "address"
        }
      ],
      "stateMutability": "view",
      "type": "function"
    },
    {
      "inputs": [],
      "name": "getUniqueEntityId",
      "outputs": [
        {
          "internalType": "uint256",
          "name": "",
          "type": "uint256"
        }
      ],
      "stateMutability": "view",
      "type": "function"
    },
    {
      "inputs": [
        {
          "internalType": "uint256",
          "name": "entity",
          "type": "uint256"
        }
      ],
      "name": "hasEntity",
      "outputs": [
        {
          "internalType": "bool",
          "name": "",
          "type": "bool"
        }
      ],
      "stateMutability": "view",
      "type": "function"
    },
    {
      "inputs": [],
      "name": "init",
      "outputs": [],
      "stateMutability": "nonpayable",
      "type": "function"
    },
    {
      "inputs": [
        {
          "components": [
            {
              "internalType": "enum QueryType",
              "name": "queryType",
              "type": "uint8"
            },
            {
              "internalType": "uint256",
              "name": "componentId",
              "type": "uint256"
            },
            {
              "internalType": "bytes",
              "name": "value",
              "type": "bytes"
            }
          ],
          "internalType": "struct WorldQueryFragment[]",
          "name": "worldQueryFragments",
          "type": "tuple[]"
        }
      ],
      "name": "query",
      "outputs": [
        {
          "internalType": "uint256[]",
          "name": "",
          "type": "uint256[]"
        }
      ],
      "stateMutability": "view",
      "type": "function"
    },
    {
      "inputs": [],
      "name": "register",
      "outputs": [
        {
          "internalType": "contract RegisterSystem",
          "name": "",
          "type": "address"
        }
      ],
      "stateMutability": "view",
      "type": "function"
    },
    {
      "inputs": [
        {
          "internalType": "address",
          "name": "componentAddr",
          "type": "address"
        },
        {
          "internalType": "uint256",
          "name": "id",
          "type": "uint256"
        }
      ],
      "name": "registerComponent",
      "outputs": [],
      "stateMutability": "nonpayable",
      "type": "function"
    },
    {
      "inputs": [
        {
          "internalType": "uint256",
          "name": "entity",
          "type": "uint256"
        }
      ],
      "name": "registerComponentValueRemoved",
      "outputs": [],
      "stateMutability": "nonpayable",
      "type": "function"
    },
    {
      "inputs": [
        {
          "internalType": "address",
          "name": "component",
          "type": "address"
        },
        {
          "internalType": "uint256",
          "name": "entity",
          "type": "uint256"
        }
      ],
      "name": "registerComponentValueRemoved",
      "outputs": [],
      "stateMutability": "nonpayable",
      "type": "function"
    },
    {
      "inputs": [
        {
          "internalType": "address",
          "name": "component",
          "type": "address"
        },
        {
          "internalType": "uint256",
          "name": "entity",
          "type": "uint256"
        },
        {
          "internalType": "bytes",
          "name": "data",
          "type": "bytes"
        }
      ],
      "name": "registerComponentValueSet",
      "outputs": [],
      "stateMutability": "nonpayable",
      "type": "function"
    },
    {
      "inputs": [
        {
          "internalType": "uint256",
          "name": "entity",
          "type": "uint256"
        },
        {
          "internalType": "bytes",
          "name": "data",
          "type": "bytes"
        }
      ],
      "name": "registerComponentValueSet",
      "outputs": [],
      "stateMutability": "nonpayable",
      "type": "function"
    },
    {
      "inputs": [
        {
          "internalType": "address",
          "name": "systemAddr",
          "type": "address"
        },
        {
          "internalType": "uint256",
          "name": "id",
          "type": "uint256"
        }
      ],
      "name": "registerSystem",
      "outputs": [],
      "stateMutability": "nonpayable",
      "type": "function"
    },
    {
      "inputs": [],
      "name": "systems",
      "outputs": [
        {
          "internalType": "contract IUint256Component",
          "name": "",
          "type": "address"
        }
      ],
      "stateMutability": "view",
      "type": "function"
    }
  ],
  "bytecode": {
    "object": "0x6080604052604051620000129062000295565b604051809103906000f0801580156200002f573d6000803e3d6000fd5b50600080546001600160a01b0319166001600160a01b03929092169190911790553480156200005d57600080fd5b5060007f4350dba81aa91e31664a09d24a668f006169a11b3d962b7557aed362d3252aec60001c6040516200009290620002a3565b6001600160a01b0390921682526020820152604001604051809103906000f080158015620000c4573d6000803e3d6000fd5b50600180546001600160a01b0319166001600160a01b03929092169190911790556040516000907f017c816a964927a00e050edd780dcf113ca2756dfa9e9fda94a05c140d9317b0906200011890620002a3565b6001600160a01b0390921682526020820152604001604051809103906000f0801580156200014a573d6000803e3d6000fd5b50600280546001600160a01b0319166001600160a01b03928316179055600154604051309291909116906200017f90620002b1565b6001600160a01b03928316815291166020820152604001604051809103906000f080158015620001b3573d6000803e3d6000fd5b50600380546001600160a01b0319166001600160a01b039283169081179091556002546040516309fded4760e31b8152600481019290925290911690634fef6a3890602401600060405180830381600087803b1580156200021357600080fd5b505af115801562000228573d6000803e3d6000fd5b50506001546003546040516309fded4760e31b81526001600160a01b03918216600482015291169250634fef6a389150602401600060405180830381600087803b1580156200027657600080fd5b505af11580156200028b573d6000803e3d6000fd5b50505050620002bf565b61084a8062002a1f83390190565b612bba806200326983390190565b6110268062005e2383390190565b61275080620002cf6000396000f3fe608060405234801561001057600080fd5b506004361061011b5760003560e01c8063af104e40116100b2578063d803064a11610081578063e3d1287511610066578063e3d128751461023b578063f30347701461025e578063fb3ec48b1461027157600080fd5b8063d803064a14610220578063e1c7392a1461023357600080fd5b8063af104e40146101e1578063ba62fbe4146101f4578063cfd3c57f14610205578063d7ecf62b1461021857600080fd5b80634f27da18116100ee5780634f27da1814610185578063614bfa6e14610198578063687485a6146101ae5780639f54f545146101ce57600080fd5b80630d59332e146101205780630de3b7b51461014a5780631aa3a0081461015f5780631ee444b714610172575b600080fd5b6002546001600160a01b03165b6040516001600160a01b0390911681526020015b60405180910390f35b61015d6101583660046120ef565b610284565b005b60035461012d906001600160a01b031681565b61015d610180366004612124565b610389565b61012d6101933660046120ef565b61042d565b6101a061044c565b604051908152602001610141565b6101c16101bc36600461214e565b6104aa565b60405161014191906121c3565b6101a06101dc366004612207565b61066f565b61015d6101ef36600461226b565b610688565b6001546001600160a01b031661012d565b61015d6102133660046122c5565b61083e565b6101a06109c7565b61015d61022e366004612124565b610a44565b61015d610b71565b61024e6102493660046120ef565b610d1f565b6040519015158152602001610141565b61015d61026c366004612124565b610d8d565b61012d61027f3660046120ef565b610dba565b600154604051636667bd4760e11b81523360048201819052916001600160a01b03169063cccf7a8e90602401602060405180830381865afa1580156102cd573d6000803e3d6000fd5b505050506040513d601f19601f820116820180604052508101906102f19190612311565b6103425760405162461bcd60e51b815260206004820152601860248201527f636f6d706f6e656e74206e6f742072656769737465726564000000000000000060448201526064015b60405180910390fd5b6001548290339061035c906001600160a01b031682610dd3565b6040517f6dd56823030ae6d8ae09cbfb8972c4e9494e67b209c4ab6300c21d73e269b35090600090a45050565b6003546040516001600160a01b03909116906309c5eabe906103b690339060019087908790602001612349565b6040516020818303038152906040526040518263ffffffff1660e01b81526004016103e191906123c7565b6000604051808303816000875af1158015610400573d6000803e3d6000fd5b505050506040513d6000823e601f3d908101601f191682016040526104289190810190612441565b505050565b600154600090610446906001600160a01b031683610f24565b92915050565b6000806104576109c7565b905060005b81610466816124eb565b9250508160405160200161047c91815260200190565b6040516020818303038152906040528051906020012060001c90506104a081610d1f565b61045c5792915050565b606060008267ffffffffffffffff8111156104c7576104c76123fa565b60405190808252806020026020018201604052801561051457816020015b604080516060808201835260008083526020830152918101919091528152602001906001900390816104e55790505b50905060005b8381101561065d57604051806060016040528086868481811061053f5761053f612523565b90506020028101906105519190612539565b61055f906020810190612577565b600581111561057057610570612333565b81526001546020909101906105b5906001600160a01b031688888681811061059a5761059a612523565b90506020028101906105ac9190612539565b60200135611023565b6001600160a01b031681526020018686848181106105d5576105d5612523565b90506020028101906105e79190612539565b6105f5906040810190612598565b8080601f0160208091040260200160405190810160405280939291908181526020018383808284376000920191909152505050915250825183908390811061063f5761063f612523565b60200260200101819052508080610655906124eb565b91505061051a565b506106678161102f565b949350505050565b600154600090610446906001600160a01b031683610dd3565b60015484906001600160a01b031663cccf7a8e6106ab836001600160a01b031690565b6040518263ffffffff1660e01b81526004016106c991815260200190565b602060405180830381865afa1580156106e6573d6000803e3d6000fd5b505050506040513d601f19601f8201168201806040525081019061070a9190612311565b6107565760405162461bcd60e51b815260206004820152601860248201527f636f6d706f6e656e74206e6f74207265676973746572656400000000000000006044820152606401610339565b336001600160a01b0386161461076b57600080fd5b6000546040517f1003e2d2000000000000000000000000000000000000000000000000000000008152600481018690526001600160a01b0390911690631003e2d290602401600060405180830381600087803b1580156107ca57600080fd5b505af11580156107de573d6000803e3d6000fd5b50506001548692506001600160a01b0380891692506107fe911688610dd3565b7f6ac31c38682e0128240cf68316d7ae751020d8f74c614e2a30278afcec8a6073868660405161082f9291906125fd565b60405180910390a45050505050565b600154604051636667bd4760e11b81523360048201819052916001600160a01b03169063cccf7a8e90602401602060405180830381865afa158015610887573d6000803e3d6000fd5b505050506040513d601f19601f820116820180604052508101906108ab9190612311565b6108f75760405162461bcd60e51b815260206004820152601860248201527f636f6d706f6e656e74206e6f74207265676973746572656400000000000000006044820152606401610339565b6000546040517f1003e2d2000000000000000000000000000000000000000000000000000000008152600481018690526001600160a01b0390911690631003e2d290602401600060405180830381600087803b15801561095657600080fd5b505af115801561096a573d6000803e3d6000fd5b5050600154869250339150610988906001600160a01b031682610dd3565b7f6ac31c38682e0128240cf68316d7ae751020d8f74c614e2a30278afcec8a607386866040516109b99291906125fd565b60405180910390a450505050565b60008060009054906101000a90046001600160a01b03166001600160a01b031663949d225d6040518163ffffffff1660e01b8152600401602060405180830381865afa158015610a1b573d6000803e3d6000fd5b505050506040513d601f19601f82011682018060405250810190610a3f919061262c565b905090565b60015482906001600160a01b031663cccf7a8e610a67836001600160a01b031690565b6040518263ffffffff1660e01b8152600401610a8591815260200190565b602060405180830381865afa158015610aa2573d6000803e3d6000fd5b505050506040513d601f19601f82011682018060405250810190610ac69190612311565b610b125760405162461bcd60e51b815260206004820152601860248201527f636f6d706f6e656e74206e6f74207265676973746572656400000000000000006044820152606401610339565b336001600160a01b03841614610b2757600080fd5b60015482906001600160a01b0380861691610b43911686610dd3565b6040517f6dd56823030ae6d8ae09cbfb8972c4e9494e67b209c4ab6300c21d73e269b35090600090a4505050565b6001546040517f9d2c76b40000000000000000000000000000000000000000000000000000000081523060048201526001600160a01b0390911690639d2c76b490602401600060405180830381600087803b158015610bcf57600080fd5b505af1158015610be3573d6000803e3d6000fd5b50506002546040517f9d2c76b40000000000000000000000000000000000000000000000000000000081523060048201526001600160a01b039091169250639d2c76b49150602401600060405180830381600087803b158015610c4557600080fd5b505af1158015610c59573d6000803e3d6000fd5b50506003546040516001600160a01b0390911692506309c5eabe9150610caa90339060019085907f554d0b3fe5f19a44775dc4000490ad0bafbc48129e8e396be983226890aece9990602001612349565b6040516020818303038152906040526040518263ffffffff1660e01b8152600401610cd591906123c7565b6000604051808303816000875af1158015610cf4573d6000803e3d6000fd5b505050506040513d6000823e601f3d908101601f19168201604052610d1c9190810190612441565b50565b60008054604051636667bd4760e11b8152600481018490526001600160a01b039091169063cccf7a8e90602401602060405180830381865afa158015610d69573d6000803e3d6000fd5b505050506040513d601f19601f820116820180604052508101906104469190612311565b6003546040516001600160a01b03909116906309c5eabe906103b690339060009087908790602001612349565b600254600090610446906001600160a01b031683610f24565b6000826001600160a01b031663cccf7a8e610df4846001600160a01b031690565b6040518263ffffffff1660e01b8152600401610e1291815260200190565b602060405180830381865afa158015610e2f573d6000803e3d6000fd5b505050506040513d601f19601f82011682018060405250810190610e539190612311565b610e9f5760405162461bcd60e51b815260206004820152601660248201527f61646472657373206e6f742072656769737465726564000000000000000000006044820152606401610339565b826001600160a01b0316630ff4c916610ebe846001600160a01b031690565b6040518263ffffffff1660e01b8152600401610edc91815260200190565b602060405180830381865afa158015610ef9573d6000803e3d6000fd5b505050506040513d601f19601f82011682018060405250810190610f1d919061262c565b9392505050565b6040517ffbdfa1ea0000000000000000000000000000000000000000000000000000000081526004810182905260009081906001600160a01b0385169063fbdfa1ea90602401600060405180830381865afa158015610f87573d6000803e3d6000fd5b505050506040513d6000823e601f3d908101601f19168201604052610faf9190810190612645565b905080516000036110025760405162461bcd60e51b815260206004820152601160248201527f6964206e6f7420726567697374657265640000000000000000000000000000006044820152606401610339565b6106678160008151811061101857611018612523565b602002602001015190565b6000610f1d8383610f24565b606061103961207c565b7620000000000000000000000000000000000000000000008152600060208201819052600160808301525b835181101561148257600084828151811061108157611081612523565b6020026020010151905061109481611495565b156110e2576004815160058111156110ae576110ae612333565b036110bb57604083018190525b6005815160058111156110d0576110d0612333565b036110dd57606083018190525b61146f565b826080015115611388576110f5816114d0565b6111415760405162461bcd60e51b815260206004820152601960248201527f4e454741544956455f494e495449414c5f465241474d454e54000000000000006044820152606401610339565b600060808401819052808251600581111561115e5761115e612333565b146111e15781602001516001600160a01b031663b361be4683604001516040518263ffffffff1660e01b815260040161119791906123c7565b600060405180830381865afa1580156111b4573d6000803e3d6000fd5b505050506040513d6000823e601f3d908101601f191682016040526111dc9190810190612645565b61124b565b81602001516001600160a01b03166331b933b96040518163ffffffff1660e01b8152600401600060405180830381865afa158015611223573d6000803e3d6000fd5b505050506040513d6000823e601f3d908101601f1916820160405261124b9190810190612645565b9050611256816114f4565b84528051602080860191909152606085015101516001600160a01b03161580159061129c5750600084606001516040015180602001905181019061129a919061262c565b115b156113825760005b81518110156113805760006112f68383815181106112c4576112c4612523565b60200260200101518760600151602001518860600151604001518060200190518101906112f1919061262c565b61155c565b905060005b815181101561136b5761134461133c604051806040016040528085858151811061132757611327612523565b60200260200101518152602001600081525090565b885190611768565b875260208701805190611356826124eb565b90525080611363816124eb565b9150506112fb565b50508080611378906124eb565b9150506112a4565b505b5061146f565b82517620000000000000000000000000000000000000000000009060009060019060601c69ffffffffffffffffffff165b81156114645760006113dd8260408051808201909152600080825260208201525090565b805190915060006113ee82896117cd565b90506113fc8a898484611ad0565b9050801561143a5761142a6114236040518060400160405280858152602001600081525090565b8890611768565b965085611436816124eb565b9650505b6114478a89848a8a611b55565b8b5160b01c8601519198509650801515955093506113b992505050565b505090845260208401525b508061147a816124eb565b915050611064565b50610f1d81600001518260200151611ccc565b60006004825160058111156114ac576114ac612333565b1480610446575060055b825160058111156114c9576114c9612333565b1492915050565b600080825160058111156114e6576114e6612333565b1480610446575060026114b6565b76200000000000000000000000000000000000000000000060005b82518110156115565761154261153b604051806040016040528086858151811061132757611327612523565b8390611768565b91508061154e816124eb565b91505061150f565b50919050565b60608160000361157b5750604080516000815260208101909152610f1d565b6000836001600160a01b031663b361be468660405160200161159f91815260200190565b6040516020818303038152906040526040518263ffffffff1660e01b81526004016115ca91906123c7565b600060405180830381865afa1580156115e7573d6000803e3d6000fd5b505050506040513d6000823e601f3d908101601f1916820160405261160f9190810190612645565b905082600103611620579050610f1d565b7620000000000000000000000000000000000000000000006000805b83518110156116e157600061167285838151811061165c5761165c612523565b60200260200101518960018a6112f191906126eb565b905060005b81518110156116cc576116aa6116a3604051806040016040528085858151811061132757611327612523565b8690611768565b9450836116b6816124eb565b94505080806116c4906124eb565b915050611677565b505080806116d9906124eb565b91505061163c565b5060006116fa838551846116f59190612702565b611ccc565b905060005b845181101561175c5784818151811061171a5761171a612523565b602002602001015182828561172f9190612702565b8151811061173f5761173f612523565b602090810291909101015280611754816124eb565b9150506116ff565b50979650505050505050565b6000808360501b60b01c116001811461178d578260101b8360601b85171791506117c6565b828460b01c8560a01b60b01c01528260101b7fffffffffffffffffffffffffffffffffffffffff00000000000000000000000085161791505b5092915050565b600080825160058111156117e3576117e3612333565b0361185e576020820151604051636667bd4760e11b8152600481018590526001600160a01b039091169063cccf7a8e90602401602060405180830381865afa158015611833573d6000803e3d6000fd5b505050506040513d601f19601f820116820180604052508101906118579190612311565b9050610446565b60028251600581111561187357611873612333565b0361191f5760208201516040517fb8bc073d000000000000000000000000000000000000000000000000000000008152600481018590526001600160a01b039091169063b8bc073d90602401600060405180830381865afa1580156118dc573d6000803e3d6000fd5b505050506040513d6000823e601f3d908101601f191682016040526119049190810190612441565b80519060200120826040015180519060200120149050610446565b60018251600581111561193457611934612333565b036119b0576020820151604051636667bd4760e11b8152600481018590526001600160a01b039091169063cccf7a8e90602401602060405180830381865afa158015611984573d6000803e3d6000fd5b505050506040513d601f19601f820116820180604052508101906119a89190612311565b159050610446565b6003825160058111156119c5576119c5612333565b03611a725760208201516040517fb8bc073d000000000000000000000000000000000000000000000000000000008152600481018590526001600160a01b039091169063b8bc073d90602401600060405180830381865afa158015611a2e573d6000803e3d6000fd5b505050506040513d6000823e601f3d908101601f19168201604052611a569190810190612441565b8051906020012082604001518051906020012014159050610446565b611a7b82611da4565b611ac75760405162461bcd60e51b815260206004820152601260248201527f4e4f5f454e544954595f465241474d454e5400000000000000000000000000006044820152606401610339565b50600092915050565b6040840151602001516000906001600160a01b031615801590611b0e57506000856040015160400151806020019051810190611b0c919061262c565b115b8015611b215750611b1f8285611e03565b155b15611b4d57600080611b3885878960400151611e2e565b915091508015611b4a57509050610667565b50505b509392505050565b60608501516020015160009081906001600160a01b031615801590611b9557506000876060015160400151806020019051810190611b93919061262c565b115b15611cc0576000611bc5868960600151602001518a60600151604001518060200190518101906112f1919061262c565b905060005b8151811015611cbd576000828281518110611be757611be7612523565b602002602001015190506000611bfd828b6117cd565b905080158015611c1d575060408b0151602001516001600160a01b031615155b8015611c44575060008b6040015160400151806020019051810190611c42919061262c565b115b15611c6c57600080611c5b848d8f60400151611e2e565b915091508015611c69578192505b50505b8015611ca857611c98611c9160405180604001604052808c8152602001600081525090565b8990611768565b975086611ca4816124eb565b9750505b50508080611cb5906124eb565b915050611bca565b50505b50919590945092505050565b60608167ffffffffffffffff811115611ce757611ce76123fa565b604051908082528060200260200182016040528015611d10578160200160208202803683370190505b509050811561044657600169ffffffffffffffffffff606085901c1660005b8215611d9b576000611d538360408051808201909152600080825260208201525090565b90508060000151858381518110611d6c57611d6c612523565b602090810291909101015281611d81816124eb565b60b089901c94909401518015159550939250611d2f915050565b50505092915050565b60008082516005811115611dba57611dba612333565b1480611dd85750600282516005811115611dd657611dd6612333565b145b80611df6575060015b82516005811115611df457611df4612333565b145b80610446575060036114b6565b6000828015611e165750611e16826114d0565b80610f1d575082158015610f1d5750610f1d82612073565b600080611e3a84611da4565b611e865760405162461bcd60e51b815260206004820152601260248201527f4e4f5f454e544954595f465241474d454e5400000000000000000000000000006044820152606401610339565b600483516005811115611e9b57611e9b612333565b14611ee85760405162461bcd60e51b815260206004820152601660248201527f4e4f5f50524f58595f524541445f465241474d454e54000000000000000000006044820152606401610339565b8460005b8460400151806020019051810190611f04919061262c565b811015612064576020850151604051636667bd4760e11b8152600481018490526001600160a01b039091169063cccf7a8e90602401602060405180830381865afa158015611f56573d6000803e3d6000fd5b505050506040513d601f19601f82011682018060405250810190611f7a9190612311565b611f8a57506000915061206b9050565b60208501516040517fb8bc073d000000000000000000000000000000000000000000000000000000008152600481018490526001600160a01b039091169063b8bc073d90602401600060405180830381865afa158015611fee573d6000803e3d6000fd5b505050506040513d6000823e601f3d908101601f191682016040526120169190810190612441565b806020019051810190612029919061262c565b915061203582876117cd565b93506120418487611e03565b1561205257506001915061206b9050565b8061205c816124eb565b915050611eec565b5060019150505b935093915050565b60006001611de1565b6040805160a081018252600080825260208201529081016120b86040805160608101909152806000815260006020820152606060409091015290565b81526020016120e26040805160608101909152806000815260006020820152606060409091015290565b8152600060209091015290565b60006020828403121561210157600080fd5b5035919050565b80356001600160a01b038116811461211f57600080fd5b919050565b6000806040838503121561213757600080fd5b61214083612108565b946020939093013593505050565b6000806020838503121561216157600080fd5b823567ffffffffffffffff8082111561217957600080fd5b818501915085601f83011261218d57600080fd5b81358181111561219c57600080fd5b8660208260051b85010111156121b157600080fd5b60209290920196919550909350505050565b6020808252825182820181905260009190848201906040850190845b818110156121fb578351835292840192918401916001016121df565b50909695505050505050565b60006020828403121561221957600080fd5b610f1d82612108565b60008083601f84011261223457600080fd5b50813567ffffffffffffffff81111561224c57600080fd5b60208301915083602082850101111561226457600080fd5b9250929050565b6000806000806060858703121561228157600080fd5b61228a85612108565b935060208501359250604085013567ffffffffffffffff8111156122ad57600080fd5b6122b987828801612222565b95989497509550505050565b6000806000604084860312156122da57600080fd5b83359250602084013567ffffffffffffffff8111156122f857600080fd5b61230486828701612222565b9497909650939450505050565b60006020828403121561232357600080fd5b81518015158114610f1d57600080fd5b634e487b7160e01b600052602160045260246000fd5b6001600160a01b03858116825260808201906002861061237957634e487b7160e01b600052602160045260246000fd5b85602084015280851660408401525082606083015295945050505050565b60005b838110156123b257818101518382015260200161239a565b838111156123c1576000848401525b50505050565b60208152600082518060208401526123e6816040850160208701612397565b601f01601f19169190910160400192915050565b634e487b7160e01b600052604160045260246000fd5b604051601f8201601f1916810167ffffffffffffffff81118282101715612439576124396123fa565b604052919050565b60006020828403121561245357600080fd5b815167ffffffffffffffff8082111561246b57600080fd5b818401915084601f83011261247f57600080fd5b815181811115612491576124916123fa565b6124a46020601f19601f84011601612410565b91508082528560208285010111156124bb57600080fd5b6124cc816020840160208601612397565b50949350505050565b634e487b7160e01b600052601160045260246000fd5b60007fffffffffffffffffffffffffffffffffffffffffffffffffffffffffffffffff820361251c5761251c6124d5565b5060010190565b634e487b7160e01b600052603260045260246000fd5b600082357fffffffffffffffffffffffffffffffffffffffffffffffffffffffffffffffa183360301811261256d57600080fd5b9190910192915050565b60006020828403121561258957600080fd5b813560068110610f1d57600080fd5b60008083357fffffffffffffffffffffffffffffffffffffffffffffffffffffffffffffffe18436030181126125cd57600080fd5b83018035915067ffffffffffffffff8211156125e857600080fd5b60200191503681900382131561226457600080fd5b60208152816020820152818360408301376000818301604090810191909152601f909201601f19160101919050565b60006020828403121561263e57600080fd5b5051919050565b6000602080838503121561265857600080fd5b825167ffffffffffffffff8082111561267057600080fd5b818501915085601f83011261268457600080fd5b815181811115612696576126966123fa565b8060051b91506126a7848301612410565b81815291830184019184810190888411156126c157600080fd5b938501935b838510156126df578451825293850193908501906126c6565b98975050505050505050565b6000828210156126fd576126fd6124d5565b500390565b60008219821115612715576127156124d5565b50019056fea264697066735822122021f10613376e6a3b19382cbe2dad24bf3bb1c3128554fd167cd407fb742005d264736f6c634300080d0033608060405234801561001057600080fd5b5061001a3361001f565b6100b4565b600061003361009060201b6105431760201c565b80546040519192506001600160a01b03808516929116907f8be0079c531659141344cd1fd0a4f28419497f9722a3daafe3b4186f6b6457e090600090a380546001600160a01b0319166001600160a01b0392909216919091179055565b7f8a22373512790c48b83a1fe2efdd2888d4a917bcdc24d0adf63e60f67168046090565b610787806100c36000396000f3fe608060405234801561001057600080fd5b50600436106100885760003560e01c80638e7cb6e11161005b5780638e7cb6e114610100578063949d225d1461012a578063cccf7a8e1461013b578063f2fde38b1461015e57600080fd5b80631003e2d21461008d578063410d59cc146100a25780634cc82215146100c05780638da5cb5b146100d3575b600080fd5b6100a061009b36600461061b565b610171565b005b6100aa610233565b6040516100b79190610634565b60405180910390f35b6100a06100ce36600461061b565b61028b565b6100db6103ef565b60405173ffffffffffffffffffffffffffffffffffffffff90911681526020016100b7565b61011361010e36600461061b565b610434565b6040805192151583526020830191909152016100b7565b6000546040519081526020016100b7565b61014e61014936600461061b565b610467565b60405190151581526020016100b7565b6100a061016c366004610678565b6104ca565b7f8a22373512790c48b83a1fe2efdd2888d4a917bcdc24d0adf63e60f6716804605473ffffffffffffffffffffffffffffffffffffffff1633146101e1576040517f2f7a8ee100000000000000000000000000000000000000000000000000000000815260040160405180910390fd5b6101ea81610467565b61023057600080548282526001602081905260408320829055810182559080527f290decd9548b62a8d60345a988386fc84ba6bc95484008f6362f93160ef3e563018190555b50565b6060600080548060200260200160405190810160405280929190818152602001828054801561028157602002820191906000526020600020905b81548152602001906001019080831161026d575b5050505050905090565b7f8a22373512790c48b83a1fe2efdd2888d4a917bcdc24d0adf63e60f6716804605473ffffffffffffffffffffffffffffffffffffffff1633146102fb576040517f2f7a8ee100000000000000000000000000000000000000000000000000000000815260040160405180910390fd5b61030481610467565b156102305760008054610319906001906106b5565b81548110610329576103296106f3565b9060005260206000200154600060016000848152602001908152602001600020548154811061035a5761035a6106f3565b60009182526020808320909101929092558281526001918290526040812054815490929190819084908110610391576103916106f3565b9060005260206000200154815260200190815260200160002081905550600160008281526020019081526020016000206000905560008054806103d6576103d6610722565b6001900381819060005260206000200160009055905550565b600061042f7f8a22373512790c48b83a1fe2efdd2888d4a917bcdc24d0adf63e60f6716804605473ffffffffffffffffffffffffffffffffffffffff1690565b905090565b60008061044083610467565b61044f57506000928392509050565b50506000908152600160208190526040909120549091565b60008054810361047957506000919050565b60008281526001602052604081205490036104b55781600080815481106104a2576104a26106f3565b9060005260206000200154149050919050565b50600090815260016020526040902054151590565b7f8a22373512790c48b83a1fe2efdd2888d4a917bcdc24d0adf63e60f6716804605473ffffffffffffffffffffffffffffffffffffffff16331461053a576040517f2f7a8ee100000000000000000000000000000000000000000000000000000000815260040160405180910390fd5b61023081610567565b7f8a22373512790c48b83a1fe2efdd2888d4a917bcdc24d0adf63e60f67168046090565b7f8a22373512790c48b83a1fe2efdd2888d4a917bcdc24d0adf63e60f6716804608054604051610230928492909173ffffffffffffffffffffffffffffffffffffffff8085169216907f8be0079c531659141344cd1fd0a4f28419497f9722a3daafe3b4186f6b6457e090600090a380547fffffffffffffffffffffffff00000000000000000000000000000000000000001673ffffffffffffffffffffffffffffffffffffffff92909216919091179055565b60006020828403121561062d57600080fd5b5035919050565b6020808252825182820181905260009190848201906040850190845b8181101561066c57835183529284019291840191600101610650565b50909695505050505050565b60006020828403121561068a57600080fd5b813573ffffffffffffffffffffffffffffffffffffffff811681146106ae57600080fd5b9392505050565b6000828210156106ee577f4e487b7100000000000000000000000000000000000000000000000000000000600052601160045260246000fd5b500390565b7f4e487b7100000000000000000000000000000000000000000000000000000000600052603260045260246000fd5b7f4e487b7100000000000000000000000000000000000000000000000000000000600052603160045260246000fdfea264697066735822122010e8442544721aeb2ea7e1db1a13fd47fc66330f840229a56dc8524d8245165264736f6c634300080d003360806040523480156200001157600080fd5b5060405162002bba38038062002bba83398101604081905262000034916200029a565b81818181620000433362000108565b60028190556001600160a01b03821615620000635762000063826200017c565b505060405162000073906200027e565b604051809103906000f08015801562000090573d6000803e3d6000fd5b50600380546001600160a01b0319166001600160a01b0392909216919091179055604051620000bf906200028c565b604051809103906000f080158015620000dc573d6000803e3d6000fd5b50600480546001600160a01b0319166001600160a01b039290921691909117905550620002d692505050565b60006200011f6200023460201b62000ae51760201c565b80546040519192506001600160a01b03808516929116907f8be0079c531659141344cd1fd0a4f28419497f9722a3daafe3b4186f6b6457e090600090a380546001600160a01b0319166001600160a01b0392909216919091179055565b6200018662000258565b6001600160a01b0316336001600160a01b031614620001b857604051632f7a8ee160e01b815260040160405180910390fd5b600080546001600160a01b0319166001600160a01b038316908117909155600254604051630f30347760e41b8152306004820152602481019190915263f303477090604401600060405180830381600087803b1580156200021857600080fd5b505af11580156200022d573d6000803e3d6000fd5b5050505050565b7f8a22373512790c48b83a1fe2efdd2888d4a917bcdc24d0adf63e60f67168046090565b60006200026f6200023460201b62000ae51760201c565b546001600160a01b0316919050565b61084a8062001ade83390190565b610892806200232883390190565b60008060408385031215620002ae57600080fd5b82516001600160a01b0381168114620002c657600080fd5b6020939093015192949293505050565b6117f880620002e66000396000f3fe608060405234801561001057600080fd5b50600436106101515760003560e01c80638b282947116100cd578063b8bc073d11610081578063cccf7a8e11610066578063cccf7a8e146102c0578063f2fde38b146102d3578063fbdfa1ea146102e657600080fd5b8063b8bc073d1461028d578063bf4fe57e146102ad57600080fd5b80639d2c76b4116100b25780639d2c76b41461025e578063af640d0f14610271578063b361be461461027a57600080fd5b80638b282947146102435780638da5cb5b1461025657600080fd5b80634cc82215116101245780636b122fe0116101095780636b122fe0146101f757806375c0669c1461020d578063861eb9051461022057600080fd5b80634cc82215146101d15780634fef6a38146101e457600080fd5b80630ff4c916146101565780631ab06ee51461017c57806330b67baa1461019157806331b933b9146101bc575b600080fd5b610169610164366004611267565b6102f9565b6040519081526020015b60405180910390f35b61018f61018a366004611280565b61031f565b005b6000546101a4906001600160a01b031681565b6040516001600160a01b039091168152602001610173565b6101c461034e565b60405161017391906112a2565b61018f6101df366004611267565b6103de565b61018f6101f23660046112e6565b610429565b6101ff6104b6565b604051610173929190611372565b61018f61021b3660046112e6565b6105a2565b61023361022e3660046112e6565b61064b565b6040519015158152602001610173565b61018f610251366004611500565b6106af565b6101a46106f8565b61018f61026c3660046112e6565b61072b565b61016960025481565b6101c4610288366004611547565b610821565b6102a061029b366004611267565b6108b3565b6040516101739190611584565b61018f6102bb3660046112e6565b610955565b6102336102ce366004611267565b6109df565b61018f6102e13660046112e6565b610a66565b6101c46102f4366004611267565b610ab9565b600080610305836108b3565b8060200190518101906103189190611597565b9392505050565b61034a828260405160200161033691815260200190565b6040516020818303038152906040526106af565b5050565b600354604080517f410d59cc00000000000000000000000000000000000000000000000000000000815290516060926001600160a01b03169163410d59cc9160048083019260009291908290030181865afa1580156103b1573d6000803e3d6000fd5b505050506040513d6000823e601f3d908101601f191682016040526103d991908101906115b0565b905090565b6103e73361064b565b61041d576040517f406ed3da00000000000000000000000000000000000000000000000000000000815260040160405180910390fd5b61042681610b09565b50565b7f8a22373512790c48b83a1fe2efdd2888d4a917bcdc24d0adf63e60f671680460546001600160a01b0316331461047357604051632f7a8ee160e01b815260040160405180910390fd5b6001600160a01b031660009081527f8ffeadc5cba727b8cc3cdef48739619490ea317fdb3baae1259089d06f92c90960205260409020805460ff19166001179055565b604080516001808252818301909252606091829190816020015b60608152602001906001900390816104d0575050604080516001808252818301909252919350602080830190803683370190505090506040518060400160405280600581526020017f76616c75650000000000000000000000000000000000000000000000000000008152508260008151811061054f5761054f611656565b6020026020010181905250600d8160008151811061056f5761056f611656565b602002602001019060218111156105885761058861135c565b9081602181111561059b5761059b61135c565b9052509091565b6105ab3361064b565b6105e1576040517f406ed3da00000000000000000000000000000000000000000000000000000000815260040160405180910390fd5b600580546001810182556000919091527f036b6384b5eca791c62761152d0c79bb0604c104a5fb6f4eb0703f3154bb3db00180547fffffffffffffffffffffffff0000000000000000000000000000000000000000166001600160a01b0392909216919091179055565b6001600160a01b03811660009081527f8ffeadc5cba727b8cc3cdef48739619490ea317fdb3baae1259089d06f92c909602052604081205460ff16806106a957506106946106f8565b6001600160a01b0316826001600160a01b0316145b92915050565b6106b83361064b565b6106ee576040517f406ed3da00000000000000000000000000000000000000000000000000000000815260040160405180910390fd5b61034a8282610d94565b60006103d97f8a22373512790c48b83a1fe2efdd2888d4a917bcdc24d0adf63e60f671680460546001600160a01b031690565b7f8a22373512790c48b83a1fe2efdd2888d4a917bcdc24d0adf63e60f671680460546001600160a01b0316331461077557604051632f7a8ee160e01b815260040160405180910390fd5b600080547fffffffffffffffffffffffff0000000000000000000000000000000000000000166001600160a01b0383169081179091556002546040517ff3034770000000000000000000000000000000000000000000000000000000008152306004820152602481019190915263f3034770906044015b600060405180830381600087803b15801561080657600080fd5b505af115801561081a573d6000803e3d6000fd5b5050505050565b60048054825160208401206040517f796c5e94000000000000000000000000000000000000000000000000000000008152928301526060916001600160a01b039091169063796c5e9490602401600060405180830381865afa15801561088b573d6000803e3d6000fd5b505050506040513d6000823e601f3d908101601f191682016040526106a991908101906115b0565b60008181526001602052604090208054606091906108d09061166c565b80601f01602080910402602001604051908101604052809291908181526020018280546108fc9061166c565b80156109495780601f1061091e57610100808354040283529160200191610949565b820191906000526020600020905b81548152906001019060200180831161092c57829003601f168201915b50505050509050919050565b7f8a22373512790c48b83a1fe2efdd2888d4a917bcdc24d0adf63e60f671680460546001600160a01b0316331461099f57604051632f7a8ee160e01b815260040160405180910390fd5b6001600160a01b031660009081527f8ffeadc5cba727b8cc3cdef48739619490ea317fdb3baae1259089d06f92c90960205260409020805460ff19169055565b6003546040517fcccf7a8e000000000000000000000000000000000000000000000000000000008152600481018390526000916001600160a01b03169063cccf7a8e90602401602060405180830381865afa158015610a42573d6000803e3d6000fd5b505050506040513d601f19601f820116820180604052508101906106a991906116a6565b7f8a22373512790c48b83a1fe2efdd2888d4a917bcdc24d0adf63e60f671680460546001600160a01b03163314610ab057604051632f7a8ee160e01b815260040160405180910390fd5b61042681610ff7565b60606106a982604051602001610ad191815260200190565b604051602081830303815290604052610821565b7f8a22373512790c48b83a1fe2efdd2888d4a917bcdc24d0adf63e60f67168046090565b6004546000828152600160205260409081902090516001600160a01b03909216916385edea1391610b39916116c8565b60405190819003812060e083901b7fffffffff000000000000000000000000000000000000000000000000000000001682526004820152602401602060405180830381865afa158015610b90573d6000803e3d6000fd5b505050506040513d601f19601f82011682018060405250810190610bb49190611597565b600003610bbe5750565b6004546000828152600160205260409081902090516001600160a01b0390921691636526db7a91610bee916116c8565b60405190819003812060e083901b7fffffffff00000000000000000000000000000000000000000000000000000000168252600482015260248101849052604401600060405180830381600087803b158015610c4957600080fd5b505af1158015610c5d573d6000803e3d6000fd5b50506003546040517f4cc82215000000000000000000000000000000000000000000000000000000008152600481018590526001600160a01b039091169250634cc822159150602401600060405180830381600087803b158015610cc057600080fd5b505af1158015610cd4573d6000803e3d6000fd5b50505050610ce181611000565b60005b60055481101561034a5760058181548110610d0157610d01611656565b6000918252602090912001546040517f4cc82215000000000000000000000000000000000000000000000000000000008152600481018490526001600160a01b0390911690634cc8221590602401600060405180830381600087803b158015610d6957600080fd5b505af1158015610d7d573d6000803e3d6000fd5b505050508080610d8c90611763565b915050610ce4565b6003546040517f1003e2d2000000000000000000000000000000000000000000000000000000008152600481018490526001600160a01b0390911690631003e2d290602401600060405180830381600087803b158015610df357600080fd5b505af1158015610e07573d6000803e3d6000fd5b50506004546000858152600160205260409081902090516001600160a01b039092169350636526db7a9250610e3b916116c8565b60405190819003812060e083901b7fffffffff00000000000000000000000000000000000000000000000000000000168252600482015260248101859052604401600060405180830381600087803b158015610e9657600080fd5b505af1158015610eaa573d6000803e3d6000fd5b505060048054845160208601206040517f771602f700000000000000000000000000000000000000000000000000000000815292830152602482018690526001600160a01b0316925063771602f79150604401600060405180830381600087803b158015610f1757600080fd5b505af1158015610f2b573d6000803e3d6000fd5b50505050610f398282611061565b60005b600554811015610ff25760058181548110610f5957610f59611656565b6000918252602090912001546040517f0216b8380000000000000000000000000000000000000000000000000000000081526001600160a01b0390911690630216b83890610fad90869086906004016117a9565b600060405180830381600087803b158015610fc757600080fd5b505af1158015610fdb573d6000803e3d6000fd5b505050508080610fea90611763565b915050610f3c565b505050565b61042681611102565b600081815260016020526040812061101791611194565b6000546040517f0de3b7b5000000000000000000000000000000000000000000000000000000008152600481018390526001600160a01b0390911690630de3b7b5906024016107ec565b60008281526001602090815260409091208251611080928401906111ce565b506000546040517fcfd3c57f0000000000000000000000000000000000000000000000000000000081526001600160a01b039091169063cfd3c57f906110cc90859085906004016117a9565b600060405180830381600087803b1580156110e657600080fd5b505af11580156110fa573d6000803e3d6000fd5b505050505050565b7f8a22373512790c48b83a1fe2efdd2888d4a917bcdc24d0adf63e60f67168046080546040516001600160a01b038481169216907f8be0079c531659141344cd1fd0a4f28419497f9722a3daafe3b4186f6b6457e090600090a380547fffffffffffffffffffffffff0000000000000000000000000000000000000000166001600160a01b0392909216919091179055565b5080546111a09061166c565b6000825580601f106111b0575050565b601f0160209004906000526020600020908101906104269190611252565b8280546111da9061166c565b90600052602060002090601f0160209004810192826111fc5760008555611242565b82601f1061121557805160ff1916838001178555611242565b82800160010185558215611242579182015b82811115611242578251825591602001919060010190611227565b5061124e929150611252565b5090565b5b8082111561124e5760008155600101611253565b60006020828403121561127957600080fd5b5035919050565b6000806040838503121561129357600080fd5b50508035926020909101359150565b6020808252825182820181905260009190848201906040850190845b818110156112da578351835292840192918401916001016112be565b50909695505050505050565b6000602082840312156112f857600080fd5b81356001600160a01b038116811461031857600080fd5b6000815180845260005b8181101561133557602081850181015186830182015201611319565b81811115611347576000602083870101525b50601f01601f19169290920160200192915050565b634e487b7160e01b600052602160045260246000fd5b6000604082016040835280855180835260608501915060608160051b8601019250602080880160005b838110156113e7577fffffffffffffffffffffffffffffffffffffffffffffffffffffffffffffffa08887030185526113d586835161130f565b9550938201939082019060010161139b565b50508584038187015286518085528782019482019350915060005b8281101561143c5784516022811061142a57634e487b7160e01b600052602160045260246000fd5b84529381019392810192600101611402565b5091979650505050505050565b634e487b7160e01b600052604160045260246000fd5b604051601f8201601f1916810167ffffffffffffffff8111828210171561148857611488611449565b604052919050565b600082601f8301126114a157600080fd5b813567ffffffffffffffff8111156114bb576114bb611449565b6114ce6020601f19601f8401160161145f565b8181528460208386010111156114e357600080fd5b816020850160208301376000918101602001919091529392505050565b6000806040838503121561151357600080fd5b82359150602083013567ffffffffffffffff81111561153157600080fd5b61153d85828601611490565b9150509250929050565b60006020828403121561155957600080fd5b813567ffffffffffffffff81111561157057600080fd5b61157c84828501611490565b949350505050565b602081526000610318602083018461130f565b6000602082840312156115a957600080fd5b5051919050565b600060208083850312156115c357600080fd5b825167ffffffffffffffff808211156115db57600080fd5b818501915085601f8301126115ef57600080fd5b81518181111561160157611601611449565b8060051b915061161284830161145f565b818152918301840191848101908884111561162c57600080fd5b938501935b8385101561164a57845182529385019390850190611631565b98975050505050505050565b634e487b7160e01b600052603260045260246000fd5b600181811c9082168061168057607f821691505b6020821081036116a057634e487b7160e01b600052602260045260246000fd5b50919050565b6000602082840312156116b857600080fd5b8151801515811461031857600080fd5b600080835481600182811c9150808316806116e457607f831692505b6020808410820361170357634e487b7160e01b86526022600452602486fd5b818015611717576001811461172857611755565b60ff19861689528489019650611755565b60008a81526020902060005b8681101561174d5781548b820152908501908301611734565b505084890196505b509498975050505050505050565b60007fffffffffffffffffffffffffffffffffffffffffffffffffffffffffffffffff82036117a257634e487b7160e01b600052601160045260246000fd5b5060010190565b82815260406020820152600061157c604083018461130f56fea2646970667358221220ee458fa043242f57f663864cba6de4c820c2fb57b03f09ac4831bd5ce6c6050564736f6c634300080d0033608060405234801561001057600080fd5b5061001a3361001f565b6100b4565b600061003361009060201b6105431760201c565b80546040519192506001600160a01b03808516929116907f8be0079c531659141344cd1fd0a4f28419497f9722a3daafe3b4186f6b6457e090600090a380546001600160a01b0319166001600160a01b0392909216919091179055565b7f8a22373512790c48b83a1fe2efdd2888d4a917bcdc24d0adf63e60f67168046090565b610787806100c36000396000f3fe608060405234801561001057600080fd5b50600436106100885760003560e01c80638e7cb6e11161005b5780638e7cb6e114610100578063949d225d1461012a578063cccf7a8e1461013b578063f2fde38b1461015e57600080fd5b80631003e2d21461008d578063410d59cc146100a25780634cc82215146100c05780638da5cb5b146100d3575b600080fd5b6100a061009b36600461061b565b610171565b005b6100aa610233565b6040516100b79190610634565b60405180910390f35b6100a06100ce36600461061b565b61028b565b6100db6103ef565b60405173ffffffffffffffffffffffffffffffffffffffff90911681526020016100b7565b61011361010e36600461061b565b610434565b6040805192151583526020830191909152016100b7565b6000546040519081526020016100b7565b61014e61014936600461061b565b610467565b60405190151581526020016100b7565b6100a061016c366004610678565b6104ca565b7f8a22373512790c48b83a1fe2efdd2888d4a917bcdc24d0adf63e60f6716804605473ffffffffffffffffffffffffffffffffffffffff1633146101e1576040517f2f7a8ee100000000000000000000000000000000000000000000000000000000815260040160405180910390fd5b6101ea81610467565b61023057600080548282526001602081905260408320829055810182559080527f290decd9548b62a8d60345a988386fc84ba6bc95484008f6362f93160ef3e563018190555b50565b6060600080548060200260200160405190810160405280929190818152602001828054801561028157602002820191906000526020600020905b81548152602001906001019080831161026d575b5050505050905090565b7f8a22373512790c48b83a1fe2efdd2888d4a917bcdc24d0adf63e60f6716804605473ffffffffffffffffffffffffffffffffffffffff1633146102fb576040517f2f7a8ee100000000000000000000000000000000000000000000000000000000815260040160405180910390fd5b61030481610467565b156102305760008054610319906001906106b5565b81548110610329576103296106f3565b9060005260206000200154600060016000848152602001908152602001600020548154811061035a5761035a6106f3565b60009182526020808320909101929092558281526001918290526040812054815490929190819084908110610391576103916106f3565b9060005260206000200154815260200190815260200160002081905550600160008281526020019081526020016000206000905560008054806103d6576103d6610722565b6001900381819060005260206000200160009055905550565b600061042f7f8a22373512790c48b83a1fe2efdd2888d4a917bcdc24d0adf63e60f6716804605473ffffffffffffffffffffffffffffffffffffffff1690565b905090565b60008061044083610467565b61044f57506000928392509050565b50506000908152600160208190526040909120549091565b60008054810361047957506000919050565b60008281526001602052604081205490036104b55781600080815481106104a2576104a26106f3565b9060005260206000200154149050919050565b50600090815260016020526040902054151590565b7f8a22373512790c48b83a1fe2efdd2888d4a917bcdc24d0adf63e60f6716804605473ffffffffffffffffffffffffffffffffffffffff16331461053a576040517f2f7a8ee100000000000000000000000000000000000000000000000000000000815260040160405180910390fd5b61023081610567565b7f8a22373512790c48b83a1fe2efdd2888d4a917bcdc24d0adf63e60f67168046090565b7f8a22373512790c48b83a1fe2efdd2888d4a917bcdc24d0adf63e60f6716804608054604051610230928492909173ffffffffffffffffffffffffffffffffffffffff8085169216907f8be0079c531659141344cd1fd0a4f28419497f9722a3daafe3b4186f6b6457e090600090a380547fffffffffffffffffffffffff00000000000000000000000000000000000000001673ffffffffffffffffffffffffffffffffffffffff92909216919091179055565b60006020828403121561062d57600080fd5b5035919050565b6020808252825182820181905260009190848201906040850190845b8181101561066c57835183529284019291840191600101610650565b50909695505050505050565b60006020828403121561068a57600080fd5b813573ffffffffffffffffffffffffffffffffffffffff811681146106ae57600080fd5b9392505050565b6000828210156106ee577f4e487b7100000000000000000000000000000000000000000000000000000000600052601160045260246000fd5b500390565b7f4e487b7100000000000000000000000000000000000000000000000000000000600052603260045260246000fd5b7f4e487b7100000000000000000000000000000000000000000000000000000000600052603160045260246000fdfea264697066735822122010e8442544721aeb2ea7e1db1a13fd47fc66330f840229a56dc8524d8245165264736f6c634300080d0033608060405234801561001057600080fd5b5061001a3361001f565b6100b4565b600061003361009060201b6105691760201c565b80546040519192506001600160a01b03808516929116907f8be0079c531659141344cd1fd0a4f28419497f9722a3daafe3b4186f6b6457e090600090a380546001600160a01b0319166001600160a01b0392909216919091179055565b7f8a22373512790c48b83a1fe2efdd2888d4a917bcdc24d0adf63e60f67168046090565b6107cf806100c36000396000f3fe608060405234801561001057600080fd5b506004361061007d5760003560e01c806385edea131161005b57806385edea13146100d35780638da5cb5b14610101578063a0265ff81461012e578063f2fde38b1461015157600080fd5b80636526db7a14610082578063771602f714610097578063796c5e94146100aa575b600080fd5b610095610090366004610641565b610164565b005b6100956100a5366004610641565b610301565b6100bd6100b8366004610663565b6103b5565b6040516100ca919061067c565b60405180910390f35b6100f36100e1366004610663565b60009081526020819052604090205490565b6040519081526020016100ca565b610109610415565b60405173ffffffffffffffffffffffffffffffffffffffff90911681526020016100ca565b61014161013c366004610641565b61045a565b60405190151581526020016100ca565b61009561015f3660046106c0565b6104ed565b7f8a22373512790c48b83a1fe2efdd2888d4a917bcdc24d0adf63e60f6716804605473ffffffffffffffffffffffffffffffffffffffff1633146101d4576040517f2f7a8ee100000000000000000000000000000000000000000000000000000000815260040160405180910390fd5b6101de828261045a565b156102fd57600082815260208190526040902080546101ff906001906106fd565b8154811061020f5761020f61073b565b600091825260208083209091015484835282825260408084206001845281852086865290935290922054815481106102495761024961073b565b6000918252602080832090910192909255838152600182526040808220848352808452818320548684528385529183208584529381905283549193909291849081106102975761029761073b565b600091825260208083209091015483528281019390935260409182018120939093558483526001825280832084845282528083208390558483529082905290208054806102e6576102e661076a565b600190038181906000526020600020016000905590555b5050565b7f8a22373512790c48b83a1fe2efdd2888d4a917bcdc24d0adf63e60f6716804605473ffffffffffffffffffffffffffffffffffffffff163314610371576040517f2f7a8ee100000000000000000000000000000000000000000000000000000000815260040160405180910390fd5b61037b828261045a565b6102fd5760009182526020828152604080842080546001808552838720868852855292862081905585845291820181558452922090910155565b6000818152602081815260409182902080548351818402810184019094528084526060939283018282801561040957602002820191906000526020600020905b8154815260200190600101908083116103f5575b50505050509050919050565b60006104557f8a22373512790c48b83a1fe2efdd2888d4a917bcdc24d0adf63e60f6716804605473ffffffffffffffffffffffffffffffffffffffff1690565b905090565b6000828152602081905260408120548103610477575060006104e7565b600083815260016020908152604080832085845290915281205490036104c957600083815260208190526040812080548492906104b6576104b661073b565b90600052602060002001541490506104e7565b50600082815260016020908152604080832084845290915290205415155b92915050565b7f8a22373512790c48b83a1fe2efdd2888d4a917bcdc24d0adf63e60f6716804605473ffffffffffffffffffffffffffffffffffffffff16331461055d576040517f2f7a8ee100000000000000000000000000000000000000000000000000000000815260040160405180910390fd5b6105668161058d565b50565b7f8a22373512790c48b83a1fe2efdd2888d4a917bcdc24d0adf63e60f67168046090565b7f8a22373512790c48b83a1fe2efdd2888d4a917bcdc24d0adf63e60f6716804608054604051610566928492909173ffffffffffffffffffffffffffffffffffffffff8085169216907f8be0079c531659141344cd1fd0a4f28419497f9722a3daafe3b4186f6b6457e090600090a380547fffffffffffffffffffffffff00000000000000000000000000000000000000001673ffffffffffffffffffffffffffffffffffffffff92909216919091179055565b6000806040838503121561065457600080fd5b50508035926020909101359150565b60006020828403121561067557600080fd5b5035919050565b6020808252825182820181905260009190848201906040850190845b818110156106b457835183529284019291840191600101610698565b50909695505050505050565b6000602082840312156106d257600080fd5b813573ffffffffffffffffffffffffffffffffffffffff811681146106f657600080fd5b9392505050565b600082821015610736577f4e487b7100000000000000000000000000000000000000000000000000000000600052601160045260246000fd5b500390565b7f4e487b7100000000000000000000000000000000000000000000000000000000600052603260045260246000fd5b7f4e487b7100000000000000000000000000000000000000000000000000000000600052603160045260246000fdfea26469706673582212202fcbe961aafc75a5765c06e729b37275c4872ffa97feffbf3a841a2f87d4f87464736f6c634300080d003360806040523480156200001157600080fd5b50604051620010263803806200102683398101604081905262000034916200022c565b818162000041336200010f565b6001600160a01b03811615620000585780620000bd565b816001600160a01b031663ba62fbe46040518163ffffffff1660e01b8152600401602060405180830381865afa15801562000097573d6000803e3d6000fd5b505050506040513d601f19601f82011682018060405250810190620000bd91906200026b565b600080546001600160a01b03199081166001600160a01b0393841690811790925560018054909116928516928317905562000105919062000183602090811b6200079617901c565b5050505062000292565b600062000126620001ef60201b6200081a1760201c565b80546040519192506001600160a01b03808516929116907f8be0079c531659141344cd1fd0a4f28419497f9722a3daafe3b4186f6b6457e090600090a380546001600160a01b0319166001600160a01b0392909216919091179055565b7ff67304f10c7772c78e439bc5cb07781db345424de8878c18100fdaa64d197a8780546001600160a01b039384166001600160a01b0319918216179091557ff67304f10c7772c78e439bc5cb07781db345424de8878c18100fdaa64d197a868054929093169116179055565b7f8a22373512790c48b83a1fe2efdd2888d4a917bcdc24d0adf63e60f67168046090565b6001600160a01b03811681146200022957600080fd5b50565b600080604083850312156200024057600080fd5b82516200024d8162000213565b6020840151909250620002608162000213565b809150509250929050565b6000602082840312156200027e57600080fd5b81516200028b8162000213565b9392505050565b610d8480620002a26000396000f3fe608060405234801561001057600080fd5b50600436106100675760003560e01c80638da5cb5b116100505780638da5cb5b146100a9578063f2fde38b146100c9578063f6cd7a01146100de57600080fd5b806309c5eabe1461006c5780638b246a5b14610095575b600080fd5b61007f61007a366004610a1b565b6100f1565b60405161008c9190610ab0565b60405180910390f35b61007f6100a3366004610a1b565b50606090565b6100b16106b6565b6040516001600160a01b03909116815260200161008c565b6100dc6100d7366004610b1a565b6106ee565b005b61007f6100ec366004610b4b565b61075d565b60606000806000808580602001905181019061010d9190610b9c565b600154939750919550935091506001600160a01b0316331461019c5760405162461bcd60e51b815260206004820152602360248201527f73797374656d2063616e206f6e6c792062652063616c6c65642076696120576f60448201527f726c64000000000000000000000000000000000000000000000000000000000060648201526084015b60405180910390fd5b60008360018111156101b0576101b0610bef565b14806101cd575060018360018111156101cb576101cb610bef565b145b6102195760405162461bcd60e51b815260206004820152600c60248201527f696e76616c6964207479706500000000000000000000000000000000000000006044820152606401610193565b806000036102695760405162461bcd60e51b815260206004820152600a60248201527f696e76616c6964206964000000000000000000000000000000000000000000006044820152606401610193565b6001600160a01b0382166102bf5760405162461bcd60e51b815260206004820152600f60248201527f696e76616c6964206164647265737300000000000000000000000000000000006044820152606401610193565b6000808460018111156102d4576102d4610bef565b146103145760005461030f906001600160a01b03167f017c816a964927a00e050edd780dcf113ca2756dfa9e9fda94a05c140d9317b061083e565b610321565b6000546001600160a01b03165b905060006001600160a01b0384166040517fcccf7a8e000000000000000000000000000000000000000000000000000000008152600481018290529091506001600160a01b0383169063cccf7a8e90602401602060405180830381865afa158015610390573d6000803e3d6000fd5b505050506040513d601f19601f820116820180604052508101906103b49190610c05565b156104015760405162461bcd60e51b815260206004820152601960248201527f656e7469747920616c72656164792072656769737465726564000000000000006044820152606401610193565b6040517ffbdfa1ea000000000000000000000000000000000000000000000000000000008152600481018490526000906001600160a01b0384169063fbdfa1ea90602401600060405180830381865afa158015610462573d6000803e3d6000fd5b505050506040513d6000823e601f3d908101601f1916820160405261048a9190810190610c27565b905080516000148061053a57508051600114801561053a5750866001600160a01b03166104ce826000815181106104c3576104c3610ccd565b602002602001015190565b6001600160a01b0316638da5cb5b6040518163ffffffff1660e01b8152600401602060405180830381865afa15801561050b573d6000803e3d6000fd5b505050506040513d601f19601f8201168201806040525081019061052f9190610ce3565b6001600160a01b0316145b6105ac5760405162461bcd60e51b815260206004820152602a60248201527f696420616c7265616479207265676973746572656420616e642063616c6c657260448201527f206e6f74206f776e6572000000000000000000000000000000000000000000006064820152608401610193565b805160010361063057826001600160a01b0316634cc82215826000815181106105d7576105d7610ccd565b60200260200101516040518263ffffffff1660e01b81526004016105fd91815260200190565b600060405180830381600087803b15801561061757600080fd5b505af115801561062b573d6000803e3d6000fd5b505050505b6040517f1ab06ee500000000000000000000000000000000000000000000000000000000815260048101839052602481018590526001600160a01b03841690631ab06ee590604401600060405180830381600087803b15801561069257600080fd5b505af11580156106a6573d6000803e3d6000fd5b5050505050505050505050919050565b60006106e97f8a22373512790c48b83a1fe2efdd2888d4a917bcdc24d0adf63e60f671680460546001600160a01b031690565b905090565b7f8a22373512790c48b83a1fe2efdd2888d4a917bcdc24d0adf63e60f671680460546001600160a01b03163314610751576040517f2f7a8ee100000000000000000000000000000000000000000000000000000000815260040160405180910390fd5b61075a8161093a565b50565b606061078d858585856040516020016107799493929190610d00565b6040516020818303038152906040526100f1565b95945050505050565b7ff67304f10c7772c78e439bc5cb07781db345424de8878c18100fdaa64d197a8780546001600160a01b039384167fffffffffffffffffffffffff0000000000000000000000000000000000000000918216179091557ff67304f10c7772c78e439bc5cb07781db345424de8878c18100fdaa64d197a868054929093169116179055565b7f8a22373512790c48b83a1fe2efdd2888d4a917bcdc24d0adf63e60f67168046090565b6040517ffbdfa1ea0000000000000000000000000000000000000000000000000000000081526004810182905260009081906001600160a01b0385169063fbdfa1ea90602401600060405180830381865afa1580156108a1573d6000803e3d6000fd5b505050506040513d6000823e601f3d908101601f191682016040526108c99190810190610c27565b9050805160000361091c5760405162461bcd60e51b815260206004820152601160248201527f6964206e6f7420726567697374657265640000000000000000000000000000006044820152606401610193565b610932816000815181106104c3576104c3610ccd565b949350505050565b7f8a22373512790c48b83a1fe2efdd2888d4a917bcdc24d0adf63e60f671680460805460405161075a92849290916001600160a01b038085169216907f8be0079c531659141344cd1fd0a4f28419497f9722a3daafe3b4186f6b6457e090600090a380547fffffffffffffffffffffffff0000000000000000000000000000000000000000166001600160a01b0392909216919091179055565b634e487b7160e01b600052604160045260246000fd5b604051601f8201601f1916810167ffffffffffffffff81118282101715610a1357610a136109d4565b604052919050565b60006020808385031215610a2e57600080fd5b823567ffffffffffffffff80821115610a4657600080fd5b818501915085601f830112610a5a57600080fd5b813581811115610a6c57610a6c6109d4565b610a7e84601f19601f840116016109ea565b91508082528684828501011115610a9457600080fd5b8084840185840137600090820190930192909252509392505050565b600060208083528351808285015260005b81811015610add57858101830151858201604001528201610ac1565b81811115610aef576000604083870101525b50601f01601f1916929092016040019392505050565b6001600160a01b038116811461075a57600080fd5b600060208284031215610b2c57600080fd5b8135610b3781610b05565b9392505050565b6002811061075a57600080fd5b60008060008060808587031215610b6157600080fd5b8435610b6c81610b05565b93506020850135610b7c81610b3e565b92506040850135610b8c81610b05565b9396929550929360600135925050565b60008060008060808587031215610bb257600080fd5b8451610bbd81610b05565b6020860151909450610bce81610b3e565b6040860151909350610bdf81610b05565b6060959095015193969295505050565b634e487b7160e01b600052602160045260246000fd5b600060208284031215610c1757600080fd5b81518015158114610b3757600080fd5b60006020808385031215610c3a57600080fd5b825167ffffffffffffffff80821115610c5257600080fd5b818501915085601f830112610c6657600080fd5b815181811115610c7857610c786109d4565b8060051b9150610c898483016109ea565b8181529183018401918481019088841115610ca357600080fd5b938501935b83851015610cc157845182529385019390850190610ca8565b98975050505050505050565b634e487b7160e01b600052603260045260246000fd5b600060208284031215610cf557600080fd5b8151610b3781610b05565b6001600160a01b038581168252608082019060028610610d3057634e487b7160e01b600052602160045260246000fd5b8560208401528085166040840152508260608301529594505050505056fea264697066735822122020b9b2508c27d27ac46e5ac7d08787137ca82aa5f7e1bad69b9b7b30d571197764736f6c634300080d0033",
    "linkReferences": {}
  },
  "methodIdentifiers": {
    "components()": "ba62fbe4",
    "getComponent(uint256)": "4f27da18",
    "getComponentIdFromAddress(address)": "9f54f545",
    "getNumEntities()": "d7ecf62b",
    "getSystemAddress(uint256)": "fb3ec48b",
    "getUniqueEntityId()": "614bfa6e",
    "hasEntity(uint256)": "e3d12875",
    "init()": "e1c7392a",
    "query((uint8,uint256,bytes)[])": "687485a6",
    "register()": "1aa3a008",
    "registerComponent(address,uint256)": "f3034770",
    "registerComponentValueRemoved(address,uint256)": "d803064a",
    "registerComponentValueRemoved(uint256)": "0de3b7b5",
    "registerComponentValueSet(address,uint256,bytes)": "af104e40",
    "registerComponentValueSet(uint256,bytes)": "cfd3c57f",
    "registerSystem(address,uint256)": "1ee444b7",
    "systems()": "0d59332e"
  },
  "id": 37
}