{
  "abi": [
    {
      "inputs": [],
      "name": "_msgSender",
      "outputs": [
        {
          "internalType": "address",
          "name": "sender",
          "type": "address"
        }
      ],
      "stateMutability": "view",
      "type": "function"
    },
    {
      "inputs": [],
      "name": "_msgValue",
      "outputs": [
        {
          "internalType": "uint256",
          "name": "value",
          "type": "uint256"
        }
      ],
      "stateMutability": "pure",
      "type": "function"
    },
    {
      "inputs": [],
      "name": "_world",
      "outputs": [
        {
          "internalType": "address",
          "name": "",
          "type": "address"
        }
      ],
      "stateMutability": "view",
      "type": "function"
    },
    {
      "inputs": [
        {
          "components": [
            {
              "internalType": "bytes",
              "name": "value",
              "type": "bytes"
            }
          ],
          "internalType": "struct BytesStruct[]",
          "name": "",
          "type": "tuple[]"
        }
      ],
      "name": "dynamicArrayBytesStruct",
      "outputs": [],
      "stateMutability": "nonpayable",
      "type": "function"
    },
    {
      "inputs": [
        {
          "components": [
            {
              "internalType": "string",
              "name": "value",
              "type": "string"
            }
          ],
          "internalType": "struct StringStruct[]",
          "name": "",
          "type": "tuple[]"
        }
      ],
      "name": "dynamicArrayStringStruct",
      "outputs": [],
      "stateMutability": "nonpayable",
      "type": "function"
    },
    {
      "inputs": [
        {
          "components": [
            {
              "internalType": "bytes",
              "name": "value",
              "type": "bytes"
            }
          ],
          "internalType": "struct BytesStruct[1]",
          "name": "",
          "type": "tuple[1]"
        }
      ],
      "name": "staticArrayBytesStruct",
      "outputs": [],
      "stateMutability": "nonpayable",
      "type": "function"
    },
    {
      "inputs": [
        {
          "components": [
            {
              "internalType": "string",
              "name": "value",
              "type": "string"
            }
          ],
          "internalType": "struct StringStruct[1]",
          "name": "",
          "type": "tuple[1]"
        }
      ],
      "name": "staticArrayStringStruct",
      "outputs": [],
      "stateMutability": "nonpayable",
      "type": "function"
    },
    {
      "inputs": [
        {
          "internalType": "bytes4",
          "name": "interfaceId",
          "type": "bytes4"
        }
      ],
      "name": "supportsInterface",
      "outputs": [
        {
          "internalType": "bool",
          "name": "",
          "type": "bool"
        }
      ],
      "stateMutability": "pure",
      "type": "function"
    }
  ],
  "bytecode": {
    "object": "0x608060405234801561001057600080fd5b506106c4806100206000396000f3fe608060405234801561001057600080fd5b50600436106100885760003560e01c806345ec93541161005b57806345ec9354146101035780634ccd0e33146101165780635f04ce6614610124578063e1af802c1461013257600080fd5b806301ffc9a71461008d57806308fc6561146100b5578063119df25f146100c857806312467703146100f5575b600080fd5b6100a061009b366004610260565b61013a565b60405190151581526020015b60405180910390f35b6100c66100c33660046103ea565b50565b005b6100d06101d3565b60405173ffffffffffffffffffffffffffffffffffffffff90911681526020016100ac565b6100c66100c33660046104a8565b604051601f1936013581526020016100ac565b6100c66100c336600461055e565b6100c66100c33660046105ea565b6100d0610205565b60007fffffffff0000000000000000000000000000000000000000000000000000000082167fb42128800000000000000000000000000000000000000000000000000000000014806101cd57507fffffffff0000000000000000000000000000000000000000000000000000000082167f01ffc9a700000000000000000000000000000000000000000000000000000000145b92915050565b7fffffffffffffffffffffffffffffffffffffffffffffffffffffffffffffffcc36013560601c806102025750335b90565b600061020f610214565b905090565b7f629a4c26e296b22a8e0856e9f6ecb2d1008d7e00081111962cd175fa7488e1755460009073ffffffffffffffffffffffffffffffffffffffff168061025b573391505090565b919050565b60006020828403121561027257600080fd5b81357fffffffff00000000000000000000000000000000000000000000000000000000811681146102a257600080fd5b9392505050565b7f4e487b7100000000000000000000000000000000000000000000000000000000600052604160045260246000fd5b6040516020810167ffffffffffffffff811182821017156102fb576102fb6102a9565b60405290565b604051601f8201601f1916810167ffffffffffffffff8111828210171561032a5761032a6102a9565b604052919050565b6000602080838503121561034557600080fd5b60405181810167ffffffffffffffff8282108183111715610368576103686102a9565b81604052829450853591508082111561038057600080fd5b818601915086601f83011261039457600080fd5b8135818111156103a6576103a66102a9565b6103b885601f19601f84011601610301565b915080825287858285010111156103ce57600080fd5b8085840186840137600090820190940193909352505292915050565b600060208083850312156103fd57600080fd5b823567ffffffffffffffff8082111561041557600080fd5b818501915085601f83011261042957600080fd5b6104316102d8565b808484018881111561044257600080fd5b845b818110156104765780358581111561045c5760008081fd5b6104688b828901610332565b855250928601928601610444565b509098975050505050505050565b600067ffffffffffffffff82111561049e5761049e6102a9565b5060051b60200190565b600060208083850312156104bb57600080fd5b823567ffffffffffffffff808211156104d357600080fd5b818501915085601f8301126104e757600080fd5b81356104fa6104f582610484565b610301565b81815260059190911b8301840190848101908883111561051957600080fd5b8585015b83811015610551578035858111156105355760008081fd5b6105438b89838a0101610332565b84525091860191860161051d565b5098975050505050505050565b6000602080838503121561057157600080fd5b823567ffffffffffffffff8082111561058957600080fd5b818501915085601f83011261059d57600080fd5b6105a56102d8565b80848401888111156105b657600080fd5b845b81811015610476578035858111156105d05760008081fd5b6105dc8b828901610332565b8552509286019286016105b8565b600060208083850312156105fd57600080fd5b823567ffffffffffffffff8082111561061557600080fd5b818501915085601f83011261062957600080fd5b81356106376104f582610484565b81815260059190911b8301840190848101908883111561065657600080fd5b8585015b83811015610551578035858111156106725760008081fd5b6106808b89838a0101610332565b84525091860191860161065a56fea26469706673582212202562b7d21f1887be1106003ed2e475ddff839b5c7352c736043232ccbe1b6c6e64736f6c634300080d0033",
    "linkReferences": {}
  },
  "methodIdentifiers": {
    "_msgSender()": "119df25f",
    "_msgValue()": "45ec9354",
    "_world()": "e1af802c",
    "dynamicArrayBytesStruct((bytes)[])": "5f04ce66",
    "dynamicArrayStringStruct((string)[])": "12467703",
    "staticArrayBytesStruct((bytes)[1])": "08fc6561",
    "staticArrayStringStruct((string)[1])": "4ccd0e33",
    "supportsInterface(bytes4)": "01ffc9a7"
  },
  "id": 102
}