{
  "abi": [
    {
      "inputs": [
        {
          "internalType": "uint256",
          "name": "length",
          "type": "uint256"
        }
      ],
      "name": "FieldLayoutLib_InvalidLength",
      "type": "error"
    },
    {
      "inputs": [],
      "name": "FieldLayoutLib_StaticLengthDoesNotFitInAWord",
      "type": "error"
    },
    {
      "inputs": [],
      "name": "FieldLayoutLib_StaticLengthIsZero",
      "type": "error"
    },
    {
      "inputs": [],
      "name": "MyCustomError",
      "type": "error"
    },
    {
      "inputs": [
        {
          "internalType": "uint256",
          "name": "length",
          "type": "uint256"
        }
      ],
      "name": "PackedCounter_InvalidLength",
      "type": "error"
    },
    {
      "inputs": [
        {
          "internalType": "uint256",
          "name": "length",
          "type": "uint256"
        }
      ],
      "name": "SchemaLib_InvalidLength",
      "type": "error"
    },
    {
      "inputs": [],
      "name": "SchemaLib_StaticTypeAfterDynamicType",
      "type": "error"
    },
    {
      "inputs": [
        {
          "internalType": "bytes",
          "name": "data",
          "type": "bytes"
        },
        {
          "internalType": "uint256",
          "name": "start",
          "type": "uint256"
        },
        {
          "internalType": "uint256",
          "name": "end",
          "type": "uint256"
        }
      ],
      "name": "Slice_OutOfBounds",
      "type": "error"
    },
    {
      "inputs": [
        {
          "internalType": "uint256",
          "name": "expected",
          "type": "uint256"
        },
        {
          "internalType": "uint256",
          "name": "received",
          "type": "uint256"
        }
      ],
      "name": "StoreCore_InvalidDataLength",
      "type": "error"
    },
    {
      "inputs": [
        {
          "internalType": "uint256",
          "name": "expected",
          "type": "uint256"
        },
        {
          "internalType": "uint256",
          "name": "received",
          "type": "uint256"
        }
      ],
      "name": "StoreCore_InvalidFieldNamesLength",
      "type": "error"
    },
    {
      "inputs": [
        {
          "internalType": "uint256",
          "name": "expected",
          "type": "uint256"
        },
        {
          "internalType": "uint256",
          "name": "received",
          "type": "uint256"
        }
      ],
      "name": "StoreCore_InvalidKeyNamesLength",
      "type": "error"
    },
    {
      "inputs": [
        {
          "internalType": "uint256",
          "name": "expected",
          "type": "uint256"
        },
        {
          "internalType": "uint256",
          "name": "received",
          "type": "uint256"
        }
      ],
      "name": "StoreCore_InvalidValueSchemaLength",
      "type": "error"
    },
    {
      "inputs": [
        {
          "internalType": "bytes32",
          "name": "tableId",
          "type": "bytes32"
        },
        {
          "internalType": "string",
          "name": "tableIdString",
          "type": "string"
        }
      ],
      "name": "StoreCore_TableAlreadyExists",
      "type": "error"
    },
    {
      "inputs": [],
      "name": "_msgSender",
      "outputs": [
        {
          "internalType": "address",
          "name": "sender",
          "type": "address"
        }
      ],
      "stateMutability": "view",
      "type": "function"
    },
    {
      "inputs": [],
      "name": "_msgValue",
      "outputs": [
        {
          "internalType": "uint256",
          "name": "value",
          "type": "uint256"
        }
      ],
      "stateMutability": "pure",
      "type": "function"
    },
    {
      "inputs": [],
      "name": "_world",
      "outputs": [
        {
          "internalType": "address",
          "name": "",
          "type": "address"
        }
      ],
      "stateMutability": "view",
      "type": "function"
    },
    {
      "inputs": [],
      "name": "increment",
      "outputs": [
        {
          "internalType": "uint32",
          "name": "",
          "type": "uint32"
        }
      ],
      "stateMutability": "nonpayable",
      "type": "function"
    },
    {
      "inputs": [
        {
          "internalType": "bytes4",
          "name": "interfaceId",
          "type": "bytes4"
        }
      ],
      "name": "supportsInterface",
      "outputs": [
        {
          "internalType": "bool",
          "name": "",
          "type": "bool"
        }
      ],
      "stateMutability": "pure",
      "type": "function"
    },
    {
      "inputs": [],
      "name": "willRevert",
      "outputs": [],
      "stateMutability": "nonpayable",
      "type": "function"
    }
  ],
  "bytecode": {
    "object": "0x608060405234801561001057600080fd5b50612924806100206000396000f3fe608060405234801561001057600080fd5b50600436106100725760003560e01c806373ee93b31161005057806373ee93b3146100df578063d09de08a146100e9578063e1af802c1461010657600080fd5b806301ffc9a714610077578063119df25f1461009f57806345ec9354146100cc575b600080fd5b61008a6100853660046122ed565b61010e565b60405190151581526020015b60405180910390f35b6100a76101a7565b60405173ffffffffffffffffffffffffffffffffffffffff9091168152602001610096565b604051601f193601358152602001610096565b6100e76101d9565b005b6100f16101e3565b60405163ffffffff9091168152602001610096565b6100a7610208565b60007fffffffff0000000000000000000000000000000000000000000000000000000082167fb42128800000000000000000000000000000000000000000000000000000000014806101a157507fffffffff0000000000000000000000000000000000000000000000000000000082167f01ffc9a700000000000000000000000000000000000000000000000000000000145b92915050565b7fffffffffffffffffffffffffffffffffffffffffffffffffffffffffffffffcc36013560601c806101d65750335b90565b6101e1610217565b565b6000806101ee610292565b905060006101fd826001612345565b90506101a18161030b565b60006102126103b9565b905090565b60408051600060208201527f436f756e7465725461626c65000000000000000000000000000000000000000060308201526101e191016040516020818303038152906040526102659061236d565b61026d610405565b61027561045c565b61027d610475565b6102856104e7565b61028d61051a565b61059f565b6040805160008082526020820183528183018190527f436f756e7465725461626c6500000000000000000000000000000000000000006050830152825180830384018152606083019093529182906102fd906102ed9061236d565b8360006102f8610405565b610673565b6020015160e01c9392505050565b604080516000808252602082018352818301527f436f756e7465725461626c650000000000000000000000000000000000000000605082015281518082038301815260608201909252906103b5906103629061236d565b6040517fffffffff0000000000000000000000000000000000000000000000000000000060e086901b16602082015283906000906024016040516020818303038152906040526103b0610405565b610757565b5050565b7f629a4c26e296b22a8e0856e9f6ecb2d1008d7e00081111962cd175fa7488e1755460009073ffffffffffffffffffffffffffffffffffffffff1680610400573391505090565b919050565b6040805160018082528183019092526000918291906020808301908036833701905050905060048160008151811061043f5761043f6123a7565b602002602001018181525050610456816000610827565b91505090565b60408051600080825260208201909252610456816109f4565b604080516001808252818301909252600091829190602080830190803683370190505090506003816000815181106104af576104af6123a7565b602002602001019060c58111156104c8576104c86123bd565b908160c58111156104db576104db6123bd565b905250610456816109f4565b60408051600080825260208201909252606091610514565b60608152602001906001900390816104ff5790505b50905090565b604080516001808252818301909252606091816020015b60608152602001906001900390816105315790505090506040518060400160405280600581526020017f76616c756500000000000000000000000000000000000000000000000000000081525081600081518110610591576105916123a7565b602002602001018190525090565b60006105a96103b9565b90503073ffffffffffffffffffffffffffffffffffffffff8216036105db576105d6878787878787610baf565b61066a565b6040517f0ba51f4900000000000000000000000000000000000000000000000000000000815273ffffffffffffffffffffffffffffffffffffffff821690630ba51f4990610637908a908a908a908a908a908a90600401612480565b600060405180830381600087803b15801561065157600080fd5b505af1158015610665573d6000803e3d6000fd5b505050505b50505050505050565b6060600061067f6103b9565b90503073ffffffffffffffffffffffffffffffffffffffff8216036106b2576106aa86868686610db7565b91505061074f565b6040517f05242d2f00000000000000000000000000000000000000000000000000000000815273ffffffffffffffffffffffffffffffffffffffff8216906305242d2f9061070a908990899089908990600401612505565b600060405180830381865afa158015610727573d6000803e3d6000fd5b505050506040513d6000823e601f3d908101601f191682016040526106aa9190810190612534565b949350505050565b60006107616103b9565b90503073ffffffffffffffffffffffffffffffffffffffff8216036107925761078d8686868686610deb565b61081f565b6040517f3708196e00000000000000000000000000000000000000000000000000000000815273ffffffffffffffffffffffffffffffffffffffff821690633708196e906107ec90899089908990899089906004016125e1565b600060405180830381600087803b15801561080657600080fd5b505af115801561081a573d6000803e3d6000fd5b505050505b505050505050565b60008060008084865161083a9190612628565b9050601c81111561086657604051634bf1b50560e11b8152600481018290526024015b60405180910390fd5b600585111561088b57604051634bf1b50560e11b81526004810186905260240161085d565b60005b86518110156109675760008782815181106108ab576108ab6123a7565b60200260200101519050806000036108ef576040517fbf1ac38300000000000000000000000000000000000000000000000000000000815260040160405180910390fd5b602081111561092a576040517f2392baa400000000000000000000000000000000000000000000000000000000815260040160405180910390fd5b80840193506008826004601f03030288838151811061094b5761094b6123a7565b6020026020010151901b8517945081806001019250505061088e565b50600861097660026020612640565b6109809190612657565b82901b92909217916008600161099860026020612640565b6109a29190612640565b6109ac9190612657565b8651901b929092179160086001806109c660026020612640565b6109d09190612640565b6109da9190612640565b6109e49190612657565b9490941b91909117949350505050565b6000601c82511115610a1e578151604051635318beb960e01b815260040161085d91815260200190565b60008080805b8551811015610af9576000610a62878381518110610a4457610a446123a7565b602002602001015160c5811115610a5d57610a5d6123bd565b611037565b905080600003610a7757600190920191610aaf565b8215610aaf576040517ff1e56be400000000000000000000000000000000000000000000000000000000815260040160405180910390fd5b80840193506008826004601f030302878381518110610ad057610ad06123a7565b602002602001015160c5811115610ae957610ae96123bd565b901b949094179350600101610a24565b506005811115610b1f57604051635318beb960e01b81526004810182905260240161085d565b84518190036008610b3260026020612640565b610b3c9190612657565b83901b939093179260086001610b5460026020612640565b610b5e9190612640565b610b689190612657565b81901b93909317926008600180610b8160026020612640565b610b8b9190612640565b610b959190612640565b610b9f9190612657565b9190911b92909217949350505050565b610bba856000611097565b610bc58460016111ce565b610bd08360006111ce565b60e084901c60e885901c0160ff16825114610c305760e084901c60e885901c0160ff1682516040517f891fedf70000000000000000000000000000000000000000000000000000000081526004810192909252602482015260440161085d565b60e085901c60e886901c0160ff16815114610c905760e085901c60e886901c0160ff1681516040517ff2b275590000000000000000000000000000000000000000000000000000000081526004810192909252602482015260440161085d565b60e085901c60e886901c0160ff1660e084901c60e885901c0160ff1614610d085760e085901c60e886901c0160ff1660e084901c60e885901c0160ff166040517f86761ac90000000000000000000000000000000000000000000000000000000081526004810192909252602482015260440161085d565b610d1186611375565b15610d6b578586604051602001610d2a91815260200190565b60408051601f19818403018152908290527f147bbb8c00000000000000000000000000000000000000000000000000000000825261085d9291600401612676565b61081f8686868686604051602001610d83919061268f565b60405160208183030381529060405286604051602001610da3919061268f565b604051602081830303815290604052611389565b6060610dc282611464565b8360ff161015610ddf57610dd885858585611496565b905061074f565b610dd8858585856114de565b7fd01f9f1368f831528fc9fe6442366b2b7d957fbfff3bcf7c24d9ab5fe51f8c4685858585604051610e2094939291906126a2565b60405180910390a16000610e3386611539565b905060005b8151811015610f31576000828281518110610e5557610e556123a7565b60200260200101519050610e9e60026005811115610e7557610e756123bd565b7fffffffffffffffffffffffffffffffffffffffffff0000000000000000000000831690611611565b15610f1e576040517fbf11b74e000000000000000000000000000000000000000000000000000000008152606082901c9063bf11b74e90610eeb908b908b908b908b908b906004016125e1565b600060405180830381600087803b158015610f0557600080fd5b505af1158015610f19573d6000803e3d6000fd5b505050505b5080610f29816126d6565b915050610e38565b50610f3b82611464565b8460ff161015610f5757610f528686848787611632565b610f64565b610f6486868487876116b3565b60005b815181101561066a576000828281518110610f8457610f846123a7565b60200260200101519050610fa460036005811115610e7557610e756123bd565b15611024576040517f7da508a2000000000000000000000000000000000000000000000000000000008152606082901c90637da508a290610ff1908b908b908b908b908b906004016125e1565b600060405180830381600087803b15801561100b57600080fd5b505af115801561101f573d6000803e3d6000fd5b505050505b508061102f816126d6565b915050610f67565b6000808260c581111561104c5761104c6123bd565b60ff169050606181101561106657601f1660010192915050565b60618360c581111561107a5761107a6123bd565b036110885750601492915050565b50600092915050565b50919050565b801580156110a3575081155b156110c457604051634bf1b50560e11b81526000600482015260240161085d565b60006110cf836116f2565b905060058111156110f657604051634bf1b50560e11b81526004810182905260240161085d565b600061110184611464565b9050600061110f8383612628565b9050601c81111561113657604051634bf1b50560e11b81526004810182905260240161085d565b60005b8281101561081f5760ff601b82900360080287901c16600081900361118a576040517fbf1ac38300000000000000000000000000000000000000000000000000000000815260040160405180910390fd5b60208111156111c5576040517f2392baa400000000000000000000000000000000000000000000000000000000815260040160405180910390fd5b50600101611139565b801580156111da575081155b156111fb57604051635318beb960e01b81526000600482015260240161085d565b6000611206836116f2565b9050600581111561122d57604051635318beb960e01b81526004810182905260240161085d565b600061123884611464565b905060006112468383612628565b9050601c81111561126d57604051635318beb960e01b81526004810182905260240161085d565b60008060005b8381101561132e57600061129b61128a8a8461170f565b60c5811115610a5d57610a5d6123bd565b11156112e5578481106112da576040517ff1e56be400000000000000000000000000000000000000000000000000000000815260040160405180910390fd5b600190920191611326565b8481101561131f576040517ff1e56be400000000000000000000000000000000000000000000000000000000815260040160405180910390fd5b6001909101905b600101611273565b5083821461135257604051635318beb960e01b81526004810183905260240161085d565b84811461066a57604051635318beb960e01b81526004810182905260240161085d565b60008061138183611737565b141592915050565b60006113988686868686611804565b604080516001808252818301909252919250600091906020808301908036833701905050905087816000815181106113d2576113d26123a7565b602090810291909101810191909152604080517f6d756473746f7265000000000000000000000000000000000000000000000000818401527f5461626c657300000000000000000000000000000000000000000000000000006030820152815180820390930183528101905261145a9061144b9061236d565b828461145561185c565b6118f0565b5050505050505050565b60006008600161147660026020612640565b6114809190612640565b61148a9190612657565b8260ff911c1692915050565b6060600060ff848116601b0360080284901c16905060006114b787876119bc565b905060006114c58587611a12565b90506114d2828483611a55565b98975050505050505050565b606060006114eb83611464565b6114f590856126f0565b90506000611504878784611a78565b9050600061152b836115168a8a611ad1565b9060ff166028026038011c64ffffffffff1690565b90506114d282826000611a55565b60408051600180825281830190925260609160009190602080830190803683370190505090508281600081518110611573576115736123a7565b602090810291909101810191909152604080517f6d756473746f7265000000000000000000000000000000000000000000000000818401527f53746f7265486f6f6b7300000000000000000000000000000000000000000000603082015281518082039093018352810190526000906115fa906115ef9061236d565b8360006102f8611ae8565b905061074f61160c8260008451611b03565b611b93565b6000600160ff83161b6116248460581c90565b1660ff161515905092915050565b600060ff838116601b0360080285901c1690508151811461168c5781516040517f521b3d3300000000000000000000000000000000000000000000000000000000815261085d918391600401918252602082015260400190565b600061169887876119bc565b905060006116a68686611a12565b905061145a828286611ba4565b60006116be84611464565b6116c890846126f0565b90506116d78686838551611bb9565b60006116e4878784611a78565b905061066a81600085611ba4565b6000600860018061170560026020612640565b6114769190612640565b6000601b8290036008028360ff911c1660c5811115611730576117306123bd565b9392505050565b604080516001808252818301909252600091829190602080830190803683370190505090508281600081518110611770576117706123a7565b602090810291909101810191909152604080517f6d756473746f7265000000000000000000000000000000000000000000000000818401527f5461626c65730000000000000000000000000000000000000000000000000000603082015281518082039093018352810190526000906117f7906117ec9061236d565b8360006102f861185c565b602081015190915061074f565b6060600061182484518451606081901b603883901b838301171792915050565b905086868683878760405160200161184196959493929190612713565b60405160208183030381529060405291505095945050505050565b6040805160038082526080820190925260009182919060208201606080368337019050509050602081600081518110611897576118976123a7565b6020026020010181815250506020816001815181106118b8576118b86123a7565b6020026020010181815250506020816002815181106118d9576118d96123a7565b602002602001018181525050610456816002610827565b60006118fa6103b9565b90503073ffffffffffffffffffffffffffffffffffffffff82160361192a5761192585858585611be8565b6119b5565b6040517fb368b99800000000000000000000000000000000000000000000000000000000815273ffffffffffffffffffffffffffffffffffffffff82169063b368b99890611982908890889088908890600401612764565b600060405180830381600087803b15801561199c57600080fd5b505af11580156119b0573d6000803e3d6000fd5b505050505b5050505050565b60007f86425bff6b57326c7859e89024fe4f238ca327a1ae4a230180dd2f0e88aaa7d983836040516020016119f3939291906127a1565b60408051601f1981840301815291905280516020909101209392505050565b600080805b8360ff16811015611a4d57611a3960ff601b83900360080287901c1683612628565b915080611a45816126d6565b915050611a17565b509392505050565b60405160208101601f19603f8584010116604052838252611a4d85858584611ea3565b60007f86425bff6b57326c7859e89024fe4f238ca327a1ae4a230180dd2f0e88aaa7d9848484604051602001611ab194939291906127c9565b60408051601f198184030181529190528051602090910120949350505050565b600080611ade8484611f59565b905061074f815490565b60408051600080825260208201909252610456816001610827565b6000818311158015611b16575083518211155b611b52578383836040517f23230fa300000000000000000000000000000000000000000000000000000000815260040161085d939291906127fc565b60208401611b608482612628565b90506000611b6e8585612640565b6fffffffffffffffffffffffffffffffff1660809290921b9190911795945050505050565b606060006117308360156000611f90565b611bb483836020840184516120a2565b505050565b6000611bc58585611f59565b90506000611bd1825490565b9050611bde818585612162565b808355905061081f565b600080611bf58385612231565b915091507f912af873e852235aae78a1d25ae9bb28b616a67c36898c53a14fd8184504ee32868686604051611c2c93929190612821565b60405180910390a16000611c3f87611539565b905060005b8151811015611d12576000828281518110611c6157611c616123a7565b60200260200101519050611c8160006005811115610e7557610e756123bd565b15611cff576040517fd2cea89f000000000000000000000000000000000000000000000000000000008152606082901c9063d2cea89f90611ccc908c908c908c908c90600401612764565b600060405180830381600087803b158015611ce657600080fd5b505af1158015611cfa573d6000803e3d6000fd5b505050505b5080611d0a816126d6565b915050611c44565b506000611d1f88886119bc565b905060208601611d3282600083886120a2565b611d3d856020612628565b611d479082612628565b90506000611d54876116f2565b1115611dd2576000611d668a8a611f59565b858155905060008060005b611d7a8a6116f2565b8160ff161015611dcd57611d8f8d8d83611a78565b9250611daa888260ff166028026038011c64ffffffffff1690565b9150611db983600087856120a2565b611dc38286612628565b9450600101611d71565b505050505b60005b835181101561081a576000848281518110611df257611df26123a7565b60200260200101519050611e1260016005811115610e7557610e756123bd565b15611e90576040517f4d08d1ad000000000000000000000000000000000000000000000000000000008152606082901c90634d08d1ad90611e5d908e908e908e908e90600401612764565b600060405180830381600087803b158015611e7757600080fd5b505af1158015611e8b573d6000803e3d6000fd5b505050505b5080611e9b816126d6565b915050611dd5565b8115611f155760208210611ecd57602082048401935060208281611ec957611ec9612856565b0691505b8115611f155760208290036000600019600883021c1990508554600885021b811984511682821617845250818511611f06575050611f53565b50600194909401939283900392015b5b60208310611f375783548152600190930192601f1990920191602001611f16565b8215611f535780518454600019600886021c9182169119161781525b50505050565b60007f86425bff6b57326c7859e89024fe4f238ca327a1ae4a230180dd2f0e88aaa7d983836040516020016119f39392919061286c565b60606000611f9e8560801c90565b90506fffffffffffffffffffffffffffffffff85166000858281611fc457611fc4612856565b049050611fd186836128cc565b1561205e576040517f08c379a000000000000000000000000000000000000000000000000000000000815260206004820152603d60248201527f756e7061636b546f41727261793a207061636b65644c656e677468206d75737460448201527f2062652061206d756c7469706c65206f6620656c656d656e7453697a65000000606482015260840161085d565b60405193506020840160208202810160405281855260005b82811015612096578451871c825293870193602090910190600101612076565b50505050509392505050565b821561211c57602083106120cc576020830484019350602083816120c8576120c8612856565b0692505b821561211c5760208390036000600019600884021c1990506008850281811c91508451811c905081198754168282161787555081831161210d575050611f53565b50600194909401939182019190035b5b6020811061213e5781518455600190930192602090910190601f190161211d565b8015611f53576000600019600883021c198554845182169119161785555050505050565b600064ffffffffff8211156121a6576040517f476705880000000000000000000000000000000000000000000000000000000081526004810183905260240161085d565b8366ffffffffffffff811660ff851660280260380182901c64ffffffffff168085106121d857808503820191506121e0565b848103820391505b5064ffffffffff6038602860ff8816020190811b80197fffffffffffffffffffffffffffffffffffffffffffffffffff0000000000000094909416909217929092169184901b161790509392505050565b60008061223d846122ca565b915081600061224b866116f2565b111561227b5782840160200151915061226e66ffffffffffffff83166020612628565b6122789082612628565b90505b835181146122c25783516040517f521b3d3300000000000000000000000000000000000000000000000000000000815261085d918391600401918252602082015260400190565b509250929050565b600060086122da60026020612640565b6122e49190612657565b9190911c919050565b6000602082840312156122ff57600080fd5b81357fffffffff000000000000000000000000000000000000000000000000000000008116811461173057600080fd5b634e487b7160e01b600052601160045260246000fd5b600063ffffffff8083168185168083038211156123645761236461232f565b01949350505050565b805160208083015191908110156110915760001960209190910360031b1b16919050565b634e487b7160e01b600052604160045260246000fd5b634e487b7160e01b600052603260045260246000fd5b634e487b7160e01b600052602160045260246000fd5b60005b838110156123ee5781810151838201526020016123d6565b83811115611f535750506000910152565b600081518084526124178160208601602086016123d3565b601f01601f19169290920160200192915050565b600081518084526020808501808196508360051b8101915082860160005b858110156124735782840389526124618483516123ff565b98850198935090840190600101612449565b5091979650505050505050565b86815285602082015284604082015283606082015260c0608082015260006124ab60c083018561242b565b82810360a08401526124bd818561242b565b9998505050505050505050565b600081518084526020808501945080840160005b838110156124fa578151875295820195908201906001016124de565b509495945050505050565b84815260806020820152600061251e60808301866124ca565b60ff949094166040830152506060015292915050565b60006020828403121561254657600080fd5b815167ffffffffffffffff8082111561255e57600080fd5b818401915084601f83011261257257600080fd5b81518181111561258457612584612391565b604051601f8201601f19908116603f011681019083821181831017156125ac576125ac612391565b816040528281528760208487010111156125c557600080fd5b6125d68360208301602088016123d3565b979650505050505050565b85815260a0602082015260006125fa60a08301876124ca565b60ff86166040840152828103606084015261261581866123ff565b9150508260808301529695505050505050565b6000821982111561263b5761263b61232f565b500190565b6000828210156126525761265261232f565b500390565b60008160001904831182151516156126715761267161232f565b500290565b82815260406020820152600061074f60408301846123ff565b602081526000611730602083018461242b565b8481526080602082015260006126bb60808301866124ca565b60ff8516604084015282810360608401526125d681856123ff565b600060001982036126e9576126e961232f565b5060010190565b600060ff821660ff84168082101561270a5761270a61232f565b90039392505050565b8681528560208201528460408201528360608201526000835161273d8160808501602088016123d3565b8351908301906127548160808401602088016123d3565b0160800198975050505050505050565b84815260806020820152600061277d60808301866124ca565b828103604084015261278f81866123ff565b91505082606083015295945050505050565b8381528260208201526060604082015260006127c060608301846124ca565b95945050505050565b8481528360208201526080604082015260006127e860808301856124ca565b905060ff8316606083015295945050505050565b60608152600061280f60608301866123ff565b60208301949094525060400152919050565b83815260606020820152600061283a60608301856124ca565b828103604084015261284c81856123ff565b9695505050505050565b634e487b7160e01b600052601260045260246000fd5b83815282602082015260806040820152600061288b60808301846124ca565b8281036060840152600681527f6c656e6774680000000000000000000000000000000000000000000000000000602082015260408101915050949350505050565b6000826128e957634e487b7160e01b600052601260045260246000fd5b50069056fea2646970667358221220290c93cb448fa8b8e83882d2f2c2ca9afc26ba8ba68760df9b020794f296573a64736f6c634300080d0033",
    "linkReferences": {}
  },
  "methodIdentifiers": {
    "_msgSender()": "119df25f",
    "_msgValue()": "45ec9354",
    "_world()": "e1af802c",
    "increment()": "d09de08a",
    "supportsInterface(bytes4)": "01ffc9a7",
    "willRevert()": "73ee93b3"
  },
  "id": 100
}