{
  "abi": [
    {
      "inputs": [
        {
          "internalType": "uint256",
          "name": "length",
          "type": "uint256"
        }
      ],
      "name": "FieldLayoutLib_InvalidLength",
      "type": "error"
    },
    {
      "inputs": [],
      "name": "FieldLayoutLib_StaticLengthDoesNotFitInAWord",
      "type": "error"
    },
    {
      "inputs": [],
      "name": "FieldLayoutLib_StaticLengthIsZero",
      "type": "error"
    },
    {
      "inputs": [
        {
          "internalType": "uint256",
          "name": "length",
          "type": "uint256"
        }
      ],
      "name": "PackedCounter_InvalidLength",
      "type": "error"
    },
    {
      "inputs": [
        {
          "internalType": "bytes",
          "name": "data",
          "type": "bytes"
        },
        {
          "internalType": "uint256",
          "name": "start",
          "type": "uint256"
        },
        {
          "internalType": "uint256",
          "name": "end",
          "type": "uint256"
        }
      ],
      "name": "Slice_OutOfBounds",
      "type": "error"
    },
    {
      "inputs": [
        {
          "internalType": "uint256",
          "name": "expected",
          "type": "uint256"
        },
        {
          "internalType": "uint256",
          "name": "received",
          "type": "uint256"
        }
      ],
      "name": "StoreCore_InvalidDataLength",
      "type": "error"
    },
    {
      "inputs": [],
      "name": "_msgSender",
      "outputs": [
        {
          "internalType": "address",
          "name": "sender",
          "type": "address"
        }
      ],
      "stateMutability": "view",
      "type": "function"
    },
    {
      "inputs": [],
      "name": "_msgValue",
      "outputs": [
        {
          "internalType": "uint256",
          "name": "value",
          "type": "uint256"
        }
      ],
      "stateMutability": "pure",
      "type": "function"
    },
    {
      "inputs": [],
      "name": "_world",
      "outputs": [
        {
          "internalType": "address",
          "name": "",
          "type": "address"
        }
      ],
      "stateMutability": "view",
      "type": "function"
    },
    {
      "inputs": [
        {
          "internalType": "uint32",
          "name": "item",
          "type": "uint32"
        },
        {
          "internalType": "uint32",
          "name": "itemVariant",
          "type": "uint32"
        }
      ],
      "name": "pickUp",
      "outputs": [],
      "stateMutability": "nonpayable",
      "type": "function"
    },
    {
      "inputs": [
        {
          "internalType": "bytes4",
          "name": "interfaceId",
          "type": "bytes4"
        }
      ],
      "name": "supportsInterface",
      "outputs": [
        {
          "internalType": "bool",
          "name": "",
          "type": "bool"
        }
      ],
      "stateMutability": "pure",
      "type": "function"
    }
  ],
  "bytecode": {
    "object": "0x608060405234801561001057600080fd5b506118a3806100206000396000f3fe608060405234801561001057600080fd5b50600436106100675760003560e01c806311f348f71161005057806311f348f7146100c157806345ec9354146100d6578063e1af802c146100e957600080fd5b806301ffc9a71461006c578063119df25f14610094575b600080fd5b61007f61007a3660046113b0565b6100f1565b60405190151581526020015b60405180910390f35b61009c61018a565b60405173ffffffffffffffffffffffffffffffffffffffff909116815260200161008b565b6100d46100cf366004611406565b6101bc565b005b604051601f19360135815260200161008b565b61009c6101f4565b60007fffffffff0000000000000000000000000000000000000000000000000000000082167fb421288000000000000000000000000000000000000000000000000000000000148061018457507fffffffff0000000000000000000000000000000000000000000000000000000082167f01ffc9a700000000000000000000000000000000000000000000000000000000145b92915050565b7fffffffffffffffffffffffffffffffffffffffffffffffffffffffffffffffcc36013560601c806101b95750335b90565b60006101d06101c961018a565b8484610203565b90506101ef6101dd61018a565b84846101ea85600161144f565b610327565b505050565b60006101fe61047d565b905090565b60408051600380825260808201909252600091829190602082016060803683370190505090508473ffffffffffffffffffffffffffffffffffffffff1660001b816000815181106102565761025661148d565b6020026020010181815250508363ffffffff1660001b8160018151811061027f5761027f61148d565b6020026020010181815250508263ffffffff1660001b816002815181106102a8576102a861148d565b6020908102919091018101919091526040805160009281018390527f496e76656e746f7279000000000000000000000000000000000000000000000060308201526103169101604051602081830303815290604052610306906114a3565b8360006103116104c9565b610520565b6020015160e01c9695505050505050565b60408051600380825260808201909252600091602082016060803683370190505090508473ffffffffffffffffffffffffffffffffffffffff1660001b816000815181106103775761037761148d565b6020026020010181815250508363ffffffff1660001b816001815181106103a0576103a061148d565b6020026020010181815250508263ffffffff1660001b816002815181106103c9576103c961148d565b602090810291909101810191909152604080516000818401527f496e76656e746f727900000000000000000000000000000000000000000000006030820152815180820390930183528101905261047690610423906114a3565b6040517fffffffff0000000000000000000000000000000000000000000000000000000060e086901b16602082015283906000906024016040516020818303038152906040526104716104c9565b610604565b5050505050565b7f629a4c26e296b22a8e0856e9f6ecb2d1008d7e00081111962cd175fa7488e1755460009073ffffffffffffffffffffffffffffffffffffffff16806104c4573391505090565b919050565b604080516001808252818301909252600091829190602080830190803683370190505090506004816000815181106105035761050361148d565b60200260200101818152505061051a8160006106d4565b91505090565b6060600061052c61047d565b90503073ffffffffffffffffffffffffffffffffffffffff82160361055f57610557868686866108d3565b9150506105fc565b6040517f05242d2f00000000000000000000000000000000000000000000000000000000815273ffffffffffffffffffffffffffffffffffffffff8216906305242d2f906105b7908990899089908990600401611505565b600060405180830381865afa1580156105d4573d6000803e3d6000fd5b505050506040513d6000823e601f3d908101601f191682016040526105579190810190611560565b949350505050565b600061060e61047d565b90503073ffffffffffffffffffffffffffffffffffffffff82160361063f5761063a8686868686610907565b6106cc565b6040517f3708196e00000000000000000000000000000000000000000000000000000000815273ffffffffffffffffffffffffffffffffffffffff821690633708196e906106999089908990899089908990600401611639565b600060405180830381600087803b1580156106b357600080fd5b505af11580156106c7573d6000803e3d6000fd5b505050505b505050505050565b6000806000808486516106e79190611680565b9050601c81111561072c576040517f97e36a0a000000000000000000000000000000000000000000000000000000008152600481018290526024015b60405180910390fd5b600585111561076a576040517f97e36a0a00000000000000000000000000000000000000000000000000000000815260048101869052602401610723565b60005b865181101561084657600087828151811061078a5761078a61148d565b60200260200101519050806000036107ce576040517fbf1ac38300000000000000000000000000000000000000000000000000000000815260040160405180910390fd5b6020811115610809576040517f2392baa400000000000000000000000000000000000000000000000000000000815260040160405180910390fd5b80840193506008826004601f03030288838151811061082a5761082a61148d565b6020026020010151901b8517945081806001019250505061076d565b50600861085560026020611698565b61085f91906116af565b82901b92909217916008600161087760026020611698565b6108819190611698565b61088b91906116af565b8651901b929092179160086001806108a560026020611698565b6108af9190611698565b6108b99190611698565b6108c391906116af565b9490941b91909117949350505050565b60606108de82610b5c565b8360ff1610156108fb576108f485858585610b8e565b90506105fc565b6108f485858585610bd6565b7fd01f9f1368f831528fc9fe6442366b2b7d957fbfff3bcf7c24d9ab5fe51f8c468585858560405161093c94939291906116ce565b60405180910390a1600061094f86610c31565b905060005b8151811015610a4d5760008282815181106109715761097161148d565b602002602001015190506109ba6002600581111561099157610991611702565b7fffffffffffffffffffffffffffffffffffffffffff0000000000000000000000831690610d09565b15610a3a576040517fbf11b74e000000000000000000000000000000000000000000000000000000008152606082901c9063bf11b74e90610a07908b908b908b908b908b90600401611639565b600060405180830381600087803b158015610a2157600080fd5b505af1158015610a35573d6000803e3d6000fd5b505050505b5080610a4581611718565b915050610954565b50610a5782610b5c565b8460ff161015610a7357610a6e8686848787610d2a565b610a80565b610a808686848787610db5565b60005b8151811015610b53576000828281518110610aa057610aa061148d565b60200260200101519050610ac06003600581111561099157610991611702565b15610b40576040517f7da508a2000000000000000000000000000000000000000000000000000000008152606082901c90637da508a290610b0d908b908b908b908b908b90600401611639565b600060405180830381600087803b158015610b2757600080fd5b505af1158015610b3b573d6000803e3d6000fd5b505050505b5080610b4b81611718565b915050610a83565b50505050505050565b600060086001610b6e60026020611698565b610b789190611698565b610b8291906116af565b8260ff911c1692915050565b6060600060ff848116601b0360080284901c1690506000610baf8787610df4565b90506000610bbd8587610e4a565b9050610bca828483610e8d565b98975050505050505050565b60606000610be383610b5c565b610bed9085611732565b90506000610bfc878784610eb0565b90506000610c2383610c0e8a8a610f09565b9060ff166028026038011c64ffffffffff1690565b9050610bca82826000610e8d565b60408051600180825281830190925260609160009190602080830190803683370190505090508281600081518110610c6b57610c6b61148d565b602090810291909101810191909152604080517f6d756473746f7265000000000000000000000000000000000000000000000000818401527f53746f7265486f6f6b730000000000000000000000000000000000000000000060308201528151808203909301835281019052600090610cf290610ce7906114a3565b836000610311610f20565b90506105fc610d048260008451610f3b565b610fcb565b6000600160ff83161b610d1c8460581c90565b1660ff161515905092915050565b600060ff838116601b0360080285901c16905081518114610d845781516040517f521b3d33000000000000000000000000000000000000000000000000000000008152610723918391600401918252602082015260400190565b6000610d908787610df4565b90506000610d9e8686610e4a565b9050610dab828286610fe3565b5050505050505050565b6000610dc084610b5c565b610dca9084611732565b9050610dd98686838551610ff3565b6000610de6878784610eb0565b9050610b5381600085610fe3565b60007f86425bff6b57326c7859e89024fe4f238ca327a1ae4a230180dd2f0e88aaa7d98383604051602001610e2b93929190611755565b60408051601f1981840301815291905280516020909101209392505050565b600080805b8360ff16811015610e8557610e7160ff601b83900360080287901c1683611680565b915080610e7d81611718565b915050610e4f565b509392505050565b60405160208101601f19603f8584010116604052838252610e8585858584611022565b60007f86425bff6b57326c7859e89024fe4f238ca327a1ae4a230180dd2f0e88aaa7d9848484604051602001610ee9949392919061177d565b60408051601f198184030181529190528051602090910120949350505050565b600080610f1684846110d8565b90506105fc815490565b6040805160008082526020820190925261051a8160016106d4565b6000818311158015610f4e575083518211155b610f8a578383836040517f23230fa3000000000000000000000000000000000000000000000000000000008152600401610723939291906117b0565b60208401610f988482611680565b90506000610fa68585611698565b6fffffffffffffffffffffffffffffffff1660809290921b9190911795945050505050565b60606000610fdc836015600061110f565b9392505050565b6101ef8383602084018451611221565b6000610fff85856110d8565b9050600061100b825490565b90506110188185856112e1565b80835590506106cc565b8115611094576020821061104c57602082048401935060208281611048576110486117d5565b0691505b81156110945760208290036000600019600883021c1990508554600885021b8119845116828216178452508185116110855750506110d2565b50600194909401939283900392015b5b602083106110b65783548152600190930192601f1990920191602001611095565b82156110d25780518454600019600886021c9182169119161781525b50505050565b60007f86425bff6b57326c7859e89024fe4f238ca327a1ae4a230180dd2f0e88aaa7d98383604051602001610e2b939291906117eb565b6060600061111d8560801c90565b90506fffffffffffffffffffffffffffffffff85166000858281611143576111436117d5565b049050611150868361184b565b156111dd576040517f08c379a000000000000000000000000000000000000000000000000000000000815260206004820152603d60248201527f756e7061636b546f41727261793a207061636b65644c656e677468206d75737460448201527f2062652061206d756c7469706c65206f6620656c656d656e7453697a650000006064820152608401610723565b60405193506020840160208202810160405281855260005b82811015611215578451871c8252938701936020909101906001016111f5565b50505050509392505050565b821561129b576020831061124b57602083048401935060208381611247576112476117d5565b0692505b821561129b5760208390036000600019600884021c1990506008850281811c91508451811c905081198754168282161787555081831161128c5750506110d2565b50600194909401939182019190035b5b602081106112bd5781518455600190930192602090910190601f190161129c565b80156110d2576000600019600883021c198554845182169119161785555050505050565b600064ffffffffff821115611325576040517f4767058800000000000000000000000000000000000000000000000000000000815260048101839052602401610723565b8366ffffffffffffff811660ff851660280260380182901c64ffffffffff16808510611357578085038201915061135f565b848103820391505b5064ffffffffff6038602860ff8816020190811b80197fffffffffffffffffffffffffffffffffffffffffffffffffff0000000000000094909416909217929092169184901b161790509392505050565b6000602082840312156113c257600080fd5b81357fffffffff0000000000000000000000000000000000000000000000000000000081168114610fdc57600080fd5b803563ffffffff811681146104c457600080fd5b6000806040838503121561141957600080fd5b611422836113f2565b9150611430602084016113f2565b90509250929050565b634e487b7160e01b600052601160045260246000fd5b600063ffffffff80831681851680830382111561146e5761146e611439565b01949350505050565b634e487b7160e01b600052604160045260246000fd5b634e487b7160e01b600052603260045260246000fd5b805160208083015191908110156114c4576000198160200360031b1b821691505b50919050565b600081518084526020808501945080840160005b838110156114fa578151875295820195908201906001016114de565b509495945050505050565b84815260806020820152600061151e60808301866114ca565b60ff949094166040830152506060015292915050565b60005b8381101561154f578181015183820152602001611537565b838111156110d25750506000910152565b60006020828403121561157257600080fd5b815167ffffffffffffffff8082111561158a57600080fd5b818401915084601f83011261159e57600080fd5b8151818111156115b0576115b0611477565b604051601f8201601f19908116603f011681019083821181831017156115d8576115d8611477565b816040528281528760208487010111156115f157600080fd5b611602836020830160208801611534565b979650505050505050565b60008151808452611625816020860160208601611534565b601f01601f19169290920160200192915050565b85815260a06020820152600061165260a08301876114ca565b60ff86166040840152828103606084015261166d818661160d565b9150508260808301529695505050505050565b6000821982111561169357611693611439565b500190565b6000828210156116aa576116aa611439565b500390565b60008160001904831182151516156116c9576116c9611439565b500290565b8481526080602082015260006116e760808301866114ca565b60ff851660408401528281036060840152611602818561160d565b634e487b7160e01b600052602160045260246000fd5b6000600019820361172b5761172b611439565b5060010190565b600060ff821660ff84168082101561174c5761174c611439565b90039392505050565b83815282602082015260606040820152600061177460608301846114ca565b95945050505050565b84815283602082015260806040820152600061179c60808301856114ca565b905060ff8316606083015295945050505050565b6060815260006117c3606083018661160d565b60208301949094525060400152919050565b634e487b7160e01b600052601260045260246000fd5b83815282602082015260806040820152600061180a60808301846114ca565b8281036060840152600681527f6c656e6774680000000000000000000000000000000000000000000000000000602082015260408101915050949350505050565b60008261186857634e487b7160e01b600052601260045260246000fd5b50069056fea26469706673582212205cc658a65e02f0d2e33aae37e355950a846e3be482232d779410ec9d4b56369264736f6c634300080d0033",
    "linkReferences": {}
  },
  "methodIdentifiers": {
    "_msgSender()": "119df25f",
    "_msgValue()": "45ec9354",
    "_world()": "e1af802c",
    "pickUp(uint32,uint32)": "11f348f7",
    "supportsInterface(bytes4)": "01ffc9a7"
  },
  "id": 101
}