{
  "abi": [
    {
      "anonymous": false,
      "inputs": [
        {
          "indexed": true,
          "internalType": "uint256",
          "name": "componentId",
          "type": "uint256"
        },
        {
          "indexed": false,
          "internalType": "address",
          "name": "component",
          "type": "address"
        }
      ],
      "name": "ComponentRegistered",
      "type": "event"
    },
    {
      "anonymous": false,
      "inputs": [
        {
          "indexed": true,
          "internalType": "uint256",
          "name": "componentId",
          "type": "uint256"
        },
        {
          "indexed": true,
          "internalType": "address",
          "name": "component",
          "type": "address"
        },
        {
          "indexed": true,
          "internalType": "uint256",
          "name": "entity",
          "type": "uint256"
        }
      ],
      "name": "ComponentValueRemoved",
      "type": "event"
    },
    {
      "anonymous": false,
      "inputs": [
        {
          "indexed": true,
          "internalType": "uint256",
          "name": "componentId",
          "type": "uint256"
        },
        {
          "indexed": true,
          "internalType": "address",
          "name": "component",
          "type": "address"
        },
        {
          "indexed": true,
          "internalType": "uint256",
          "name": "entity",
          "type": "uint256"
        },
        {
          "indexed": false,
          "internalType": "bytes",
          "name": "data",
          "type": "bytes"
        }
      ],
      "name": "ComponentValueSet",
      "type": "event"
    },
    {
      "inputs": [
        {
          "internalType": "uint256",
          "name": "id",
          "type": "uint256"
        }
      ],
      "name": "getComponent",
      "outputs": [
        {
          "internalType": "address",
          "name": "",
          "type": "address"
        }
      ],
      "stateMutability": "view",
      "type": "function"
    },
    {
      "inputs": [
        {
          "internalType": "address",
          "name": "componentAddr",
          "type": "address"
        }
      ],
      "name": "getComponentIdFromAddress",
      "outputs": [
        {
          "internalType": "uint256",
          "name": "",
          "type": "uint256"
        }
      ],
      "stateMutability": "view",
      "type": "function"
    },
    {
      "inputs": [],
      "name": "getNumEntities",
      "outputs": [
        {
          "internalType": "uint256",
          "name": "",
          "type": "uint256"
        }
      ],
      "stateMutability": "view",
      "type": "function"
    },
    {
      "inputs": [],
      "name": "getUniqueEntityId",
      "outputs": [
        {
          "internalType": "uint256",
          "name": "",
          "type": "uint256"
        }
      ],
      "stateMutability": "view",
      "type": "function"
    },
    {
      "inputs": [
        {
          "internalType": "uint256",
          "name": "entity",
          "type": "uint256"
        }
      ],
      "name": "hasEntity",
      "outputs": [
        {
          "internalType": "bool",
          "name": "",
          "type": "bool"
        }
      ],
      "stateMutability": "view",
      "type": "function"
    },
    {
      "inputs": [
        {
          "components": [
            {
              "internalType": "enum QueryType",
              "name": "queryType",
              "type": "uint8"
            },
            {
              "internalType": "uint256",
              "name": "componentId",
              "type": "uint256"
            },
            {
              "internalType": "bytes",
              "name": "value",
              "type": "bytes"
            }
          ],
          "internalType": "struct WorldQueryFragment[]",
          "name": "worldQueryFragments",
          "type": "tuple[]"
        }
      ],
      "name": "query",
      "outputs": [
        {
          "internalType": "uint256[]",
          "name": "",
          "type": "uint256[]"
        }
      ],
      "stateMutability": "view",
      "type": "function"
    },
    {
      "inputs": [
        {
          "internalType": "address",
          "name": "componentAddr",
          "type": "address"
        },
        {
          "internalType": "uint256",
          "name": "id",
          "type": "uint256"
        }
      ],
      "name": "registerComponent",
      "outputs": [],
      "stateMutability": "nonpayable",
      "type": "function"
    },
    {
      "inputs": [
        {
          "internalType": "address",
          "name": "component",
          "type": "address"
        },
        {
          "internalType": "uint256",
          "name": "entity",
          "type": "uint256"
        }
      ],
      "name": "registerComponentValueRemoved",
      "outputs": [],
      "stateMutability": "nonpayable",
      "type": "function"
    },
    {
      "inputs": [
        {
          "internalType": "address",
          "name": "component",
          "type": "address"
        },
        {
          "internalType": "uint256",
          "name": "entity",
          "type": "uint256"
        },
        {
          "internalType": "bytes",
          "name": "data",
          "type": "bytes"
        }
      ],
      "name": "registerComponentValueSet",
      "outputs": [],
      "stateMutability": "nonpayable",
      "type": "function"
    }
  ],
  "bytecode": {
    "object": "0x60806040526040516100109061005f565b604051809103906000f08015801561002c573d6000803e3d6000fd5b50600080546001600160a01b0319166001600160a01b039290921691909117905534801561005957600080fd5b5061006c565b6104388061124883390190565b6111cd8061007b6000396000f3fe608060405234801561001057600080fd5b50600436106100a35760003560e01c8063af104e4011610076578063d803064a1161005b578063d803064a1461014b578063e3d128751461015e578063f30347701461018157600080fd5b8063af104e401461012e578063d7ecf62b1461014357600080fd5b80634f27da18146100a8578063614bfa6e146100e5578063687485a6146100fb5780639f54f5451461011b575b600080fd5b6100bb6100b6366004610b67565b610194565b60405173ffffffffffffffffffffffffffffffffffffffff90911681526020015b60405180910390f35b6100ed61024d565b6040519081526020016100dc565b61010e610109366004610b80565b6102ab565b6040516100dc9190610bf5565b6100ed610129366004610c62565b610517565b61014161013c366004610c84565b6105ce565b005b6100ed61074b565b610141610159366004610d0b565b6107e2565b61017161016c366004610b67565b6108c5565b60405190151581526020016100dc565b61014161018f366004610d0b565b61095f565b60008181526001602052604081205473ffffffffffffffffffffffffffffffffffffffff16610224576040517f08c379a000000000000000000000000000000000000000000000000000000000815260206004820181905260248201527f436f6d706f6e656e74206861736e2774206265656e207265676973746572656460448201526064015b60405180910390fd5b5060009081526001602052604090205473ffffffffffffffffffffffffffffffffffffffff1690565b60008061025861074b565b905060005b8161026781610d35565b9250508160405160200161027d91815260200190565b6040516020818303038152906040528051906020012060001c90506102a1816108c5565b61025d5792915050565b606060008267ffffffffffffffff8111156102c8576102c8610d94565b60405190808252806020026020018201604052801561031557816020015b604080516060808201835260008083526020830152918101919091528152602001906001900390816102e65790505b50905060005b8381101561045b57604051806060016040528086868481811061034057610340610dc3565b90506020028101906103529190610df2565b610360906020810190610e30565b600581111561037157610371610e51565b81526020016103a687878581811061038b5761038b610dc3565b905060200281019061039d9190610df2565b60200135610194565b73ffffffffffffffffffffffffffffffffffffffff1681526020018686848181106103d3576103d3610dc3565b90506020028101906103e59190610df2565b6103f3906040810190610e80565b8080601f0160208091040260200160405190810160405280939291908181526020018383808284376000920191909152505050915250825183908390811061043d5761043d610dc3565b6020026020010181905250808061045390610d35565b91505061031b565b506040517f457b7a7900000000000000000000000000000000000000000000000000000000815273__$96d3fe3762a14251540cffb30093f65dae$__9063457b7a79906104ac908490600401610eec565b600060405180830381865af41580156104c9573d6000803e3d6000fd5b505050506040513d6000823e601f3d9081017fffffffffffffffffffffffffffffffffffffffffffffffffffffffffffffffe016820160405261050f9190810190611033565b949350505050565b73ffffffffffffffffffffffffffffffffffffffff811660009081526002602052604081205481036105a5576040517f08c379a000000000000000000000000000000000000000000000000000000000815260206004820181905260248201527f436f6d706f6e656e74206861736e2774206265656e2072656769737465726564604482015260640161021b565b5073ffffffffffffffffffffffffffffffffffffffff1660009081526002602052604090205490565b73ffffffffffffffffffffffffffffffffffffffff841660009081526002602052604081205485910361065d576040517f08c379a000000000000000000000000000000000000000000000000000000000815260206004820181905260248201527f436f6d706f6e656e74206861736e2774206265656e2072656769737465726564604482015260640161021b565b6000546040517f1003e2d20000000000000000000000000000000000000000000000000000000081526004810186905273ffffffffffffffffffffffffffffffffffffffff90911690631003e2d290602401600060405180830381600087803b1580156106c957600080fd5b505af11580156106dd573d6000803e3d6000fd5b50505073ffffffffffffffffffffffffffffffffffffffff8616600081815260026020526040908190205490518793507f6ac31c38682e0128240cf68316d7ae751020d8f74c614e2a30278afcec8a60739061073c908890889061110f565b60405180910390a45050505050565b60008060009054906101000a900473ffffffffffffffffffffffffffffffffffffffff1673ffffffffffffffffffffffffffffffffffffffff1663949d225d6040518163ffffffff1660e01b8152600401602060405180830381865afa1580156107b9573d6000803e3d6000fd5b505050506040513d601f19601f820116820180604052508101906107dd919061115c565b905090565b73ffffffffffffffffffffffffffffffffffffffff8216600090815260026020526040812054839103610871576040517f08c379a000000000000000000000000000000000000000000000000000000000815260206004820181905260248201527f436f6d706f6e656e74206861736e2774206265656e2072656769737465726564604482015260640161021b565b73ffffffffffffffffffffffffffffffffffffffff83166000818152600260205260408082205490518593927f6dd56823030ae6d8ae09cbfb8972c4e9494e67b209c4ab6300c21d73e269b35091a4505050565b600080546040517fcccf7a8e0000000000000000000000000000000000000000000000000000000081526004810184905273ffffffffffffffffffffffffffffffffffffffff9091169063cccf7a8e90602401602060405180830381865afa158015610935573d6000803e3d6000fd5b505050506040513d601f19601f820116820180604052508101906109599190611175565b92915050565b806000036109c9576040517f08c379a000000000000000000000000000000000000000000000000000000000815260206004820152600a60248201527f496e76616c696420494400000000000000000000000000000000000000000000604482015260640161021b565b73ffffffffffffffffffffffffffffffffffffffff8216610a46576040517f08c379a000000000000000000000000000000000000000000000000000000000815260206004820152601960248201527f496e76616c696420636f6d706f6e656e74206164647265737300000000000000604482015260640161021b565b60008181526001602052604090205473ffffffffffffffffffffffffffffffffffffffff1615610ad2576040517f08c379a000000000000000000000000000000000000000000000000000000000815260206004820152601560248201527f494420616c726561647920726567697374657265640000000000000000000000604482015260640161021b565b600081815260016020908152604080832080547fffffffffffffffffffffffff00000000000000000000000000000000000000001673ffffffffffffffffffffffffffffffffffffffff871690811790915580845260028352928190208490555191825282917fe065b93b78fd9ec871610269cc875e4f300f3cf0ed219355a75c09ffdc72c185910160405180910390a25050565b600060208284031215610b7957600080fd5b5035919050565b60008060208385031215610b9357600080fd5b823567ffffffffffffffff80821115610bab57600080fd5b818501915085601f830112610bbf57600080fd5b813581811115610bce57600080fd5b8660208260051b8501011115610be357600080fd5b60209290920196919550909350505050565b6020808252825182820181905260009190848201906040850190845b81811015610c2d57835183529284019291840191600101610c11565b50909695505050505050565b803573ffffffffffffffffffffffffffffffffffffffff81168114610c5d57600080fd5b919050565b600060208284031215610c7457600080fd5b610c7d82610c39565b9392505050565b60008060008060608587031215610c9a57600080fd5b610ca385610c39565b935060208501359250604085013567ffffffffffffffff80821115610cc757600080fd5b818701915087601f830112610cdb57600080fd5b813581811115610cea57600080fd5b886020828501011115610cfc57600080fd5b95989497505060200194505050565b60008060408385031215610d1e57600080fd5b610d2783610c39565b946020939093013593505050565b60007fffffffffffffffffffffffffffffffffffffffffffffffffffffffffffffffff8203610d8d577f4e487b7100000000000000000000000000000000000000000000000000000000600052601160045260246000fd5b5060010190565b7f4e487b7100000000000000000000000000000000000000000000000000000000600052604160045260246000fd5b7f4e487b7100000000000000000000000000000000000000000000000000000000600052603260045260246000fd5b600082357fffffffffffffffffffffffffffffffffffffffffffffffffffffffffffffffa1833603018112610e2657600080fd5b9190910192915050565b600060208284031215610e4257600080fd5b813560068110610c7d57600080fd5b7f4e487b7100000000000000000000000000000000000000000000000000000000600052602160045260246000fd5b60008083357fffffffffffffffffffffffffffffffffffffffffffffffffffffffffffffffe1843603018112610eb557600080fd5b83018035915067ffffffffffffffff821115610ed057600080fd5b602001915036819003821315610ee557600080fd5b9250929050565b60006020808301818452808551808352604092508286019150828160051b87010184880160005b83811015611025577fffffffffffffffffffffffffffffffffffffffffffffffffffffffffffffffc089840301855281516060815160068110610f7f577f4e487b7100000000000000000000000000000000000000000000000000000000600052602160045260246000fd5b85528189015173ffffffffffffffffffffffffffffffffffffffff1689860152908701518785018290528051918501829052906000905b80821015610fd4578282018a01518683016080015290890190610fb6565b80821115610fe6576000608082880101525b96890196601f017fffffffffffffffffffffffffffffffffffffffffffffffffffffffffffffffe0169490940160800193505090860190600101610f13565b509098975050505050505050565b6000602080838503121561104657600080fd5b825167ffffffffffffffff8082111561105e57600080fd5b818501915085601f83011261107257600080fd5b81518181111561108457611084610d94565b8060051b6040517fffffffffffffffffffffffffffffffffffffffffffffffffffffffffffffffe0603f830116810181811085821117156110c7576110c7610d94565b6040529182528482019250838101850191888311156110e557600080fd5b938501935b82851015611103578451845293850193928501926110ea565b98975050505050505050565b60208152816020820152818360408301376000818301604090810191909152601f9092017fffffffffffffffffffffffffffffffffffffffffffffffffffffffffffffffe0160101919050565b60006020828403121561116e57600080fd5b5051919050565b60006020828403121561118757600080fd5b81518015158114610c7d57600080fdfea2646970667358221220b0d0c942e9f69484b868111508c931eaa8c56c10f2ecec9f70cc6121087590b564736f6c634300080d0033608060405234801561001057600080fd5b50610418806100206000396000f3fe608060405234801561001057600080fd5b50600436106100675760003560e01c80634cc82215116100505780634cc822151461009f578063949d225d146100b2578063cccf7a8e146100c357600080fd5b80631003e2d21461006c578063410d59cc14610081575b600080fd5b61007f61007a3660046102e9565b6100e6565b005b610089610138565b6040516100969190610302565b60405180910390f35b61007f6100ad3660046102e9565b610190565b600054604051908152602001610096565b6100d66100d13660046102e9565b610286565b6040519015158152602001610096565b6100ef81610286565b156100f75750565b600080548282526001602081905260408320829055810182559080527f290decd9548b62a8d60345a988386fc84ba6bc95484008f6362f93160ef3e5630155565b6060600080548060200260200160405190810160405280929190818152602001828054801561018657602002820191906000526020600020905b815481526020019060010190808311610172575b5050505050905090565b61019981610286565b6101a05750565b600080546101b090600190610346565b815481106101c0576101c0610384565b906000526020600020015460006001600084815260200190815260200160002054815481106101f1576101f1610384565b6000918252602080832090910192909255828152600191829052604081205481549092919081908490811061022857610228610384565b90600052602060002001548152602001908152602001600020819055506001600082815260200190815260200160002060009055600080548061026d5761026d6103b3565b6001900381819060005260206000200160009055905550565b60008054810361029857506000919050565b60008281526001602052604081205490036102d45781600080815481106102c1576102c1610384565b9060005260206000200154149050919050565b50600090815260016020526040902054151590565b6000602082840312156102fb57600080fd5b5035919050565b6020808252825182820181905260009190848201906040850190845b8181101561033a5783518352928401929184019160010161031e565b50909695505050505050565b60008282101561037f577f4e487b7100000000000000000000000000000000000000000000000000000000600052601160045260246000fd5b500390565b7f4e487b7100000000000000000000000000000000000000000000000000000000600052603260045260246000fd5b7f4e487b7100000000000000000000000000000000000000000000000000000000600052603160045260246000fdfea26469706673582212209505bff9fccfb3d4940844a39733b26e7f917be814d0f917ae872d631732899464736f6c634300080d0033",
    "linkReferences": {
      "/Users/kooshaba/workspace/mud/packages/solecs/src/LibQuery.sol": {
        "LibQuery": [
          {
            "start": 1279,
            "length": 20
          }
        ]
      }
    }
  },
  "methodIdentifiers": {
    "getComponent(uint256)": "4f27da18",
    "getComponentIdFromAddress(address)": "9f54f545",
    "getNumEntities()": "d7ecf62b",
    "getUniqueEntityId()": "614bfa6e",
    "hasEntity(uint256)": "e3d12875",
    "query((uint8,uint256,bytes)[])": "687485a6",
    "registerComponent(address,uint256)": "f3034770",
    "registerComponentValueRemoved(address,uint256)": "d803064a",
    "registerComponentValueSet(address,uint256,bytes)": "af104e40"
  },
  "id": 21
}