{
  "abi": [
    {
      "anonymous": false,
      "inputs": [
        {
          "indexed": true,
          "internalType": "uint256",
          "name": "componentId",
          "type": "uint256"
        },
        {
          "indexed": false,
          "internalType": "address",
          "name": "component",
          "type": "address"
        }
      ],
      "name": "ComponentRegistered",
      "type": "event"
    },
    {
      "anonymous": false,
      "inputs": [
        {
          "indexed": true,
          "internalType": "uint256",
          "name": "componentId",
          "type": "uint256"
        },
        {
          "indexed": true,
          "internalType": "address",
          "name": "component",
          "type": "address"
        },
        {
          "indexed": true,
          "internalType": "uint256",
          "name": "entity",
          "type": "uint256"
        }
      ],
      "name": "ComponentValueRemoved",
      "type": "event"
    },
    {
      "anonymous": false,
      "inputs": [
        {
          "indexed": true,
          "internalType": "uint256",
          "name": "componentId",
          "type": "uint256"
        },
        {
          "indexed": true,
          "internalType": "address",
          "name": "component",
          "type": "address"
        },
        {
          "indexed": true,
          "internalType": "uint256",
          "name": "entity",
          "type": "uint256"
        },
        {
          "indexed": false,
          "internalType": "bytes",
          "name": "data",
          "type": "bytes"
        }
      ],
      "name": "ComponentValueSet",
      "type": "event"
    },
    {
      "inputs": [
        {
          "internalType": "uint256",
          "name": "id",
          "type": "uint256"
        }
      ],
      "name": "getComponent",
      "outputs": [
        {
          "internalType": "address",
          "name": "",
          "type": "address"
        }
      ],
      "stateMutability": "view",
      "type": "function"
    },
    {
      "inputs": [
        {
          "internalType": "address",
          "name": "componentAddr",
          "type": "address"
        }
      ],
      "name": "getComponentIdFromAddress",
      "outputs": [
        {
          "internalType": "uint256",
          "name": "",
          "type": "uint256"
        }
      ],
      "stateMutability": "view",
      "type": "function"
    },
    {
      "inputs": [],
      "name": "getNumEntities",
      "outputs": [
        {
          "internalType": "uint256",
          "name": "",
          "type": "uint256"
        }
      ],
      "stateMutability": "view",
      "type": "function"
    },
    {
      "inputs": [
        {
          "internalType": "uint256",
          "name": "entity",
          "type": "uint256"
        }
      ],
      "name": "hasEntity",
      "outputs": [
        {
          "internalType": "bool",
          "name": "",
          "type": "bool"
        }
      ],
      "stateMutability": "view",
      "type": "function"
    },
    {
      "inputs": [
        {
          "components": [
            {
              "internalType": "enum QueryType",
              "name": "queryType",
              "type": "uint8"
            },
            {
              "internalType": "uint256",
              "name": "componentId",
              "type": "uint256"
            },
            {
              "internalType": "bytes",
              "name": "value",
              "type": "bytes"
            }
          ],
          "internalType": "struct WorldQueryFragment[]",
          "name": "worldQueryFragments",
          "type": "tuple[]"
        }
      ],
      "name": "query",
      "outputs": [
        {
          "internalType": "uint256[]",
          "name": "",
          "type": "uint256[]"
        }
      ],
      "stateMutability": "view",
      "type": "function"
    },
    {
      "inputs": [
        {
          "internalType": "address",
          "name": "componentAddr",
          "type": "address"
        },
        {
          "internalType": "uint256",
          "name": "id",
          "type": "uint256"
        }
      ],
      "name": "registerComponent",
      "outputs": [],
      "stateMutability": "nonpayable",
      "type": "function"
    },
    {
      "inputs": [
        {
          "internalType": "address",
          "name": "component",
          "type": "address"
        },
        {
          "internalType": "uint256",
          "name": "entity",
          "type": "uint256"
        }
      ],
      "name": "registerComponentValueRemoved",
      "outputs": [],
      "stateMutability": "nonpayable",
      "type": "function"
    },
    {
      "inputs": [
        {
          "internalType": "address",
          "name": "component",
          "type": "address"
        },
        {
          "internalType": "uint256",
          "name": "entity",
          "type": "uint256"
        },
        {
          "internalType": "bytes",
          "name": "data",
          "type": "bytes"
        }
      ],
      "name": "registerComponentValueSet",
      "outputs": [],
      "stateMutability": "nonpayable",
      "type": "function"
    }
  ],
  "bytecode": {
    "object": "0x60806040526040516100109061005f565b604051809103906000f08015801561002c573d6000803e3d6000fd5b50600080546001600160a01b0319166001600160a01b039290921691909117905534801561005957600080fd5b5061006c565b610438806111c783390190565b61114c8061007b6000396000f3fe608060405234801561001057600080fd5b50600436106100885760003560e01c8063d7ecf62b1161005b578063d7ecf62b14610120578063d803064a14610128578063e3d128751461013b578063f30347701461015e57600080fd5b80634f27da181461008d578063687485a6146100ca5780639f54f545146100ea578063af104e401461010b575b600080fd5b6100a061009b366004610ae6565b610171565b60405173ffffffffffffffffffffffffffffffffffffffff90911681526020015b60405180910390f35b6100dd6100d8366004610aff565b61022a565b6040516100c19190610b74565b6100fd6100f8366004610be1565b610496565b6040519081526020016100c1565b61011e610119366004610c03565b61054d565b005b6100fd6106ca565b61011e610136366004610c8a565b610761565b61014e610149366004610ae6565b610844565b60405190151581526020016100c1565b61011e61016c366004610c8a565b6108de565b60008181526001602052604081205473ffffffffffffffffffffffffffffffffffffffff16610201576040517f08c379a000000000000000000000000000000000000000000000000000000000815260206004820181905260248201527f436f6d706f6e656e74206861736e2774206265656e207265676973746572656460448201526064015b60405180910390fd5b5060009081526001602052604090205473ffffffffffffffffffffffffffffffffffffffff1690565b606060008267ffffffffffffffff81111561024757610247610cb4565b60405190808252806020026020018201604052801561029457816020015b604080516060808201835260008083526020830152918101919091528152602001906001900390816102655790505b50905060005b838110156103da5760405180606001604052808686848181106102bf576102bf610ce3565b90506020028101906102d19190610d12565b6102df906020810190610d50565b60058111156102f0576102f0610d71565b815260200161032587878581811061030a5761030a610ce3565b905060200281019061031c9190610d12565b60200135610171565b73ffffffffffffffffffffffffffffffffffffffff16815260200186868481811061035257610352610ce3565b90506020028101906103649190610d12565b610372906040810190610da0565b8080601f016020809104026020016040519081016040528093929190818152602001838380828437600092019190915250505091525082518390839081106103bc576103bc610ce3565b602002602001018190525080806103d290610e0c565b91505061029a565b506040517f457b7a7900000000000000000000000000000000000000000000000000000000815273__$0272e46e3ebf3311db9cfc61241a19d35a$__9063457b7a799061042b908490600401610e6b565b600060405180830381865af4158015610448573d6000803e3d6000fd5b505050506040513d6000823e601f3d9081017fffffffffffffffffffffffffffffffffffffffffffffffffffffffffffffffe016820160405261048e9190810190610fb2565b949350505050565b73ffffffffffffffffffffffffffffffffffffffff81166000908152600260205260408120548103610524576040517f08c379a000000000000000000000000000000000000000000000000000000000815260206004820181905260248201527f436f6d706f6e656e74206861736e2774206265656e207265676973746572656460448201526064016101f8565b5073ffffffffffffffffffffffffffffffffffffffff1660009081526002602052604090205490565b73ffffffffffffffffffffffffffffffffffffffff84166000908152600260205260408120548591036105dc576040517f08c379a000000000000000000000000000000000000000000000000000000000815260206004820181905260248201527f436f6d706f6e656e74206861736e2774206265656e207265676973746572656460448201526064016101f8565b6000546040517f1003e2d20000000000000000000000000000000000000000000000000000000081526004810186905273ffffffffffffffffffffffffffffffffffffffff90911690631003e2d290602401600060405180830381600087803b15801561064857600080fd5b505af115801561065c573d6000803e3d6000fd5b50505073ffffffffffffffffffffffffffffffffffffffff8616600081815260026020526040908190205490518793507f6ac31c38682e0128240cf68316d7ae751020d8f74c614e2a30278afcec8a6073906106bb908890889061108e565b60405180910390a45050505050565b60008060009054906101000a900473ffffffffffffffffffffffffffffffffffffffff1673ffffffffffffffffffffffffffffffffffffffff1663949d225d6040518163ffffffff1660e01b8152600401602060405180830381865afa158015610738573d6000803e3d6000fd5b505050506040513d601f19601f8201168201806040525081019061075c91906110db565b905090565b73ffffffffffffffffffffffffffffffffffffffff82166000908152600260205260408120548391036107f0576040517f08c379a000000000000000000000000000000000000000000000000000000000815260206004820181905260248201527f436f6d706f6e656e74206861736e2774206265656e207265676973746572656460448201526064016101f8565b73ffffffffffffffffffffffffffffffffffffffff83166000818152600260205260408082205490518593927f6dd56823030ae6d8ae09cbfb8972c4e9494e67b209c4ab6300c21d73e269b35091a4505050565b600080546040517fcccf7a8e0000000000000000000000000000000000000000000000000000000081526004810184905273ffffffffffffffffffffffffffffffffffffffff9091169063cccf7a8e90602401602060405180830381865afa1580156108b4573d6000803e3d6000fd5b505050506040513d601f19601f820116820180604052508101906108d891906110f4565b92915050565b80600003610948576040517f08c379a000000000000000000000000000000000000000000000000000000000815260206004820152600a60248201527f496e76616c69642049440000000000000000000000000000000000000000000060448201526064016101f8565b73ffffffffffffffffffffffffffffffffffffffff82166109c5576040517f08c379a000000000000000000000000000000000000000000000000000000000815260206004820152601960248201527f496e76616c696420636f6d706f6e656e7420616464726573730000000000000060448201526064016101f8565b60008181526001602052604090205473ffffffffffffffffffffffffffffffffffffffff1615610a51576040517f08c379a000000000000000000000000000000000000000000000000000000000815260206004820152601560248201527f494420616c72656164792072656769737465726564000000000000000000000060448201526064016101f8565b600081815260016020908152604080832080547fffffffffffffffffffffffff00000000000000000000000000000000000000001673ffffffffffffffffffffffffffffffffffffffff871690811790915580845260028352928190208490555191825282917fe065b93b78fd9ec871610269cc875e4f300f3cf0ed219355a75c09ffdc72c185910160405180910390a25050565b600060208284031215610af857600080fd5b5035919050565b60008060208385031215610b1257600080fd5b823567ffffffffffffffff80821115610b2a57600080fd5b818501915085601f830112610b3e57600080fd5b813581811115610b4d57600080fd5b8660208260051b8501011115610b6257600080fd5b60209290920196919550909350505050565b6020808252825182820181905260009190848201906040850190845b81811015610bac57835183529284019291840191600101610b90565b50909695505050505050565b803573ffffffffffffffffffffffffffffffffffffffff81168114610bdc57600080fd5b919050565b600060208284031215610bf357600080fd5b610bfc82610bb8565b9392505050565b60008060008060608587031215610c1957600080fd5b610c2285610bb8565b935060208501359250604085013567ffffffffffffffff80821115610c4657600080fd5b818701915087601f830112610c5a57600080fd5b813581811115610c6957600080fd5b886020828501011115610c7b57600080fd5b95989497505060200194505050565b60008060408385031215610c9d57600080fd5b610ca683610bb8565b946020939093013593505050565b7f4e487b7100000000000000000000000000000000000000000000000000000000600052604160045260246000fd5b7f4e487b7100000000000000000000000000000000000000000000000000000000600052603260045260246000fd5b600082357fffffffffffffffffffffffffffffffffffffffffffffffffffffffffffffffa1833603018112610d4657600080fd5b9190910192915050565b600060208284031215610d6257600080fd5b813560068110610bfc57600080fd5b7f4e487b7100000000000000000000000000000000000000000000000000000000600052602160045260246000fd5b60008083357fffffffffffffffffffffffffffffffffffffffffffffffffffffffffffffffe1843603018112610dd557600080fd5b83018035915067ffffffffffffffff821115610df057600080fd5b602001915036819003821315610e0557600080fd5b9250929050565b60007fffffffffffffffffffffffffffffffffffffffffffffffffffffffffffffffff8203610e64577f4e487b7100000000000000000000000000000000000000000000000000000000600052601160045260246000fd5b5060010190565b60006020808301818452808551808352604092508286019150828160051b87010184880160005b83811015610fa4577fffffffffffffffffffffffffffffffffffffffffffffffffffffffffffffffc089840301855281516060815160068110610efe577f4e487b7100000000000000000000000000000000000000000000000000000000600052602160045260246000fd5b85528189015173ffffffffffffffffffffffffffffffffffffffff1689860152908701518785018290528051918501829052906000905b80821015610f53578282018a01518683016080015290890190610f35565b80821115610f65576000608082880101525b96890196601f017fffffffffffffffffffffffffffffffffffffffffffffffffffffffffffffffe0169490940160800193505090860190600101610e92565b509098975050505050505050565b60006020808385031215610fc557600080fd5b825167ffffffffffffffff80821115610fdd57600080fd5b818501915085601f830112610ff157600080fd5b81518181111561100357611003610cb4565b8060051b6040517fffffffffffffffffffffffffffffffffffffffffffffffffffffffffffffffe0603f8301168101818110858211171561104657611046610cb4565b60405291825284820192508381018501918883111561106457600080fd5b938501935b8285101561108257845184529385019392850192611069565b98975050505050505050565b60208152816020820152818360408301376000818301604090810191909152601f9092017fffffffffffffffffffffffffffffffffffffffffffffffffffffffffffffffe0160101919050565b6000602082840312156110ed57600080fd5b5051919050565b60006020828403121561110657600080fd5b81518015158114610bfc57600080fdfea264697066735822122056ed6ea0f8b0d24f70086275cbe3e344bb52e2ef35a3e47faf1f8bbff7a212e164736f6c634300080d0033608060405234801561001057600080fd5b50610418806100206000396000f3fe608060405234801561001057600080fd5b50600436106100675760003560e01c80634cc82215116100505780634cc822151461009f578063949d225d146100b2578063cccf7a8e146100c357600080fd5b80631003e2d21461006c578063410d59cc14610081575b600080fd5b61007f61007a3660046102e9565b6100e6565b005b610089610138565b6040516100969190610302565b60405180910390f35b61007f6100ad3660046102e9565b610190565b600054604051908152602001610096565b6100d66100d13660046102e9565b610286565b6040519015158152602001610096565b6100ef81610286565b156100f75750565b600080548282526001602081905260408320829055810182559080527f290decd9548b62a8d60345a988386fc84ba6bc95484008f6362f93160ef3e5630155565b6060600080548060200260200160405190810160405280929190818152602001828054801561018657602002820191906000526020600020905b815481526020019060010190808311610172575b5050505050905090565b61019981610286565b6101a05750565b600080546101b090600190610346565b815481106101c0576101c0610384565b906000526020600020015460006001600084815260200190815260200160002054815481106101f1576101f1610384565b6000918252602080832090910192909255828152600191829052604081205481549092919081908490811061022857610228610384565b90600052602060002001548152602001908152602001600020819055506001600082815260200190815260200160002060009055600080548061026d5761026d6103b3565b6001900381819060005260206000200160009055905550565b60008054810361029857506000919050565b60008281526001602052604081205490036102d45781600080815481106102c1576102c1610384565b9060005260206000200154149050919050565b50600090815260016020526040902054151590565b6000602082840312156102fb57600080fd5b5035919050565b6020808252825182820181905260009190848201906040850190845b8181101561033a5783518352928401929184019160010161031e565b50909695505050505050565b60008282101561037f577f4e487b7100000000000000000000000000000000000000000000000000000000600052601160045260246000fd5b500390565b7f4e487b7100000000000000000000000000000000000000000000000000000000600052603260045260246000fd5b7f4e487b7100000000000000000000000000000000000000000000000000000000600052603160045260246000fdfea2646970667358221220c6547a864e605f3bc98b16e7ab886da11ec7c63c3613d68f8fdca0d18c269aea64736f6c634300080d0033",
    "linkReferences": {
      "/Users/flomllr/git/latticexyz/mud/packages/solecs/src/LibQuery.sol": {
        "LibQuery": [
          {
            "start": 1150,
            "length": 20
          }
        ]
      }
    }
  }
}