{
  "abi": [
    {
      "inputs": [
        {
          "internalType": "address",
          "name": "world",
          "type": "address"
        }
      ],
      "stateMutability": "nonpayable",
      "type": "constructor"
    },
    {
      "inputs": [],
      "name": "ID",
      "outputs": [
        {
          "internalType": "uint256",
          "name": "",
          "type": "uint256"
        }
      ],
      "stateMutability": "view",
      "type": "function"
    },
    {
      "inputs": [],
      "name": "getEntities",
      "outputs": [
        {
          "internalType": "uint256[]",
          "name": "",
          "type": "uint256[]"
        }
      ],
      "stateMutability": "view",
      "type": "function"
    },
    {
      "inputs": [
        {
          "internalType": "bytes",
          "name": "value",
          "type": "bytes"
        }
      ],
      "name": "getEntitiesWithValue",
      "outputs": [
        {
          "internalType": "uint256[]",
          "name": "",
          "type": "uint256[]"
        }
      ],
      "stateMutability": "view",
      "type": "function"
    },
    {
      "inputs": [
        {
          "internalType": "uint256",
          "name": "ownedByEntity",
          "type": "uint256"
        }
      ],
      "name": "getEntitiesWithValue",
      "outputs": [
        {
          "internalType": "uint256[]",
          "name": "",
          "type": "uint256[]"
        }
      ],
      "stateMutability": "view",
      "type": "function"
    },
    {
      "inputs": [],
      "name": "getID",
      "outputs": [
        {
          "internalType": "uint256",
          "name": "",
          "type": "uint256"
        }
      ],
      "stateMutability": "pure",
      "type": "function"
    },
    {
      "inputs": [
        {
          "internalType": "uint256",
          "name": "entity",
          "type": "uint256"
        }
      ],
      "name": "getRawValue",
      "outputs": [
        {
          "internalType": "bytes",
          "name": "",
          "type": "bytes"
        }
      ],
      "stateMutability": "view",
      "type": "function"
    },
    {
      "inputs": [
        {
          "internalType": "uint256",
          "name": "entity",
          "type": "uint256"
        }
      ],
      "name": "getValue",
      "outputs": [
        {
          "internalType": "uint256",
          "name": "",
          "type": "uint256"
        }
      ],
      "stateMutability": "view",
      "type": "function"
    },
    {
      "inputs": [
        {
          "internalType": "uint256",
          "name": "entity",
          "type": "uint256"
        }
      ],
      "name": "has",
      "outputs": [
        {
          "internalType": "bool",
          "name": "",
          "type": "bool"
        }
      ],
      "stateMutability": "view",
      "type": "function"
    },
    {
      "inputs": [],
      "name": "owner",
      "outputs": [
        {
          "internalType": "address",
          "name": "",
          "type": "address"
        }
      ],
      "stateMutability": "view",
      "type": "function"
    },
    {
      "inputs": [
        {
          "internalType": "address",
          "name": "indexer",
          "type": "address"
        }
      ],
      "name": "registerIndexer",
      "outputs": [],
      "stateMutability": "nonpayable",
      "type": "function"
    },
    {
      "inputs": [
        {
          "internalType": "uint256",
          "name": "entity",
          "type": "uint256"
        }
      ],
      "name": "remove",
      "outputs": [],
      "stateMutability": "nonpayable",
      "type": "function"
    },
    {
      "inputs": [
        {
          "internalType": "uint256",
          "name": "entity",
          "type": "uint256"
        },
        {
          "internalType": "uint256",
          "name": "ownedByEntity",
          "type": "uint256"
        }
      ],
      "name": "set",
      "outputs": [],
      "stateMutability": "nonpayable",
      "type": "function"
    },
    {
      "inputs": [
        {
          "internalType": "uint256",
          "name": "entity",
          "type": "uint256"
        },
        {
          "internalType": "bytes",
          "name": "value",
          "type": "bytes"
        }
      ],
      "name": "set",
      "outputs": [],
      "stateMutability": "nonpayable",
      "type": "function"
    },
    {
      "inputs": [
        {
          "internalType": "address",
          "name": "newOwner",
          "type": "address"
        }
      ],
      "name": "transferOwnership",
      "outputs": [],
      "stateMutability": "nonpayable",
      "type": "function"
    },
    {
      "inputs": [],
      "name": "world",
      "outputs": [
        {
          "internalType": "address",
          "name": "",
          "type": "address"
        }
      ],
      "stateMutability": "view",
      "type": "function"
    }
  ],
  "bytecode": {
    "object": "0x60806040523480156200001157600080fd5b5060405162002385380380620023858339810160408190526200003491620001a9565b600080546001600160a01b0319166001600160a01b038316908117909155819063f303477030620000827f4b95fbd236a1fa6ad10fef60388c1eb8b1c2aa31fe656afd587dbf6821e94efb90565b6040516001600160e01b031960e085901b1681526001600160a01b0390921660048301526024820152604401600060405180830381600087803b158015620000c957600080fd5b505af1158015620000de573d6000803e3d6000fd5b50505050604051620000f0906200018d565b604051809103906000f0801580156200010d573d6000803e3d6000fd5b50600280546001600160a01b0319166001600160a01b03929092169190911790556040516200013c906200019b565b604051809103906000f08015801562000159573d6000803e3d6000fd5b50600380546001600160a01b03929092166001600160a01b0319928316179055600180549091163317905550620001db9050565b6104388062001a6383390190565b6104ea8062001e9b83390190565b600060208284031215620001bc57600080fd5b81516001600160a01b0381168114620001d457600080fd5b9392505050565b61187880620001eb6000396000f3fe608060405234801561001057600080fd5b50600436106100f55760003560e01c80638da5cb5b11610097578063b8bc073d11610066578063b8bc073d14610248578063cccf7a8e14610268578063f2fde38b1461028b578063fbdfa1ea1461029e57600080fd5b80638da5cb5b146101c8578063ab9dbd07146101e8578063b361be461461020e578063b3cea2171461022157600080fd5b806331b933b9116100d357806331b933b91461017a5780634cc822151461018f57806375c0669c146101a25780638b282947146101b557600080fd5b80630ff4c916146100fa5780631ab06ee51461012057806330b67baa14610135575b600080fd5b61010d610108366004611269565b6102b1565b6040519081526020015b60405180910390f35b61013361012e366004611282565b6102d5565b005b6000546101559073ffffffffffffffffffffffffffffffffffffffff1681565b60405173ffffffffffffffffffffffffffffffffffffffff9091168152602001610117565b610182610304565b60405161011791906112a4565b61013361019d366004611269565b6103bf565b6101336101b03660046112e8565b61079d565b6101336101c336600461142a565b610925565b6001546101559073ffffffffffffffffffffffffffffffffffffffff1681565b7f4b95fbd236a1fa6ad10fef60388c1eb8b1c2aa31fe656afd587dbf6821e94efb61010d565b61018261021c366004611471565b610ceb565b61010d7f4b95fbd236a1fa6ad10fef60388c1eb8b1c2aa31fe656afd587dbf6821e94efb81565b61025b610256366004611269565b610da9565b6040516101179190611528565b61027b610276366004611269565b610e4b565b6040519015158152602001610117565b6101336102993660046112e8565b610edf565b6101826102ac366004611269565b610fa7565b60006102bc82610da9565b8060200190518101906102cf919061153b565b92915050565b61030082826040516020016102ec91815260200190565b604051602081830303815290604052610925565b5050565b600254604080517f410d59cc000000000000000000000000000000000000000000000000000000008152905160609273ffffffffffffffffffffffffffffffffffffffff169163410d59cc9160048083019260009291908290030181865afa158015610374573d6000803e3d6000fd5b505050506040513d6000823e601f3d9081017fffffffffffffffffffffffffffffffffffffffffffffffffffffffffffffffe01682016040526103ba9190810190611554565b905090565b60015473ffffffffffffffffffffffffffffffffffffffff163314610445576040517f08c379a000000000000000000000000000000000000000000000000000000000815260206004820152601360248201527f4f4e4c595f434f4e54524143545f4f574e45520000000000000000000000000060448201526064015b60405180910390fd5b60035460008281526004602052604090819020905173ffffffffffffffffffffffffffffffffffffffff909216916385edea13916104829161164d565b60405190819003812060e083901b7fffffffff000000000000000000000000000000000000000000000000000000001682526004820152602401602060405180830381865afa1580156104d9573d6000803e3d6000fd5b505050506040513d601f19601f820116820180604052508101906104fd919061153b565b1561079a5760035460008281526004602052604090819020905173ffffffffffffffffffffffffffffffffffffffff90921691636526db7a9161053f9161164d565b60405190819003812060e083901b7fffffffff00000000000000000000000000000000000000000000000000000000168252600482015260248101849052604401600060405180830381600087803b15801561059a57600080fd5b505af11580156105ae573d6000803e3d6000fd5b50506002546040517f4cc822150000000000000000000000000000000000000000000000000000000081526004810185905273ffffffffffffffffffffffffffffffffffffffff9091169250634cc822159150602401600060405180830381600087803b15801561061e57600080fd5b505af1158015610632573d6000803e3d6000fd5b505050600082815260046020526040812061064e925090611196565b60005b60055481101561070e576005818154811061066e5761066e61171f565b6000918252602090912001546040517f4cc822150000000000000000000000000000000000000000000000000000000081526004810184905273ffffffffffffffffffffffffffffffffffffffff90911690634cc8221590602401600060405180830381600087803b1580156106e357600080fd5b505af11580156106f7573d6000803e3d6000fd5b5050505080806107069061174e565b915050610651565b506000546040517fd803064a0000000000000000000000000000000000000000000000000000000081523060048201526024810183905273ffffffffffffffffffffffffffffffffffffffff9091169063d803064a90604401600060405180830381600087803b15801561078157600080fd5b505af1158015610795573d6000803e3d6000fd5b505050505b50565b60015473ffffffffffffffffffffffffffffffffffffffff16331461081e576040517f08c379a000000000000000000000000000000000000000000000000000000000815260206004820152601360248201527f4f4e4c595f434f4e54524143545f4f574e455200000000000000000000000000604482015260640161043c565b610848817f4ede9a2d00000000000000000000000000000000000000000000000000000000610fd3565b6108ae576040517f08c379a000000000000000000000000000000000000000000000000000000000815260206004820181905260248201527f476976656e2061646472657373206973206e6f7420616e20696e64657865722e604482015260640161043c565b600580546001810182556000919091527f036b6384b5eca791c62761152d0c79bb0604c104a5fb6f4eb0703f3154bb3db00180547fffffffffffffffffffffffff00000000000000000000000000000000000000001673ffffffffffffffffffffffffffffffffffffffff92909216919091179055565b60015473ffffffffffffffffffffffffffffffffffffffff1633146109a6576040517f08c379a000000000000000000000000000000000000000000000000000000000815260206004820152601360248201527f4f4e4c595f434f4e54524143545f4f574e455200000000000000000000000000604482015260640161043c565b6002546040517f1003e2d20000000000000000000000000000000000000000000000000000000081526004810184905273ffffffffffffffffffffffffffffffffffffffff90911690631003e2d290602401600060405180830381600087803b158015610a1257600080fd5b505af1158015610a26573d6000803e3d6000fd5b505060035460008581526004602052604090819020905173ffffffffffffffffffffffffffffffffffffffff9092169350636526db7a9250610a679161164d565b60405190819003812060e083901b7fffffffff00000000000000000000000000000000000000000000000000000000168252600482015260248101859052604401600060405180830381600087803b158015610ac257600080fd5b505af1158015610ad6573d6000803e3d6000fd5b50505060008381526004602090815260409091208351610afb935090918401906111d0565b50600354815160208301206040517f771602f700000000000000000000000000000000000000000000000000000000815273ffffffffffffffffffffffffffffffffffffffff9092169163771602f791610b62918690600401918252602082015260400190565b600060405180830381600087803b158015610b7c57600080fd5b505af1158015610b90573d6000803e3d6000fd5b5050505060005b600554811015610c5a5760058181548110610bb457610bb461171f565b6000918252602090912001546040517f0216b83800000000000000000000000000000000000000000000000000000000815273ffffffffffffffffffffffffffffffffffffffff90911690630216b83890610c1590869086906004016117ad565b600060405180830381600087803b158015610c2f57600080fd5b505af1158015610c43573d6000803e3d6000fd5b505050508080610c529061174e565b915050610b97565b506000546040517faf104e4000000000000000000000000000000000000000000000000000000000815273ffffffffffffffffffffffffffffffffffffffff9091169063af104e4090610cb5903090869086906004016117c6565b600060405180830381600087803b158015610ccf57600080fd5b505af1158015610ce3573d6000803e3d6000fd5b505050505050565b600354815160208301206040517f796c5e94000000000000000000000000000000000000000000000000000000008152600481019190915260609173ffffffffffffffffffffffffffffffffffffffff169063796c5e9490602401600060405180830381865afa158015610d63573d6000803e3d6000fd5b505050506040513d6000823e601f3d9081017fffffffffffffffffffffffffffffffffffffffffffffffffffffffffffffffe01682016040526102cf9190810190611554565b6000818152600460205260409020805460609190610dc6906115fa565b80601f0160208091040260200160405190810160405280929190818152602001828054610df2906115fa565b8015610e3f5780601f10610e1457610100808354040283529160200191610e3f565b820191906000526020600020905b815481529060010190602001808311610e2257829003601f168201915b50505050509050919050565b6002546040517fcccf7a8e0000000000000000000000000000000000000000000000000000000081526004810183905260009173ffffffffffffffffffffffffffffffffffffffff169063cccf7a8e90602401602060405180830381865afa158015610ebb573d6000803e3d6000fd5b505050506040513d601f19601f820116820180604052508101906102cf9190611804565b60015473ffffffffffffffffffffffffffffffffffffffff163314610f60576040517f08c379a000000000000000000000000000000000000000000000000000000000815260206004820152601360248201527f4f4e4c595f434f4e54524143545f4f574e455200000000000000000000000000604482015260640161043c565b600180547fffffffffffffffffffffffff00000000000000000000000000000000000000001673ffffffffffffffffffffffffffffffffffffffff92909216919091179055565b60606102cf82604051602001610fbf91815260200190565b604051602081830303815290604052610ceb565b6000610fde83610ff6565b8015610fef5750610fef838361105a565b9392505050565b6000611022827f01ffc9a70000000000000000000000000000000000000000000000000000000061105a565b80156102cf5750611053827fffffffff0000000000000000000000000000000000000000000000000000000061105a565b1592915050565b604080517fffffffff00000000000000000000000000000000000000000000000000000000831660248083019190915282518083039091018152604490910182526020810180517bffffffffffffffffffffffffffffffffffffffffffffffffffffffff167f01ffc9a7000000000000000000000000000000000000000000000000000000001790529051600091908290819073ffffffffffffffffffffffffffffffffffffffff87169061753090611114908690611826565b6000604051808303818686fa925050503d8060008114611150576040519150601f19603f3d011682016040523d82523d6000602084013e611155565b606091505b509150915060208151101561117057600093505050506102cf565b81801561118c57508080602001905181019061118c9190611804565b9695505050505050565b5080546111a2906115fa565b6000825580601f106111b2575050565b601f01602090049060005260206000209081019061079a9190611254565b8280546111dc906115fa565b90600052602060002090601f0160209004810192826111fe5760008555611244565b82601f1061121757805160ff1916838001178555611244565b82800160010185558215611244579182015b82811115611244578251825591602001919060010190611229565b50611250929150611254565b5090565b5b808211156112505760008155600101611255565b60006020828403121561127b57600080fd5b5035919050565b6000806040838503121561129557600080fd5b50508035926020909101359150565b6020808252825182820181905260009190848201906040850190845b818110156112dc578351835292840192918401916001016112c0565b50909695505050505050565b6000602082840312156112fa57600080fd5b813573ffffffffffffffffffffffffffffffffffffffff81168114610fef57600080fd5b7f4e487b7100000000000000000000000000000000000000000000000000000000600052604160045260246000fd5b604051601f82017fffffffffffffffffffffffffffffffffffffffffffffffffffffffffffffffe016810167ffffffffffffffff811182821017156113945761139461131e565b604052919050565b600082601f8301126113ad57600080fd5b813567ffffffffffffffff8111156113c7576113c761131e565b6113f860207fffffffffffffffffffffffffffffffffffffffffffffffffffffffffffffffe0601f8401160161134d565b81815284602083860101111561140d57600080fd5b816020850160208301376000918101602001919091529392505050565b6000806040838503121561143d57600080fd5b82359150602083013567ffffffffffffffff81111561145b57600080fd5b6114678582860161139c565b9150509250929050565b60006020828403121561148357600080fd5b813567ffffffffffffffff81111561149a57600080fd5b6114a68482850161139c565b949350505050565b60005b838110156114c95781810151838201526020016114b1565b838111156114d8576000848401525b50505050565b600081518084526114f68160208601602086016114ae565b601f017fffffffffffffffffffffffffffffffffffffffffffffffffffffffffffffffe0169290920160200192915050565b602081526000610fef60208301846114de565b60006020828403121561154d57600080fd5b5051919050565b6000602080838503121561156757600080fd5b825167ffffffffffffffff8082111561157f57600080fd5b818501915085601f83011261159357600080fd5b8151818111156115a5576115a561131e565b8060051b91506115b684830161134d565b81815291830184019184810190888411156115d057600080fd5b938501935b838510156115ee578451825293850193908501906115d5565b98975050505050505050565b600181811c9082168061160e57607f821691505b602082108103611647577f4e487b7100000000000000000000000000000000000000000000000000000000600052602260045260246000fd5b50919050565b600080835481600182811c91508083168061166957607f831692505b602080841082036116a1577f4e487b710000000000000000000000000000000000000000000000000000000086526022600452602486fd5b8180156116b557600181146116e457611711565b7fffffffffffffffffffffffffffffffffffffffffffffffffffffffffffffff00861689528489019650611711565b60008a81526020902060005b868110156117095781548b8201529085019083016116f0565b505084890196505b509498975050505050505050565b7f4e487b7100000000000000000000000000000000000000000000000000000000600052603260045260246000fd5b60007fffffffffffffffffffffffffffffffffffffffffffffffffffffffffffffffff82036117a6577f4e487b7100000000000000000000000000000000000000000000000000000000600052601160045260246000fd5b5060010190565b8281526040602082015260006114a660408301846114de565b73ffffffffffffffffffffffffffffffffffffffff841681528260208201526060604082015260006117fb60608301846114de565b95945050505050565b60006020828403121561181657600080fd5b81518015158114610fef57600080fd5b600082516118388184602087016114ae565b919091019291505056fea2646970667358221220b653a4ca542eecd52299819bb991b79bc51e679dca3cf75c7cc6ea5381fd22ea64736f6c634300080d0033608060405234801561001057600080fd5b50610418806100206000396000f3fe608060405234801561001057600080fd5b50600436106100675760003560e01c80634cc82215116100505780634cc822151461009f578063949d225d146100b2578063cccf7a8e146100c357600080fd5b80631003e2d21461006c578063410d59cc14610081575b600080fd5b61007f61007a3660046102e9565b6100e6565b005b610089610138565b6040516100969190610302565b60405180910390f35b61007f6100ad3660046102e9565b610190565b600054604051908152602001610096565b6100d66100d13660046102e9565b610286565b6040519015158152602001610096565b6100ef81610286565b156100f75750565b600080548282526001602081905260408320829055810182559080527f290decd9548b62a8d60345a988386fc84ba6bc95484008f6362f93160ef3e5630155565b6060600080548060200260200160405190810160405280929190818152602001828054801561018657602002820191906000526020600020905b815481526020019060010190808311610172575b5050505050905090565b61019981610286565b6101a05750565b600080546101b090600190610346565b815481106101c0576101c0610384565b906000526020600020015460006001600084815260200190815260200160002054815481106101f1576101f1610384565b6000918252602080832090910192909255828152600191829052604081205481549092919081908490811061022857610228610384565b90600052602060002001548152602001908152602001600020819055506001600082815260200190815260200160002060009055600080548061026d5761026d6103b3565b6001900381819060005260206000200160009055905550565b60008054810361029857506000919050565b60008281526001602052604081205490036102d45781600080815481106102c1576102c1610384565b9060005260206000200154149050919050565b50600090815260016020526040902054151590565b6000602082840312156102fb57600080fd5b5035919050565b6020808252825182820181905260009190848201906040850190845b8181101561033a5783518352928401929184019160010161031e565b50909695505050505050565b60008282101561037f577f4e487b7100000000000000000000000000000000000000000000000000000000600052601160045260246000fd5b500390565b7f4e487b7100000000000000000000000000000000000000000000000000000000600052603260045260246000fd5b7f4e487b7100000000000000000000000000000000000000000000000000000000600052603160045260246000fdfea26469706673582212209505bff9fccfb3d4940844a39733b26e7f917be814d0f917ae872d631732899464736f6c634300080d0033608060405234801561001057600080fd5b506104ca806100206000396000f3fe608060405234801561001057600080fd5b50600436106100675760003560e01c8063796c5e9411610050578063796c5e941461009457806385edea13146100bd578063a0265ff8146100eb57600080fd5b80636526db7a1461006c578063771602f714610081575b600080fd5b61007f61007a366004610379565b61010e565b005b61007f61008f366004610379565b61023d565b6100a76100a236600461039b565b610286565b6040516100b491906103b4565b60405180910390f35b6100dd6100cb36600461039b565b60009081526020819052604090205490565b6040519081526020016100b4565b6100fe6100f9366004610379565b6102e6565b60405190151581526020016100b4565b61011882826102e6565b610120575050565b6000828152602081905260409020805461013c906001906103f8565b8154811061014c5761014c610436565b6000918252602080832090910154848352828252604080842060018452818520868652909352909220548154811061018657610186610436565b6000918252602080832090910192909255838152600182526040808220848352808452818320548684528385529183208584529381905283549193909291849081106101d4576101d4610436565b6000918252602080832090910154835282810193909352604091820181209390935584835260018252808320848452825280832083905584835290829052902080548061022357610223610465565b600190038181906000526020600020016000905590555050565b61024782826102e6565b15610250575050565b60009182526020828152604080842080546001808552838720868852855292862081905585845291820181558452922090910155565b600081815260208181526040918290208054835181840281018401909452808452606093928301828280156102da57602002820191906000526020600020905b8154815260200190600101908083116102c6575b50505050509050919050565b600082815260208190526040812054810361030357506000610373565b60008381526001602090815260408083208584529091528120549003610355576000838152602081905260408120805484929061034257610342610436565b9060005260206000200154149050610373565b50600082815260016020908152604080832084845290915290205415155b92915050565b6000806040838503121561038c57600080fd5b50508035926020909101359150565b6000602082840312156103ad57600080fd5b5035919050565b6020808252825182820181905260009190848201906040850190845b818110156103ec578351835292840192918401916001016103d0565b50909695505050505050565b600082821015610431577f4e487b7100000000000000000000000000000000000000000000000000000000600052601160045260246000fd5b500390565b7f4e487b7100000000000000000000000000000000000000000000000000000000600052603260045260246000fd5b7f4e487b7100000000000000000000000000000000000000000000000000000000600052603160045260246000fdfea26469706673582212205e9c5e824ec8fda8bfce60c4263d2d1be2a32da0410098187dff0940f6ae3cf864736f6c634300080d0033",
    "linkReferences": {}
  },
  "methodIdentifiers": {
    "ID()": "b3cea217",
    "getEntities()": "31b933b9",
    "getEntitiesWithValue(bytes)": "b361be46",
    "getEntitiesWithValue(uint256)": "fbdfa1ea",
    "getID()": "ab9dbd07",
    "getRawValue(uint256)": "b8bc073d",
    "getValue(uint256)": "0ff4c916",
    "has(uint256)": "cccf7a8e",
    "owner()": "8da5cb5b",
    "registerIndexer(address)": "75c0669c",
    "remove(uint256)": "4cc82215",
    "set(uint256,bytes)": "8b282947",
    "set(uint256,uint256)": "1ab06ee5",
    "transferOwnership(address)": "f2fde38b",
    "world()": "30b67baa"
  },
  "id": 36
}