{
  "abi": [
    {
      "inputs": [
        {
          "internalType": "address",
          "name": "world",
          "type": "address"
        }
      ],
      "stateMutability": "nonpayable",
      "type": "constructor"
    },
    {
      "inputs": [],
      "name": "ID",
      "outputs": [
        {
          "internalType": "uint256",
          "name": "",
          "type": "uint256"
        }
      ],
      "stateMutability": "view",
      "type": "function"
    },
    {
      "inputs": [],
      "name": "getEntities",
      "outputs": [
        {
          "internalType": "uint256[]",
          "name": "",
          "type": "uint256[]"
        }
      ],
      "stateMutability": "view",
      "type": "function"
    },
    {
      "inputs": [
        {
          "internalType": "bytes",
          "name": "value",
          "type": "bytes"
        }
      ],
      "name": "getEntitiesWithValue",
      "outputs": [
        {
          "internalType": "uint256[]",
          "name": "",
          "type": "uint256[]"
        }
      ],
      "stateMutability": "view",
      "type": "function"
    },
    {
      "inputs": [],
      "name": "getID",
      "outputs": [
        {
          "internalType": "uint256",
          "name": "",
          "type": "uint256"
        }
      ],
      "stateMutability": "pure",
      "type": "function"
    },
    {
      "inputs": [
        {
          "internalType": "uint256",
          "name": "entity",
          "type": "uint256"
        }
      ],
      "name": "getRawValue",
      "outputs": [
        {
          "internalType": "bytes",
          "name": "",
          "type": "bytes"
        }
      ],
      "stateMutability": "view",
      "type": "function"
    },
    {
      "inputs": [
        {
          "internalType": "uint256",
          "name": "entity",
          "type": "uint256"
        }
      ],
      "name": "has",
      "outputs": [
        {
          "internalType": "bool",
          "name": "",
          "type": "bool"
        }
      ],
      "stateMutability": "view",
      "type": "function"
    },
    {
      "inputs": [],
      "name": "owner",
      "outputs": [
        {
          "internalType": "address",
          "name": "",
          "type": "address"
        }
      ],
      "stateMutability": "view",
      "type": "function"
    },
    {
      "inputs": [
        {
          "internalType": "address",
          "name": "indexer",
          "type": "address"
        }
      ],
      "name": "registerIndexer",
      "outputs": [],
      "stateMutability": "nonpayable",
      "type": "function"
    },
    {
      "inputs": [
        {
          "internalType": "uint256",
          "name": "entity",
          "type": "uint256"
        }
      ],
      "name": "remove",
      "outputs": [],
      "stateMutability": "nonpayable",
      "type": "function"
    },
    {
      "inputs": [
        {
          "internalType": "uint256",
          "name": "entity",
          "type": "uint256"
        },
        {
          "internalType": "bytes",
          "name": "value",
          "type": "bytes"
        }
      ],
      "name": "set",
      "outputs": [],
      "stateMutability": "nonpayable",
      "type": "function"
    },
    {
      "inputs": [
        {
          "internalType": "address",
          "name": "newOwner",
          "type": "address"
        }
      ],
      "name": "transferOwnership",
      "outputs": [],
      "stateMutability": "nonpayable",
      "type": "function"
    },
    {
      "inputs": [],
      "name": "world",
      "outputs": [
        {
          "internalType": "address",
          "name": "",
          "type": "address"
        }
      ],
      "stateMutability": "view",
      "type": "function"
    }
  ],
  "bytecode": {
    "object": "0x60806040523480156200001157600080fd5b506040516200228c3803806200228c8339810160408190526200003491620001a9565b600080546001600160a01b0319166001600160a01b038316908117909155819063f303477030620000827ffef699a04ea58a9173fe46681988ed9b876d146a2902a2c07cdef01a399cbf8690565b6040516001600160e01b031960e085901b1681526001600160a01b0390921660048301526024820152604401600060405180830381600087803b158015620000c957600080fd5b505af1158015620000de573d6000803e3d6000fd5b50505050604051620000f0906200018d565b604051809103906000f0801580156200010d573d6000803e3d6000fd5b50600280546001600160a01b0319166001600160a01b03929092169190911790556040516200013c906200019b565b604051809103906000f08015801562000159573d6000803e3d6000fd5b50600380546001600160a01b03929092166001600160a01b0319928316179055600180549091163317905550620001db9050565b610438806200196a83390190565b6104ea8062001da283390190565b600060208284031215620001bc57600080fd5b81516001600160a01b0381168114620001d457600080fd5b9392505050565b61177f80620001eb6000396000f3fe608060405234801561001057600080fd5b50600436106100d45760003560e01c8063ab9dbd0711610081578063b8bc073d1161005b578063b8bc073d146101fd578063cccf7a8e1461021d578063f2fde38b1461024057600080fd5b8063ab9dbd0714610193578063b361be46146101c3578063b3cea217146101d657600080fd5b806375c0669c116100b257806375c0669c1461014d5780638b282947146101605780638da5cb5b1461017357600080fd5b806330b67baa146100d957806331b933b9146101235780634cc8221514610138575b600080fd5b6000546100f99073ffffffffffffffffffffffffffffffffffffffff1681565b60405173ffffffffffffffffffffffffffffffffffffffff90911681526020015b60405180910390f35b61012b610253565b60405161011a9190611192565b61014b6101463660046111d6565b61030e565b005b61014b61015b3660046111ef565b6106ec565b61014b61016e366004611331565b610874565b6001546100f99073ffffffffffffffffffffffffffffffffffffffff1681565b7ffef699a04ea58a9173fe46681988ed9b876d146a2902a2c07cdef01a399cbf865b60405190815260200161011a565b61012b6101d1366004611378565b610c3a565b6101b57ffef699a04ea58a9173fe46681988ed9b876d146a2902a2c07cdef01a399cbf8681565b61021061020b3660046111d6565b610cfe565b60405161011a919061142f565b61023061022b3660046111d6565b610da0565b604051901515815260200161011a565b61014b61024e3660046111ef565b610e34565b600254604080517f410d59cc000000000000000000000000000000000000000000000000000000008152905160609273ffffffffffffffffffffffffffffffffffffffff169163410d59cc9160048083019260009291908290030181865afa1580156102c3573d6000803e3d6000fd5b505050506040513d6000823e601f3d9081017fffffffffffffffffffffffffffffffffffffffffffffffffffffffffffffffe01682016040526103099190810190611442565b905090565b60015473ffffffffffffffffffffffffffffffffffffffff163314610394576040517f08c379a000000000000000000000000000000000000000000000000000000000815260206004820152601360248201527f4f4e4c595f434f4e54524143545f4f574e45520000000000000000000000000060448201526064015b60405180910390fd5b60035460008281526004602052604090819020905173ffffffffffffffffffffffffffffffffffffffff909216916385edea13916103d19161153b565b60405190819003812060e083901b7fffffffff000000000000000000000000000000000000000000000000000000001682526004820152602401602060405180830381865afa158015610428573d6000803e3d6000fd5b505050506040513d601f19601f8201168201806040525081019061044c919061160d565b156106e95760035460008281526004602052604090819020905173ffffffffffffffffffffffffffffffffffffffff90921691636526db7a9161048e9161153b565b60405190819003812060e083901b7fffffffff00000000000000000000000000000000000000000000000000000000168252600482015260248101849052604401600060405180830381600087803b1580156104e957600080fd5b505af11580156104fd573d6000803e3d6000fd5b50506002546040517f4cc822150000000000000000000000000000000000000000000000000000000081526004810185905273ffffffffffffffffffffffffffffffffffffffff9091169250634cc822159150602401600060405180830381600087803b15801561056d57600080fd5b505af1158015610581573d6000803e3d6000fd5b505050600082815260046020526040812061059d9250906110bf565b60005b60055481101561065d57600581815481106105bd576105bd611626565b6000918252602090912001546040517f4cc822150000000000000000000000000000000000000000000000000000000081526004810184905273ffffffffffffffffffffffffffffffffffffffff90911690634cc8221590602401600060405180830381600087803b15801561063257600080fd5b505af1158015610646573d6000803e3d6000fd5b50505050808061065590611655565b9150506105a0565b506000546040517fd803064a0000000000000000000000000000000000000000000000000000000081523060048201526024810183905273ffffffffffffffffffffffffffffffffffffffff9091169063d803064a90604401600060405180830381600087803b1580156106d057600080fd5b505af11580156106e4573d6000803e3d6000fd5b505050505b50565b60015473ffffffffffffffffffffffffffffffffffffffff16331461076d576040517f08c379a000000000000000000000000000000000000000000000000000000000815260206004820152601360248201527f4f4e4c595f434f4e54524143545f4f574e455200000000000000000000000000604482015260640161038b565b610797817f4ede9a2d00000000000000000000000000000000000000000000000000000000610efc565b6107fd576040517f08c379a000000000000000000000000000000000000000000000000000000000815260206004820181905260248201527f476976656e2061646472657373206973206e6f7420616e20696e64657865722e604482015260640161038b565b600580546001810182556000919091527f036b6384b5eca791c62761152d0c79bb0604c104a5fb6f4eb0703f3154bb3db00180547fffffffffffffffffffffffff00000000000000000000000000000000000000001673ffffffffffffffffffffffffffffffffffffffff92909216919091179055565b60015473ffffffffffffffffffffffffffffffffffffffff1633146108f5576040517f08c379a000000000000000000000000000000000000000000000000000000000815260206004820152601360248201527f4f4e4c595f434f4e54524143545f4f574e455200000000000000000000000000604482015260640161038b565b6002546040517f1003e2d20000000000000000000000000000000000000000000000000000000081526004810184905273ffffffffffffffffffffffffffffffffffffffff90911690631003e2d290602401600060405180830381600087803b15801561096157600080fd5b505af1158015610975573d6000803e3d6000fd5b505060035460008581526004602052604090819020905173ffffffffffffffffffffffffffffffffffffffff9092169350636526db7a92506109b69161153b565b60405190819003812060e083901b7fffffffff00000000000000000000000000000000000000000000000000000000168252600482015260248101859052604401600060405180830381600087803b158015610a1157600080fd5b505af1158015610a25573d6000803e3d6000fd5b50505060008381526004602090815260409091208351610a4a935090918401906110f9565b50600354815160208301206040517f771602f700000000000000000000000000000000000000000000000000000000815273ffffffffffffffffffffffffffffffffffffffff9092169163771602f791610ab1918690600401918252602082015260400190565b600060405180830381600087803b158015610acb57600080fd5b505af1158015610adf573d6000803e3d6000fd5b5050505060005b600554811015610ba95760058181548110610b0357610b03611626565b6000918252602090912001546040517f0216b83800000000000000000000000000000000000000000000000000000000815273ffffffffffffffffffffffffffffffffffffffff90911690630216b83890610b6490869086906004016116b4565b600060405180830381600087803b158015610b7e57600080fd5b505af1158015610b92573d6000803e3d6000fd5b505050508080610ba190611655565b915050610ae6565b506000546040517faf104e4000000000000000000000000000000000000000000000000000000000815273ffffffffffffffffffffffffffffffffffffffff9091169063af104e4090610c04903090869086906004016116cd565b600060405180830381600087803b158015610c1e57600080fd5b505af1158015610c32573d6000803e3d6000fd5b505050505050565b600354815160208301206040517f796c5e94000000000000000000000000000000000000000000000000000000008152600481019190915260609173ffffffffffffffffffffffffffffffffffffffff169063796c5e9490602401600060405180830381865afa158015610cb2573d6000803e3d6000fd5b505050506040513d6000823e601f3d9081017fffffffffffffffffffffffffffffffffffffffffffffffffffffffffffffffe0168201604052610cf89190810190611442565b92915050565b6000818152600460205260409020805460609190610d1b906114e8565b80601f0160208091040260200160405190810160405280929190818152602001828054610d47906114e8565b8015610d945780601f10610d6957610100808354040283529160200191610d94565b820191906000526020600020905b815481529060010190602001808311610d7757829003601f168201915b50505050509050919050565b6002546040517fcccf7a8e0000000000000000000000000000000000000000000000000000000081526004810183905260009173ffffffffffffffffffffffffffffffffffffffff169063cccf7a8e90602401602060405180830381865afa158015610e10573d6000803e3d6000fd5b505050506040513d601f19601f82011682018060405250810190610cf8919061170b565b60015473ffffffffffffffffffffffffffffffffffffffff163314610eb5576040517f08c379a000000000000000000000000000000000000000000000000000000000815260206004820152601360248201527f4f4e4c595f434f4e54524143545f4f574e455200000000000000000000000000604482015260640161038b565b600180547fffffffffffffffffffffffff00000000000000000000000000000000000000001673ffffffffffffffffffffffffffffffffffffffff92909216919091179055565b6000610f0783610f1f565b8015610f185750610f188383610f83565b9392505050565b6000610f4b827f01ffc9a700000000000000000000000000000000000000000000000000000000610f83565b8015610cf85750610f7c827fffffffff00000000000000000000000000000000000000000000000000000000610f83565b1592915050565b604080517fffffffff00000000000000000000000000000000000000000000000000000000831660248083019190915282518083039091018152604490910182526020810180517bffffffffffffffffffffffffffffffffffffffffffffffffffffffff167f01ffc9a7000000000000000000000000000000000000000000000000000000001790529051600091908290819073ffffffffffffffffffffffffffffffffffffffff8716906175309061103d90869061172d565b6000604051808303818686fa925050503d8060008114611079576040519150601f19603f3d011682016040523d82523d6000602084013e61107e565b606091505b50915091506020815110156110995760009350505050610cf8565b8180156110b55750808060200190518101906110b5919061170b565b9695505050505050565b5080546110cb906114e8565b6000825580601f106110db575050565b601f0160209004906000526020600020908101906106e9919061117d565b828054611105906114e8565b90600052602060002090601f016020900481019282611127576000855561116d565b82601f1061114057805160ff191683800117855561116d565b8280016001018555821561116d579182015b8281111561116d578251825591602001919060010190611152565b5061117992915061117d565b5090565b5b80821115611179576000815560010161117e565b6020808252825182820181905260009190848201906040850190845b818110156111ca578351835292840192918401916001016111ae565b50909695505050505050565b6000602082840312156111e857600080fd5b5035919050565b60006020828403121561120157600080fd5b813573ffffffffffffffffffffffffffffffffffffffff81168114610f1857600080fd5b7f4e487b7100000000000000000000000000000000000000000000000000000000600052604160045260246000fd5b604051601f82017fffffffffffffffffffffffffffffffffffffffffffffffffffffffffffffffe016810167ffffffffffffffff8111828210171561129b5761129b611225565b604052919050565b600082601f8301126112b457600080fd5b813567ffffffffffffffff8111156112ce576112ce611225565b6112ff60207fffffffffffffffffffffffffffffffffffffffffffffffffffffffffffffffe0601f84011601611254565b81815284602083860101111561131457600080fd5b816020850160208301376000918101602001919091529392505050565b6000806040838503121561134457600080fd5b82359150602083013567ffffffffffffffff81111561136257600080fd5b61136e858286016112a3565b9150509250929050565b60006020828403121561138a57600080fd5b813567ffffffffffffffff8111156113a157600080fd5b6113ad848285016112a3565b949350505050565b60005b838110156113d05781810151838201526020016113b8565b838111156113df576000848401525b50505050565b600081518084526113fd8160208601602086016113b5565b601f017fffffffffffffffffffffffffffffffffffffffffffffffffffffffffffffffe0169290920160200192915050565b602081526000610f1860208301846113e5565b6000602080838503121561145557600080fd5b825167ffffffffffffffff8082111561146d57600080fd5b818501915085601f83011261148157600080fd5b81518181111561149357611493611225565b8060051b91506114a4848301611254565b81815291830184019184810190888411156114be57600080fd5b938501935b838510156114dc578451825293850193908501906114c3565b98975050505050505050565b600181811c908216806114fc57607f821691505b602082108103611535577f4e487b7100000000000000000000000000000000000000000000000000000000600052602260045260246000fd5b50919050565b600080835481600182811c91508083168061155757607f831692505b6020808410820361158f577f4e487b710000000000000000000000000000000000000000000000000000000086526022600452602486fd5b8180156115a357600181146115d2576115ff565b7fffffffffffffffffffffffffffffffffffffffffffffffffffffffffffffff008616895284890196506115ff565b60008a81526020902060005b868110156115f75781548b8201529085019083016115de565b505084890196505b509498975050505050505050565b60006020828403121561161f57600080fd5b5051919050565b7f4e487b7100000000000000000000000000000000000000000000000000000000600052603260045260246000fd5b60007fffffffffffffffffffffffffffffffffffffffffffffffffffffffffffffffff82036116ad577f4e487b7100000000000000000000000000000000000000000000000000000000600052601160045260246000fd5b5060010190565b8281526040602082015260006113ad60408301846113e5565b73ffffffffffffffffffffffffffffffffffffffff8416815282602082015260606040820152600061170260608301846113e5565b95945050505050565b60006020828403121561171d57600080fd5b81518015158114610f1857600080fd5b6000825161173f8184602087016113b5565b919091019291505056fea264697066735822122089f493f659c001118b2f77d28b131502d7c22b1382238341f0b5679a286af29564736f6c634300080d0033608060405234801561001057600080fd5b50610418806100206000396000f3fe608060405234801561001057600080fd5b50600436106100675760003560e01c80634cc82215116100505780634cc822151461009f578063949d225d146100b2578063cccf7a8e146100c357600080fd5b80631003e2d21461006c578063410d59cc14610081575b600080fd5b61007f61007a3660046102e9565b6100e6565b005b610089610138565b6040516100969190610302565b60405180910390f35b61007f6100ad3660046102e9565b610190565b600054604051908152602001610096565b6100d66100d13660046102e9565b610286565b6040519015158152602001610096565b6100ef81610286565b156100f75750565b600080548282526001602081905260408320829055810182559080527f290decd9548b62a8d60345a988386fc84ba6bc95484008f6362f93160ef3e5630155565b6060600080548060200260200160405190810160405280929190818152602001828054801561018657602002820191906000526020600020905b815481526020019060010190808311610172575b5050505050905090565b61019981610286565b6101a05750565b600080546101b090600190610346565b815481106101c0576101c0610384565b906000526020600020015460006001600084815260200190815260200160002054815481106101f1576101f1610384565b6000918252602080832090910192909255828152600191829052604081205481549092919081908490811061022857610228610384565b90600052602060002001548152602001908152602001600020819055506001600082815260200190815260200160002060009055600080548061026d5761026d6103b3565b6001900381819060005260206000200160009055905550565b60008054810361029857506000919050565b60008281526001602052604081205490036102d45781600080815481106102c1576102c1610384565b9060005260206000200154149050919050565b50600090815260016020526040902054151590565b6000602082840312156102fb57600080fd5b5035919050565b6020808252825182820181905260009190848201906040850190845b8181101561033a5783518352928401929184019160010161031e565b50909695505050505050565b60008282101561037f577f4e487b7100000000000000000000000000000000000000000000000000000000600052601160045260246000fd5b500390565b7f4e487b7100000000000000000000000000000000000000000000000000000000600052603260045260246000fd5b7f4e487b7100000000000000000000000000000000000000000000000000000000600052603160045260246000fdfea2646970667358221220c6547a864e605f3bc98b16e7ab886da11ec7c63c3613d68f8fdca0d18c269aea64736f6c634300080d0033608060405234801561001057600080fd5b506104ca806100206000396000f3fe608060405234801561001057600080fd5b50600436106100675760003560e01c8063796c5e9411610050578063796c5e941461009457806385edea13146100bd578063a0265ff8146100eb57600080fd5b80636526db7a1461006c578063771602f714610081575b600080fd5b61007f61007a366004610379565b61010e565b005b61007f61008f366004610379565b61023d565b6100a76100a236600461039b565b610286565b6040516100b491906103b4565b60405180910390f35b6100dd6100cb36600461039b565b60009081526020819052604090205490565b6040519081526020016100b4565b6100fe6100f9366004610379565b6102e6565b60405190151581526020016100b4565b61011882826102e6565b610120575050565b6000828152602081905260409020805461013c906001906103f8565b8154811061014c5761014c610436565b6000918252602080832090910154848352828252604080842060018452818520868652909352909220548154811061018657610186610436565b6000918252602080832090910192909255838152600182526040808220848352808452818320548684528385529183208584529381905283549193909291849081106101d4576101d4610436565b6000918252602080832090910154835282810193909352604091820181209390935584835260018252808320848452825280832083905584835290829052902080548061022357610223610465565b600190038181906000526020600020016000905590555050565b61024782826102e6565b15610250575050565b60009182526020828152604080842080546001808552838720868852855292862081905585845291820181558452922090910155565b600081815260208181526040918290208054835181840281018401909452808452606093928301828280156102da57602002820191906000526020600020905b8154815260200190600101908083116102c6575b50505050509050919050565b600082815260208190526040812054810361030357506000610373565b60008381526001602090815260408083208584529091528120549003610355576000838152602081905260408120805484929061034257610342610436565b9060005260206000200154149050610373565b50600082815260016020908152604080832084845290915290205415155b92915050565b6000806040838503121561038c57600080fd5b50508035926020909101359150565b6000602082840312156103ad57600080fd5b5035919050565b6020808252825182820181905260009190848201906040850190845b818110156103ec578351835292840192918401916001016103d0565b50909695505050505050565b600082821015610431577f4e487b7100000000000000000000000000000000000000000000000000000000600052601160045260246000fd5b500390565b7f4e487b7100000000000000000000000000000000000000000000000000000000600052603260045260246000fd5b7f4e487b7100000000000000000000000000000000000000000000000000000000600052603160045260246000fdfea26469706673582212208ac071681a442452e594e13b42ce206d4ee65831e2da1341a4e07929ad4c191e64736f6c634300080d0033",
    "linkReferences": {}
  }
}