{
  "abi": [
    {
      "inputs": [
        {
          "internalType": "address",
          "name": "world",
          "type": "address"
        },
        {
          "internalType": "uint256",
          "name": "id",
          "type": "uint256"
        }
      ],
      "stateMutability": "nonpayable",
      "type": "constructor"
    },
    {
      "inputs": [],
      "name": "BareComponent__NotImplemented",
      "type": "error"
    },
    {
      "inputs": [],
      "name": "OwnableWritable__NotWriter",
      "type": "error"
    },
    {
      "inputs": [],
      "name": "Ownable__NotOwner",
      "type": "error"
    },
    {
      "inputs": [],
      "name": "Ownable__NotTransitiveOwner",
      "type": "error"
    },
    {
      "anonymous": false,
      "inputs": [
        {
          "indexed": true,
          "internalType": "address",
          "name": "previousOwner",
          "type": "address"
        },
        {
          "indexed": true,
          "internalType": "address",
          "name": "newOwner",
          "type": "address"
        }
      ],
      "name": "OwnershipTransferred",
      "type": "event"
    },
    {
      "inputs": [
        {
          "internalType": "address",
          "name": "writer",
          "type": "address"
        }
      ],
      "name": "authorizeWriter",
      "outputs": [],
      "stateMutability": "nonpayable",
      "type": "function"
    },
    {
      "inputs": [],
      "name": "getEntities",
      "outputs": [
        {
          "internalType": "uint256[]",
          "name": "",
          "type": "uint256[]"
        }
      ],
      "stateMutability": "view",
      "type": "function"
    },
    {
      "inputs": [
        {
          "internalType": "bytes",
          "name": "",
          "type": "bytes"
        }
      ],
      "name": "getEntitiesWithValue",
      "outputs": [
        {
          "internalType": "uint256[]",
          "name": "",
          "type": "uint256[]"
        }
      ],
      "stateMutability": "view",
      "type": "function"
    },
    {
      "inputs": [
        {
          "internalType": "uint256",
          "name": "entity",
          "type": "uint256"
        }
      ],
      "name": "getRawValue",
      "outputs": [
        {
          "internalType": "bytes",
          "name": "",
          "type": "bytes"
        }
      ],
      "stateMutability": "view",
      "type": "function"
    },
    {
      "inputs": [],
      "name": "getSchema",
      "outputs": [
        {
          "internalType": "string[]",
          "name": "keys",
          "type": "string[]"
        },
        {
          "internalType": "enum LibTypes.SchemaValue[]",
          "name": "values",
          "type": "uint8[]"
        }
      ],
      "stateMutability": "pure",
      "type": "function"
    },
    {
      "inputs": [
        {
          "internalType": "uint256",
          "name": "entity",
          "type": "uint256"
        }
      ],
      "name": "getValue",
      "outputs": [
        {
          "components": [
            {
              "internalType": "int32",
              "name": "x",
              "type": "int32"
            },
            {
              "internalType": "int32",
              "name": "y",
              "type": "int32"
            }
          ],
          "internalType": "struct Coord",
          "name": "",
          "type": "tuple"
        }
      ],
      "stateMutability": "view",
      "type": "function"
    },
    {
      "inputs": [
        {
          "internalType": "uint256",
          "name": "entity",
          "type": "uint256"
        }
      ],
      "name": "has",
      "outputs": [
        {
          "internalType": "bool",
          "name": "",
          "type": "bool"
        }
      ],
      "stateMutability": "view",
      "type": "function"
    },
    {
      "inputs": [],
      "name": "id",
      "outputs": [
        {
          "internalType": "uint256",
          "name": "",
          "type": "uint256"
        }
      ],
      "stateMutability": "view",
      "type": "function"
    },
    {
      "inputs": [],
      "name": "owner",
      "outputs": [
        {
          "internalType": "address",
          "name": "",
          "type": "address"
        }
      ],
      "stateMutability": "view",
      "type": "function"
    },
    {
      "inputs": [
        {
          "internalType": "address",
          "name": "",
          "type": "address"
        }
      ],
      "name": "registerIndexer",
      "outputs": [],
      "stateMutability": "nonpayable",
      "type": "function"
    },
    {
      "inputs": [
        {
          "internalType": "address",
          "name": "_world",
          "type": "address"
        }
      ],
      "name": "registerWorld",
      "outputs": [],
      "stateMutability": "nonpayable",
      "type": "function"
    },
    {
      "inputs": [
        {
          "internalType": "uint256",
          "name": "entity",
          "type": "uint256"
        }
      ],
      "name": "remove",
      "outputs": [],
      "stateMutability": "nonpayable",
      "type": "function"
    },
    {
      "inputs": [
        {
          "internalType": "uint256",
          "name": "entity",
          "type": "uint256"
        },
        {
          "internalType": "bytes",
          "name": "value",
          "type": "bytes"
        }
      ],
      "name": "set",
      "outputs": [],
      "stateMutability": "nonpayable",
      "type": "function"
    },
    {
      "inputs": [
        {
          "internalType": "uint256",
          "name": "entity",
          "type": "uint256"
        },
        {
          "components": [
            {
              "internalType": "int32",
              "name": "x",
              "type": "int32"
            },
            {
              "internalType": "int32",
              "name": "y",
              "type": "int32"
            }
          ],
          "internalType": "struct Coord",
          "name": "value",
          "type": "tuple"
        }
      ],
      "name": "set",
      "outputs": [],
      "stateMutability": "nonpayable",
      "type": "function"
    },
    {
      "inputs": [
        {
          "internalType": "address",
          "name": "account",
          "type": "address"
        }
      ],
      "name": "transferOwnership",
      "outputs": [],
      "stateMutability": "nonpayable",
      "type": "function"
    },
    {
      "inputs": [
        {
          "internalType": "address",
          "name": "writer",
          "type": "address"
        }
      ],
      "name": "unauthorizeWriter",
      "outputs": [],
      "stateMutability": "nonpayable",
      "type": "function"
    },
    {
      "inputs": [],
      "name": "world",
      "outputs": [
        {
          "internalType": "address",
          "name": "",
          "type": "address"
        }
      ],
      "stateMutability": "view",
      "type": "function"
    },
    {
      "inputs": [
        {
          "internalType": "address",
          "name": "operator",
          "type": "address"
        }
      ],
      "name": "writeAccess",
      "outputs": [
        {
          "internalType": "bool",
          "name": "",
          "type": "bool"
        }
      ],
      "stateMutability": "view",
      "type": "function"
    }
  ],
  "bytecode": {
    "object": "0x60806040523480156200001157600080fd5b5060405162001520380380620015208339810160408190526200003491620001e1565b818162000041336200006b565b60028190556001600160a01b0382161562000061576200006182620000df565b505050506200021d565b6000620000826200019760201b62000af51760201c565b80546040519192506001600160a01b03808516929116907f8be0079c531659141344cd1fd0a4f28419497f9722a3daafe3b4186f6b6457e090600090a380546001600160a01b0319166001600160a01b0392909216919091179055565b620000e9620001bb565b6001600160a01b0316336001600160a01b0316146200011b57604051632f7a8ee160e01b815260040160405180910390fd5b600080546001600160a01b0319166001600160a01b038316908117909155600254604051630f30347760e41b8152306004820152602481019190915263f303477090604401600060405180830381600087803b1580156200017b57600080fd5b505af115801562000190573d6000803e3d6000fd5b5050505050565b7f8a22373512790c48b83a1fe2efdd2888d4a917bcdc24d0adf63e60f67168046090565b6000620001d26200019760201b62000af51760201c565b546001600160a01b0316919050565b60008060408385031215620001f557600080fd5b82516001600160a01b03811681146200020d57600080fd5b6020939093015192949293505050565b6112f3806200022d6000396000f3fe608060405234801561001057600080fd5b50600436106101365760003560e01c80638da5cb5b116100b2578063b8bc073d11610081578063cccf7a8e11610066578063cccf7a8e146102ce578063dcb14c2f146102e1578063f2fde38b146102f457600080fd5b8063b8bc073d1461029b578063bf4fe57e146102bb57600080fd5b80638da5cb5b146102565780639d2c76b41461025e578063af640d0f14610271578063b361be461461028857600080fd5b80634fef6a381161010957806375c0669c116100ee57806375c0669c1461020d578063861eb905146102205780638b2829471461024357600080fd5b80634fef6a38146101e45780636b122fe0146101f757600080fd5b80630ff4c9161461013b57806330b67baa1461017557806331b933b9146101ba5780634cc82215146101cf575b600080fd5b61014e610149366004610dbc565b610307565b604080518251600390810b8252602093840151900b92810192909252015b60405180910390f35b6000546101959073ffffffffffffffffffffffffffffffffffffffff1681565b60405173ffffffffffffffffffffffffffffffffffffffff909116815260200161016c565b6101c261035a565b60405161016c9190610dd5565b6101e26101dd366004610dbc565b61038e565b005b6101e26101f2366004610e19565b6103d9565b6101ff6104b7565b60405161016c929190610ef0565b6101e261021b366004610e19565b61063c565b61023361022e366004610e19565b61066e565b604051901515815260200161016c565b6101e26102513660046110ba565b6106f9565b610195610746565b6101e261026c366004610e19565b61078b565b61027a60025481565b60405190815260200161016c565b6101c2610296366004611101565b61035a565b6102ae6102a9366004610dbc565b6108b4565b60405161016c919061113e565b6101e26102c9366004610e19565b610956565b6102336102dc366004610dbc565b610a31565b6101e26102ef366004611151565b610a53565b6101e2610302366004610e19565b610a7c565b6040805180820190915260008082526020820152600080610327846108b4565b80602001905181019061033a91906111b6565b60408051808201909152600392830b8152910b6020820152949350505050565b60606040517f17d5b8e800000000000000000000000000000000000000000000000000000000815260040160405180910390fd5b6103973361066e565b6103cd576040517f406ed3da00000000000000000000000000000000000000000000000000000000815260040160405180910390fd5b6103d681610b19565b50565b7f8a22373512790c48b83a1fe2efdd2888d4a917bcdc24d0adf63e60f6716804605473ffffffffffffffffffffffffffffffffffffffff163314610449576040517f2f7a8ee100000000000000000000000000000000000000000000000000000000815260040160405180910390fd5b73ffffffffffffffffffffffffffffffffffffffff1660009081527f8ffeadc5cba727b8cc3cdef48739619490ea317fdb3baae1259089d06f92c9096020526040902080547fffffffffffffffffffffffffffffffffffffffffffffffffffffffffffffff00166001179055565b6040805160028082526060828101909352829190816020015b60608152602001906001900390816104d057505060408051600280825260608201835292945091906020830190803683370190505090506040518060400160405280600181526020017f780000000000000000000000000000000000000000000000000000000000000081525082600081518110610550576105506111f0565b6020026020010181905250600381600081518110610570576105706111f0565b6020026020010190602181111561058957610589610ec1565b9081602181111561059c5761059c610ec1565b815250506040518060400160405280600181526020017f7900000000000000000000000000000000000000000000000000000000000000815250826001815181106105e9576105e96111f0565b6020026020010181905250600381600181518110610609576106096111f0565b6020026020010190602181111561062257610622610ec1565b9081602181111561063557610635610ec1565b9052509091565b6040517f17d5b8e800000000000000000000000000000000000000000000000000000000815260040160405180910390fd5b73ffffffffffffffffffffffffffffffffffffffff811660009081527f8ffeadc5cba727b8cc3cdef48739619490ea317fdb3baae1259089d06f92c909602052604081205460ff16806106f357506106c4610746565b73ffffffffffffffffffffffffffffffffffffffff168273ffffffffffffffffffffffffffffffffffffffff16145b92915050565b6107023361066e565b610738576040517f406ed3da00000000000000000000000000000000000000000000000000000000815260040160405180910390fd5b6107428282610b87565b5050565b60006107867f8a22373512790c48b83a1fe2efdd2888d4a917bcdc24d0adf63e60f6716804605473ffffffffffffffffffffffffffffffffffffffff1690565b905090565b7f8a22373512790c48b83a1fe2efdd2888d4a917bcdc24d0adf63e60f6716804605473ffffffffffffffffffffffffffffffffffffffff1633146107fb576040517f2f7a8ee100000000000000000000000000000000000000000000000000000000815260040160405180910390fd5b600080547fffffffffffffffffffffffff00000000000000000000000000000000000000001673ffffffffffffffffffffffffffffffffffffffff83169081179091556002546040517ff3034770000000000000000000000000000000000000000000000000000000008152306004820152602481019190915263f3034770906044015b600060405180830381600087803b15801561089957600080fd5b505af11580156108ad573d6000803e3d6000fd5b5050505050565b60008181526001602052604090208054606091906108d19061121f565b80601f01602080910402602001604051908101604052809291908181526020018280546108fd9061121f565b801561094a5780601f1061091f5761010080835404028352916020019161094a565b820191906000526020600020905b81548152906001019060200180831161092d57829003601f168201915b50505050509050919050565b7f8a22373512790c48b83a1fe2efdd2888d4a917bcdc24d0adf63e60f6716804605473ffffffffffffffffffffffffffffffffffffffff1633146109c6576040517f2f7a8ee100000000000000000000000000000000000000000000000000000000815260040160405180910390fd5b73ffffffffffffffffffffffffffffffffffffffff1660009081527f8ffeadc5cba727b8cc3cdef48739619490ea317fdb3baae1259089d06f92c9096020526040902080547fffffffffffffffffffffffffffffffffffffffffffffffffffffffffffffff00169055565b60008181526001602052604081208054610a4a9061121f565b15159392505050565b6107428282604051602001610a689190611272565b6040516020818303038152906040526106f9565b7f8a22373512790c48b83a1fe2efdd2888d4a917bcdc24d0adf63e60f6716804605473ffffffffffffffffffffffffffffffffffffffff163314610aec576040517f2f7a8ee100000000000000000000000000000000000000000000000000000000815260040160405180910390fd5b6103d681610c35565b7f8a22373512790c48b83a1fe2efdd2888d4a917bcdc24d0adf63e60f67168046090565b6000818152600160205260408120610b3091610ce9565b6000546040517f0de3b7b50000000000000000000000000000000000000000000000000000000081526004810183905273ffffffffffffffffffffffffffffffffffffffff90911690630de3b7b59060240161087f565b60008281526001602090815260409091208251610ba692840190610d23565b506000546040517fcfd3c57f00000000000000000000000000000000000000000000000000000000815273ffffffffffffffffffffffffffffffffffffffff9091169063cfd3c57f90610bff90859085906004016112a4565b600060405180830381600087803b158015610c1957600080fd5b505af1158015610c2d573d6000803e3d6000fd5b505050505050565b7f8a22373512790c48b83a1fe2efdd2888d4a917bcdc24d0adf63e60f67168046080546040516103d6928492909173ffffffffffffffffffffffffffffffffffffffff8085169216907f8be0079c531659141344cd1fd0a4f28419497f9722a3daafe3b4186f6b6457e090600090a380547fffffffffffffffffffffffff00000000000000000000000000000000000000001673ffffffffffffffffffffffffffffffffffffffff92909216919091179055565b508054610cf59061121f565b6000825580601f10610d05575050565b601f0160209004906000526020600020908101906103d69190610da7565b828054610d2f9061121f565b90600052602060002090601f016020900481019282610d515760008555610d97565b82601f10610d6a57805160ff1916838001178555610d97565b82800160010185558215610d97579182015b82811115610d97578251825591602001919060010190610d7c565b50610da3929150610da7565b5090565b5b80821115610da35760008155600101610da8565b600060208284031215610dce57600080fd5b5035919050565b6020808252825182820181905260009190848201906040850190845b81811015610e0d57835183529284019291840191600101610df1565b50909695505050505050565b600060208284031215610e2b57600080fd5b813573ffffffffffffffffffffffffffffffffffffffff81168114610e4f57600080fd5b9392505050565b6000815180845260005b81811015610e7c57602081850181015186830182015201610e60565b81811115610e8e576000602083870101525b50601f017fffffffffffffffffffffffffffffffffffffffffffffffffffffffffffffffe0169290920160200192915050565b7f4e487b7100000000000000000000000000000000000000000000000000000000600052602160045260246000fd5b6000604082016040835280855180835260608501915060608160051b8601019250602080880160005b83811015610f65577fffffffffffffffffffffffffffffffffffffffffffffffffffffffffffffffa0888703018552610f53868351610e56565b95509382019390820190600101610f19565b50508584038187015286518085528782019482019350915060005b82811015610fd357845160228110610fc1577f4e487b7100000000000000000000000000000000000000000000000000000000600052602160045260246000fd5b84529381019392810192600101610f80565b5091979650505050505050565b7f4e487b7100000000000000000000000000000000000000000000000000000000600052604160045260246000fd5b600082601f83011261102057600080fd5b813567ffffffffffffffff8082111561103b5761103b610fe0565b604051601f83017fffffffffffffffffffffffffffffffffffffffffffffffffffffffffffffffe0908116603f0116810190828211818310171561108157611081610fe0565b8160405283815286602085880101111561109a57600080fd5b836020870160208301376000602085830101528094505050505092915050565b600080604083850312156110cd57600080fd5b82359150602083013567ffffffffffffffff8111156110eb57600080fd5b6110f78582860161100f565b9150509250929050565b60006020828403121561111357600080fd5b813567ffffffffffffffff81111561112a57600080fd5b6111368482850161100f565b949350505050565b602081526000610e4f6020830184610e56565b600080828403606081121561116557600080fd5b8335925060407fffffffffffffffffffffffffffffffffffffffffffffffffffffffffffffffe08201121561119957600080fd5b506020830190509250929050565b8060030b81146103d657600080fd5b600080604083850312156111c957600080fd5b82516111d4816111a7565b60208401519092506111e5816111a7565b809150509250929050565b7f4e487b7100000000000000000000000000000000000000000000000000000000600052603260045260246000fd5b600181811c9082168061123357607f821691505b60208210810361126c577f4e487b7100000000000000000000000000000000000000000000000000000000600052602260045260246000fd5b50919050565b604081018235611281816111a7565b60030b82526020830135611294816111a7565b8060030b60208401525092915050565b8281526040602082015260006111366040830184610e5656fea26469706673582212209af46db35f770827ba04f1a59232ca423f46ef6b9a153f2bf0bfd1046229a3ca64736f6c634300080d0033",
    "linkReferences": {}
  },
  "methodIdentifiers": {
    "authorizeWriter(address)": "4fef6a38",
    "getEntities()": "31b933b9",
    "getEntitiesWithValue(bytes)": "b361be46",
    "getRawValue(uint256)": "b8bc073d",
    "getSchema()": "6b122fe0",
    "getValue(uint256)": "0ff4c916",
    "has(uint256)": "cccf7a8e",
    "id()": "af640d0f",
    "owner()": "8da5cb5b",
    "registerIndexer(address)": "75c0669c",
    "registerWorld(address)": "9d2c76b4",
    "remove(uint256)": "4cc82215",
    "set(uint256,(int32,int32))": "dcb14c2f",
    "set(uint256,bytes)": "8b282947",
    "transferOwnership(address)": "f2fde38b",
    "unauthorizeWriter(address)": "bf4fe57e",
    "world()": "30b67baa",
    "writeAccess(address)": "861eb905"
  },
  "id": 78
}