{
  "abi": [
    {
      "inputs": [
        {
          "internalType": "address",
          "name": "world",
          "type": "address"
        },
        {
          "internalType": "uint256",
          "name": "id",
          "type": "uint256"
        }
      ],
      "stateMutability": "nonpayable",
      "type": "constructor"
    },
    {
      "inputs": [],
      "name": "BareComponent__NotImplemented",
      "type": "error"
    },
    {
      "inputs": [],
      "name": "OwnableWritable__NotWriter",
      "type": "error"
    },
    {
      "inputs": [],
      "name": "Ownable__NotOwner",
      "type": "error"
    },
    {
      "inputs": [],
      "name": "Ownable__NotTransitiveOwner",
      "type": "error"
    },
    {
      "anonymous": false,
      "inputs": [
        {
          "indexed": true,
          "internalType": "address",
          "name": "previousOwner",
          "type": "address"
        },
        {
          "indexed": true,
          "internalType": "address",
          "name": "newOwner",
          "type": "address"
        }
      ],
      "name": "OwnershipTransferred",
      "type": "event"
    },
    {
      "inputs": [
        {
          "internalType": "address",
          "name": "writer",
          "type": "address"
        }
      ],
      "name": "authorizeWriter",
      "outputs": [],
      "stateMutability": "nonpayable",
      "type": "function"
    },
    {
      "inputs": [],
      "name": "getEntities",
      "outputs": [
        {
          "internalType": "uint256[]",
          "name": "",
          "type": "uint256[]"
        }
      ],
      "stateMutability": "view",
      "type": "function"
    },
    {
      "inputs": [
        {
          "internalType": "bool",
          "name": "value",
          "type": "bool"
        }
      ],
      "name": "getEntitiesWithValue",
      "outputs": [
        {
          "internalType": "uint256[]",
          "name": "",
          "type": "uint256[]"
        }
      ],
      "stateMutability": "view",
      "type": "function"
    },
    {
      "inputs": [
        {
          "internalType": "bytes",
          "name": "value",
          "type": "bytes"
        }
      ],
      "name": "getEntitiesWithValue",
      "outputs": [
        {
          "internalType": "uint256[]",
          "name": "",
          "type": "uint256[]"
        }
      ],
      "stateMutability": "view",
      "type": "function"
    },
    {
      "inputs": [
        {
          "internalType": "uint256",
          "name": "entity",
          "type": "uint256"
        }
      ],
      "name": "getRawValue",
      "outputs": [
        {
          "internalType": "bytes",
          "name": "",
          "type": "bytes"
        }
      ],
      "stateMutability": "view",
      "type": "function"
    },
    {
      "inputs": [],
      "name": "getSchema",
      "outputs": [
        {
          "internalType": "string[]",
          "name": "keys",
          "type": "string[]"
        },
        {
          "internalType": "enum LibTypes.SchemaValue[]",
          "name": "values",
          "type": "uint8[]"
        }
      ],
      "stateMutability": "pure",
      "type": "function"
    },
    {
      "inputs": [
        {
          "internalType": "uint256",
          "name": "entity",
          "type": "uint256"
        }
      ],
      "name": "getValue",
      "outputs": [
        {
          "internalType": "bool",
          "name": "",
          "type": "bool"
        }
      ],
      "stateMutability": "view",
      "type": "function"
    },
    {
      "inputs": [
        {
          "internalType": "uint256",
          "name": "entity",
          "type": "uint256"
        }
      ],
      "name": "has",
      "outputs": [
        {
          "internalType": "bool",
          "name": "",
          "type": "bool"
        }
      ],
      "stateMutability": "view",
      "type": "function"
    },
    {
      "inputs": [],
      "name": "id",
      "outputs": [
        {
          "internalType": "uint256",
          "name": "",
          "type": "uint256"
        }
      ],
      "stateMutability": "view",
      "type": "function"
    },
    {
      "inputs": [],
      "name": "owner",
      "outputs": [
        {
          "internalType": "address",
          "name": "",
          "type": "address"
        }
      ],
      "stateMutability": "view",
      "type": "function"
    },
    {
      "inputs": [
        {
          "internalType": "address",
          "name": "indexer",
          "type": "address"
        }
      ],
      "name": "registerIndexer",
      "outputs": [],
      "stateMutability": "nonpayable",
      "type": "function"
    },
    {
      "inputs": [
        {
          "internalType": "address",
          "name": "_world",
          "type": "address"
        }
      ],
      "name": "registerWorld",
      "outputs": [],
      "stateMutability": "nonpayable",
      "type": "function"
    },
    {
      "inputs": [
        {
          "internalType": "uint256",
          "name": "entity",
          "type": "uint256"
        }
      ],
      "name": "remove",
      "outputs": [],
      "stateMutability": "nonpayable",
      "type": "function"
    },
    {
      "inputs": [
        {
          "internalType": "uint256",
          "name": "entity",
          "type": "uint256"
        }
      ],
      "name": "set",
      "outputs": [],
      "stateMutability": "nonpayable",
      "type": "function"
    },
    {
      "inputs": [
        {
          "internalType": "uint256",
          "name": "entity",
          "type": "uint256"
        },
        {
          "internalType": "bytes",
          "name": "value",
          "type": "bytes"
        }
      ],
      "name": "set",
      "outputs": [],
      "stateMutability": "nonpayable",
      "type": "function"
    },
    {
      "inputs": [
        {
          "internalType": "address",
          "name": "account",
          "type": "address"
        }
      ],
      "name": "transferOwnership",
      "outputs": [],
      "stateMutability": "nonpayable",
      "type": "function"
    },
    {
      "inputs": [
        {
          "internalType": "address",
          "name": "writer",
          "type": "address"
        }
      ],
      "name": "unauthorizeWriter",
      "outputs": [],
      "stateMutability": "nonpayable",
      "type": "function"
    },
    {
      "inputs": [],
      "name": "world",
      "outputs": [
        {
          "internalType": "address",
          "name": "",
          "type": "address"
        }
      ],
      "stateMutability": "view",
      "type": "function"
    },
    {
      "inputs": [
        {
          "internalType": "address",
          "name": "operator",
          "type": "address"
        }
      ],
      "name": "writeAccess",
      "outputs": [
        {
          "internalType": "bool",
          "name": "",
          "type": "bool"
        }
      ],
      "stateMutability": "view",
      "type": "function"
    }
  ],
  "bytecode": {
    "object": "0x60806040523480156200001157600080fd5b5060405162002f4c38038062002f4c83398101604081905262000034916200029a565b81818181620000433362000108565b60028190556001600160a01b03821615620000635762000063826200017c565b505060405162000073906200027e565b604051809103906000f08015801562000090573d6000803e3d6000fd5b50600380546001600160a01b0319166001600160a01b0392909216919091179055604051620000bf906200028c565b604051809103906000f080158015620000dc573d6000803e3d6000fd5b50600480546001600160a01b0319166001600160a01b039290921691909117905550620002d692505050565b60006200011f6200023460201b62000ca31760201c565b80546040519192506001600160a01b03808516929116907f8be0079c531659141344cd1fd0a4f28419497f9722a3daafe3b4186f6b6457e090600090a380546001600160a01b0319166001600160a01b0392909216919091179055565b6200018662000258565b6001600160a01b0316336001600160a01b031614620001b857604051632f7a8ee160e01b815260040160405180910390fd5b600080546001600160a01b0319166001600160a01b038316908117909155600254604051630f30347760e41b8152306004820152602481019190915263f303477090604401600060405180830381600087803b1580156200021857600080fd5b505af11580156200022d573d6000803e3d6000fd5b5050505050565b7f8a22373512790c48b83a1fe2efdd2888d4a917bcdc24d0adf63e60f67168046090565b60006200026f6200023460201b62000ca31760201c565b546001600160a01b0316919050565b61084a8062001e7083390190565b61089280620026ba83390190565b60008060408385031215620002ae57600080fd5b82516001600160a01b0381168114620002c657600080fd5b6020939093015192949293505050565b611b8a80620002e66000396000f3fe608060405234801561001057600080fd5b50600436106101505760003560e01c8063861eb905116100cd578063b361be4611610081578063bf4fe57e11610066578063bf4fe57e146102dd578063cccf7a8e146102f0578063f2fde38b1461030357600080fd5b8063b361be46146102aa578063b8bc073d146102bd57600080fd5b80638da5cb5b116100b25780638da5cb5b146102785780639d2c76b414610280578063af640d0f1461029357600080fd5b8063861eb905146102525780638b2829471461026557600080fd5b80634cc822151161012457806360fe47b11161010957806360fe47b1146102165780636b122fe01461022957806375c0669c1461023f57600080fd5b80634cc82215146101ee5780634fef6a381461020357600080fd5b80621326ab146101555780630ff4c9161461017e57806330b67baa146101a157806331b933b9146101e6575b600080fd5b6101686101633660046114cf565b610316565b60405161017591906114ec565b60405180910390f35b61019161018c366004611530565b61034a565b6040519015158152602001610175565b6000546101c19073ffffffffffffffffffffffffffffffffffffffff1681565b60405173ffffffffffffffffffffffffffffffffffffffff9091168152602001610175565b610168610370565b6102016101fc366004611530565b61042b565b005b610201610211366004611549565b610476565b610201610224366004611530565b610554565b61023161057a565b604051610175929190611619565b61020161024d366004611549565b610666565b610191610260366004611549565b61071c565b610201610273366004611815565b6107a6565b6101c16107f3565b61020161028e366004611549565b610833565b61029c60025481565b604051908152602001610175565b6101686102b836600461185c565b61095c565b6102d06102cb366004611530565b610a19565b6040516101759190611899565b6102016102eb366004611549565b610abb565b6101916102fe366004611530565b610b96565b610201610311366004611549565b610c2a565b606061034482604051602001610330911515815260200190565b60405160208183030381529060405261095c565b92915050565b60008061035683610a19565b80602001905181019061036991906118ac565b9392505050565b600354604080517f410d59cc000000000000000000000000000000000000000000000000000000008152905160609273ffffffffffffffffffffffffffffffffffffffff169163410d59cc9160048083019260009291908290030181865afa1580156103e0573d6000803e3d6000fd5b505050506040513d6000823e601f3d9081017fffffffffffffffffffffffffffffffffffffffffffffffffffffffffffffffe016820160405261042691908101906118c9565b905090565b6104343361071c565b61046a576040517f406ed3da00000000000000000000000000000000000000000000000000000000815260040160405180910390fd5b61047381610cc7565b50565b7f8a22373512790c48b83a1fe2efdd2888d4a917bcdc24d0adf63e60f6716804605473ffffffffffffffffffffffffffffffffffffffff1633146104e6576040517f2f7a8ee100000000000000000000000000000000000000000000000000000000815260040160405180910390fd5b73ffffffffffffffffffffffffffffffffffffffff1660009081527f8ffeadc5cba727b8cc3cdef48739619490ea317fdb3baae1259089d06f92c9096020526040902080547fffffffffffffffffffffffffffffffffffffffffffffffffffffffffffffff00166001179055565b6040805160016020820152610473918391016040516020818303038152906040526107a6565b604080516001808252818301909252606091829190816020015b6060815260200190600190039081610594575050604080516001808252818301909252919350602080830190803683370190505090506040518060400160405280600581526020017f76616c7565000000000000000000000000000000000000000000000000000000815250826000815181106106135761061361196f565b60200260200101819052506000816000815181106106335761063361196f565b6020026020010190602181111561064c5761064c6115ea565b9081602181111561065f5761065f6115ea565b9052509091565b61066f3361071c565b6106a5576040517f406ed3da00000000000000000000000000000000000000000000000000000000815260040160405180910390fd5b600580546001810182556000919091527f036b6384b5eca791c62761152d0c79bb0604c104a5fb6f4eb0703f3154bb3db00180547fffffffffffffffffffffffff00000000000000000000000000000000000000001673ffffffffffffffffffffffffffffffffffffffff92909216919091179055565b73ffffffffffffffffffffffffffffffffffffffff811660009081527f8ffeadc5cba727b8cc3cdef48739619490ea317fdb3baae1259089d06f92c909602052604081205460ff168061034457506107726107f3565b73ffffffffffffffffffffffffffffffffffffffff168273ffffffffffffffffffffffffffffffffffffffff161492915050565b6107af3361071c565b6107e5576040517f406ed3da00000000000000000000000000000000000000000000000000000000815260040160405180910390fd5b6107ef8282610f86565b5050565b60006104267f8a22373512790c48b83a1fe2efdd2888d4a917bcdc24d0adf63e60f6716804605473ffffffffffffffffffffffffffffffffffffffff1690565b7f8a22373512790c48b83a1fe2efdd2888d4a917bcdc24d0adf63e60f6716804605473ffffffffffffffffffffffffffffffffffffffff1633146108a3576040517f2f7a8ee100000000000000000000000000000000000000000000000000000000815260040160405180910390fd5b600080547fffffffffffffffffffffffff00000000000000000000000000000000000000001673ffffffffffffffffffffffffffffffffffffffff83169081179091556002546040517ff3034770000000000000000000000000000000000000000000000000000000008152306004820152602481019190915263f3034770906044015b600060405180830381600087803b15801561094157600080fd5b505af1158015610955573d6000803e3d6000fd5b5050505050565b60048054825160208401206040517f796c5e940000000000000000000000000000000000000000000000000000000081529283015260609173ffffffffffffffffffffffffffffffffffffffff9091169063796c5e9490602401600060405180830381865afa1580156109d3573d6000803e3d6000fd5b505050506040513d6000823e601f3d9081017fffffffffffffffffffffffffffffffffffffffffffffffffffffffffffffffe016820160405261034491908101906118c9565b6000818152600160205260409020805460609190610a369061199e565b80601f0160208091040260200160405190810160405280929190818152602001828054610a629061199e565b8015610aaf5780601f10610a8457610100808354040283529160200191610aaf565b820191906000526020600020905b815481529060010190602001808311610a9257829003601f168201915b50505050509050919050565b7f8a22373512790c48b83a1fe2efdd2888d4a917bcdc24d0adf63e60f6716804605473ffffffffffffffffffffffffffffffffffffffff163314610b2b576040517f2f7a8ee100000000000000000000000000000000000000000000000000000000815260040160405180910390fd5b73ffffffffffffffffffffffffffffffffffffffff1660009081527f8ffeadc5cba727b8cc3cdef48739619490ea317fdb3baae1259089d06f92c9096020526040902080547fffffffffffffffffffffffffffffffffffffffffffffffffffffffffffffff00169055565b6003546040517fcccf7a8e0000000000000000000000000000000000000000000000000000000081526004810183905260009173ffffffffffffffffffffffffffffffffffffffff169063cccf7a8e90602401602060405180830381865afa158015610c06573d6000803e3d6000fd5b505050506040513d601f19601f8201168201806040525081019061034491906118ac565b7f8a22373512790c48b83a1fe2efdd2888d4a917bcdc24d0adf63e60f6716804605473ffffffffffffffffffffffffffffffffffffffff163314610c9a576040517f2f7a8ee100000000000000000000000000000000000000000000000000000000815260040160405180910390fd5b6104738161121d565b7f8a22373512790c48b83a1fe2efdd2888d4a917bcdc24d0adf63e60f67168046090565b60045460008281526001602052604090819020905173ffffffffffffffffffffffffffffffffffffffff909216916385edea1391610d04916119f1565b60405190819003812060e083901b7fffffffff000000000000000000000000000000000000000000000000000000001682526004820152602401602060405180830381865afa158015610d5b573d6000803e3d6000fd5b505050506040513d601f19601f82011682018060405250810190610d7f9190611ac3565b600003610d895750565b60045460008281526001602052604090819020905173ffffffffffffffffffffffffffffffffffffffff90921691636526db7a91610dc6916119f1565b60405190819003812060e083901b7fffffffff00000000000000000000000000000000000000000000000000000000168252600482015260248101849052604401600060405180830381600087803b158015610e2157600080fd5b505af1158015610e35573d6000803e3d6000fd5b50506003546040517f4cc822150000000000000000000000000000000000000000000000000000000081526004810185905273ffffffffffffffffffffffffffffffffffffffff9091169250634cc822159150602401600060405180830381600087803b158015610ea557600080fd5b505af1158015610eb9573d6000803e3d6000fd5b50505050610ec681611226565b60005b6005548110156107ef5760058181548110610ee657610ee661196f565b6000918252602090912001546040517f4cc822150000000000000000000000000000000000000000000000000000000081526004810184905273ffffffffffffffffffffffffffffffffffffffff90911690634cc8221590602401600060405180830381600087803b158015610f5b57600080fd5b505af1158015610f6f573d6000803e3d6000fd5b505050508080610f7e90611adc565b915050610ec9565b6003546040517f1003e2d20000000000000000000000000000000000000000000000000000000081526004810184905273ffffffffffffffffffffffffffffffffffffffff90911690631003e2d290602401600060405180830381600087803b158015610ff257600080fd5b505af1158015611006573d6000803e3d6000fd5b505060045460008581526001602052604090819020905173ffffffffffffffffffffffffffffffffffffffff9092169350636526db7a9250611047916119f1565b60405190819003812060e083901b7fffffffff00000000000000000000000000000000000000000000000000000000168252600482015260248101859052604401600060405180830381600087803b1580156110a257600080fd5b505af11580156110b6573d6000803e3d6000fd5b505060048054845160208601206040517f771602f7000000000000000000000000000000000000000000000000000000008152928301526024820186905273ffffffffffffffffffffffffffffffffffffffff16925063771602f79150604401600060405180830381600087803b15801561113057600080fd5b505af1158015611144573d6000803e3d6000fd5b505050506111528282611294565b60005b60055481101561121857600581815481106111725761117261196f565b6000918252602090912001546040517f0216b83800000000000000000000000000000000000000000000000000000000815273ffffffffffffffffffffffffffffffffffffffff90911690630216b838906111d39086908690600401611b3b565b600060405180830381600087803b1580156111ed57600080fd5b505af1158015611201573d6000803e3d6000fd5b50505050808061121090611adc565b915050611155565b505050565b61047381611342565b600081815260016020526040812061123d916113ee565b6000546040517f0de3b7b50000000000000000000000000000000000000000000000000000000081526004810183905273ffffffffffffffffffffffffffffffffffffffff90911690630de3b7b590602401610927565b600082815260016020908152604090912082516112b392840190611428565b506000546040517fcfd3c57f00000000000000000000000000000000000000000000000000000000815273ffffffffffffffffffffffffffffffffffffffff9091169063cfd3c57f9061130c9085908590600401611b3b565b600060405180830381600087803b15801561132657600080fd5b505af115801561133a573d6000803e3d6000fd5b505050505050565b7f8a22373512790c48b83a1fe2efdd2888d4a917bcdc24d0adf63e60f671680460805460405173ffffffffffffffffffffffffffffffffffffffff8481169216907f8be0079c531659141344cd1fd0a4f28419497f9722a3daafe3b4186f6b6457e090600090a380547fffffffffffffffffffffffff00000000000000000000000000000000000000001673ffffffffffffffffffffffffffffffffffffffff92909216919091179055565b5080546113fa9061199e565b6000825580601f1061140a575050565b601f01602090049060005260206000209081019061047391906114ac565b8280546114349061199e565b90600052602060002090601f016020900481019282611456576000855561149c565b82601f1061146f57805160ff191683800117855561149c565b8280016001018555821561149c579182015b8281111561149c578251825591602001919060010190611481565b506114a89291506114ac565b5090565b5b808211156114a857600081556001016114ad565b801515811461047357600080fd5b6000602082840312156114e157600080fd5b8135610369816114c1565b6020808252825182820181905260009190848201906040850190845b8181101561152457835183529284019291840191600101611508565b50909695505050505050565b60006020828403121561154257600080fd5b5035919050565b60006020828403121561155b57600080fd5b813573ffffffffffffffffffffffffffffffffffffffff8116811461036957600080fd5b6000815180845260005b818110156115a557602081850181015186830182015201611589565b818111156115b7576000602083870101525b50601f017fffffffffffffffffffffffffffffffffffffffffffffffffffffffffffffffe0169290920160200192915050565b7f4e487b7100000000000000000000000000000000000000000000000000000000600052602160045260246000fd5b6000604082016040835280855180835260608501915060608160051b8601019250602080880160005b8381101561168e577fffffffffffffffffffffffffffffffffffffffffffffffffffffffffffffffa088870301855261167c86835161157f565b95509382019390820190600101611642565b50508584038187015286518085528782019482019350915060005b828110156116fc578451602281106116ea577f4e487b7100000000000000000000000000000000000000000000000000000000600052602160045260246000fd5b845293810193928101926001016116a9565b5091979650505050505050565b7f4e487b7100000000000000000000000000000000000000000000000000000000600052604160045260246000fd5b604051601f82017fffffffffffffffffffffffffffffffffffffffffffffffffffffffffffffffe016810167ffffffffffffffff8111828210171561177f5761177f611709565b604052919050565b600082601f83011261179857600080fd5b813567ffffffffffffffff8111156117b2576117b2611709565b6117e360207fffffffffffffffffffffffffffffffffffffffffffffffffffffffffffffffe0601f84011601611738565b8181528460208386010111156117f857600080fd5b816020850160208301376000918101602001919091529392505050565b6000806040838503121561182857600080fd5b82359150602083013567ffffffffffffffff81111561184657600080fd5b61185285828601611787565b9150509250929050565b60006020828403121561186e57600080fd5b813567ffffffffffffffff81111561188557600080fd5b61189184828501611787565b949350505050565b602081526000610369602083018461157f565b6000602082840312156118be57600080fd5b8151610369816114c1565b600060208083850312156118dc57600080fd5b825167ffffffffffffffff808211156118f457600080fd5b818501915085601f83011261190857600080fd5b81518181111561191a5761191a611709565b8060051b915061192b848301611738565b818152918301840191848101908884111561194557600080fd5b938501935b838510156119635784518252938501939085019061194a565b98975050505050505050565b7f4e487b7100000000000000000000000000000000000000000000000000000000600052603260045260246000fd5b600181811c908216806119b257607f821691505b6020821081036119eb577f4e487b7100000000000000000000000000000000000000000000000000000000600052602260045260246000fd5b50919050565b600080835481600182811c915080831680611a0d57607f831692505b60208084108203611a45577f4e487b710000000000000000000000000000000000000000000000000000000086526022600452602486fd5b818015611a595760018114611a8857611ab5565b7fffffffffffffffffffffffffffffffffffffffffffffffffffffffffffffff00861689528489019650611ab5565b60008a81526020902060005b86811015611aad5781548b820152908501908301611a94565b505084890196505b509498975050505050505050565b600060208284031215611ad557600080fd5b5051919050565b60007fffffffffffffffffffffffffffffffffffffffffffffffffffffffffffffffff8203611b34577f4e487b7100000000000000000000000000000000000000000000000000000000600052601160045260246000fd5b5060010190565b828152604060208201526000611891604083018461157f56fea2646970667358221220c727d29e12da139e304cbf8f2326915d93bb3a5470759871efd66175b11ac95964736f6c634300080d0033608060405234801561001057600080fd5b5061001a3361001f565b6100b4565b600061003361009060201b6105431760201c565b80546040519192506001600160a01b03808516929116907f8be0079c531659141344cd1fd0a4f28419497f9722a3daafe3b4186f6b6457e090600090a380546001600160a01b0319166001600160a01b0392909216919091179055565b7f8a22373512790c48b83a1fe2efdd2888d4a917bcdc24d0adf63e60f67168046090565b610787806100c36000396000f3fe608060405234801561001057600080fd5b50600436106100885760003560e01c80638e7cb6e11161005b5780638e7cb6e114610100578063949d225d1461012a578063cccf7a8e1461013b578063f2fde38b1461015e57600080fd5b80631003e2d21461008d578063410d59cc146100a25780634cc82215146100c05780638da5cb5b146100d3575b600080fd5b6100a061009b36600461061b565b610171565b005b6100aa610233565b6040516100b79190610634565b60405180910390f35b6100a06100ce36600461061b565b61028b565b6100db6103ef565b60405173ffffffffffffffffffffffffffffffffffffffff90911681526020016100b7565b61011361010e36600461061b565b610434565b6040805192151583526020830191909152016100b7565b6000546040519081526020016100b7565b61014e61014936600461061b565b610467565b60405190151581526020016100b7565b6100a061016c366004610678565b6104ca565b7f8a22373512790c48b83a1fe2efdd2888d4a917bcdc24d0adf63e60f6716804605473ffffffffffffffffffffffffffffffffffffffff1633146101e1576040517f2f7a8ee100000000000000000000000000000000000000000000000000000000815260040160405180910390fd5b6101ea81610467565b61023057600080548282526001602081905260408320829055810182559080527f290decd9548b62a8d60345a988386fc84ba6bc95484008f6362f93160ef3e563018190555b50565b6060600080548060200260200160405190810160405280929190818152602001828054801561028157602002820191906000526020600020905b81548152602001906001019080831161026d575b5050505050905090565b7f8a22373512790c48b83a1fe2efdd2888d4a917bcdc24d0adf63e60f6716804605473ffffffffffffffffffffffffffffffffffffffff1633146102fb576040517f2f7a8ee100000000000000000000000000000000000000000000000000000000815260040160405180910390fd5b61030481610467565b156102305760008054610319906001906106b5565b81548110610329576103296106f3565b9060005260206000200154600060016000848152602001908152602001600020548154811061035a5761035a6106f3565b60009182526020808320909101929092558281526001918290526040812054815490929190819084908110610391576103916106f3565b9060005260206000200154815260200190815260200160002081905550600160008281526020019081526020016000206000905560008054806103d6576103d6610722565b6001900381819060005260206000200160009055905550565b600061042f7f8a22373512790c48b83a1fe2efdd2888d4a917bcdc24d0adf63e60f6716804605473ffffffffffffffffffffffffffffffffffffffff1690565b905090565b60008061044083610467565b61044f57506000928392509050565b50506000908152600160208190526040909120549091565b60008054810361047957506000919050565b60008281526001602052604081205490036104b55781600080815481106104a2576104a26106f3565b9060005260206000200154149050919050565b50600090815260016020526040902054151590565b7f8a22373512790c48b83a1fe2efdd2888d4a917bcdc24d0adf63e60f6716804605473ffffffffffffffffffffffffffffffffffffffff16331461053a576040517f2f7a8ee100000000000000000000000000000000000000000000000000000000815260040160405180910390fd5b61023081610567565b7f8a22373512790c48b83a1fe2efdd2888d4a917bcdc24d0adf63e60f67168046090565b7f8a22373512790c48b83a1fe2efdd2888d4a917bcdc24d0adf63e60f6716804608054604051610230928492909173ffffffffffffffffffffffffffffffffffffffff8085169216907f8be0079c531659141344cd1fd0a4f28419497f9722a3daafe3b4186f6b6457e090600090a380547fffffffffffffffffffffffff00000000000000000000000000000000000000001673ffffffffffffffffffffffffffffffffffffffff92909216919091179055565b60006020828403121561062d57600080fd5b5035919050565b6020808252825182820181905260009190848201906040850190845b8181101561066c57835183529284019291840191600101610650565b50909695505050505050565b60006020828403121561068a57600080fd5b813573ffffffffffffffffffffffffffffffffffffffff811681146106ae57600080fd5b9392505050565b6000828210156106ee577f4e487b7100000000000000000000000000000000000000000000000000000000600052601160045260246000fd5b500390565b7f4e487b7100000000000000000000000000000000000000000000000000000000600052603260045260246000fd5b7f4e487b7100000000000000000000000000000000000000000000000000000000600052603160045260246000fdfea2646970667358221220c147fe9d375839842a60b6e353fbf54ccdf2be51cec6c48f280257f98aa8724264736f6c634300080d0033608060405234801561001057600080fd5b5061001a3361001f565b6100b4565b600061003361009060201b6105691760201c565b80546040519192506001600160a01b03808516929116907f8be0079c531659141344cd1fd0a4f28419497f9722a3daafe3b4186f6b6457e090600090a380546001600160a01b0319166001600160a01b0392909216919091179055565b7f8a22373512790c48b83a1fe2efdd2888d4a917bcdc24d0adf63e60f67168046090565b6107cf806100c36000396000f3fe608060405234801561001057600080fd5b506004361061007d5760003560e01c806385edea131161005b57806385edea13146100d35780638da5cb5b14610101578063a0265ff81461012e578063f2fde38b1461015157600080fd5b80636526db7a14610082578063771602f714610097578063796c5e94146100aa575b600080fd5b610095610090366004610641565b610164565b005b6100956100a5366004610641565b610301565b6100bd6100b8366004610663565b6103b5565b6040516100ca919061067c565b60405180910390f35b6100f36100e1366004610663565b60009081526020819052604090205490565b6040519081526020016100ca565b610109610415565b60405173ffffffffffffffffffffffffffffffffffffffff90911681526020016100ca565b61014161013c366004610641565b61045a565b60405190151581526020016100ca565b61009561015f3660046106c0565b6104ed565b7f8a22373512790c48b83a1fe2efdd2888d4a917bcdc24d0adf63e60f6716804605473ffffffffffffffffffffffffffffffffffffffff1633146101d4576040517f2f7a8ee100000000000000000000000000000000000000000000000000000000815260040160405180910390fd5b6101de828261045a565b156102fd57600082815260208190526040902080546101ff906001906106fd565b8154811061020f5761020f61073b565b600091825260208083209091015484835282825260408084206001845281852086865290935290922054815481106102495761024961073b565b6000918252602080832090910192909255838152600182526040808220848352808452818320548684528385529183208584529381905283549193909291849081106102975761029761073b565b600091825260208083209091015483528281019390935260409182018120939093558483526001825280832084845282528083208390558483529082905290208054806102e6576102e661076a565b600190038181906000526020600020016000905590555b5050565b7f8a22373512790c48b83a1fe2efdd2888d4a917bcdc24d0adf63e60f6716804605473ffffffffffffffffffffffffffffffffffffffff163314610371576040517f2f7a8ee100000000000000000000000000000000000000000000000000000000815260040160405180910390fd5b61037b828261045a565b6102fd5760009182526020828152604080842080546001808552838720868852855292862081905585845291820181558452922090910155565b6000818152602081815260409182902080548351818402810184019094528084526060939283018282801561040957602002820191906000526020600020905b8154815260200190600101908083116103f5575b50505050509050919050565b60006104557f8a22373512790c48b83a1fe2efdd2888d4a917bcdc24d0adf63e60f6716804605473ffffffffffffffffffffffffffffffffffffffff1690565b905090565b6000828152602081905260408120548103610477575060006104e7565b600083815260016020908152604080832085845290915281205490036104c957600083815260208190526040812080548492906104b6576104b661073b565b90600052602060002001541490506104e7565b50600082815260016020908152604080832084845290915290205415155b92915050565b7f8a22373512790c48b83a1fe2efdd2888d4a917bcdc24d0adf63e60f6716804605473ffffffffffffffffffffffffffffffffffffffff16331461055d576040517f2f7a8ee100000000000000000000000000000000000000000000000000000000815260040160405180910390fd5b6105668161058d565b50565b7f8a22373512790c48b83a1fe2efdd2888d4a917bcdc24d0adf63e60f67168046090565b7f8a22373512790c48b83a1fe2efdd2888d4a917bcdc24d0adf63e60f6716804608054604051610566928492909173ffffffffffffffffffffffffffffffffffffffff8085169216907f8be0079c531659141344cd1fd0a4f28419497f9722a3daafe3b4186f6b6457e090600090a380547fffffffffffffffffffffffff00000000000000000000000000000000000000001673ffffffffffffffffffffffffffffffffffffffff92909216919091179055565b6000806040838503121561065457600080fd5b50508035926020909101359150565b60006020828403121561067557600080fd5b5035919050565b6020808252825182820181905260009190848201906040850190845b818110156106b457835183529284019291840191600101610698565b50909695505050505050565b6000602082840312156106d257600080fd5b813573ffffffffffffffffffffffffffffffffffffffff811681146106f657600080fd5b9392505050565b600082821015610736577f4e487b7100000000000000000000000000000000000000000000000000000000600052601160045260246000fd5b500390565b7f4e487b7100000000000000000000000000000000000000000000000000000000600052603260045260246000fd5b7f4e487b7100000000000000000000000000000000000000000000000000000000600052603160045260246000fdfea26469706673582212205075ee04a55006f7c2f4ac9e1dcd4d1823c68da532c74ffb7267527bfc04459a64736f6c634300080d0033",
    "linkReferences": {}
  },
  "methodIdentifiers": {
    "authorizeWriter(address)": "4fef6a38",
    "getEntities()": "31b933b9",
    "getEntitiesWithValue(bool)": "001326ab",
    "getEntitiesWithValue(bytes)": "b361be46",
    "getRawValue(uint256)": "b8bc073d",
    "getSchema()": "6b122fe0",
    "getValue(uint256)": "0ff4c916",
    "has(uint256)": "cccf7a8e",
    "id()": "af640d0f",
    "owner()": "8da5cb5b",
    "registerIndexer(address)": "75c0669c",
    "registerWorld(address)": "9d2c76b4",
    "remove(uint256)": "4cc82215",
    "set(uint256)": "60fe47b1",
    "set(uint256,bytes)": "8b282947",
    "transferOwnership(address)": "f2fde38b",
    "unauthorizeWriter(address)": "bf4fe57e",
    "world()": "30b67baa",
    "writeAccess(address)": "861eb905"
  },
  "id": 77
}