{
  "abi": [
    {
      "inputs": [
        {
          "internalType": "contract Component",
          "name": "_component",
          "type": "address"
        },
        {
          "internalType": "uint32",
          "name": "maxPoints",
          "type": "uint32"
        },
        {
          "internalType": "uint32",
          "name": "depth",
          "type": "uint32"
        }
      ],
      "stateMutability": "nonpayable",
      "type": "constructor"
    },
    {
      "inputs": [],
      "name": "getEntities",
      "outputs": [
        {
          "internalType": "uint256[]",
          "name": "",
          "type": "uint256[]"
        }
      ],
      "stateMutability": "view",
      "type": "function"
    },
    {
      "inputs": [
        {
          "internalType": "bytes",
          "name": "value",
          "type": "bytes"
        }
      ],
      "name": "getEntitiesWithValue",
      "outputs": [
        {
          "internalType": "uint256[]",
          "name": "",
          "type": "uint256[]"
        }
      ],
      "stateMutability": "view",
      "type": "function"
    },
    {
      "inputs": [
        {
          "internalType": "uint256",
          "name": "id",
          "type": "uint256"
        }
      ],
      "name": "getNode",
      "outputs": [
        {
          "components": [
            {
              "internalType": "uint32",
              "name": "maxPoints",
              "type": "uint32"
            },
            {
              "internalType": "uint32",
              "name": "depth",
              "type": "uint32"
            },
            {
              "internalType": "uint256[]",
              "name": "points",
              "type": "uint256[]"
            },
            {
              "internalType": "uint256[]",
              "name": "children",
              "type": "uint256[]"
            },
            {
              "components": [
                {
                  "internalType": "int64",
                  "name": "cx",
                  "type": "int64"
                },
                {
                  "internalType": "int64",
                  "name": "cy",
                  "type": "int64"
                },
                {
                  "internalType": "uint64",
                  "name": "w",
                  "type": "uint64"
                },
                {
                  "internalType": "uint64",
                  "name": "h",
                  "type": "uint64"
                },
                {
                  "internalType": "int64",
                  "name": "westEdge",
                  "type": "int64"
                },
                {
                  "internalType": "int64",
                  "name": "eastEdge",
                  "type": "int64"
                },
                {
                  "internalType": "int64",
                  "name": "northEdge",
                  "type": "int64"
                },
                {
                  "internalType": "int64",
                  "name": "southEdge",
                  "type": "int64"
                }
              ],
              "internalType": "struct Rectangle",
              "name": "bounds",
              "type": "tuple"
            },
            {
              "internalType": "bool",
              "name": "divided",
              "type": "bool"
            }
          ],
          "internalType": "struct Node",
          "name": "",
          "type": "tuple"
        }
      ],
      "stateMutability": "view",
      "type": "function"
    },
    {
      "inputs": [
        {
          "internalType": "uint256",
          "name": "id",
          "type": "uint256"
        }
      ],
      "name": "getPoint",
      "outputs": [
        {
          "components": [
            {
              "internalType": "int64",
              "name": "x",
              "type": "int64"
            },
            {
              "internalType": "int64",
              "name": "y",
              "type": "int64"
            },
            {
              "internalType": "uint256",
              "name": "entityID",
              "type": "uint256"
            },
            {
              "internalType": "uint256",
              "name": "parentNode",
              "type": "uint256"
            }
          ],
          "internalType": "struct Point",
          "name": "",
          "type": "tuple"
        }
      ],
      "stateMutability": "view",
      "type": "function"
    },
    {
      "inputs": [
        {
          "internalType": "uint256",
          "name": "entity",
          "type": "uint256"
        }
      ],
      "name": "has",
      "outputs": [
        {
          "internalType": "bool",
          "name": "",
          "type": "bool"
        }
      ],
      "stateMutability": "view",
      "type": "function"
    },
    {
      "inputs": [
        {
          "components": [
            {
              "internalType": "int64",
              "name": "cx",
              "type": "int64"
            },
            {
              "internalType": "int64",
              "name": "cy",
              "type": "int64"
            },
            {
              "internalType": "uint64",
              "name": "w",
              "type": "uint64"
            },
            {
              "internalType": "uint64",
              "name": "h",
              "type": "uint64"
            },
            {
              "internalType": "int64",
              "name": "westEdge",
              "type": "int64"
            },
            {
              "internalType": "int64",
              "name": "eastEdge",
              "type": "int64"
            },
            {
              "internalType": "int64",
              "name": "northEdge",
              "type": "int64"
            },
            {
              "internalType": "int64",
              "name": "southEdge",
              "type": "int64"
            }
          ],
          "internalType": "struct Rectangle",
          "name": "rect",
          "type": "tuple"
        }
      ],
      "name": "printRect",
      "outputs": [],
      "stateMutability": "view",
      "type": "function"
    },
    {
      "inputs": [
        {
          "internalType": "uint256",
          "name": "id",
          "type": "uint256"
        }
      ],
      "name": "printTree",
      "outputs": [],
      "stateMutability": "view",
      "type": "function"
    },
    {
      "inputs": [
        {
          "internalType": "uint256",
          "name": "entity",
          "type": "uint256"
        }
      ],
      "name": "remove",
      "outputs": [],
      "stateMutability": "nonpayable",
      "type": "function"
    },
    {
      "inputs": [
        {
          "internalType": "bytes4",
          "name": "interfaceId",
          "type": "bytes4"
        }
      ],
      "name": "supportsInterface",
      "outputs": [
        {
          "internalType": "bool",
          "name": "",
          "type": "bool"
        }
      ],
      "stateMutability": "view",
      "type": "function"
    },
    {
      "inputs": [
        {
          "internalType": "uint256",
          "name": "entity",
          "type": "uint256"
        },
        {
          "internalType": "bytes",
          "name": "value",
          "type": "bytes"
        }
      ],
      "name": "update",
      "outputs": [],
      "stateMutability": "nonpayable",
      "type": "function"
    }
  ],
  "bytecode": {
    "object": "0x60806040523480156200001157600080fd5b5060405162003e5538038062003e55833981016040819052620000349162000404565b6000600581905560048181556040805160c08101825263ffffffff868116825285166020808301919091528251948552848101835281830194909452815183815260a081019092529260608401929082016080803683375050508152602001620000c2600080620000ab63ffffffff600262000471565b620000bc63ffffffff600262000471565b62000299565b815260006020918201819052600554815260028252604090819020835181548585015163ffffffff908116640100000000026001600160401b03199092169216919091171781559083015180519192620001259260018501929091019062000375565b50606082015180516200014391600284019160209091019062000375565b5060808281015180516003840180546020840151604085015160608601516001600160401b039586166001600160801b031994851617680100000000000000009387168402176001600160801b03908116600160801b93881684026001600160c01b0390811691909117600160c01b9389168402179096559787015160048a01805460a0808b015160c08c015160e0909c0151948b1692909816919091179689169095029590951790981696861690910290931694909417949092160292909217909155909101516005918201805460ff191691151591909117905580549060006200022f83620004a3565b91905055506040516200024290620003c5565b604051809103906000f0801580156200025f573d6000803e3d6000fd5b50600080546001600160a01b039283166001600160a01b031991821617909155600180549590921694169390931790925550620005bc9050565b604080516101008101825260006080820181905260a0820181905260c0820181905260e0820152600786810b825285900b60208201526001600160401b03848116928201929092529082166060820152620002f6600284620004bf565b6200030290866200050f565b60070b608082015262000317600284620004bf565b62000323908662000565565b60070b60a082015262000338600283620004bf565b6200034490856200050f565b60070b60c082015262000359600283620004bf565b62000365908562000565565b60070b60e0820152949350505050565b828054828255906000526020600020908101928215620003b3579160200282015b82811115620003b357825182559160200191906001019062000396565b50620003c1929150620003d3565b5090565b6104388062003a1d83390190565b5b80821115620003c15760008155600101620003d4565b805163ffffffff81168114620003ff57600080fd5b919050565b6000806000606084860312156200041a57600080fd5b83516001600160a01b03811681146200043257600080fd5b92506200044260208501620003ea565b91506200045260408501620003ea565b90509250925092565b634e487b7160e01b600052601160045260246000fd5b60006001600160401b03828116848216811515828404821116156200049a576200049a6200045b565b02949350505050565b600060018201620004b857620004b86200045b565b5060010190565b60008160070b8360070b80620004e557634e487b7160e01b600052601260045260246000fd5b60016001603f1b03198214600019821416156200050657620005066200045b565b90059392505050565b6000600782810b9084900b828112801560016001603f1b03198301841216156200053d576200053d6200045b565b60016001603f1b03820183138116156200055b576200055b6200045b565b5090039392505050565b6000600782810b9084900b828212801560016001603f1b03849003831316156200059357620005936200045b565b60016001603f1b03198390038212811615620005b357620005b36200045b565b50019392505050565b61345180620005cc6000396000f3fe608060405234801561001057600080fd5b50600436106100be5760003560e01c806360ae32d611610076578063b361be461161005b578063b361be4614610219578063c0ea6a561461022c578063cccf7a8e1461023f57600080fd5b806360ae32d614610148578063869f1c8e1461015b57600080fd5b806331b933b9116100a757806331b933b9146101005780634cc82215146101155780634f0f4aa91461012857600080fd5b806301ffc9a7146100c35780630216b838146100eb575b600080fd5b6100d66100d1366004612a8e565b610264565b60405190151581526020015b60405180910390f35b6100fe6100f9366004612c06565b6102fd565b005b6101086103b7565b6040516100e29190612c4d565b6100fe610123366004612c91565b610471565b61013b610136366004612c91565b610524565b6040516100e29190612ce5565b6100fe610156366004612c91565b610730565b6101db610169366004612c91565b604080516080808201835260008083526020808401829052838501829052606093840182905294815260038552839020835191820184528054600781810b845268010000000000000000909104900b948201949094526001840154928101929092526002909201549181019190915290565b6040516100e291906000608082019050825160070b8252602083015160070b6020830152604083015160408301526060830151606083015292915050565b610108610227366004612e1a565b610b21565b6100fe61023a366004612e97565b610c0d565b6100d661024d366004612c91565b600090815260036020526040902060010154151590565b60007fffffffff0000000000000000000000000000000000000000000000000000000082167f01ffc9a70000000000000000000000000000000000000000000000000000000014806102f757507fffffffff0000000000000000000000000000000000000000000000000000000082167f4ede9a2d00000000000000000000000000000000000000000000000000000000145b92915050565b60015473ffffffffffffffffffffffffffffffffffffffff1633146103a9576040517f08c379a000000000000000000000000000000000000000000000000000000000815260206004820152602960248201527f517561647472656520646f6573206e6f7420696e6465782063616c6c6572206360448201527f6f6d706f6e656e7421000000000000000000000000000000000000000000000060648201526084015b60405180910390fd5b6103b38282610f05565b5050565b60008054604080517f410d59cc000000000000000000000000000000000000000000000000000000008152905160609373ffffffffffffffffffffffffffffffffffffffff9093169263410d59cc92600480820193918290030181865afa158015610426573d6000803e3d6000fd5b505050506040513d6000823e601f3d9081017fffffffffffffffffffffffffffffffffffffffffffffffffffffffffffffffe016820160405261046c9190810190612f3f565b905090565b60015473ffffffffffffffffffffffffffffffffffffffff163314610518576040517f08c379a000000000000000000000000000000000000000000000000000000000815260206004820152602960248201527f517561647472656520646f6573206e6f7420696e6465782063616c6c6572206360448201527f6f6d706f6e656e7421000000000000000000000000000000000000000000000060648201526084016103a0565b61052181610f84565b50565b6105986040805160c08082018352600080835260208084018290526060848601819052808501819052855161010081018752838152918201839052948101829052938401819052608084810182905260a0850182905291840181905260e08401529091908201908152600060209091015290565b600082815260026020908152604091829020825160c081018452815463ffffffff808216835264010000000090910416818401526001820180548551818602810186018752818152929593949386019383018282801561061757602002820191906000526020600020905b815481526020019060010190808311610603575b505050505081526020016002820180548060200260200160405190810160405280929190818152602001828054801561066f57602002820191906000526020600020905b81548152602001906001019080831161065b575b505050918352505060408051610100810182526003840154600781810b835268010000000000000000808304820b60208086019190915270010000000000000000000000000000000080850467ffffffffffffffff90811687890152780100000000000000000000000000000000000000000000000095869004166060870152600489015480850b6080880152928304840b60a08701528204830b60c0860152929004900b60e083015283015260059092015460ff16151591015292915050565b6000818152600260209081526040808320815160c081018352815463ffffffff808216835264010000000090910416818501526001820180548451818702810187018652818152929593948601938301828280156107ad57602002820191906000526020600020905b815481526020019060010190808311610799575b505050505081526020016002820180548060200260200160405190810160405280929190818152602001828054801561080557602002820191906000526020600020905b8154815260200190600101908083116107f1575b505050918352505060408051610100810182526003840154600781810b835268010000000000000000808304820b60208086019190915270010000000000000000000000000000000080850467ffffffffffffffff908116878901527801000000000000000000000000000000000000000000000000958690041660608088019190915260048a015480860b6080890152938404850b60a0880152908304840b60c08701529390910490910b60e08401528085019290925260059094015460ff1615159282019290925280519283019052602280835292935061090192906133fa9083013983836020015163ffffffff168460400151516111ed565b61093f6040518060400160405280600981526020017f4368696c6472656e3a0000000000000000000000000000000000000000000000815250611288565b61099c6040518060400160405280600681526020017f4e573a2025730000000000000000000000000000000000000000000000000000815250826060015160008151811061098f5761098f612fe5565b6020026020010151611317565b6109ec6040518060400160405280600681526020017f4e453a2025730000000000000000000000000000000000000000000000000000815250826060015160018151811061098f5761098f612fe5565b610a3c6040518060400160405280600681526020017f53453a2025730000000000000000000000000000000000000000000000000000815250826060015160028151811061098f5761098f612fe5565b610a8c6040518060400160405280600681526020017f53573a2025730000000000000000000000000000000000000000000000000000815250826060015160038151811061098f5761098f612fe5565b610aca6040518060400160405280601881526020017f2d2d2d2d2d2d2d2d2d2d2d2d2d2d2d2d2d2d2d2d2d2d2d2d0000000000000000815250611288565b8060a00151156103b35760005b816060015151811015610b1c57610b0a82606001518281518110610afd57610afd612fe5565b6020026020010151610730565b80610b1481613043565b915050610ad7565b505050565b6060600082806020019051810190610b399190613091565b90506000610b5360045483610b4e60006113a8565b6113e6565b90506000610b6082515190565b905060008167ffffffffffffffff811115610b7d57610b7d612ad0565b604051908082528060200260200182016040528015610ba6578160200160208202803683370190505b50905060005b82811015610c035760036000610bc28684611681565b815260200190815260200160002060010154828281518110610be657610be6612fe5565b602090810291909101015280610bfb81613043565b915050610bac565b5095945050505050565b610c4b6040518060400160405280601281526020017f52656374616e676c65202d2d2d2d2d2d2d2d0000000000000000000000000000815250611288565b610c896040518060400160405280600881526020017f43656e7465722058000000000000000000000000000000000000000000000000815250611288565b8051610c979060070b61169b565b610cd56040518060400160405280600881526020017f43656e7465722059000000000000000000000000000000000000000000000000815250611288565b610ce5816020015160070b61169b565b610d236040518060400160405280600581526020017f5769647468000000000000000000000000000000000000000000000000000000815250611288565b610d3a816040015167ffffffffffffffff1661172c565b610d786040518060400160405280600681526020017f4865696768740000000000000000000000000000000000000000000000000000815250611288565b610d8f816060015167ffffffffffffffff1661172c565b610dcd6040518060400160405280600981526020017f5765737420456467650000000000000000000000000000000000000000000000815250611288565b610ddd816080015160070b61169b565b610e1b6040518060400160405280600981526020017f4561737420456467650000000000000000000000000000000000000000000000815250611288565b610e2b8160a0015160070b61169b565b610e696040518060400160405280600a81526020017f4e6f727468204564676500000000000000000000000000000000000000000000815250611288565b610e798160c0015160070b61169b565b610eb76040518060400160405280600a81526020017f536f757468204564676500000000000000000000000000000000000000000000815250611288565b610ec78160e0015160070b61169b565b6105216040518060400160405280601381526020017f2d2d2d2d2d2d2d2d2d2d2d2d2d2d2d2d2d2d2d00000000000000000000000000815250611288565b60008082806020019051810190610f1c919061312d565b60408051608081018252600784810b825283900b6020820152908101879052600060608201529193509150610f6285600090815260036020526040902060010154151590565b15610f7057610f7085610f84565b610f7c600454826117bd565b505050505050565b600081815260036020526040902060010154610ffc576040517f08c379a000000000000000000000000000000000000000000000000000000000815260206004820152601a60248201527f456e74697479206973206e6f7420696e2051756164747265652e00000000000060448201526064016103a0565b6000818152600360209081526040808320600290810154808552908352818420600101805483518186028101860190945280845291949390919083018282801561106557602002820191906000526020600020905b815481526020019060010190808311611051575b509394506000935061107692505050565b60405190808252806020026020018201604052801561109f578160200160208202803683370190505b506002600084815260200190815260200160002060010190805190602001906110c9929190612a2e565b5060005b815181101561115057838282815181106110e9576110e9612fe5565b60200260200101511461113e576002600084815260200190815260200160002060010182828151811061111e5761111e612fe5565b602090810291909101810151825460018101845560009384529190922001555b8061114881613043565b9150506110cd565b50600083815260036020526040808220600101829055905490517f4cc822150000000000000000000000000000000000000000000000000000000081526004810185905273ffffffffffffffffffffffffffffffffffffffff90911690634cc8221590602401600060405180830381600087803b1580156111d057600080fd5b505af11580156111e4573d6000803e3d6000fd5b50505050505050565b6112828484848460405160240161120794939291906131d2565b604080517fffffffffffffffffffffffffffffffffffffffffffffffffffffffffffffffe08184030181529190526020810180517bffffffffffffffffffffffffffffffffffffffffffffffffffffffff167f08ee566600000000000000000000000000000000000000000000000000000000179052611ac0565b50505050565b6105218160405160240161129c9190613201565b604080517fffffffffffffffffffffffffffffffffffffffffffffffffffffffffffffffe08184030181529190526020810180517bffffffffffffffffffffffffffffffffffffffffffffffffffffffff167f41304fac00000000000000000000000000000000000000000000000000000000179052611ac0565b6103b3828260405160240161132d929190613214565b604080517fffffffffffffffffffffffffffffffffffffffffffffffffffffffffffffffe08184030181529190526020810180517bffffffffffffffffffffffffffffffffffffffffffffffffffffffff167f9710a9d000000000000000000000000000000000000000000000000000000000179052611ac0565b6000806113d1836000604051905060208260020102810160405281816020015260008152919050565b60408051918252805160200190529392505050565b60008381526002602090815260408083208151610100810183526003820154600781810b835268010000000000000000808304820b9684019690965267ffffffffffffffff70010000000000000000000000000000000080840482169685019690965278010000000000000000000000000000000000000000000000009283900416606084015260049093015480840b6080840152948504830b60a0830152928404820b60c08201529190920490910b60e08201526114a59084611ae1565b6114b057508061167a565b60005b6000858152600260205260409020600101548110156115fe5760008581526002602052604081206001018054611557928792600392869081106114f8576114f8612fe5565b60009182526020808320909101548352828101939093526040918201902081516080810183528154600781810b835268010000000000000000909104900b93810193909352600181015491830191909152600201546060820152611b44565b80156115a557506000858152600260205260408120600101805460039183918590811061158657611586612fe5565b9060005260206000200154815260200190815260200160002060010154115b156115ec57600085815260026020526040902060010180546115ec9190839081106115d2576115d2612fe5565b906000526020600020015484611bab90919063ffffffff16565b806115f681613043565b9150506114b3565b5060008481526002602052604090206005015460ff16156116775760005b60048110156116755761166160026000878152602001908152602001600020600201828154811061164f5761164f612fe5565b906000526020600020015485856113e6565b92508061166d81613043565b91505061161c565b505b50805b9392505050565b600061167a8261168f855190565b90600201602002015190565b610521816040516024016116b191815260200190565b604080517fffffffffffffffffffffffffffffffffffffffffffffffffffffffffffffffe08184030181529190526020810180517bffffffffffffffffffffffffffffffffffffffffffffffffffffffff167f4e0c1d1d00000000000000000000000000000000000000000000000000000000179052611ac0565b6105218160405160240161174291815260200190565b604080517fffffffffffffffffffffffffffffffffffffffffffffffffffffffffffffffe08184030181529190526020810180517bffffffffffffffffffffffffffffffffffffffffffffffffffffffff167ff5b1bba900000000000000000000000000000000000000000000000000000000179052611ac0565b60008281526002602090815260408083208151610100810183526003820154600781810b835268010000000000000000808304820b9684019690965267ffffffffffffffff70010000000000000000000000000000000080840482169685019690965278010000000000000000000000000000000000000000000000009283900416606084015260049093015480840b6080840152948504830b60a0830152928404820b60c08201529190920490910b60e082015261187c9083611b44565b611888575060006102f7565b6000838152600260205260409020805460019091015463ffffffff90911611156119d65760008381526002602081815260408084208682018051600192830180548085018255908852858820015560608801898152815187526003855283872089518154968b015167ffffffffffffffff90811668010000000000000000027fffffffffffffffffffffffffffffffff000000000000000000000000000000009098169116179590951785559051918401829055519290930191909155915491517f1003e2d200000000000000000000000000000000000000000000000000000000815273ffffffffffffffffffffffffffffffffffffffff90921691631003e2d29161199b9160040190815260200190565b600060405180830381600087803b1580156119b557600080fd5b505af11580156119c9573d6000803e3d6000fd5b50505050600190506102f7565b60008381526002602052604090206005015460ff166119f8576119f883611bb7565b60008381526002602081905260408220018054611a2d9290611a1c57611a1c612fe5565b9060005260206000200154836117bd565b80611a5e5750611a5e60026000858152602001908152602001600020600201600181548110611a1c57611a1c612fe5565b80611a8f5750611a8f60026000858152602001908152602001600020600201600281548110611a1c57611a1c612fe5565b8061167a575061167a60026000858152602001908152602001600020600201600381548110611a1c57611a1c612fe5565b80516a636f6e736f6c652e6c6f67602083016000808483855afa5050505050565b60008260a0015160070b826080015160070b1380611b0c5750826080015160070b8260a0015160070b125b80611b2457508260e0015160070b8260c0015160070b135b80611b3c57508260c0015160070b8260e0015160070b125b159392505050565b6000826080015160070b826000015160070b12158015611b7157508260a0015160070b826000015160070b125b8015611b8b57508260c0015160070b826020015160070b12155b801561167a57508260e0015160070b826020015160070b12905092915050565b6103b38282600061287f565b6000818152600260208190526040822060030154600781810b9368010000000000000000830490910b929091611c0b9190700100000000000000000000000000000000900467ffffffffffffffff16613265565b60008581526002602081905260408220600301549293509091611c5491907801000000000000000000000000000000000000000000000000900467ffffffffffffffff16613265565b6040805160c0810182526000888152600260208181529382205463ffffffff8082168552928b9052908452939450909291830191611c9d9164010000000090910416600161328c565b63ffffffff1681526020016000604051908082528060200260200182016040528015611cd3578160200160208202803683370190505b50815260408051600480825260a0820190925260209283019290919082016080803683375050508152602001611d33611d0d6002866132b4565b611d179088613328565b611d226002866132b4565b611d2c9088613328565b868661289d565b815260006020918201819052600554815260028252604090819020835181548585015163ffffffff908116640100000000027fffffffffffffffffffffffffffffffffffffffffffffffff00000000000000009092169216919091171781559083015180519192611dac92600185019290910190612a2e565b5060608201518051611dc8916002840191602090910190612a2e565b506080828101518051600384018054602080850151604080870151606088015167ffffffffffffffff9788167fffffffffffffffffffffffffffffffff0000000000000000000000000000000096871617680100000000000000009489168502176fffffffffffffffffffffffffffffffff908116700100000000000000000000000000000000938a16840277ffffffffffffffffffffffffffffffffffffffffffffffff908116919091177801000000000000000000000000000000000000000000000000938b168402179098559989015160048c01805460a0808d015160c08e015160e0909e0151948d1692909a1691909117988b1690960297909717909a1698881690910290951696909617969094169092029490941790935590930151600592830180547fffffffffffffffffffffffffffffffffffffffffffffffffffffffffffffff001691151591909117905590546000888152600292839052928320909101805491929091611f4057611f40612fe5565b60009182526020822001919091556005805491611f5c83613043565b90915550506040805160c0810182526000878152600260208181529382205463ffffffff8082168552928a90529084529192830191611fa69164010000000090910416600161328c565b63ffffffff1681526020016000604051908082528060200260200182016040528015611fdc578160200160208202803683370190505b50815260408051600480825260a08201909252602092830192909190820160808036833750505081526020016120206120166002866132b4565b611d179088613391565b815260006020918201819052600554815260028252604090819020835181548585015163ffffffff908116640100000000027fffffffffffffffffffffffffffffffffffffffffffffffff0000000000000000909216921691909117178155908301518051919261209992600185019290910190612a2e565b50606082015180516120b5916002840191602090910190612a2e565b506080828101518051600384018054602080850151604080870151606088015167ffffffffffffffff9788167fffffffffffffffffffffffffffffffff0000000000000000000000000000000096871617680100000000000000009489168502176fffffffffffffffffffffffffffffffff908116700100000000000000000000000000000000938a16840277ffffffffffffffffffffffffffffffffffffffffffffffff908116919091177801000000000000000000000000000000000000000000000000938b168402179098559989015160048c01805460a0808d015160c08e015160e0909e0151948d1692909a1691909117988b1690960297909717909a1698881690910290951696909617969094169092029490941790935590930151600592830180547fffffffffffffffffffffffffffffffffffffffffffffffffffffffffffffff00169115159190911790559054600088815260029283905292909220018054600190811061222d5761222d612fe5565b6000918252602082200191909155600580549161224983613043565b90915550506040805160c0810182526000878152600260208181529382205463ffffffff8082168552928a905290845291928301916122939164010000000090910416600161328c565b63ffffffff16815260200160006040519080825280602002602001820160405280156122c9578160200160208202803683370190505b50815260408051600480825260a08201909252602092830192909190820160808036833750505081526020016123226123036002866132b4565b61230d9088613391565b6123186002866132b4565b611d2c9088613391565b815260006020918201819052600554815260028252604090819020835181548585015163ffffffff908116640100000000027fffffffffffffffffffffffffffffffffffffffffffffffff0000000000000000909216921691909117178155908301518051919261239b92600185019290910190612a2e565b50606082015180516123b7916002840191602090910190612a2e565b506080828101518051600384018054602080850151604080870151606088015167ffffffffffffffff9788167fffffffffffffffffffffffffffffffff0000000000000000000000000000000096871617680100000000000000009489168502176fffffffffffffffffffffffffffffffff908116700100000000000000000000000000000000938a16840277ffffffffffffffffffffffffffffffffffffffffffffffff908116919091177801000000000000000000000000000000000000000000000000938b168402179098559989015160048c01805460a0808d015160c08e015160e0909e0151948d1692909a1691909117988b1690960297909717909a1698881690910290951696909617969094169092029490941790935590930151600592830180547fffffffffffffffffffffffffffffffffffffffffffffffffffffffffffffff0016911515919091179055905460008881526002928390529290922081018054909190811061253057612530612fe5565b6000918252602082200191909155600580549161254c83613043565b90915550506040805160c0810182526000878152600260208181529382205463ffffffff8082168552928a905290845291928301916125969164010000000090910416600161328c565b63ffffffff16815260200160006040519080825280602002602001820160405280156125cc578160200160208202803683370190505b50815260408051600480825260a08201909252602092830192909190820160808036833750505081526020016126106126066002866132b4565b61230d9088613328565b815260006020918201819052600554815260028252604090819020835181548585015163ffffffff908116640100000000027fffffffffffffffffffffffffffffffffffffffffffffffff0000000000000000909216921691909117178155908301518051919261268992600185019290910190612a2e565b50606082015180516126a5916002840191602090910190612a2e565b50608082810151805160038481018054602080860151604080880151606089015167ffffffffffffffff9889167fffffffffffffffffffffffffffffffff000000000000000000000000000000009687161768010000000000000000948a168502176fffffffffffffffffffffffffffffffff908116700100000000000000000000000000000000938b16840277ffffffffffffffffffffffffffffffffffffffffffffffff908116919091177801000000000000000000000000000000000000000000000000938c168402179098559a8a015160048d01805460a0808e015160c08f015160e0909f0151948e1692909a1691909117988c1690960297909717909b16998916909102909516979097179790951690920295909517909455940151600593840180547fffffffffffffffffffffffffffffffffffffffffffffffffffffffffffffff0016911515919091179055915460008981526002928390529290922001805491929091811061281e5761281e612fe5565b6000918252602082200191909155600580549161283a83613043565b909155505050600093845250506002602052506040902060050180547fffffffffffffffffffffffffffffffffffffffffffffffffffffffffffffff00166001179055565b6000612895838361288e875190565b919061296a565b909352505050565b604080516101008101825260006080820181905260a0820181905260c0820181905260e0820152600786810b825285900b602082015267ffffffffffffffff8481169282019290925290821660608201526128f96002846132b4565b6129039086613328565b60070b60808201526129166002846132b4565b6129209086613391565b60070b60a08201526129336002836132b4565b61293d9085613328565b60070b60c08201526129506002836132b4565b61295a9085613391565b60070b60e0820152949350505050565b60208301518351600091859114600181146129975784602087516002010287015285516001018652612a25565b602086516002010286016040511460018114612a0057602087516002010280604051828a60045afa508681604051015260405160200151866001010160405160200152604051516001016040515260405193506040516020870260200182010160405250612a23565b866020015160010187602001528560405152604051602001604052865160010187525b505b50949350505050565b828054828255906000526020600020908101928215612a69579160200282015b82811115612a69578251825591602001919060010190612a4e565b50612a75929150612a79565b5090565b5b80821115612a755760008155600101612a7a565b600060208284031215612aa057600080fd5b81357fffffffff000000000000000000000000000000000000000000000000000000008116811461167a57600080fd5b7f4e487b7100000000000000000000000000000000000000000000000000000000600052604160045260246000fd5b604051610100810167ffffffffffffffff81118282101715612b2357612b23612ad0565b60405290565b604051601f82017fffffffffffffffffffffffffffffffffffffffffffffffffffffffffffffffe016810167ffffffffffffffff81118282101715612b7057612b70612ad0565b604052919050565b600082601f830112612b8957600080fd5b813567ffffffffffffffff811115612ba357612ba3612ad0565b612bd460207fffffffffffffffffffffffffffffffffffffffffffffffffffffffffffffffe0601f84011601612b29565b818152846020838601011115612be957600080fd5b816020850160208301376000918101602001919091529392505050565b60008060408385031215612c1957600080fd5b82359150602083013567ffffffffffffffff811115612c3757600080fd5b612c4385828601612b78565b9150509250929050565b6020808252825182820181905260009190848201906040850190845b81811015612c8557835183529284019291840191600101612c69565b50909695505050505050565b600060208284031215612ca357600080fd5b5035919050565b600081518084526020808501945080840160005b83811015612cda57815187529582019590820190600101612cbe565b509495945050505050565b60208152600063ffffffff8084511660208401528060208501511660408401525060408301516101a0806060850152612d226101c0850183612caa565b915060608501517fffffffffffffffffffffffffffffffffffffffffffffffffffffffffffffffe0858403016080860152612d5d8382612caa565b9250506080850151805160070b60a0860152602081015160070b60c086015267ffffffffffffffff60408201511660e08601526060810151612dac61010087018267ffffffffffffffff169052565b506080810151612dc261012087018260070b9052565b5060a0810151612dd861014087018260070b9052565b5060c0810151612dee61016087018260070b9052565b5060e00151612e0361018086018260070b9052565b5060a0850151801515858301525090949350505050565b600060208284031215612e2c57600080fd5b813567ffffffffffffffff811115612e4357600080fd5b612e4f84828501612b78565b949350505050565b8060070b811461052157600080fd5b8035612e7181612e57565b919050565b67ffffffffffffffff8116811461052157600080fd5b8035612e7181612e76565b60006101008284031215612eaa57600080fd5b612eb2612aff565b8235612ebd81612e57565b81526020830135612ecd81612e57565b6020820152612ede60408401612e8c565b6040820152612eef60608401612e8c565b6060820152612f0060808401612e66565b6080820152612f1160a08401612e66565b60a0820152612f2260c08401612e66565b60c0820152612f3360e08401612e66565b60e08201529392505050565b60006020808385031215612f5257600080fd5b825167ffffffffffffffff80821115612f6a57600080fd5b818501915085601f830112612f7e57600080fd5b815181811115612f9057612f90612ad0565b8060051b9150612fa1848301612b29565b8181529183018401918481019088841115612fbb57600080fd5b938501935b83851015612fd957845182529385019390850190612fc0565b98975050505050505050565b7f4e487b7100000000000000000000000000000000000000000000000000000000600052603260045260246000fd5b7f4e487b7100000000000000000000000000000000000000000000000000000000600052601160045260246000fd5b60007fffffffffffffffffffffffffffffffffffffffffffffffffffffffffffffffff820361307457613074613014565b5060010190565b8051612e7181612e57565b8051612e7181612e76565b600061010082840312156130a457600080fd5b6130ac612aff565b82516130b781612e57565b815260208301516130c781612e57565b60208201526130d860408401613086565b60408201526130e960608401613086565b60608201526130fa6080840161307b565b608082015261310b60a0840161307b565b60a082015261311c60c0840161307b565b60c0820152612f3360e0840161307b565b6000806040838503121561314057600080fd5b825161314b81612e57565b602084015190925061315c81612e57565b809150509250929050565b6000815180845260005b8181101561318d57602081850181015186830182015201613171565b8181111561319f576000602083870101525b50601f017fffffffffffffffffffffffffffffffffffffffffffffffffffffffffffffffe0169290920160200192915050565b6080815260006131e56080830187613167565b6020830195909552506040810192909252606090910152919050565b60208152600061167a6020830184613167565b6040815260006132276040830185613167565b90508260208301529392505050565b7f4e487b7100000000000000000000000000000000000000000000000000000000600052601260045260246000fd5b600067ffffffffffffffff8084168061328057613280613236565b92169190910492915050565b600063ffffffff8083168185168083038211156132ab576132ab613014565b01949350505050565b60008160070b8360070b806132cb576132cb613236565b7fffffffffffffffffffffffffffffffffffffffffffffffffffffffffffffffff81147fffffffffffffffffffffffffffffffffffffffffffffffff80000000000000008314161561331f5761331f613014565b90059392505050565b60008160070b8360070b60008112817fffffffffffffffffffffffffffffffffffffffffffffffff80000000000000000183128115161561336b5761336b613014565b81677fffffffffffffff01831381161561338757613387613014565b5090039392505050565b60008160070b8360070b6000821282677fffffffffffffff038213811516156133bc576133bc613014565b827fffffffffffffffffffffffffffffffffffffffffffffffff80000000000000000382128116156133f0576133f0613014565b5001939250505056fe4e6f64653a204944202573207c204465707468202573207c2050436f756e74202573a2646970667358221220a51000d2b085a42163734c0b028c33280040bc465b18e05e4c4961ec274192a264736f6c634300080d0033608060405234801561001057600080fd5b50610418806100206000396000f3fe608060405234801561001057600080fd5b50600436106100675760003560e01c80634cc82215116100505780634cc822151461009f578063949d225d146100b2578063cccf7a8e146100c357600080fd5b80631003e2d21461006c578063410d59cc14610081575b600080fd5b61007f61007a3660046102e9565b6100e6565b005b610089610138565b6040516100969190610302565b60405180910390f35b61007f6100ad3660046102e9565b610190565b600054604051908152602001610096565b6100d66100d13660046102e9565b610286565b6040519015158152602001610096565b6100ef81610286565b156100f75750565b600080548282526001602081905260408320829055810182559080527f290decd9548b62a8d60345a988386fc84ba6bc95484008f6362f93160ef3e5630155565b6060600080548060200260200160405190810160405280929190818152602001828054801561018657602002820191906000526020600020905b815481526020019060010190808311610172575b5050505050905090565b61019981610286565b6101a05750565b600080546101b090600190610346565b815481106101c0576101c0610384565b906000526020600020015460006001600084815260200190815260200160002054815481106101f1576101f1610384565b6000918252602080832090910192909255828152600191829052604081205481549092919081908490811061022857610228610384565b90600052602060002001548152602001908152602001600020819055506001600082815260200190815260200160002060009055600080548061026d5761026d6103b3565b6001900381819060005260206000200160009055905550565b60008054810361029857506000919050565b60008281526001602052604081205490036102d45781600080815481106102c1576102c1610384565b9060005260206000200154149050919050565b50600090815260016020526040902054151590565b6000602082840312156102fb57600080fd5b5035919050565b6020808252825182820181905260009190848201906040850190845b8181101561033a5783518352928401929184019160010161031e565b50909695505050505050565b60008282101561037f577f4e487b7100000000000000000000000000000000000000000000000000000000600052601160045260246000fd5b500390565b7f4e487b7100000000000000000000000000000000000000000000000000000000600052603260045260246000fd5b7f4e487b7100000000000000000000000000000000000000000000000000000000600052603160045260246000fdfea26469706673582212209505bff9fccfb3d4940844a39733b26e7f917be814d0f917ae872d631732899464736f6c634300080d0033",
    "linkReferences": {}
  },
  "methodIdentifiers": {
    "getEntities()": "31b933b9",
    "getEntitiesWithValue(bytes)": "b361be46",
    "getNode(uint256)": "4f0f4aa9",
    "getPoint(uint256)": "869f1c8e",
    "has(uint256)": "cccf7a8e",
    "printRect((int64,int64,uint64,uint64,int64,int64,int64,int64))": "c0ea6a56",
    "printTree(uint256)": "60ae32d6",
    "remove(uint256)": "4cc82215",
    "supportsInterface(bytes4)": "01ffc9a7",
    "update(uint256,bytes)": "0216b838"
  },
  "id": 19
}