{
  "abi": [
    {
      "inputs": [
        {
          "internalType": "uint256",
          "name": "length",
          "type": "uint256"
        }
      ],
      "name": "SchemaLib_InvalidLength",
      "type": "error"
    },
    {
      "inputs": [],
      "name": "SchemaLib_StaticTypeAfterDynamicType",
      "type": "error"
    },
    {
      "inputs": [
        {
          "internalType": "bytes",
          "name": "data",
          "type": "bytes"
        },
        {
          "internalType": "uint256",
          "name": "start",
          "type": "uint256"
        },
        {
          "internalType": "uint256",
          "name": "end",
          "type": "uint256"
        }
      ],
      "name": "Slice_OutOfBounds",
      "type": "error"
    },
    {
      "inputs": [
        {
          "internalType": "uint256",
          "name": "expected",
          "type": "uint256"
        },
        {
          "internalType": "uint256",
          "name": "received",
          "type": "uint256"
        }
      ],
      "name": "StoreCore_InvalidDataLength",
      "type": "error"
    },
    {
      "inputs": [
        {
          "internalType": "int32",
          "name": "x",
          "type": "int32"
        },
        {
          "internalType": "int32",
          "name": "y",
          "type": "int32"
        },
        {
          "internalType": "int32",
          "name": "z",
          "type": "int32"
        }
      ],
      "name": "move",
      "outputs": [],
      "stateMutability": "nonpayable",
      "type": "function"
    }
  ],
  "bytecode": {
    "object": "0x608060405234801561001057600080fd5b50611a29806100206000396000f3fe608060405234801561001057600080fd5b506004361061002b5760003560e01c80636c53eb2a14610030575b600080fd5b61004361003e3660046114fe565b610045565b005b600061004f610129565b73ffffffffffffffffffffffffffffffffffffffff16905060006100728261015b565b9050600060405180606001604052808760030b81526020018660030b81526020018560030b81525090506100a68282610275565b60030b600114610117576040517f08c379a000000000000000000000000000000000000000000000000000000000815260206004820181905260248201527f63616e206f6e6c79206d6f766520746f2061646a6163656e742073706163657360448201526064015b60405180910390fd5b610121838261035b565b505050505050565b7fffffffffffffffffffffffffffffffffffffffffffffffffffffffffffffffec36013560601c806101585750335b90565b6040805160608101825260008082526020820181905281830181905282516001808252818501909452919290919081602001602082028036833701905050905082816000815181106101af576101af611557565b6020908102919091018101919091526040805160009281018390527f506f736974696f6e000000000000000000000000000000000000000000000000603082015261021b910160405160208183030381529060405261020d9061156d565b83610216610377565b61047a565b905061026d816040805160608101825260008082526020808301829052928201529082015160e01d60030b8152602482015160e01d60030b6020820152602882015160e01d60030b6040820152919050565b949350505050565b600080826000015160030b846000015160030b136102a0578351835161029b91906115a7565b6102ae565b825184516102ae91906115a7565b90506000836020015160030b856020015160030b136102e057846020015184602001516102db91906115a7565b6102f4565b836020015185602001516102f491906115a7565b90506000846040015160030b866040015160030b13610326578560400151856040015161032191906115a7565b61033a565b8460400151866040015161033a91906115a7565b90508061034783856115f1565b61035191906115f1565b9695505050505050565b6103738282600001518360200151846040015161055c565b5050565b60408051600380825260808201909252600091829190602082016060803683370190505090506023816000815181106103b2576103b2611557565b602002602001019060c58111156103cb576103cb61163a565b908160c58111156103de576103de61163a565b815250506023816001815181106103f7576103f7611557565b602002602001019060c58111156104105761041061163a565b908160c58111156104235761042361163a565b8152505060238160028151811061043c5761043c611557565b602002602001019060c58111156104555761045561163a565b908160c58111156104685761046861163a565b9052506104748161062d565b91505090565b606060006104866107a8565b90503073ffffffffffffffffffffffffffffffffffffffff8216036104b8576104b08585856107f4565b915050610555565b6040517f419b58fd00000000000000000000000000000000000000000000000000000000815273ffffffffffffffffffffffffffffffffffffffff82169063419b58fd9061050e9088908890889060040161168b565b600060405180830381865afa15801561052b573d6000803e3d6000fd5b505050506040513d6000823e601f3d908101601f191682016040526104b091908101906116e0565b505b9392505050565b6040805160e085811b60208084019190915285821b60248401529084901b60288301528251600c8184030181526001602c8401818152606c850190955290936000939092604c909101908036833701905050905085816000815181106105c4576105c4611557565b602090810291909101810191909152604080516000818401527f506f736974696f6e000000000000000000000000000000000000000000000000603082015281518082039093018352810190526101219061061e9061156d565b8284610628610377565b61095e565b6000601c825111156106705781516040517f5318beb900000000000000000000000000000000000000000000000000000000815260040161010e91815260200190565b60008080805b85518110156107485760006106b487838151811061069657610696611557565b602002602001015160c58111156106af576106af61163a565b610a2a565b9050806000036106c957600190920191610701565b8215610701576040517ff1e56be400000000000000000000000000000000000000000000000000000000815260040160405180910390fd5b808401935081601b0360080287838151811061071f5761071f611557565b602002602001015160c58111156107385761073861163a565b901b949094179350600101610676565b506005811115610787576040517f5318beb90000000000000000000000000000000000000000000000000000000081526004810182905260240161010e565b935160e085901b94900360e81b60f09190911b919091171791909117919050565b7f629a4c26e296b22a8e0856e9f6ecb2d1008d7e00081111962cd175fa7488e1755460009073ffffffffffffffffffffffffffffffffffffffff16806107ef573391505090565b919050565b606060006108028360f01c90565b90508060008061081186610a8a565b90508015610855576108238888610a9b565b915066ffffffffffffff8216156108555761084866ffffffffffffff8316602061178d565b610852908461178d565b92505b60008367ffffffffffffffff81111561087057610870611541565b6040519080825280601f01601f19166020018201604052801561089a576020820181803683370190505b509050602081016108ad8a8a8884610ab2565b66ffffffffffffff84166000036108cb575094506105559350505050565b6108d5868261178d565b84815290506108e560208261178d565b905060005b838160ff16101561094f5760006109028c8c84610ad9565b9050600061091f878460ff166028026038011c64ffffffffff1690565b905061092e8282600087610b32565b610938818561178d565b935050508080610947906117a5565b9150506108ea565b50909998505050505050505050565b60006109686107a8565b90503073ffffffffffffffffffffffffffffffffffffffff8216036109985761099385858585610bea565b610a23565b6040517fb368b99800000000000000000000000000000000000000000000000000000000815273ffffffffffffffffffffffffffffffffffffffff82169063b368b998906109f09088908890889088906004016117f0565b600060405180830381600087803b158015610a0a57600080fd5b505af1158015610a1e573d6000803e3d6000fd5b505050505b5050505050565b6000808260c5811115610a3f57610a3f61163a565b60ff1690506061811015610a5957601f1660010192915050565b60618360c5811115610a6d57610a6d61163a565b03610a7b5750601492915050565b50600092915050565b50919050565b600060e0825b60ff911c1692915050565b600080610aa88484610dc5565b905061026d815490565b8115610ad3576000610ac48585610e1b565b9050610a238184600085610b32565b50505050565b60007f86425bff6b57326c7859e89024fe4f238ca327a1ae4a230180dd2f0e88aaa7d9848484604051602001610b12949392919061182d565b60408051601f198184030181529190528051602090910120949350505050565b8115610ba45760208210610b5c57602082048401935060208281610b5857610b58611860565b0691505b8115610ba45760208290036000600019600883021c1990508554600885021b811984511682821617845250818511610b95575050610ad3565b50600194909401939283900392015b5b60208310610bc65783548152600190930192601f1990920191602001610ba5565b8215610ad3576000600019600885021c198251865482169119161782525050505050565b600080610bf78385610e52565b915091507f912af873e852235aae78a1d25ae9bb28b616a67c36898c53a14fd8184504ee32868686604051610c2e93929190611876565b60405180910390a16000610c4187610eec565b905060005b8151811015610cf2576000828281518110610c6357610c63611557565b602002602001015190508073ffffffffffffffffffffffffffffffffffffffff1663b08679bf8a8a8a8a6040518563ffffffff1660e01b8152600401610cac94939291906117f0565b600060405180830381600087803b158015610cc657600080fd5b505af1158015610cda573d6000803e3d6000fd5b50505050508080610cea906118a1565b915050610c46565b506000610cff8888610e1b565b905060208601610d128260008388610fc9565b610d1d85602061178d565b610d27908261178d565b9050610d3286610a8a565b600003610d43575050505050610ad3565b6000610d4f8a8a610dc5565b858155905060008060005b610d638a610a8a565b8160ff161015610db657610d788d8d83610ad9565b9250610d93888260ff166028026038011c64ffffffffff1690565b9150610da28360008785610fc9565b610dac828661178d565b9450600101610d5a565b50505050505050505050505050565b60007f86425bff6b57326c7859e89024fe4f238ca327a1ae4a230180dd2f0e88aaa7d98383604051602001610dfc939291906118bb565b60408051601f1981840301815291905280516020909101209392505050565b60007f86425bff6b57326c7859e89024fe4f238ca327a1ae4a230180dd2f0e88aaa7d98383604051602001610dfc9392919061191b565b600080610e5f8460f01c90565b9150816000610e6d86610a8a565b1115610e9d57828401602001519150610e9066ffffffffffffff8316602061178d565b610e9a908261178d565b90505b83518114610ee45783516040517f521b3d3300000000000000000000000000000000000000000000000000000000815261010e918391600401918252602082015260400190565b509250929050565b60408051600180825281830190925260609160009190602080830190803683370190505090508281600081518110610f2657610f26611557565b602090810291909101810191909152604080517f6d756473746f7265000000000000000000000000000000000000000000000000818401527f486f6f6b7300000000000000000000000000000000000000000000000000000060308201528151808203909301835281019052600090610fb290610fa29061156d565b836000610fad611089565b6110c3565b905061026d610fc4826000845161119f565b61122f565b82156110435760208310610ff357602083048401935060208381610fef57610fef611860565b0692505b82156110435760208390036000600019600884021c1990506008850281811c91508451811c9050811987541682821617875550818311611034575050610ad3565b50600194909401939182019190035b5b602081106110655781518455600190930192602090910190601f1901611044565b8015610ad3576000600019600883021c198554845182169119161785555050505050565b6040805160018082528183019092526000918291906020808301908036833701905050905060c38160008151811061043c5761043c611557565b606060006110cf6107a8565b90503073ffffffffffffffffffffffffffffffffffffffff821603611102576110fa86868686611240565b91505061026d565b6040517f05242d2f00000000000000000000000000000000000000000000000000000000815273ffffffffffffffffffffffffffffffffffffffff8216906305242d2f9061115a908990899089908990600401611943565b600060405180830381865afa158015611177573d6000803e3d6000fd5b505050506040513d6000823e601f3d908101601f191682016040526110fa91908101906116e0565b60008183111580156111b2575083518211155b6111ee578383836040517f23230fa300000000000000000000000000000000000000000000000000000000815260040161010e93929190611972565b602084016111fc848261178d565b9050600061120a8585611997565b6fffffffffffffffffffffffffffffffff1660809290921b9190911795945050505050565b606060006105558360146060611274565b606061124b82611386565b8360ff1610156112685761126185858585611390565b905061026d565b611261858585856113f0565b606060006112828560801c90565b90506fffffffffffffffffffffffffffffffff851660008582816112a8576112a8611860565b0490506112b586836119ae565b15611342576040517f08c379a000000000000000000000000000000000000000000000000000000000815260206004820152603d60248201527f756e7061636b546f41727261793a207061636b65644c656e677468206d75737460448201527f2062652061206d756c7469706c65206f6620656c656d656e7453697a65000000606482015260840161010e565b60405193506020840160208202810160405281855260005b8281101561137a578451871c82529387019360209091019060010161135a565b50505050509392505050565b600060e882610a90565b606060006113a18360ff8616611457565b905060006113ba8260c58111156106af576106af61163a565b905060006113c88888610e1b565b905060006113d6868861147d565b90506113e38284836114c9565b9998505050505050505050565b606060006113fd83611386565b61140790856119d0565b90506000611416878784610ad9565b9050600061143d836114288a8a610a9b565b9060ff166028026038011c64ffffffffff1690565b905061144b828260006114c9565b98975050505050505050565b600081601b036008026114678490565b60ff911c1660c58111156105555761055561163a565b600080805b8360ff16811015610553576114ab61149a8683611457565b60c58111156106af576106af61163a565b6114b5908361178d565b9150806114c1816118a1565b915050611482565b60405160208101601f19603f858401011660405283825261055385858584610b32565b8035600381900b81146107ef57600080fd5b60008060006060848603121561151357600080fd5b61151c846114ec565b925061152a602085016114ec565b9150611538604085016114ec565b90509250925092565b634e487b7160e01b600052604160045260246000fd5b634e487b7160e01b600052603260045260246000fd5b80516020808301519190811015610a845760001960209190910360031b1b16919050565b634e487b7160e01b600052601160045260246000fd5b60008160030b8360030b6000811281637fffffff19018312811516156115cf576115cf611591565b81637fffffff0183138116156115e7576115e7611591565b5090039392505050565b60008160030b8360030b6000821282637fffffff0382138115161561161857611618611591565b82637fffffff1903821281161561163157611631611591565b50019392505050565b634e487b7160e01b600052602160045260246000fd5b600081518084526020808501945080840160005b8381101561168057815187529582019590820190600101611664565b509495945050505050565b8381526060602082015260006116a46060830185611650565b9050826040830152949350505050565b60005b838110156116cf5781810151838201526020016116b7565b83811115610ad35750506000910152565b6000602082840312156116f257600080fd5b815167ffffffffffffffff8082111561170a57600080fd5b818401915084601f83011261171e57600080fd5b81518181111561173057611730611541565b604051601f8201601f19908116603f0116810190838211818310171561175857611758611541565b8160405282815287602084870101111561177157600080fd5b6117828360208301602088016116b4565b979650505050505050565b600082198211156117a0576117a0611591565b500190565b600060ff821660ff81036117bb576117bb611591565b60010192915050565b600081518084526117dc8160208601602086016116b4565b601f01601f19169290920160200192915050565b8481526080602082015260006118096080830186611650565b828103604084015261181b81866117c4565b91505082606083015295945050505050565b84815283602082015260806040820152600061184c6080830185611650565b905060ff8316606083015295945050505050565b634e487b7160e01b600052601260045260246000fd5b83815260606020820152600061188f6060830185611650565b828103604084015261035181856117c4565b600060001982036118b4576118b4611591565b5060010190565b8381528260208201526080604082015260006118da6080830184611650565b8281036060840152600681527f6c656e6774680000000000000000000000000000000000000000000000000000602082015260408101915050949350505050565b83815282602082015260606040820152600061193a6060830184611650565b95945050505050565b84815260806020820152600061195c6080830186611650565b60ff949094166040830152506060015292915050565b60608152600061198560608301866117c4565b60208301949094525060400152919050565b6000828210156119a9576119a9611591565b500390565b6000826119cb57634e487b7160e01b600052601260045260246000fd5b500690565b600060ff821660ff8416808210156119ea576119ea611591565b9003939250505056fea2646970667358221220f3725aa7c6605de393bee287cef84e7eff73841554ff64c5cd020244c1c261b464736f6c634300080d0033",
    "linkReferences": {}
  },
  "methodIdentifiers": {
    "move(int32,int32,int32)": "6c53eb2a"
  },
  "id": 71
}