{
  "abi": [
    {
      "inputs": [
        {
          "internalType": "address",
          "name": "world",
          "type": "address"
        }
      ],
      "stateMutability": "nonpayable",
      "type": "constructor"
    },
    {
      "inputs": [],
      "name": "BareComponent__NotImplemented",
      "type": "error"
    },
    {
      "inputs": [],
      "name": "OwnableWritable__NotWriter",
      "type": "error"
    },
    {
      "inputs": [],
      "name": "Ownable__NotOwner",
      "type": "error"
    },
    {
      "inputs": [],
      "name": "Ownable__NotTransitiveOwner",
      "type": "error"
    },
    {
      "anonymous": false,
      "inputs": [
        {
          "indexed": true,
          "internalType": "address",
          "name": "previousOwner",
          "type": "address"
        },
        {
          "indexed": true,
          "internalType": "address",
          "name": "newOwner",
          "type": "address"
        }
      ],
      "name": "OwnershipTransferred",
      "type": "event"
    },
    {
      "inputs": [],
      "name": "ID",
      "outputs": [
        {
          "internalType": "uint256",
          "name": "",
          "type": "uint256"
        }
      ],
      "stateMutability": "view",
      "type": "function"
    },
    {
      "inputs": [
        {
          "internalType": "address",
          "name": "writer",
          "type": "address"
        }
      ],
      "name": "authorizeWriter",
      "outputs": [],
      "stateMutability": "nonpayable",
      "type": "function"
    },
    {
      "inputs": [],
      "name": "getEntities",
      "outputs": [
        {
          "internalType": "uint256[]",
          "name": "",
          "type": "uint256[]"
        }
      ],
      "stateMutability": "view",
      "type": "function"
    },
    {
      "inputs": [
        {
          "internalType": "bool",
          "name": "value",
          "type": "bool"
        }
      ],
      "name": "getEntitiesWithValue",
      "outputs": [
        {
          "internalType": "uint256[]",
          "name": "",
          "type": "uint256[]"
        }
      ],
      "stateMutability": "view",
      "type": "function"
    },
    {
      "inputs": [
        {
          "internalType": "bytes",
          "name": "value",
          "type": "bytes"
        }
      ],
      "name": "getEntitiesWithValue",
      "outputs": [
        {
          "internalType": "uint256[]",
          "name": "",
          "type": "uint256[]"
        }
      ],
      "stateMutability": "view",
      "type": "function"
    },
    {
      "inputs": [
        {
          "internalType": "uint256",
          "name": "entity",
          "type": "uint256"
        }
      ],
      "name": "getRawValue",
      "outputs": [
        {
          "internalType": "bytes",
          "name": "",
          "type": "bytes"
        }
      ],
      "stateMutability": "view",
      "type": "function"
    },
    {
      "inputs": [],
      "name": "getSchema",
      "outputs": [
        {
          "internalType": "string[]",
          "name": "keys",
          "type": "string[]"
        },
        {
          "internalType": "enum LibTypes.SchemaValue[]",
          "name": "values",
          "type": "uint8[]"
        }
      ],
      "stateMutability": "pure",
      "type": "function"
    },
    {
      "inputs": [
        {
          "internalType": "uint256",
          "name": "entity",
          "type": "uint256"
        }
      ],
      "name": "getValue",
      "outputs": [
        {
          "internalType": "bool",
          "name": "",
          "type": "bool"
        }
      ],
      "stateMutability": "view",
      "type": "function"
    },
    {
      "inputs": [
        {
          "internalType": "uint256",
          "name": "entity",
          "type": "uint256"
        }
      ],
      "name": "has",
      "outputs": [
        {
          "internalType": "bool",
          "name": "",
          "type": "bool"
        }
      ],
      "stateMutability": "view",
      "type": "function"
    },
    {
      "inputs": [],
      "name": "id",
      "outputs": [
        {
          "internalType": "uint256",
          "name": "",
          "type": "uint256"
        }
      ],
      "stateMutability": "view",
      "type": "function"
    },
    {
      "inputs": [],
      "name": "owner",
      "outputs": [
        {
          "internalType": "address",
          "name": "",
          "type": "address"
        }
      ],
      "stateMutability": "view",
      "type": "function"
    },
    {
      "inputs": [
        {
          "internalType": "address",
          "name": "indexer",
          "type": "address"
        }
      ],
      "name": "registerIndexer",
      "outputs": [],
      "stateMutability": "nonpayable",
      "type": "function"
    },
    {
      "inputs": [
        {
          "internalType": "address",
          "name": "_world",
          "type": "address"
        }
      ],
      "name": "registerWorld",
      "outputs": [],
      "stateMutability": "nonpayable",
      "type": "function"
    },
    {
      "inputs": [
        {
          "internalType": "uint256",
          "name": "entity",
          "type": "uint256"
        }
      ],
      "name": "remove",
      "outputs": [],
      "stateMutability": "nonpayable",
      "type": "function"
    },
    {
      "inputs": [
        {
          "internalType": "uint256",
          "name": "entity",
          "type": "uint256"
        },
        {
          "internalType": "bool",
          "name": "value",
          "type": "bool"
        }
      ],
      "name": "set",
      "outputs": [],
      "stateMutability": "nonpayable",
      "type": "function"
    },
    {
      "inputs": [
        {
          "internalType": "uint256",
          "name": "entity",
          "type": "uint256"
        },
        {
          "internalType": "bytes",
          "name": "value",
          "type": "bytes"
        }
      ],
      "name": "set",
      "outputs": [],
      "stateMutability": "nonpayable",
      "type": "function"
    },
    {
      "inputs": [
        {
          "internalType": "address",
          "name": "account",
          "type": "address"
        }
      ],
      "name": "transferOwnership",
      "outputs": [],
      "stateMutability": "nonpayable",
      "type": "function"
    },
    {
      "inputs": [
        {
          "internalType": "address",
          "name": "writer",
          "type": "address"
        }
      ],
      "name": "unauthorizeWriter",
      "outputs": [],
      "stateMutability": "nonpayable",
      "type": "function"
    },
    {
      "inputs": [],
      "name": "world",
      "outputs": [
        {
          "internalType": "address",
          "name": "",
          "type": "address"
        }
      ],
      "stateMutability": "view",
      "type": "function"
    },
    {
      "inputs": [
        {
          "internalType": "address",
          "name": "operator",
          "type": "address"
        }
      ],
      "name": "writeAccess",
      "outputs": [
        {
          "internalType": "bool",
          "name": "",
          "type": "bool"
        }
      ],
      "stateMutability": "view",
      "type": "function"
    }
  ],
  "bytecode": {
    "object": "0x60806040523480156200001157600080fd5b5060405162002baf38038062002baf8339810160408190526200003491620002b9565b807f807cd581be790cec25384d39baac5265e3f01676e668a1d3d5a37a88455895398181620000633362000127565b60028190556001600160a01b03821615620000835762000083826200019b565b505060405162000093906200029d565b604051809103906000f080158015620000b0573d6000803e3d6000fd5b50600380546001600160a01b0319166001600160a01b0392909216919091179055604051620000df90620002ab565b604051809103906000f080158015620000fc573d6000803e3d6000fd5b50600480546001600160a01b0319166001600160a01b039290921691909117905550620002eb915050565b60006200013e6200025360201b62000a8a1760201c565b80546040519192506001600160a01b03808516929116907f8be0079c531659141344cd1fd0a4f28419497f9722a3daafe3b4186f6b6457e090600090a380546001600160a01b0319166001600160a01b0392909216919091179055565b620001a562000277565b6001600160a01b0316336001600160a01b031614620001d757604051632f7a8ee160e01b815260040160405180910390fd5b600080546001600160a01b0319166001600160a01b038316908117909155600254604051630f30347760e41b8152306004820152602481019190915263f303477090604401600060405180830381600087803b1580156200023757600080fd5b505af11580156200024c573d6000803e3d6000fd5b5050505050565b7f8a22373512790c48b83a1fe2efdd2888d4a917bcdc24d0adf63e60f67168046090565b60006200028e6200025360201b62000a8a1760201c565b546001600160a01b0316919050565b61084a8062001ad383390190565b610892806200231d83390190565b600060208284031215620002cc57600080fd5b81516001600160a01b0381168114620002e457600080fd5b9392505050565b6117d880620002fb6000396000f3fe608060405234801561001057600080fd5b506004361061016b5760003560e01c80638b282947116100cd578063b3cea21711610081578063bf4fe57e11610066578063bf4fe57e14610305578063cccf7a8e14610318578063f2fde38b1461032b57600080fd5b8063b3cea217146102be578063b8bc073d146102e557600080fd5b80639d2c76b4116100b25780639d2c76b414610281578063af640d0f14610294578063b361be46146102ab57600080fd5b80638b282947146102665780638da5cb5b1461027957600080fd5b80634fef6a38116101245780636b122fe0116101095780636b122fe01461022a57806375c0669c14610240578063861eb9051461025357600080fd5b80634fef6a381461020457806362f46d561461021757600080fd5b806330b67baa1161015557806330b67baa146101bc57806331b933b9146101e75780634cc82215146101ef57600080fd5b80621326ab146101705780630ff4c91614610199575b600080fd5b61018361017e36600461121a565b61033e565b604051610190919061123e565b60405180910390f35b6101ac6101a7366004611282565b610372565b6040519015158152602001610190565b6000546101cf906001600160a01b031681565b6040516001600160a01b039091168152602001610190565b610183610390565b6102026101fd366004611282565b610420565b005b61020261021236600461129b565b61046b565b6102026102253660046112c4565b6104f8565b610232610529565b604051610190929190611357565b61020261024e36600461129b565b610574565b6101ac61026136600461129b565b61061d565b6102026102743660046114e5565b610680565b6101cf6106c9565b61020261028f36600461129b565b6106fc565b61029d60025481565b604051908152602001610190565b6101836102b936600461152c565b6107f2565b61029d7f807cd581be790cec25384d39baac5265e3f01676e668a1d3d5a37a884558953981565b6102f86102f3366004611282565b610884565b6040516101909190611569565b61020261031336600461129b565b610926565b6101ac610326366004611282565b6109b0565b61020261033936600461129b565b610a37565b606061036c82604051602001610358911515815260200190565b6040516020818303038152906040526107f2565b92915050565b600061037d82610884565b80602001905181019061036c919061157c565b600354604080517f410d59cc00000000000000000000000000000000000000000000000000000000815290516060926001600160a01b03169163410d59cc9160048083019260009291908290030181865afa1580156103f3573d6000803e3d6000fd5b505050506040513d6000823e601f3d908101601f1916820160405261041b9190810190611599565b905090565b6104293361061d565b61045f576040517f406ed3da00000000000000000000000000000000000000000000000000000000815260040160405180910390fd5b61046881610aae565b50565b7f8a22373512790c48b83a1fe2efdd2888d4a917bcdc24d0adf63e60f671680460546001600160a01b031633146104b557604051632f7a8ee160e01b815260040160405180910390fd5b6001600160a01b031660009081527f8ffeadc5cba727b8cc3cdef48739619490ea317fdb3baae1259089d06f92c90960205260409020805460ff19166001179055565b6105258282604051602001610511911515815260200190565b604051602081830303815290604052610680565b5050565b606080600d816000815181106105415761054161163f565b6020026020010190602181111561055a5761055a611341565b9081602181111561056d5761056d611341565b9052509091565b61057d3361061d565b6105b3576040517f406ed3da00000000000000000000000000000000000000000000000000000000815260040160405180910390fd5b600580546001810182556000919091527f036b6384b5eca791c62761152d0c79bb0604c104a5fb6f4eb0703f3154bb3db00180547fffffffffffffffffffffffff0000000000000000000000000000000000000000166001600160a01b0392909216919091179055565b6001600160a01b03811660009081527f8ffeadc5cba727b8cc3cdef48739619490ea317fdb3baae1259089d06f92c909602052604081205460ff168061036c57506106666106c9565b6001600160a01b0316826001600160a01b03161492915050565b6106893361061d565b6106bf576040517f406ed3da00000000000000000000000000000000000000000000000000000000815260040160405180910390fd5b6105258282610d39565b600061041b7f8a22373512790c48b83a1fe2efdd2888d4a917bcdc24d0adf63e60f671680460546001600160a01b031690565b7f8a22373512790c48b83a1fe2efdd2888d4a917bcdc24d0adf63e60f671680460546001600160a01b0316331461074657604051632f7a8ee160e01b815260040160405180910390fd5b600080547fffffffffffffffffffffffff0000000000000000000000000000000000000000166001600160a01b0383169081179091556002546040517ff3034770000000000000000000000000000000000000000000000000000000008152306004820152602481019190915263f3034770906044015b600060405180830381600087803b1580156107d757600080fd5b505af11580156107eb573d6000803e3d6000fd5b5050505050565b60048054825160208401206040517f796c5e94000000000000000000000000000000000000000000000000000000008152928301526060916001600160a01b039091169063796c5e9490602401600060405180830381865afa15801561085c573d6000803e3d6000fd5b505050506040513d6000823e601f3d908101601f1916820160405261036c9190810190611599565b60008181526001602052604090208054606091906108a190611655565b80601f01602080910402602001604051908101604052809291908181526020018280546108cd90611655565b801561091a5780601f106108ef5761010080835404028352916020019161091a565b820191906000526020600020905b8154815290600101906020018083116108fd57829003601f168201915b50505050509050919050565b7f8a22373512790c48b83a1fe2efdd2888d4a917bcdc24d0adf63e60f671680460546001600160a01b0316331461097057604051632f7a8ee160e01b815260040160405180910390fd5b6001600160a01b031660009081527f8ffeadc5cba727b8cc3cdef48739619490ea317fdb3baae1259089d06f92c90960205260409020805460ff19169055565b6003546040517fcccf7a8e000000000000000000000000000000000000000000000000000000008152600481018390526000916001600160a01b03169063cccf7a8e90602401602060405180830381865afa158015610a13573d6000803e3d6000fd5b505050506040513d601f19601f8201168201806040525081019061036c919061157c565b7f8a22373512790c48b83a1fe2efdd2888d4a917bcdc24d0adf63e60f671680460546001600160a01b03163314610a8157604051632f7a8ee160e01b815260040160405180910390fd5b61046881610f9c565b7f8a22373512790c48b83a1fe2efdd2888d4a917bcdc24d0adf63e60f67168046090565b6004546000828152600160205260409081902090516001600160a01b03909216916385edea1391610ade9161168f565b60405190819003812060e083901b7fffffffff000000000000000000000000000000000000000000000000000000001682526004820152602401602060405180830381865afa158015610b35573d6000803e3d6000fd5b505050506040513d601f19601f82011682018060405250810190610b59919061172a565b600003610b635750565b6004546000828152600160205260409081902090516001600160a01b0390921691636526db7a91610b939161168f565b60405190819003812060e083901b7fffffffff00000000000000000000000000000000000000000000000000000000168252600482015260248101849052604401600060405180830381600087803b158015610bee57600080fd5b505af1158015610c02573d6000803e3d6000fd5b50506003546040517f4cc82215000000000000000000000000000000000000000000000000000000008152600481018590526001600160a01b039091169250634cc822159150602401600060405180830381600087803b158015610c6557600080fd5b505af1158015610c79573d6000803e3d6000fd5b50505050610c8681610fa5565b60005b6005548110156105255760058181548110610ca657610ca661163f565b6000918252602090912001546040517f4cc82215000000000000000000000000000000000000000000000000000000008152600481018490526001600160a01b0390911690634cc8221590602401600060405180830381600087803b158015610d0e57600080fd5b505af1158015610d22573d6000803e3d6000fd5b505050508080610d3190611743565b915050610c89565b6003546040517f1003e2d2000000000000000000000000000000000000000000000000000000008152600481018490526001600160a01b0390911690631003e2d290602401600060405180830381600087803b158015610d9857600080fd5b505af1158015610dac573d6000803e3d6000fd5b50506004546000858152600160205260409081902090516001600160a01b039092169350636526db7a9250610de09161168f565b60405190819003812060e083901b7fffffffff00000000000000000000000000000000000000000000000000000000168252600482015260248101859052604401600060405180830381600087803b158015610e3b57600080fd5b505af1158015610e4f573d6000803e3d6000fd5b505060048054845160208601206040517f771602f700000000000000000000000000000000000000000000000000000000815292830152602482018690526001600160a01b0316925063771602f79150604401600060405180830381600087803b158015610ebc57600080fd5b505af1158015610ed0573d6000803e3d6000fd5b50505050610ede8282611006565b60005b600554811015610f975760058181548110610efe57610efe61163f565b6000918252602090912001546040517f0216b8380000000000000000000000000000000000000000000000000000000081526001600160a01b0390911690630216b83890610f529086908690600401611789565b600060405180830381600087803b158015610f6c57600080fd5b505af1158015610f80573d6000803e3d6000fd5b505050508080610f8f90611743565b915050610ee1565b505050565b610468816110a7565b6000818152600160205260408120610fbc91611139565b6000546040517f0de3b7b5000000000000000000000000000000000000000000000000000000008152600481018390526001600160a01b0390911690630de3b7b5906024016107bd565b6000828152600160209081526040909120825161102592840190611173565b506000546040517fcfd3c57f0000000000000000000000000000000000000000000000000000000081526001600160a01b039091169063cfd3c57f906110719085908590600401611789565b600060405180830381600087803b15801561108b57600080fd5b505af115801561109f573d6000803e3d6000fd5b505050505050565b7f8a22373512790c48b83a1fe2efdd2888d4a917bcdc24d0adf63e60f67168046080546040516001600160a01b038481169216907f8be0079c531659141344cd1fd0a4f28419497f9722a3daafe3b4186f6b6457e090600090a380547fffffffffffffffffffffffff0000000000000000000000000000000000000000166001600160a01b0392909216919091179055565b50805461114590611655565b6000825580601f10611155575050565b601f01602090049060005260206000209081019061046891906111f7565b82805461117f90611655565b90600052602060002090601f0160209004810192826111a157600085556111e7565b82601f106111ba57805160ff19168380011785556111e7565b828001600101855582156111e7579182015b828111156111e75782518255916020019190600101906111cc565b506111f39291506111f7565b5090565b5b808211156111f357600081556001016111f8565b801515811461046857600080fd5b60006020828403121561122c57600080fd5b81356112378161120c565b9392505050565b6020808252825182820181905260009190848201906040850190845b818110156112765783518352928401929184019160010161125a565b50909695505050505050565b60006020828403121561129457600080fd5b5035919050565b6000602082840312156112ad57600080fd5b81356001600160a01b038116811461123757600080fd5b600080604083850312156112d757600080fd5b8235915060208301356112e98161120c565b809150509250929050565b6000815180845260005b8181101561131a576020818501810151868301820152016112fe565b8181111561132c576000602083870101525b50601f01601f19169290920160200192915050565b634e487b7160e01b600052602160045260246000fd5b6000604082016040835280855180835260608501915060608160051b8601019250602080880160005b838110156113cc577fffffffffffffffffffffffffffffffffffffffffffffffffffffffffffffffa08887030185526113ba8683516112f4565b95509382019390820190600101611380565b50508584038187015286518085528782019482019350915060005b828110156114215784516022811061140f57634e487b7160e01b600052602160045260246000fd5b845293810193928101926001016113e7565b5091979650505050505050565b634e487b7160e01b600052604160045260246000fd5b604051601f8201601f1916810167ffffffffffffffff8111828210171561146d5761146d61142e565b604052919050565b600082601f83011261148657600080fd5b813567ffffffffffffffff8111156114a0576114a061142e565b6114b36020601f19601f84011601611444565b8181528460208386010111156114c857600080fd5b816020850160208301376000918101602001919091529392505050565b600080604083850312156114f857600080fd5b82359150602083013567ffffffffffffffff81111561151657600080fd5b61152285828601611475565b9150509250929050565b60006020828403121561153e57600080fd5b813567ffffffffffffffff81111561155557600080fd5b61156184828501611475565b949350505050565b60208152600061123760208301846112f4565b60006020828403121561158e57600080fd5b81516112378161120c565b600060208083850312156115ac57600080fd5b825167ffffffffffffffff808211156115c457600080fd5b818501915085601f8301126115d857600080fd5b8151818111156115ea576115ea61142e565b8060051b91506115fb848301611444565b818152918301840191848101908884111561161557600080fd5b938501935b838510156116335784518252938501939085019061161a565b98975050505050505050565b634e487b7160e01b600052603260045260246000fd5b600181811c9082168061166957607f821691505b60208210810361168957634e487b7160e01b600052602260045260246000fd5b50919050565b600080835481600182811c9150808316806116ab57607f831692505b602080841082036116ca57634e487b7160e01b86526022600452602486fd5b8180156116de57600181146116ef5761171c565b60ff1986168952848901965061171c565b60008a81526020902060005b868110156117145781548b8201529085019083016116fb565b505084890196505b509498975050505050505050565b60006020828403121561173c57600080fd5b5051919050565b60007fffffffffffffffffffffffffffffffffffffffffffffffffffffffffffffffff820361178257634e487b7160e01b600052601160045260246000fd5b5060010190565b82815260406020820152600061156160408301846112f456fea264697066735822122034c8e5932d3a45a1f1effeaf2e1dabf390b8807b76869236891460b43f4a415a64736f6c634300080d0033608060405234801561001057600080fd5b5061001a3361001f565b6100b4565b600061003361009060201b6105431760201c565b80546040519192506001600160a01b03808516929116907f8be0079c531659141344cd1fd0a4f28419497f9722a3daafe3b4186f6b6457e090600090a380546001600160a01b0319166001600160a01b0392909216919091179055565b7f8a22373512790c48b83a1fe2efdd2888d4a917bcdc24d0adf63e60f67168046090565b610787806100c36000396000f3fe608060405234801561001057600080fd5b50600436106100885760003560e01c80638e7cb6e11161005b5780638e7cb6e114610100578063949d225d1461012a578063cccf7a8e1461013b578063f2fde38b1461015e57600080fd5b80631003e2d21461008d578063410d59cc146100a25780634cc82215146100c05780638da5cb5b146100d3575b600080fd5b6100a061009b36600461061b565b610171565b005b6100aa610233565b6040516100b79190610634565b60405180910390f35b6100a06100ce36600461061b565b61028b565b6100db6103ef565b60405173ffffffffffffffffffffffffffffffffffffffff90911681526020016100b7565b61011361010e36600461061b565b610434565b6040805192151583526020830191909152016100b7565b6000546040519081526020016100b7565b61014e61014936600461061b565b610467565b60405190151581526020016100b7565b6100a061016c366004610678565b6104ca565b7f8a22373512790c48b83a1fe2efdd2888d4a917bcdc24d0adf63e60f6716804605473ffffffffffffffffffffffffffffffffffffffff1633146101e1576040517f2f7a8ee100000000000000000000000000000000000000000000000000000000815260040160405180910390fd5b6101ea81610467565b61023057600080548282526001602081905260408320829055810182559080527f290decd9548b62a8d60345a988386fc84ba6bc95484008f6362f93160ef3e563018190555b50565b6060600080548060200260200160405190810160405280929190818152602001828054801561028157602002820191906000526020600020905b81548152602001906001019080831161026d575b5050505050905090565b7f8a22373512790c48b83a1fe2efdd2888d4a917bcdc24d0adf63e60f6716804605473ffffffffffffffffffffffffffffffffffffffff1633146102fb576040517f2f7a8ee100000000000000000000000000000000000000000000000000000000815260040160405180910390fd5b61030481610467565b156102305760008054610319906001906106b5565b81548110610329576103296106f3565b9060005260206000200154600060016000848152602001908152602001600020548154811061035a5761035a6106f3565b60009182526020808320909101929092558281526001918290526040812054815490929190819084908110610391576103916106f3565b9060005260206000200154815260200190815260200160002081905550600160008281526020019081526020016000206000905560008054806103d6576103d6610722565b6001900381819060005260206000200160009055905550565b600061042f7f8a22373512790c48b83a1fe2efdd2888d4a917bcdc24d0adf63e60f6716804605473ffffffffffffffffffffffffffffffffffffffff1690565b905090565b60008061044083610467565b61044f57506000928392509050565b50506000908152600160208190526040909120549091565b60008054810361047957506000919050565b60008281526001602052604081205490036104b55781600080815481106104a2576104a26106f3565b9060005260206000200154149050919050565b50600090815260016020526040902054151590565b7f8a22373512790c48b83a1fe2efdd2888d4a917bcdc24d0adf63e60f6716804605473ffffffffffffffffffffffffffffffffffffffff16331461053a576040517f2f7a8ee100000000000000000000000000000000000000000000000000000000815260040160405180910390fd5b61023081610567565b7f8a22373512790c48b83a1fe2efdd2888d4a917bcdc24d0adf63e60f67168046090565b7f8a22373512790c48b83a1fe2efdd2888d4a917bcdc24d0adf63e60f6716804608054604051610230928492909173ffffffffffffffffffffffffffffffffffffffff8085169216907f8be0079c531659141344cd1fd0a4f28419497f9722a3daafe3b4186f6b6457e090600090a380547fffffffffffffffffffffffff00000000000000000000000000000000000000001673ffffffffffffffffffffffffffffffffffffffff92909216919091179055565b60006020828403121561062d57600080fd5b5035919050565b6020808252825182820181905260009190848201906040850190845b8181101561066c57835183529284019291840191600101610650565b50909695505050505050565b60006020828403121561068a57600080fd5b813573ffffffffffffffffffffffffffffffffffffffff811681146106ae57600080fd5b9392505050565b6000828210156106ee577f4e487b7100000000000000000000000000000000000000000000000000000000600052601160045260246000fd5b500390565b7f4e487b7100000000000000000000000000000000000000000000000000000000600052603260045260246000fd5b7f4e487b7100000000000000000000000000000000000000000000000000000000600052603160045260246000fdfea264697066735822122010e8442544721aeb2ea7e1db1a13fd47fc66330f840229a56dc8524d8245165264736f6c634300080d0033608060405234801561001057600080fd5b5061001a3361001f565b6100b4565b600061003361009060201b6105691760201c565b80546040519192506001600160a01b03808516929116907f8be0079c531659141344cd1fd0a4f28419497f9722a3daafe3b4186f6b6457e090600090a380546001600160a01b0319166001600160a01b0392909216919091179055565b7f8a22373512790c48b83a1fe2efdd2888d4a917bcdc24d0adf63e60f67168046090565b6107cf806100c36000396000f3fe608060405234801561001057600080fd5b506004361061007d5760003560e01c806385edea131161005b57806385edea13146100d35780638da5cb5b14610101578063a0265ff81461012e578063f2fde38b1461015157600080fd5b80636526db7a14610082578063771602f714610097578063796c5e94146100aa575b600080fd5b610095610090366004610641565b610164565b005b6100956100a5366004610641565b610301565b6100bd6100b8366004610663565b6103b5565b6040516100ca919061067c565b60405180910390f35b6100f36100e1366004610663565b60009081526020819052604090205490565b6040519081526020016100ca565b610109610415565b60405173ffffffffffffffffffffffffffffffffffffffff90911681526020016100ca565b61014161013c366004610641565b61045a565b60405190151581526020016100ca565b61009561015f3660046106c0565b6104ed565b7f8a22373512790c48b83a1fe2efdd2888d4a917bcdc24d0adf63e60f6716804605473ffffffffffffffffffffffffffffffffffffffff1633146101d4576040517f2f7a8ee100000000000000000000000000000000000000000000000000000000815260040160405180910390fd5b6101de828261045a565b156102fd57600082815260208190526040902080546101ff906001906106fd565b8154811061020f5761020f61073b565b600091825260208083209091015484835282825260408084206001845281852086865290935290922054815481106102495761024961073b565b6000918252602080832090910192909255838152600182526040808220848352808452818320548684528385529183208584529381905283549193909291849081106102975761029761073b565b600091825260208083209091015483528281019390935260409182018120939093558483526001825280832084845282528083208390558483529082905290208054806102e6576102e661076a565b600190038181906000526020600020016000905590555b5050565b7f8a22373512790c48b83a1fe2efdd2888d4a917bcdc24d0adf63e60f6716804605473ffffffffffffffffffffffffffffffffffffffff163314610371576040517f2f7a8ee100000000000000000000000000000000000000000000000000000000815260040160405180910390fd5b61037b828261045a565b6102fd5760009182526020828152604080842080546001808552838720868852855292862081905585845291820181558452922090910155565b6000818152602081815260409182902080548351818402810184019094528084526060939283018282801561040957602002820191906000526020600020905b8154815260200190600101908083116103f5575b50505050509050919050565b60006104557f8a22373512790c48b83a1fe2efdd2888d4a917bcdc24d0adf63e60f6716804605473ffffffffffffffffffffffffffffffffffffffff1690565b905090565b6000828152602081905260408120548103610477575060006104e7565b600083815260016020908152604080832085845290915281205490036104c957600083815260208190526040812080548492906104b6576104b661073b565b90600052602060002001541490506104e7565b50600082815260016020908152604080832084845290915290205415155b92915050565b7f8a22373512790c48b83a1fe2efdd2888d4a917bcdc24d0adf63e60f6716804605473ffffffffffffffffffffffffffffffffffffffff16331461055d576040517f2f7a8ee100000000000000000000000000000000000000000000000000000000815260040160405180910390fd5b6105668161058d565b50565b7f8a22373512790c48b83a1fe2efdd2888d4a917bcdc24d0adf63e60f67168046090565b7f8a22373512790c48b83a1fe2efdd2888d4a917bcdc24d0adf63e60f6716804608054604051610566928492909173ffffffffffffffffffffffffffffffffffffffff8085169216907f8be0079c531659141344cd1fd0a4f28419497f9722a3daafe3b4186f6b6457e090600090a380547fffffffffffffffffffffffff00000000000000000000000000000000000000001673ffffffffffffffffffffffffffffffffffffffff92909216919091179055565b6000806040838503121561065457600080fd5b50508035926020909101359150565b60006020828403121561067557600080fd5b5035919050565b6020808252825182820181905260009190848201906040850190845b818110156106b457835183529284019291840191600101610698565b50909695505050505050565b6000602082840312156106d257600080fd5b813573ffffffffffffffffffffffffffffffffffffffff811681146106f657600080fd5b9392505050565b600082821015610736577f4e487b7100000000000000000000000000000000000000000000000000000000600052601160045260246000fd5b500390565b7f4e487b7100000000000000000000000000000000000000000000000000000000600052603260045260246000fd5b7f4e487b7100000000000000000000000000000000000000000000000000000000600052603160045260246000fdfea26469706673582212202fcbe961aafc75a5765c06e729b37275c4872ffa97feffbf3a841a2f87d4f87464736f6c634300080d0033",
    "linkReferences": {}
  },
  "methodIdentifiers": {
    "ID()": "b3cea217",
    "authorizeWriter(address)": "4fef6a38",
    "getEntities()": "31b933b9",
    "getEntitiesWithValue(bool)": "001326ab",
    "getEntitiesWithValue(bytes)": "b361be46",
    "getRawValue(uint256)": "b8bc073d",
    "getSchema()": "6b122fe0",
    "getValue(uint256)": "0ff4c916",
    "has(uint256)": "cccf7a8e",
    "id()": "af640d0f",
    "owner()": "8da5cb5b",
    "registerIndexer(address)": "75c0669c",
    "registerWorld(address)": "9d2c76b4",
    "remove(uint256)": "4cc82215",
    "set(uint256,bool)": "62f46d56",
    "set(uint256,bytes)": "8b282947",
    "transferOwnership(address)": "f2fde38b",
    "unauthorizeWriter(address)": "bf4fe57e",
    "world()": "30b67baa",
    "writeAccess(address)": "861eb905"
  },
  "id": 56
}