{
  "abi": [
    {
      "inputs": [
        {
          "internalType": "uint256",
          "name": "length",
          "type": "uint256"
        }
      ],
      "name": "FieldLayoutLib_InvalidLength",
      "type": "error"
    },
    {
      "inputs": [],
      "name": "FieldLayoutLib_StaticLengthDoesNotFitInAWord",
      "type": "error"
    },
    {
      "inputs": [],
      "name": "FieldLayoutLib_StaticLengthIsZero",
      "type": "error"
    },
    {
      "inputs": [
        {
          "internalType": "uint256",
          "name": "length",
          "type": "uint256"
        }
      ],
      "name": "PackedCounter_InvalidLength",
      "type": "error"
    },
    {
      "inputs": [
        {
          "internalType": "bytes",
          "name": "data",
          "type": "bytes"
        },
        {
          "internalType": "uint256",
          "name": "start",
          "type": "uint256"
        },
        {
          "internalType": "uint256",
          "name": "end",
          "type": "uint256"
        }
      ],
      "name": "Slice_OutOfBounds",
      "type": "error"
    },
    {
      "inputs": [
        {
          "internalType": "uint256",
          "name": "expected",
          "type": "uint256"
        },
        {
          "internalType": "uint256",
          "name": "received",
          "type": "uint256"
        }
      ],
      "name": "StoreCore_InvalidDataLength",
      "type": "error"
    },
    {
      "inputs": [],
      "name": "_msgSender",
      "outputs": [
        {
          "internalType": "address",
          "name": "sender",
          "type": "address"
        }
      ],
      "stateMutability": "view",
      "type": "function"
    },
    {
      "inputs": [],
      "name": "_msgValue",
      "outputs": [
        {
          "internalType": "uint256",
          "name": "value",
          "type": "uint256"
        }
      ],
      "stateMutability": "pure",
      "type": "function"
    },
    {
      "inputs": [],
      "name": "_world",
      "outputs": [
        {
          "internalType": "address",
          "name": "",
          "type": "address"
        }
      ],
      "stateMutability": "view",
      "type": "function"
    },
    {
      "inputs": [],
      "name": "increment",
      "outputs": [
        {
          "internalType": "uint32",
          "name": "",
          "type": "uint32"
        }
      ],
      "stateMutability": "nonpayable",
      "type": "function"
    },
    {
      "inputs": [
        {
          "internalType": "bytes4",
          "name": "interfaceId",
          "type": "bytes4"
        }
      ],
      "name": "supportsInterface",
      "outputs": [
        {
          "internalType": "bool",
          "name": "",
          "type": "bool"
        }
      ],
      "stateMutability": "pure",
      "type": "function"
    }
  ],
  "bytecode": {
    "object": "0x608060405234801561001057600080fd5b50611703806100206000396000f3fe608060405234801561001057600080fd5b50600436106100675760003560e01c806345ec93541161005057806345ec9354146100c1578063d09de08a146100d4578063e1af802c146100f157600080fd5b806301ffc9a71461006c578063119df25f14610094575b600080fd5b61007f61007a366004611257565b6100f9565b60405190151581526020015b60405180910390f35b61009c610192565b60405173ffffffffffffffffffffffffffffffffffffffff909116815260200161008b565b604051601f19360135815260200161008b565b6100dc6101c4565b60405163ffffffff909116815260200161008b565b61009c6101e9565b60007fffffffff0000000000000000000000000000000000000000000000000000000082167fb421288000000000000000000000000000000000000000000000000000000000148061018c57507fffffffff0000000000000000000000000000000000000000000000000000000082167f01ffc9a700000000000000000000000000000000000000000000000000000000145b92915050565b7fffffffffffffffffffffffffffffffffffffffffffffffffffffffffffffffcc36013560601c806101c15750335b90565b6000806101cf6101f8565b905060006101de8260016112af565b905061018c81610271565b60006101f361031f565b905090565b6040805160008082526020820183528183018190527f436f756e7465720000000000000000000000000000000000000000000000000060508301528251808303840181526060830190935291829061026390610253906112ed565b83600061025e61036b565b6103c2565b6020015160e01c9392505050565b604080516000808252602082018352818301527f436f756e746572000000000000000000000000000000000000000000000000006050820152815180820383018152606082019092529061031b906102c8906112ed565b6040517fffffffff0000000000000000000000000000000000000000000000000000000060e086901b166020820152839060009060240160405160208183030381529060405261031661036b565b6104a6565b5050565b7f629a4c26e296b22a8e0856e9f6ecb2d1008d7e00081111962cd175fa7488e1755460009073ffffffffffffffffffffffffffffffffffffffff1680610366573391505090565b919050565b604080516001808252818301909252600091829190602080830190803683370190505090506004816000815181106103a5576103a5611314565b6020026020010181815250506103bc816000610576565b91505090565b606060006103ce61031f565b90503073ffffffffffffffffffffffffffffffffffffffff821603610401576103f986868686610775565b91505061049e565b6040517f05242d2f00000000000000000000000000000000000000000000000000000000815273ffffffffffffffffffffffffffffffffffffffff8216906305242d2f90610459908990899089908990600401611365565b600060405180830381865afa158015610476573d6000803e3d6000fd5b505050506040513d6000823e601f3d908101601f191682016040526103f991908101906113c0565b949350505050565b60006104b061031f565b90503073ffffffffffffffffffffffffffffffffffffffff8216036104e1576104dc86868686866107a9565b61056e565b6040517f3708196e00000000000000000000000000000000000000000000000000000000815273ffffffffffffffffffffffffffffffffffffffff821690633708196e9061053b9089908990899089908990600401611499565b600060405180830381600087803b15801561055557600080fd5b505af1158015610569573d6000803e3d6000fd5b505050505b505050505050565b60008060008084865161058991906114e0565b9050601c8111156105ce576040517f97e36a0a000000000000000000000000000000000000000000000000000000008152600481018290526024015b60405180910390fd5b600585111561060c576040517f97e36a0a000000000000000000000000000000000000000000000000000000008152600481018690526024016105c5565b60005b86518110156106e857600087828151811061062c5761062c611314565b6020026020010151905080600003610670576040517fbf1ac38300000000000000000000000000000000000000000000000000000000815260040160405180910390fd5b60208111156106ab576040517f2392baa400000000000000000000000000000000000000000000000000000000815260040160405180910390fd5b80840193506008826004601f0303028883815181106106cc576106cc611314565b6020026020010151901b8517945081806001019250505061060f565b5060086106f7600260206114f8565b610701919061150f565b82901b929092179160086001610719600260206114f8565b61072391906114f8565b61072d919061150f565b8651901b92909217916008600180610747600260206114f8565b61075191906114f8565b61075b91906114f8565b610765919061150f565b9490941b91909117949350505050565b6060610780826109fe565b8360ff16101561079d5761079685858585610a30565b905061049e565b61079685858585610a78565b7fd01f9f1368f831528fc9fe6442366b2b7d957fbfff3bcf7c24d9ab5fe51f8c46858585856040516107de949392919061152e565b60405180910390a160006107f186610ad3565b905060005b81518110156108ef57600082828151811061081357610813611314565b6020026020010151905061085c6002600581111561083357610833611562565b7fffffffffffffffffffffffffffffffffffffffffff0000000000000000000000831690610bab565b156108dc576040517fbf11b74e000000000000000000000000000000000000000000000000000000008152606082901c9063bf11b74e906108a9908b908b908b908b908b90600401611499565b600060405180830381600087803b1580156108c357600080fd5b505af11580156108d7573d6000803e3d6000fd5b505050505b50806108e781611578565b9150506107f6565b506108f9826109fe565b8460ff161015610915576109108686848787610bcc565b610922565b6109228686848787610c57565b60005b81518110156109f557600082828151811061094257610942611314565b602002602001015190506109626003600581111561083357610833611562565b156109e2576040517f7da508a2000000000000000000000000000000000000000000000000000000008152606082901c90637da508a2906109af908b908b908b908b908b90600401611499565b600060405180830381600087803b1580156109c957600080fd5b505af11580156109dd573d6000803e3d6000fd5b505050505b50806109ed81611578565b915050610925565b50505050505050565b600060086001610a10600260206114f8565b610a1a91906114f8565b610a24919061150f565b8260ff911c1692915050565b6060600060ff848116601b0360080284901c1690506000610a518787610c96565b90506000610a5f8587610cec565b9050610a6c828483610d2f565b98975050505050505050565b60606000610a85836109fe565b610a8f9085611592565b90506000610a9e878784610d52565b90506000610ac583610ab08a8a610dab565b9060ff166028026038011c64ffffffffff1690565b9050610a6c82826000610d2f565b60408051600180825281830190925260609160009190602080830190803683370190505090508281600081518110610b0d57610b0d611314565b602090810291909101810191909152604080517f6d756473746f7265000000000000000000000000000000000000000000000000818401527f53746f7265486f6f6b730000000000000000000000000000000000000000000060308201528151808203909301835281019052600090610b9490610b89906112ed565b83600061025e610dc2565b905061049e610ba68260008451610ddd565b610e6d565b6000600160ff83161b610bbe8460581c90565b1660ff161515905092915050565b600060ff838116601b0360080285901c16905081518114610c265781516040517f521b3d330000000000000000000000000000000000000000000000000000000081526105c5918391600401918252602082015260400190565b6000610c328787610c96565b90506000610c408686610cec565b9050610c4d828286610e85565b5050505050505050565b6000610c62846109fe565b610c6c9084611592565b9050610c7b8686838551610e9a565b6000610c88878784610d52565b90506109f581600085610e85565b60007f86425bff6b57326c7859e89024fe4f238ca327a1ae4a230180dd2f0e88aaa7d98383604051602001610ccd939291906115b5565b60408051601f1981840301815291905280516020909101209392505050565b600080805b8360ff16811015610d2757610d1360ff601b83900360080287901c16836114e0565b915080610d1f81611578565b915050610cf1565b509392505050565b60405160208101601f19603f8584010116604052838252610d2785858584610ec9565b60007f86425bff6b57326c7859e89024fe4f238ca327a1ae4a230180dd2f0e88aaa7d9848484604051602001610d8b94939291906115dd565b60408051601f198184030181529190528051602090910120949350505050565b600080610db88484610f7f565b905061049e815490565b604080516000808252602082019092526103bc816001610576565b6000818311158015610df0575083518211155b610e2c578383836040517f23230fa30000000000000000000000000000000000000000000000000000000081526004016105c593929190611610565b60208401610e3a84826114e0565b90506000610e4885856114f8565b6fffffffffffffffffffffffffffffffff1660809290921b9190911795945050505050565b60606000610e7e8360156000610fb6565b9392505050565b610e9583836020840184516110c8565b505050565b6000610ea68585610f7f565b90506000610eb2825490565b9050610ebf818585611188565b808355905061056e565b8115610f3b5760208210610ef357602082048401935060208281610eef57610eef611635565b0691505b8115610f3b5760208290036000600019600883021c1990508554600885021b811984511682821617845250818511610f2c575050610f79565b50600194909401939283900392015b5b60208310610f5d5783548152600190930192601f1990920191602001610f3c565b8215610f795780518454600019600886021c9182169119161781525b50505050565b60007f86425bff6b57326c7859e89024fe4f238ca327a1ae4a230180dd2f0e88aaa7d98383604051602001610ccd9392919061164b565b60606000610fc48560801c90565b90506fffffffffffffffffffffffffffffffff85166000858281610fea57610fea611635565b049050610ff786836116ab565b15611084576040517f08c379a000000000000000000000000000000000000000000000000000000000815260206004820152603d60248201527f756e7061636b546f41727261793a207061636b65644c656e677468206d75737460448201527f2062652061206d756c7469706c65206f6620656c656d656e7453697a6500000060648201526084016105c5565b60405193506020840160208202810160405281855260005b828110156110bc578451871c82529387019360209091019060010161109c565b50505050509392505050565b821561114257602083106110f2576020830484019350602083816110ee576110ee611635565b0692505b82156111425760208390036000600019600884021c1990506008850281811c91508451811c9050811987541682821617875550818311611133575050610f79565b50600194909401939182019190035b5b602081106111645781518455600190930192602090910190601f1901611143565b8015610f79576000600019600883021c198554845182169119161785555050505050565b600064ffffffffff8211156111cc576040517f47670588000000000000000000000000000000000000000000000000000000008152600481018390526024016105c5565b8366ffffffffffffff811660ff851660280260380182901c64ffffffffff168085106111fe5780850382019150611206565b848103820391505b5064ffffffffff6038602860ff8816020190811b80197fffffffffffffffffffffffffffffffffffffffffffffffffff0000000000000094909416909217929092169184901b161790509392505050565b60006020828403121561126957600080fd5b81357fffffffff0000000000000000000000000000000000000000000000000000000081168114610e7e57600080fd5b634e487b7160e01b600052601160045260246000fd5b600063ffffffff8083168185168083038211156112ce576112ce611299565b01949350505050565b634e487b7160e01b600052604160045260246000fd5b8051602080830151919081101561130e576000198160200360031b1b821691505b50919050565b634e487b7160e01b600052603260045260246000fd5b600081518084526020808501945080840160005b8381101561135a5781518752958201959082019060010161133e565b509495945050505050565b84815260806020820152600061137e608083018661132a565b60ff949094166040830152506060015292915050565b60005b838110156113af578181015183820152602001611397565b83811115610f795750506000910152565b6000602082840312156113d257600080fd5b815167ffffffffffffffff808211156113ea57600080fd5b818401915084601f8301126113fe57600080fd5b815181811115611410576114106112d7565b604051601f8201601f19908116603f01168101908382118183101715611438576114386112d7565b8160405282815287602084870101111561145157600080fd5b611462836020830160208801611394565b979650505050505050565b60008151808452611485816020860160208601611394565b601f01601f19169290920160200192915050565b85815260a0602082015260006114b260a083018761132a565b60ff8616604084015282810360608401526114cd818661146d565b9150508260808301529695505050505050565b600082198211156114f3576114f3611299565b500190565b60008282101561150a5761150a611299565b500390565b600081600019048311821515161561152957611529611299565b500290565b848152608060208201526000611547608083018661132a565b60ff851660408401528281036060840152611462818561146d565b634e487b7160e01b600052602160045260246000fd5b6000600019820361158b5761158b611299565b5060010190565b600060ff821660ff8416808210156115ac576115ac611299565b90039392505050565b8381528260208201526060604082015260006115d4606083018461132a565b95945050505050565b8481528360208201526080604082015260006115fc608083018561132a565b905060ff8316606083015295945050505050565b606081526000611623606083018661146d565b60208301949094525060400152919050565b634e487b7160e01b600052601260045260246000fd5b83815282602082015260806040820152600061166a608083018461132a565b8281036060840152600681527f6c656e6774680000000000000000000000000000000000000000000000000000602082015260408101915050949350505050565b6000826116c857634e487b7160e01b600052601260045260246000fd5b50069056fea26469706673582212201c6e75777ae70b4b44e4ec78745d0e7e2281e122b1fb2d4f1332e34c3e36810164736f6c634300080d0033",
    "linkReferences": {}
  },
  "methodIdentifiers": {
    "_msgSender()": "119df25f",
    "_msgValue()": "45ec9354",
    "_world()": "e1af802c",
    "increment()": "d09de08a",
    "supportsInterface(bytes4)": "01ffc9a7"
  },
  "id": 91
}