{
  "abi": [
    {
      "inputs": [
        {
          "internalType": "contract IWorld",
          "name": "_world",
          "type": "address"
        },
        {
          "internalType": "address",
          "name": "_components",
          "type": "address"
        }
      ],
      "stateMutability": "nonpayable",
      "type": "constructor"
    },
    {
      "inputs": [],
      "name": "Ownable__NotOwner",
      "type": "error"
    },
    {
      "inputs": [],
      "name": "Ownable__NotTransitiveOwner",
      "type": "error"
    },
    {
      "anonymous": false,
      "inputs": [
        {
          "indexed": true,
          "internalType": "address",
          "name": "previousOwner",
          "type": "address"
        },
        {
          "indexed": true,
          "internalType": "address",
          "name": "newOwner",
          "type": "address"
        }
      ],
      "name": "OwnershipTransferred",
      "type": "event"
    },
    {
      "inputs": [
        {
          "internalType": "bytes",
          "name": "args",
          "type": "bytes"
        }
      ],
      "name": "execute",
      "outputs": [
        {
          "internalType": "bytes",
          "name": "",
          "type": "bytes"
        }
      ],
      "stateMutability": "nonpayable",
      "type": "function"
    },
    {
      "inputs": [
        {
          "internalType": "address",
          "name": "msgSender",
          "type": "address"
        },
        {
          "internalType": "enum RegisterType",
          "name": "registerType",
          "type": "uint8"
        },
        {
          "internalType": "address",
          "name": "addr",
          "type": "address"
        },
        {
          "internalType": "uint256",
          "name": "id",
          "type": "uint256"
        }
      ],
      "name": "execute",
      "outputs": [
        {
          "internalType": "bytes",
          "name": "",
          "type": "bytes"
        }
      ],
      "stateMutability": "nonpayable",
      "type": "function"
    },
    {
      "inputs": [],
      "name": "owner",
      "outputs": [
        {
          "internalType": "address",
          "name": "",
          "type": "address"
        }
      ],
      "stateMutability": "view",
      "type": "function"
    },
    {
      "inputs": [
        {
          "internalType": "bytes",
          "name": "args",
          "type": "bytes"
        }
      ],
      "name": "requirement",
      "outputs": [
        {
          "internalType": "bytes",
          "name": "",
          "type": "bytes"
        }
      ],
      "stateMutability": "view",
      "type": "function"
    },
    {
      "inputs": [
        {
          "internalType": "address",
          "name": "account",
          "type": "address"
        }
      ],
      "name": "transferOwnership",
      "outputs": [],
      "stateMutability": "nonpayable",
      "type": "function"
    }
  ],
  "bytecode": {
    "object": "0x60806040523480156200001157600080fd5b50604051620010263803806200102683398101604081905262000034916200022c565b818162000041336200010f565b6001600160a01b03811615620000585780620000bd565b816001600160a01b031663ba62fbe46040518163ffffffff1660e01b8152600401602060405180830381865afa15801562000097573d6000803e3d6000fd5b505050506040513d601f19601f82011682018060405250810190620000bd91906200026b565b600080546001600160a01b03199081166001600160a01b0393841690811790925560018054909116928516928317905562000105919062000183602090811b6200079617901c565b5050505062000292565b600062000126620001ef60201b6200081a1760201c565b80546040519192506001600160a01b03808516929116907f8be0079c531659141344cd1fd0a4f28419497f9722a3daafe3b4186f6b6457e090600090a380546001600160a01b0319166001600160a01b0392909216919091179055565b7ff67304f10c7772c78e439bc5cb07781db345424de8878c18100fdaa64d197a8780546001600160a01b039384166001600160a01b0319918216179091557ff67304f10c7772c78e439bc5cb07781db345424de8878c18100fdaa64d197a868054929093169116179055565b7f8a22373512790c48b83a1fe2efdd2888d4a917bcdc24d0adf63e60f67168046090565b6001600160a01b03811681146200022957600080fd5b50565b600080604083850312156200024057600080fd5b82516200024d8162000213565b6020840151909250620002608162000213565b809150509250929050565b6000602082840312156200027e57600080fd5b81516200028b8162000213565b9392505050565b610d8480620002a26000396000f3fe608060405234801561001057600080fd5b50600436106100675760003560e01c80638da5cb5b116100505780638da5cb5b146100a9578063f2fde38b146100c9578063f6cd7a01146100de57600080fd5b806309c5eabe1461006c5780638b246a5b14610095575b600080fd5b61007f61007a366004610a1b565b6100f1565b60405161008c9190610ab0565b60405180910390f35b61007f6100a3366004610a1b565b50606090565b6100b16106b6565b6040516001600160a01b03909116815260200161008c565b6100dc6100d7366004610b1a565b6106ee565b005b61007f6100ec366004610b4b565b61075d565b60606000806000808580602001905181019061010d9190610b9c565b600154939750919550935091506001600160a01b0316331461019c5760405162461bcd60e51b815260206004820152602360248201527f73797374656d2063616e206f6e6c792062652063616c6c65642076696120576f60448201527f726c64000000000000000000000000000000000000000000000000000000000060648201526084015b60405180910390fd5b60008360018111156101b0576101b0610bef565b14806101cd575060018360018111156101cb576101cb610bef565b145b6102195760405162461bcd60e51b815260206004820152600c60248201527f696e76616c6964207479706500000000000000000000000000000000000000006044820152606401610193565b806000036102695760405162461bcd60e51b815260206004820152600a60248201527f696e76616c6964206964000000000000000000000000000000000000000000006044820152606401610193565b6001600160a01b0382166102bf5760405162461bcd60e51b815260206004820152600f60248201527f696e76616c6964206164647265737300000000000000000000000000000000006044820152606401610193565b6000808460018111156102d4576102d4610bef565b146103145760005461030f906001600160a01b03167f017c816a964927a00e050edd780dcf113ca2756dfa9e9fda94a05c140d9317b061083e565b610321565b6000546001600160a01b03165b905060006001600160a01b0384166040517fcccf7a8e000000000000000000000000000000000000000000000000000000008152600481018290529091506001600160a01b0383169063cccf7a8e90602401602060405180830381865afa158015610390573d6000803e3d6000fd5b505050506040513d601f19601f820116820180604052508101906103b49190610c05565b156104015760405162461bcd60e51b815260206004820152601960248201527f656e7469747920616c72656164792072656769737465726564000000000000006044820152606401610193565b6040517ffbdfa1ea000000000000000000000000000000000000000000000000000000008152600481018490526000906001600160a01b0384169063fbdfa1ea90602401600060405180830381865afa158015610462573d6000803e3d6000fd5b505050506040513d6000823e601f3d908101601f1916820160405261048a9190810190610c27565b905080516000148061053a57508051600114801561053a5750866001600160a01b03166104ce826000815181106104c3576104c3610ccd565b602002602001015190565b6001600160a01b0316638da5cb5b6040518163ffffffff1660e01b8152600401602060405180830381865afa15801561050b573d6000803e3d6000fd5b505050506040513d601f19601f8201168201806040525081019061052f9190610ce3565b6001600160a01b0316145b6105ac5760405162461bcd60e51b815260206004820152602a60248201527f696420616c7265616479207265676973746572656420616e642063616c6c657260448201527f206e6f74206f776e6572000000000000000000000000000000000000000000006064820152608401610193565b805160010361063057826001600160a01b0316634cc82215826000815181106105d7576105d7610ccd565b60200260200101516040518263ffffffff1660e01b81526004016105fd91815260200190565b600060405180830381600087803b15801561061757600080fd5b505af115801561062b573d6000803e3d6000fd5b505050505b6040517f1ab06ee500000000000000000000000000000000000000000000000000000000815260048101839052602481018590526001600160a01b03841690631ab06ee590604401600060405180830381600087803b15801561069257600080fd5b505af11580156106a6573d6000803e3d6000fd5b5050505050505050505050919050565b60006106e97f8a22373512790c48b83a1fe2efdd2888d4a917bcdc24d0adf63e60f671680460546001600160a01b031690565b905090565b7f8a22373512790c48b83a1fe2efdd2888d4a917bcdc24d0adf63e60f671680460546001600160a01b03163314610751576040517f2f7a8ee100000000000000000000000000000000000000000000000000000000815260040160405180910390fd5b61075a8161093a565b50565b606061078d858585856040516020016107799493929190610d00565b6040516020818303038152906040526100f1565b95945050505050565b7ff67304f10c7772c78e439bc5cb07781db345424de8878c18100fdaa64d197a8780546001600160a01b039384167fffffffffffffffffffffffff0000000000000000000000000000000000000000918216179091557ff67304f10c7772c78e439bc5cb07781db345424de8878c18100fdaa64d197a868054929093169116179055565b7f8a22373512790c48b83a1fe2efdd2888d4a917bcdc24d0adf63e60f67168046090565b6040517ffbdfa1ea0000000000000000000000000000000000000000000000000000000081526004810182905260009081906001600160a01b0385169063fbdfa1ea90602401600060405180830381865afa1580156108a1573d6000803e3d6000fd5b505050506040513d6000823e601f3d908101601f191682016040526108c99190810190610c27565b9050805160000361091c5760405162461bcd60e51b815260206004820152601160248201527f6964206e6f7420726567697374657265640000000000000000000000000000006044820152606401610193565b610932816000815181106104c3576104c3610ccd565b949350505050565b7f8a22373512790c48b83a1fe2efdd2888d4a917bcdc24d0adf63e60f671680460805460405161075a92849290916001600160a01b038085169216907f8be0079c531659141344cd1fd0a4f28419497f9722a3daafe3b4186f6b6457e090600090a380547fffffffffffffffffffffffff0000000000000000000000000000000000000000166001600160a01b0392909216919091179055565b634e487b7160e01b600052604160045260246000fd5b604051601f8201601f1916810167ffffffffffffffff81118282101715610a1357610a136109d4565b604052919050565b60006020808385031215610a2e57600080fd5b823567ffffffffffffffff80821115610a4657600080fd5b818501915085601f830112610a5a57600080fd5b813581811115610a6c57610a6c6109d4565b610a7e84601f19601f840116016109ea565b91508082528684828501011115610a9457600080fd5b8084840185840137600090820190930192909252509392505050565b600060208083528351808285015260005b81811015610add57858101830151858201604001528201610ac1565b81811115610aef576000604083870101525b50601f01601f1916929092016040019392505050565b6001600160a01b038116811461075a57600080fd5b600060208284031215610b2c57600080fd5b8135610b3781610b05565b9392505050565b6002811061075a57600080fd5b60008060008060808587031215610b6157600080fd5b8435610b6c81610b05565b93506020850135610b7c81610b3e565b92506040850135610b8c81610b05565b9396929550929360600135925050565b60008060008060808587031215610bb257600080fd5b8451610bbd81610b05565b6020860151909450610bce81610b3e565b6040860151909350610bdf81610b05565b6060959095015193969295505050565b634e487b7160e01b600052602160045260246000fd5b600060208284031215610c1757600080fd5b81518015158114610b3757600080fd5b60006020808385031215610c3a57600080fd5b825167ffffffffffffffff80821115610c5257600080fd5b818501915085601f830112610c6657600080fd5b815181811115610c7857610c786109d4565b8060051b9150610c898483016109ea565b8181529183018401918481019088841115610ca357600080fd5b938501935b83851015610cc157845182529385019390850190610ca8565b98975050505050505050565b634e487b7160e01b600052603260045260246000fd5b600060208284031215610cf557600080fd5b8151610b3781610b05565b6001600160a01b038581168252608082019060028610610d3057634e487b7160e01b600052602160045260246000fd5b8560208401528085166040840152508260608301529594505050505056fea264697066735822122020b9b2508c27d27ac46e5ac7d08787137ca82aa5f7e1bad69b9b7b30d571197764736f6c634300080d0033",
    "linkReferences": {}
  },
  "methodIdentifiers": {
    "execute(address,uint8,address,uint256)": "f6cd7a01",
    "execute(bytes)": "09c5eabe",
    "owner()": "8da5cb5b",
    "requirement(bytes)": "8b246a5b",
    "transferOwnership(address)": "f2fde38b"
  },
  "id": 51
}