{
  "abi": [
    {
      "inputs": [
        {
          "internalType": "address",
          "name": "world",
          "type": "address"
        }
      ],
      "stateMutability": "nonpayable",
      "type": "constructor"
    },
    {
      "inputs": [],
      "name": "getEntities",
      "outputs": [
        {
          "internalType": "uint256[]",
          "name": "",
          "type": "uint256[]"
        }
      ],
      "stateMutability": "view",
      "type": "function"
    },
    {
      "inputs": [
        {
          "internalType": "bytes",
          "name": "value",
          "type": "bytes"
        }
      ],
      "name": "getEntitiesWithValue",
      "outputs": [
        {
          "internalType": "uint256[]",
          "name": "",
          "type": "uint256[]"
        }
      ],
      "stateMutability": "view",
      "type": "function"
    },
    {
      "inputs": [
        {
          "internalType": "uint256",
          "name": "value",
          "type": "uint256"
        }
      ],
      "name": "getEntitiesWithValue",
      "outputs": [
        {
          "internalType": "uint256[]",
          "name": "",
          "type": "uint256[]"
        }
      ],
      "stateMutability": "view",
      "type": "function"
    },
    {
      "inputs": [],
      "name": "getID",
      "outputs": [
        {
          "internalType": "uint256",
          "name": "",
          "type": "uint256"
        }
      ],
      "stateMutability": "pure",
      "type": "function"
    },
    {
      "inputs": [
        {
          "internalType": "uint256",
          "name": "entity",
          "type": "uint256"
        }
      ],
      "name": "getRawValue",
      "outputs": [
        {
          "internalType": "bytes",
          "name": "",
          "type": "bytes"
        }
      ],
      "stateMutability": "view",
      "type": "function"
    },
    {
      "inputs": [
        {
          "internalType": "uint256",
          "name": "entity",
          "type": "uint256"
        }
      ],
      "name": "getValue",
      "outputs": [
        {
          "internalType": "uint256",
          "name": "",
          "type": "uint256"
        }
      ],
      "stateMutability": "view",
      "type": "function"
    },
    {
      "inputs": [
        {
          "internalType": "uint256",
          "name": "entity",
          "type": "uint256"
        }
      ],
      "name": "has",
      "outputs": [
        {
          "internalType": "bool",
          "name": "",
          "type": "bool"
        }
      ],
      "stateMutability": "view",
      "type": "function"
    },
    {
      "inputs": [],
      "name": "owner",
      "outputs": [
        {
          "internalType": "address",
          "name": "",
          "type": "address"
        }
      ],
      "stateMutability": "view",
      "type": "function"
    },
    {
      "inputs": [
        {
          "internalType": "address",
          "name": "indexer",
          "type": "address"
        }
      ],
      "name": "registerIndexer",
      "outputs": [],
      "stateMutability": "nonpayable",
      "type": "function"
    },
    {
      "inputs": [
        {
          "internalType": "uint256",
          "name": "entity",
          "type": "uint256"
        }
      ],
      "name": "remove",
      "outputs": [],
      "stateMutability": "nonpayable",
      "type": "function"
    },
    {
      "inputs": [
        {
          "internalType": "uint256",
          "name": "entity",
          "type": "uint256"
        },
        {
          "internalType": "uint256",
          "name": "value",
          "type": "uint256"
        }
      ],
      "name": "set",
      "outputs": [],
      "stateMutability": "nonpayable",
      "type": "function"
    },
    {
      "inputs": [
        {
          "internalType": "uint256",
          "name": "entity",
          "type": "uint256"
        },
        {
          "internalType": "bytes",
          "name": "value",
          "type": "bytes"
        }
      ],
      "name": "set",
      "outputs": [],
      "stateMutability": "nonpayable",
      "type": "function"
    },
    {
      "inputs": [
        {
          "internalType": "address",
          "name": "newOwner",
          "type": "address"
        }
      ],
      "name": "transferOwnership",
      "outputs": [],
      "stateMutability": "nonpayable",
      "type": "function"
    },
    {
      "inputs": [],
      "name": "world",
      "outputs": [
        {
          "internalType": "address",
          "name": "",
          "type": "address"
        }
      ],
      "stateMutability": "view",
      "type": "function"
    }
  ],
  "bytecode": {
    "object": "0x60806040523480156200001157600080fd5b5060405162002353380380620023538339810160408190526200003491620001a9565b600080546001600160a01b0319166001600160a01b038316908117909155819063f303477030620000827f402b0dae54070a7ad1d820546f3e31228c279870a459486bf6d7eee61e67571890565b6040516001600160e01b031960e085901b1681526001600160a01b0390921660048301526024820152604401600060405180830381600087803b158015620000c957600080fd5b505af1158015620000de573d6000803e3d6000fd5b50505050604051620000f0906200018d565b604051809103906000f0801580156200010d573d6000803e3d6000fd5b50600280546001600160a01b0319166001600160a01b03929092169190911790556040516200013c906200019b565b604051809103906000f08015801562000159573d6000803e3d6000fd5b50600380546001600160a01b03929092166001600160a01b0319928316179055600180549091163317905550620001db9050565b6104388062001a3183390190565b6104ea8062001e6983390190565b600060208284031215620001bc57600080fd5b81516001600160a01b0381168114620001d457600080fd5b9392505050565b61184680620001eb6000396000f3fe608060405234801561001057600080fd5b50600436106100ea5760003560e01c80638da5cb5b1161008c578063b8bc073d11610066578063b8bc073d14610216578063cccf7a8e14610236578063f2fde38b14610259578063fbdfa1ea1461026c57600080fd5b80638da5cb5b146101bd578063ab9dbd07146101dd578063b361be461461020357600080fd5b806331b933b9116100c857806331b933b91461016f5780634cc822151461018457806375c0669c146101975780638b282947146101aa57600080fd5b80630ff4c916146100ef5780631ab06ee51461011557806330b67baa1461012a575b600080fd5b6101026100fd366004611237565b61027f565b6040519081526020015b60405180910390f35b610128610123366004611250565b6102a3565b005b60005461014a9073ffffffffffffffffffffffffffffffffffffffff1681565b60405173ffffffffffffffffffffffffffffffffffffffff909116815260200161010c565b6101776102d2565b60405161010c9190611272565b610128610192366004611237565b61038d565b6101286101a53660046112b6565b61076b565b6101286101b83660046113f8565b6108f3565b60015461014a9073ffffffffffffffffffffffffffffffffffffffff1681565b7f402b0dae54070a7ad1d820546f3e31228c279870a459486bf6d7eee61e675718610102565b61017761021136600461143f565b610cb9565b610229610224366004611237565b610d77565b60405161010c91906114f6565b610249610244366004611237565b610e19565b604051901515815260200161010c565b6101286102673660046112b6565b610ead565b61017761027a366004611237565b610f75565b600061028a82610d77565b80602001905181019061029d9190611509565b92915050565b6102ce82826040516020016102ba91815260200190565b6040516020818303038152906040526108f3565b5050565b600254604080517f410d59cc000000000000000000000000000000000000000000000000000000008152905160609273ffffffffffffffffffffffffffffffffffffffff169163410d59cc9160048083019260009291908290030181865afa158015610342573d6000803e3d6000fd5b505050506040513d6000823e601f3d9081017fffffffffffffffffffffffffffffffffffffffffffffffffffffffffffffffe01682016040526103889190810190611522565b905090565b60015473ffffffffffffffffffffffffffffffffffffffff163314610413576040517f08c379a000000000000000000000000000000000000000000000000000000000815260206004820152601360248201527f4f4e4c595f434f4e54524143545f4f574e45520000000000000000000000000060448201526064015b60405180910390fd5b60035460008281526004602052604090819020905173ffffffffffffffffffffffffffffffffffffffff909216916385edea13916104509161161b565b60405190819003812060e083901b7fffffffff000000000000000000000000000000000000000000000000000000001682526004820152602401602060405180830381865afa1580156104a7573d6000803e3d6000fd5b505050506040513d601f19601f820116820180604052508101906104cb9190611509565b156107685760035460008281526004602052604090819020905173ffffffffffffffffffffffffffffffffffffffff90921691636526db7a9161050d9161161b565b60405190819003812060e083901b7fffffffff00000000000000000000000000000000000000000000000000000000168252600482015260248101849052604401600060405180830381600087803b15801561056857600080fd5b505af115801561057c573d6000803e3d6000fd5b50506002546040517f4cc822150000000000000000000000000000000000000000000000000000000081526004810185905273ffffffffffffffffffffffffffffffffffffffff9091169250634cc822159150602401600060405180830381600087803b1580156105ec57600080fd5b505af1158015610600573d6000803e3d6000fd5b505050600082815260046020526040812061061c925090611164565b60005b6005548110156106dc576005818154811061063c5761063c6116ed565b6000918252602090912001546040517f4cc822150000000000000000000000000000000000000000000000000000000081526004810184905273ffffffffffffffffffffffffffffffffffffffff90911690634cc8221590602401600060405180830381600087803b1580156106b157600080fd5b505af11580156106c5573d6000803e3d6000fd5b5050505080806106d49061171c565b91505061061f565b506000546040517fd803064a0000000000000000000000000000000000000000000000000000000081523060048201526024810183905273ffffffffffffffffffffffffffffffffffffffff9091169063d803064a90604401600060405180830381600087803b15801561074f57600080fd5b505af1158015610763573d6000803e3d6000fd5b505050505b50565b60015473ffffffffffffffffffffffffffffffffffffffff1633146107ec576040517f08c379a000000000000000000000000000000000000000000000000000000000815260206004820152601360248201527f4f4e4c595f434f4e54524143545f4f574e455200000000000000000000000000604482015260640161040a565b610816817f4ede9a2d00000000000000000000000000000000000000000000000000000000610fa1565b61087c576040517f08c379a000000000000000000000000000000000000000000000000000000000815260206004820181905260248201527f476976656e2061646472657373206973206e6f7420616e20696e64657865722e604482015260640161040a565b600580546001810182556000919091527f036b6384b5eca791c62761152d0c79bb0604c104a5fb6f4eb0703f3154bb3db00180547fffffffffffffffffffffffff00000000000000000000000000000000000000001673ffffffffffffffffffffffffffffffffffffffff92909216919091179055565b60015473ffffffffffffffffffffffffffffffffffffffff163314610974576040517f08c379a000000000000000000000000000000000000000000000000000000000815260206004820152601360248201527f4f4e4c595f434f4e54524143545f4f574e455200000000000000000000000000604482015260640161040a565b6002546040517f1003e2d20000000000000000000000000000000000000000000000000000000081526004810184905273ffffffffffffffffffffffffffffffffffffffff90911690631003e2d290602401600060405180830381600087803b1580156109e057600080fd5b505af11580156109f4573d6000803e3d6000fd5b505060035460008581526004602052604090819020905173ffffffffffffffffffffffffffffffffffffffff9092169350636526db7a9250610a359161161b565b60405190819003812060e083901b7fffffffff00000000000000000000000000000000000000000000000000000000168252600482015260248101859052604401600060405180830381600087803b158015610a9057600080fd5b505af1158015610aa4573d6000803e3d6000fd5b50505060008381526004602090815260409091208351610ac99350909184019061119e565b50600354815160208301206040517f771602f700000000000000000000000000000000000000000000000000000000815273ffffffffffffffffffffffffffffffffffffffff9092169163771602f791610b30918690600401918252602082015260400190565b600060405180830381600087803b158015610b4a57600080fd5b505af1158015610b5e573d6000803e3d6000fd5b5050505060005b600554811015610c285760058181548110610b8257610b826116ed565b6000918252602090912001546040517f0216b83800000000000000000000000000000000000000000000000000000000815273ffffffffffffffffffffffffffffffffffffffff90911690630216b83890610be3908690869060040161177b565b600060405180830381600087803b158015610bfd57600080fd5b505af1158015610c11573d6000803e3d6000fd5b505050508080610c209061171c565b915050610b65565b506000546040517faf104e4000000000000000000000000000000000000000000000000000000000815273ffffffffffffffffffffffffffffffffffffffff9091169063af104e4090610c8390309086908690600401611794565b600060405180830381600087803b158015610c9d57600080fd5b505af1158015610cb1573d6000803e3d6000fd5b505050505050565b600354815160208301206040517f796c5e94000000000000000000000000000000000000000000000000000000008152600481019190915260609173ffffffffffffffffffffffffffffffffffffffff169063796c5e9490602401600060405180830381865afa158015610d31573d6000803e3d6000fd5b505050506040513d6000823e601f3d9081017fffffffffffffffffffffffffffffffffffffffffffffffffffffffffffffffe016820160405261029d9190810190611522565b6000818152600460205260409020805460609190610d94906115c8565b80601f0160208091040260200160405190810160405280929190818152602001828054610dc0906115c8565b8015610e0d5780601f10610de257610100808354040283529160200191610e0d565b820191906000526020600020905b815481529060010190602001808311610df057829003601f168201915b50505050509050919050565b6002546040517fcccf7a8e0000000000000000000000000000000000000000000000000000000081526004810183905260009173ffffffffffffffffffffffffffffffffffffffff169063cccf7a8e90602401602060405180830381865afa158015610e89573d6000803e3d6000fd5b505050506040513d601f19601f8201168201806040525081019061029d91906117d2565b60015473ffffffffffffffffffffffffffffffffffffffff163314610f2e576040517f08c379a000000000000000000000000000000000000000000000000000000000815260206004820152601360248201527f4f4e4c595f434f4e54524143545f4f574e455200000000000000000000000000604482015260640161040a565b600180547fffffffffffffffffffffffff00000000000000000000000000000000000000001673ffffffffffffffffffffffffffffffffffffffff92909216919091179055565b606061029d82604051602001610f8d91815260200190565b604051602081830303815290604052610cb9565b6000610fac83610fc4565b8015610fbd5750610fbd8383611028565b9392505050565b6000610ff0827f01ffc9a700000000000000000000000000000000000000000000000000000000611028565b801561029d5750611021827fffffffff00000000000000000000000000000000000000000000000000000000611028565b1592915050565b604080517fffffffff00000000000000000000000000000000000000000000000000000000831660248083019190915282518083039091018152604490910182526020810180517bffffffffffffffffffffffffffffffffffffffffffffffffffffffff167f01ffc9a7000000000000000000000000000000000000000000000000000000001790529051600091908290819073ffffffffffffffffffffffffffffffffffffffff871690617530906110e29086906117f4565b6000604051808303818686fa925050503d806000811461111e576040519150601f19603f3d011682016040523d82523d6000602084013e611123565b606091505b509150915060208151101561113e576000935050505061029d565b81801561115a57508080602001905181019061115a91906117d2565b9695505050505050565b508054611170906115c8565b6000825580601f10611180575050565b601f0160209004906000526020600020908101906107689190611222565b8280546111aa906115c8565b90600052602060002090601f0160209004810192826111cc5760008555611212565b82601f106111e557805160ff1916838001178555611212565b82800160010185558215611212579182015b828111156112125782518255916020019190600101906111f7565b5061121e929150611222565b5090565b5b8082111561121e5760008155600101611223565b60006020828403121561124957600080fd5b5035919050565b6000806040838503121561126357600080fd5b50508035926020909101359150565b6020808252825182820181905260009190848201906040850190845b818110156112aa5783518352928401929184019160010161128e565b50909695505050505050565b6000602082840312156112c857600080fd5b813573ffffffffffffffffffffffffffffffffffffffff81168114610fbd57600080fd5b7f4e487b7100000000000000000000000000000000000000000000000000000000600052604160045260246000fd5b604051601f82017fffffffffffffffffffffffffffffffffffffffffffffffffffffffffffffffe016810167ffffffffffffffff81118282101715611362576113626112ec565b604052919050565b600082601f83011261137b57600080fd5b813567ffffffffffffffff811115611395576113956112ec565b6113c660207fffffffffffffffffffffffffffffffffffffffffffffffffffffffffffffffe0601f8401160161131b565b8181528460208386010111156113db57600080fd5b816020850160208301376000918101602001919091529392505050565b6000806040838503121561140b57600080fd5b82359150602083013567ffffffffffffffff81111561142957600080fd5b6114358582860161136a565b9150509250929050565b60006020828403121561145157600080fd5b813567ffffffffffffffff81111561146857600080fd5b6114748482850161136a565b949350505050565b60005b8381101561149757818101518382015260200161147f565b838111156114a6576000848401525b50505050565b600081518084526114c481602086016020860161147c565b601f017fffffffffffffffffffffffffffffffffffffffffffffffffffffffffffffffe0169290920160200192915050565b602081526000610fbd60208301846114ac565b60006020828403121561151b57600080fd5b5051919050565b6000602080838503121561153557600080fd5b825167ffffffffffffffff8082111561154d57600080fd5b818501915085601f83011261156157600080fd5b815181811115611573576115736112ec565b8060051b915061158484830161131b565b818152918301840191848101908884111561159e57600080fd5b938501935b838510156115bc578451825293850193908501906115a3565b98975050505050505050565b600181811c908216806115dc57607f821691505b602082108103611615577f4e487b7100000000000000000000000000000000000000000000000000000000600052602260045260246000fd5b50919050565b600080835481600182811c91508083168061163757607f831692505b6020808410820361166f577f4e487b710000000000000000000000000000000000000000000000000000000086526022600452602486fd5b81801561168357600181146116b2576116df565b7fffffffffffffffffffffffffffffffffffffffffffffffffffffffffffffff008616895284890196506116df565b60008a81526020902060005b868110156116d75781548b8201529085019083016116be565b505084890196505b509498975050505050505050565b7f4e487b7100000000000000000000000000000000000000000000000000000000600052603260045260246000fd5b60007fffffffffffffffffffffffffffffffffffffffffffffffffffffffffffffffff8203611774577f4e487b7100000000000000000000000000000000000000000000000000000000600052601160045260246000fd5b5060010190565b82815260406020820152600061147460408301846114ac565b73ffffffffffffffffffffffffffffffffffffffff841681528260208201526060604082015260006117c960608301846114ac565b95945050505050565b6000602082840312156117e457600080fd5b81518015158114610fbd57600080fd5b6000825161180681846020870161147c565b919091019291505056fea264697066735822122001f93a8b66f0cc894b3e6515ab599fafbf30ad3941b5da9acfb089216a22815064736f6c634300080d0033608060405234801561001057600080fd5b50610418806100206000396000f3fe608060405234801561001057600080fd5b50600436106100675760003560e01c80634cc82215116100505780634cc822151461009f578063949d225d146100b2578063cccf7a8e146100c357600080fd5b80631003e2d21461006c578063410d59cc14610081575b600080fd5b61007f61007a3660046102e9565b6100e6565b005b610089610138565b6040516100969190610302565b60405180910390f35b61007f6100ad3660046102e9565b610190565b600054604051908152602001610096565b6100d66100d13660046102e9565b610286565b6040519015158152602001610096565b6100ef81610286565b156100f75750565b600080548282526001602081905260408320829055810182559080527f290decd9548b62a8d60345a988386fc84ba6bc95484008f6362f93160ef3e5630155565b6060600080548060200260200160405190810160405280929190818152602001828054801561018657602002820191906000526020600020905b815481526020019060010190808311610172575b5050505050905090565b61019981610286565b6101a05750565b600080546101b090600190610346565b815481106101c0576101c0610384565b906000526020600020015460006001600084815260200190815260200160002054815481106101f1576101f1610384565b6000918252602080832090910192909255828152600191829052604081205481549092919081908490811061022857610228610384565b90600052602060002001548152602001908152602001600020819055506001600082815260200190815260200160002060009055600080548061026d5761026d6103b3565b6001900381819060005260206000200160009055905550565b60008054810361029857506000919050565b60008281526001602052604081205490036102d45781600080815481106102c1576102c1610384565b9060005260206000200154149050919050565b50600090815260016020526040902054151590565b6000602082840312156102fb57600080fd5b5035919050565b6020808252825182820181905260009190848201906040850190845b8181101561033a5783518352928401929184019160010161031e565b50909695505050505050565b60008282101561037f577f4e487b7100000000000000000000000000000000000000000000000000000000600052601160045260246000fd5b500390565b7f4e487b7100000000000000000000000000000000000000000000000000000000600052603260045260246000fd5b7f4e487b7100000000000000000000000000000000000000000000000000000000600052603160045260246000fdfea2646970667358221220c6547a864e605f3bc98b16e7ab886da11ec7c63c3613d68f8fdca0d18c269aea64736f6c634300080d0033608060405234801561001057600080fd5b506104ca806100206000396000f3fe608060405234801561001057600080fd5b50600436106100675760003560e01c8063796c5e9411610050578063796c5e941461009457806385edea13146100bd578063a0265ff8146100eb57600080fd5b80636526db7a1461006c578063771602f714610081575b600080fd5b61007f61007a366004610379565b61010e565b005b61007f61008f366004610379565b61023d565b6100a76100a236600461039b565b610286565b6040516100b491906103b4565b60405180910390f35b6100dd6100cb36600461039b565b60009081526020819052604090205490565b6040519081526020016100b4565b6100fe6100f9366004610379565b6102e6565b60405190151581526020016100b4565b61011882826102e6565b610120575050565b6000828152602081905260409020805461013c906001906103f8565b8154811061014c5761014c610436565b6000918252602080832090910154848352828252604080842060018452818520868652909352909220548154811061018657610186610436565b6000918252602080832090910192909255838152600182526040808220848352808452818320548684528385529183208584529381905283549193909291849081106101d4576101d4610436565b6000918252602080832090910154835282810193909352604091820181209390935584835260018252808320848452825280832083905584835290829052902080548061022357610223610465565b600190038181906000526020600020016000905590555050565b61024782826102e6565b15610250575050565b60009182526020828152604080842080546001808552838720868852855292862081905585845291820181558452922090910155565b600081815260208181526040918290208054835181840281018401909452808452606093928301828280156102da57602002820191906000526020600020905b8154815260200190600101908083116102c6575b50505050509050919050565b600082815260208190526040812054810361030357506000610373565b60008381526001602090815260408083208584529091528120549003610355576000838152602081905260408120805484929061034257610342610436565b9060005260206000200154149050610373565b50600082815260016020908152604080832084845290915290205415155b92915050565b6000806040838503121561038c57600080fd5b50508035926020909101359150565b6000602082840312156103ad57600080fd5b5035919050565b6020808252825182820181905260009190848201906040850190845b818110156103ec578351835292840192918401916001016103d0565b50909695505050505050565b600082821015610431577f4e487b7100000000000000000000000000000000000000000000000000000000600052601160045260246000fd5b500390565b7f4e487b7100000000000000000000000000000000000000000000000000000000600052603260045260246000fd5b7f4e487b7100000000000000000000000000000000000000000000000000000000600052603160045260246000fdfea26469706673582212208ac071681a442452e594e13b42ce206d4ee65831e2da1341a4e07929ad4c191e64736f6c634300080d0033",
    "linkReferences": {}
  }
}